:100000000100000000000000000400000094511AEC
:100010001CF09FE51CF09FE51CF09FE51CF09FE5A0
:100020001CF09FE51CF09FE51CF09FE51CF09FE590
:1000300021420E4210CA040094C9040098C9040069
:10004000F0C90400F4C90400F8C90400FCC90400A4
:1000500009CA0400000000EA181701EA28008FE22C
:10006000000C90E800A08AE000B08BE001704AE24A
:100070000B005AE11117010A0F00BAE814E04FE231
:10008000010013E303F0471013FF2FE19CEE04007F
:10009000ECEE04000030A0E30040A0E30050A0E339
:1000A0000060A0E3102052E27800A128FCFFFF8A44
:1000B000822EB0E13000A128003081451EFF2FE1E3
:1000C00004309FE503308FE013FF2FE11D60040033
:1000D000002109A010B54CF050ED094C606002F011
:1000E00099FB02F095FB2068002803D000220D2127
:1000F0004CF046ED002010BD776C616E00000000F2
:1001000078EF04001F480121490341611E49016144
:100110001E49416105210161704710B500F0B2FA36
:100120001B4880214CF030ED1A48DC214CF02CEDBE
:1001300018481421DC304CF028ED16485021F030DE
:100140004CF022ED002010BDF8B50024124E134FE4
:1001500008E0C519686802F0E5FB6968012088407D
:10016000B060641CE00039580029F2D10C49172016
:1001700002F0D8FBFFF7C6FF0120C005B0600020E9
:10018000F8BD000080290080070000FF102000005B
:10019000F0FA0004F48C000400300080C071000408
:1001A0008F28000004490348086005490348086097
:1001B000704700008730000040630004F0780004BE
:1001C0004463000404490348086005490348086083
:1001D00070470000B33E0000E46600040D3E0000DE
:1001E000E866000410B519F0CDFC10BD284870B5C4
:1001F00001260021C6600160264831020079800690
:1002000000D42549224C0D040920603C2D0C00220D
:100210002900012360804CF0BCEC20801420A080D9
:1002200020007D211C30C90001804B214901418003
:100230002288AF21C900891A818018492288891A29
:10024000C18001004B220831D2000A80144A4A8042
:10025000144A2388D21A8A80134A2388D21ACA8061
:10026000A06140347D20400126606081E0802081D3
:10027000A0800320002229000123A0814CF088ECFB
:10028000E081200014213C304CF07EEC70BD000079
:10029000500E0500C41C010400010040BE0A00000D
:1002A0007E040000260200004E0C0000414810B5FC
:1002B0000068816801221204114381608168FF2275
:1002C0002032114303225203914381600100C03167
:1002D0000B68802213430B6080310B680224234398
:1002E0000B6040390B6813430B6041689200114367
:1002F00041604168D2001143416010BD09040143CF
:100300002C480068816170472A490968CA68120C44
:1003100012040243CA607047264909684A69120CF0
:10032000120402434A6170470904014321480068EE
:10033000C16370471F4909684A68120A12020243E2
:100340004A6070471B480068FF30413041681D22F9
:1003500091434160704717480068FF304130416861
:100360000222914341607047124800688030416822
:1003700006229143416070470E4A12688032536AE8
:1003800009011B0F1B0709090B435362116A400344
:10039000C90CC904400B0143116210681F210904F4
:1003A000884301210905401810601068490008437E
:1003B00010607047F0EF0400012109200007016080
:1003C0000021416070475D48016B80221143016349
:1003D0007047704710B5FFF7EFFFFFF7F4FF06F027
:1003E0000DF810BDFF2330B5C133202506F0D2F93A
:1003F0002C01052803D006F0CDF9012800D12300F7
:100400002900180006F0FFF94D488168210C1A35C3
:1004100001000000FC030000000400005AEF5E131E
:100420004F22D2059143816081680F22520291438D
:10043000052292021143816041680722D20591434F
:100440004160C1684323DB039943C1604168914324
:10045000416041490A6840231A430A600A682243FE
:100460000A600A6805231A430A60016820221143C2
:1004700001603A490020086030BD10B522F0BCF898
:1004800021F036FD1FF039FE354C0321200021F00C
:100490003AFD0321200021F039FD0321200021F045
:1004A00038FD0321200021F037FD7D24E4010021E7
:1004B000200021F028FD0021200021F027FD00214F
:1004C000200021F026FD0021200021F025FD254CF3
:1004D0000221200021F01AFD0221200021F01CFD44
:1004E00021480168214A1140016001680322520637
:1004F000114301600168020511430160416A0E2247
:100500001143416201681A4A11400160416889093A
:1005100089014160026841050A43026002680A439A
:100520000260502006F0C0F910BD7047704710B54A
:1005300006F05DFA0F4C002802D021F053FF01E0D5
:1005400021F053FFE06010BD0C490B480860704774
:10055000400C0090002900800023008000240080CF
:1005600080380100409C000000210080FFF7DF5729
:10057000FFDFBFFF28F00400B9630000AC5900049E
:1005800070B53C4C20680126B606B0432060206858
:100590007500A8432060642005F020FF20683043E8
:1005A000206020682843206021F08DF800F058FE7C
:1005B000002021F09DFEFFF760FF0020FFF713FFF2
:1005C000FFF712FFFFF718FFFFF7AFFF00F01FFE66
:1005D000FFF7ADFFFFF7AAFF002070BD10B500F0D8
:1005E0002AFF00F047FF4CF0E2EA21F03BFE00F06A
:1005F0008BF8002801D0012010BD06F0A9FB0020D7
:1006000010BD10B500F0DCFC1B480121490501605C
:100610001A4941601A4981601A48416B0822914386
:10062000416319480168194A11400160002010BD5A
:10063000002070479308002210B502E09400521C7D
:1006400001519A42FAD310BD0120114A00218006BF
:1006500010B5FFF7EFFF03220E4852020021FFF70B
:10066000E9FF00F0F3FE00F055FDFFF76DFF0020FD
:1006700010BD000080210080802900808080808063
:10068000800A808040A8008000280080FFCFFFCF34
:100690003459000000FA02C03EB500200122029049
:1006A000342102A822F070FA00281BD1144901203D
:1006B0000870029800F0BAFE124CFF252D35A522D5
:1006C000290020004CF076EA0C22042101920091CE
:1006D000029822000A212B0022F04AFB002801D0B8
:1006E00001203EBD00203EBD002810B500D1FEE730
:1006F0000068002800D1FEE722F0BDFA10BD00001E
:100700006CF00400800E050000B50D49002087B094
:100710004860020001001E2003AB07C30200094825
:10072000FF21CD316B4607C3A838074A002307A134
:100730004CF044EA0006000E00D0012007B000BDD6
:1007400074F0040088100500EF6C000049646C65CB
:100750000000000070B519484CF034EA17480C301E
:100760004CF030EA164E002425005C2060438119CD
:100770004D60355011484CF02AEA641C1A2CF4DB09
:10078000002070BD10490F4810B5086010490F488F
:10079000086011490F480860114910480860124963
:1007A0001048086012491148086013491148086050
:1007B000134912480860FFF70FFD10BD60A1000447
:1007C00008980004E56D0000B4620004E76D0000C5
:1007D000CC620004E96D0000BC620004F76D00000B
:1007E000B86200040D6E0000C0620004236E0000B9
:1007F000C4620004376E0000C86200044B6E000043
:10080000D062000412491148086013491148086079
:1008100013491248086014491248086039DEFCEB9D
:1008200001000000F80700000004000009358D7F7A
:1008300014491348086015491348086015491448BD
:100840000860154815494068086016491448086052
:1008500015490420086016491448086070470000D4
:10086000FB9C0100F462000493F80000F8620004AD
:100870004996F503D46200049D140200D862000476
:10088000758A0400DC6200048D830000E0620004CD
:10089000C1830000E4620004E43501C0EC6200049E
:1008A000F0780004F0620004E862000411630400C0
:1008B00034010500044932200860054903480860F6
:1008C00005490448086070471C630004658E0000F9
:1008D00018630004718E0000146300041A4810B5F8
:1008E000406906F027F910BDFEB5002517480570D0
:1008F000154C1748E06100F037F800281FD1144864
:100900002838A06120001830FFF7F8FE114E124879
:10091000C12231004CF058E90D481049D0386061CF
:1009200000220FA06B4607C320000B493200143091
:100930000B2306F0E3F8002801D00120FEBD0120C2
:10094000A562A0600020FEBD88F1040018780004B4
:10095000801405006C070000482201042B7E04006F
:100960004D4143205478000008B50C2200920948FC
:100970000422062303A106F019F9002800D0012063
:1009800008BD000054784D676D7438303231314DF8
:1009900073675100A4F104000A49022008600A4963
:1009A0000A2008600949042008600A4908480860CC
:1009B0000A49094808600B49094808600B490A4878
:1009C0000860704720630004286300042463000467
:1009D00069E401002C63000413CE000030630004BE
:1009E0003DC0000034630004E1B700003863000438
:1009F00007490C200870084906480860084907485C
:100A000008600949074808600949084808607047B4
:100A100050630004543802C05463000499C00000BD
:100A2000586300044DC200005C630004C1C20000B2
:100A30006063000407210848C90110B54CF0B8E80C
:100A4000054806492038086304480C22012130304B
:100A500006F0C3F810BD0000B08E0004F091000451
:100A600070B50024114D12481421AC604CF0A0E880
:100A70000F4814213C384CF09CE80D4814212838CC
:100A80004CF096E80A48142114384CF092E80848D3
:100A900069681430046144618461C46181600549FE
:100AA0000162054941624CF0A0E870BDF0F104001C
:100AB0003C020104D78A0400C5E20000024901207B
:100AC0000860024908607047B0630004AC6300042A
:100AD000034964200880034907200880704700000C
:100AE000C4630004C66300043EB50C221323274CE4
:100AF00025482061264D0092E868042225A106F0D1
:100B000055F821480C223C38E060009268680422C5
:100B1000062323A106F04AF828001822F038030023
:100B20000092012200213C334CF062E82800182298
:100B3000783803000092012200213C334CF058E841
:100B400011486438A0602868FFF7D8FD184D19488F
:100B5000A12229004CF038E81748184960600022AB
:100B600017A06B4607C32A001249201D0C2305F06D
:100B7000C5FF002800D001203EBD044810B54068E4
:100B800005F0D8FF10BD0000F019050088F2040040
:100B90001C1B050054696D657243624D73675100FB
:100BA0004D61634D676D74534D454D736751000042
:100BB000A4060000B4290104E4180500AB060100F6
:100BC0004D4143204D676D74000000000549044805
:100BD00008600649044808600649054808607047EF
:100BE000C91301002464000443130100E4630004FA
:100BF000831301002C6400040EB514F018F910489A
:100C0000002114F0C4F87D200001002200900C485F
:100C1000019202920B4A743000230BA14BF0ECEFCF
:100C2000642000220090064801920292AE39DD59FC
:100C300001000000F40B000000040000FD5AF8CB96
:100C40000A4AE83000230AA14BF0E0EFFFF7ECFA84
:100C50000EBD000070040104757D0100536C6565D4
:100C600070436F6E6669726D546D7200DD790100BC
:100C700041505F4E756C6C506B74446F6E65546D73
:100C8000720000000EB53C4800F01DF83A493A48A1
:100C900034314BF0C0EF39480022009036480192C1
:100CA0000292374AFC30002336A14BF0B0EF00220D
:100CB0006420019202920090364A3B48002336A1FC
:100CC0004BF0A4EF0EBD70B50400384A0021001DA2
:100CD0004BF0A4EF2000364A211D34304BF09EEF3C
:100CE00020004030334A211D05004BF098EF2000D2
:100CF0001030314A211D06004BF090EF20002F4AA2
:100D000031001C304BF08AEF20002D4A3100283092
:100D10004BF084EF20002B4A29004C304BF07EEF43
:100D20002000294A290058304BF078EF2000274A4C
:100D3000290064304BF072EF2000254A31009430D6
:100D40004BF06CEF2000234A3100A0304BF066EFEF
:100D50002000214A290070304BF060EF20001F4A2C
:100D600029007C304BF05AEF20001D4A29008830C2
:100D70004BF054EF70BD0000D8050104B80B000023
:100D8000757D0100536C656570436F6E6669726DA9
:100D9000546D7200DD7901004E756C6C506B7444BB
:100DA0006F6E65546D72000000070104A1510100CF
:100DB000F3560100F5580100975201005354010009
:100DC00047530100F55901008B5C0100C16401002B
:100DD000336E0100756D0100396F0100D57101009E
:100DE0008B7501000B490A4810B5886109480C222F
:100DF0000121183005F0FBFEFFF744FF00F090FDE5
:100E0000FFF704FF00F052FD16F07FFD10BD00005B
:100E1000BC1B050050F30400044903480860054961
:100E200003480860704700000CDFF503AC64000461
:100E300068070104B064000407490A2008600849F3
:100E400006480860084907480860094907480860DB
:100E500009490848086070473C640004EE1B05001F
:100E600040640004821E05004C6400047B6900009D
:100E70004464000469E40100486400043EB500F0E5
:100E8000E1FC002836D1FFF779FC002832D12F4C45
:100E90002D48E0620C222000009204222C30062310
:100EA0002BA105F08DFE28480C223C302063200049
:100EB0000092042230300A2329A105F081FE2B4D37
:100EC0002B48B12229004BF08AEE1F482949C83827
:100ED000A062002228A06B4607C3200024492A00F4
:100EE00028300C2305F014FE002803D1FFF77AFF09
:100EF00000203EBD01203EBD10B5144CA06A05F097
:100F000023FE11480C222038606320000121343078
:100F100005F06DFE10BD1B49194808601B491A48B1
:100F200008601C491A4808601C491B4808601D4994
:100F30001B4808601D491C4808601E491C48086081
:100F40001E491D48086070478C1F050094F304007B
:100F5000434250726F63534D454D7367510000001B
:100F6000434250726F634D7367510000A406000046
:100F7000E45105007DC4010043422050726F6300BC
:100F80005F120200646400049512020068640004A9
:100F90008D1202006C64000421F8000070640004EB
:100FA000D1A60200746400044D13030078640004A9
:100FB000753D00007C640004E33D00008064000493
:100FC0000249014808607047FFFF00008C6400047C
:100FD00052480321052201704270017102214271C1
:100FE00001730421417370474C48F8B50024183848
:100FF0000460FFF779F905F0EBFB49490D5C1FF040
:101000005DFA29004BF00EEE464E230032004BF005
:101010000EEE401C614105042D0C05F0D9FB424940
:1010200040000F5A05F01BFD39004BF0FCED23008A
:1010300032004BF0FCED401C61410004039A9055D6
:1010400001000000F00F000000040000AE802BA79C
:10105000000C2900FFF77AF905F0C4FB38490D5C54
:101060001FF036FA29004BF0E8ED230032004BF078
:10107000E8ED401C614105042D0C05F0B3FB31493E
:101080000F5C1FF025FA39004BF0D6ED230032003B
:101090004BF0D6ED401C61410004000C2900FFF725
:1010A0006BF90820FFF758F91FF012FA31004BF0E6
:1010B000CCED401C0004000CFFF756F91FF008FAB5
:1010C00005214BF0BAED204A23004BF0BAED19226E
:1010D000801861410006000EFFF754F9601E04F00D
:1010E00069FF04F08DFF04F09BFF402004F0AAFE8E
:1010F000FFF759F9FFF74EF904F0ACFF04F0D6FF03
:10110000FFF75AF904F0F5FF1FF0D9F904001FF0BA
:10111000FAF92100FFF758F930201FF0A5F9032054
:1011200000021FF0A1F9FFF75DFF00F00FF8F8BD16
:1011300050F4040058E9040040420F0042E9040062
:101140006EE9040063E90400C0C62D00704700008A
:1011500001490120087070473659000406490020F3
:101160000880704706490548086007490548086037
:1011700007490648086070474C2005000F1C020014
:10118000187100047F1B0200147100047D1B020013
:101190001071000410B5094C0020A0630749DF203E
:1011A0000002403108600648E0630648C0214BF069
:1011B00014ED0120A063002010BD000080380080E5
:1011C00000ADDEEF5C20050010B5002420F0A1F991
:1011D000410601D58406A40E20002F380C2800D328
:1011E000352405F04AFB2100072005F0C1FA04214F
:1011F000342005F0ECFA1221342005F0DDFA20212C
:101200001F2005F0D9FA0421532005F0E0FA05F07B
:101210002AFB10BD10B505F030FB8021392005F008
:10122000D6FA02213C2005F0A3FA8021392005F0EE
:10123000C3FA142005F0B5FAC006FAD553213A20B6
:1012400005F096FA05F00FFB10BD10B505F015FB83
:10125000EE21202005F08CFA90213D2005F088FA3F
:1012600005F0C0FA052803D005F0BCFA012807D123
:101270000321522005F07CFAAC21312005F078FAE8
:10128000F521332005F074FA05F0EDFAFFF79CFF25
:10129000FFF7C0FF00F062FA10BD0000F8B50020B3
:1012A000C043634C2060606062480168490849009F
:1012B00001606249604808606148002545606149F5
:1012C0008005E20B036880188842FBD300200D21C3
:1012D0008903036880188842FBD3012080060068D8
:1012E00005F0F6F8002021F093F8C72005F059FA30
:1012F000012630430100C72005F02CFAC72005F075
:1013000050FA022738430100C72005F023FAC8200D
:1013100005F047FAC007FAD0C72005F042FAB843F3
:101320000100C72005F016FAC72005F03AFA042795
:1013300038430100C72005F00DFAC82005F031FA46
:101340008007FAD5C72005F02CFAB84341084900B8
:10135000C72005F0FFF9002021F05AF8122005F00F
:1013600020FA802738430106090E122005F000FA02
:10137000122005F016FA002021F04AF8122005F09C
:1013800010FAB8430106090E122005F0F1F91220F7
:1013900005F007FA05F0D7F82B49086830430860D4
:1013A0002A4805732A490978007B2A49087D294A79
:1013B0003843203A5063087D4006FCD5087DB84389
:1013C000506305F05AFA82211F2005F0F5F98021BB
:1013D000272005F0F1F902214A2005F0EDF905F08A
:1013E00042FAE069000E0006E061E0691A4908432C
:1013F000E061A069012109030843A0611748C168A1
:10140000090A0902C160C16892221143C16005F056
:1014100093FA00280AD0124D124E0024A000295839
:10142000801920F09FFC641C032CF7D30020F8BD2A
:1014300000210080802B008011130100002A008011
:101440000023008000A002C0002D0080983EF560BF
:1014500001000000EC1300000004000011450E1410
:10146000E02A00900020009020240090E2361A002C
:1014700080280080900800801800F003342110B507
:101480004BF0F0EB10BD10B51FF05EFE37F0F2FB35
:1014900039F014FF39F048FF10BD00001649154817
:1014A000086017491548086016491E20086016494B
:1014B0000020C043086016491448086016491548C2
:1014C0000860704770B520210C484BF090EB2D213F
:1014D000084809014BF08AEB084A064C0020182105
:1014E000414395680919401C4D611E289160F6D34F
:1014F00070BD000030620500D05900040065050091
:10150000BC590004D4590004C0590004102700003D
:10151000C4590004CD2D0200C85900042A4A70B5F0
:101520001400503400231000946010305360D060D9
:101530000120010189180D00103D8D6048602035A3
:10154000401C0428CD60F4D3042050641E48303081
:1015500090643030D064A360E26001002039C36041
:1015600081601A491030086018480C22012105F0EA
:1015700052FB002070BDF8B50F00144D060000218D
:101580002868C94345F0C8FE0F495031CC680800AF
:10159000103084420FD0E068C86081600020A060F5
:1015A000E060286845F0BFFE60683A00310001F055
:1015B00019FA2000F8BD286845F0B5FE0020F8BDF6
:1015C00010B501F02DFA10BD9C2105002CF504008A
:1015D000074906480860084906480860084907485E
:1015E000086008498020086070470000A12F0200B1
:1015F000A8620004B32F0200AC620004A8790004C2
:10160000A0620004A462000410B5FFF771F910BDD8
:101610003EB5144C1248206120001030FFF78CF8C2
:101620004B252D011048D12229004BF0ECEA0C4843
:101630000E49A838E06000220DA06B4607C32000C9
:1016400009492A000C300B2305F076FA002800D057
:1016500001203EBD034810B5C06805F089FA10BDF1
:10166000D42205003CF5040058300104A5BD040057
:101670004D4143205478204E6F7469667900000014
:101680003EB50C221C481B49C1602031016120314C
:10169000416101210C3005F0BEFA17480C220021EF
:1016A000103005F0B8FA14480C220021143005F06F
:1016B000B2FA1048FF21213160304BF098EA232123
:1016C0000E4849014BF092EA0A48002118380222DC
:1016D0000160426001228160C2600182FF212531E8
:1016E000418207496C462CC92CC40099416127F0FE
:1016F00063FB3EBDE4160104787A0004641801041B
:1017000018EB0400014901200860704730F504001F
:101710000849074808600849122008600749202046
:10172000086008490648086008490748086070478B
:10173000E0EE01C084630004886300048C6300044D
:101740008560020090630004BF600200946300049F
:1017500004490348086005490348086070470000D1
:10176000A164020068630004B37202006C630004A9
:10177000F8B51A490868012210430860A525AD0094
:10178000110028004BF072EAFF264136012130009B
:101790004BF06CEAAF1E38004BF06CEA104C0100C5
:1017A0002070392000014BF062EA012128004BF043
:1017B0005EEA022130004BF05AEA38004BF05AEA58
:1017C0000100607007484BF052EA002130004BF0F6
:1017D0004EEA002128004BF04AEAF8BD002D0080B7
:1017E000F8F504009103000009490120800210B5BA
:1017F00008800849088009490748086009490848DD
:1018000008600A490848086000F012F810BD00009E
:10181000EC630004EE630004B177F003F0630004AE
:101820001378F003F463000469AF0200E06300047E
:10183000024901480860704725C40200086400049A
:101840000648142110B54BF0D2E904490448086059
:1018500002480C22012105F0DEF910BD56DF31E609
:1018600001000000E817000000040000429FDD783E
:10187000E44502C0EC24050010B52CF059F910BD68
:10188000084908B5064A08000092074B0822183894
:101890004BF0FEE9002801D1012008BD002008BD61
:1018A000A5DF0200783705009BDF020005490448E8
:1018B0000860064904480860064905480860704702
:1018C00027EA0200A064000467E90200E86300045C
:1018D00001EA02002864000402481C2110B54BF004
:1018E00090E910BD4038050070B50021154C144A30
:1018F000201D4BF0B2E92000134A211D10304BF09F
:10190000ACE920001C30114A211D05004BF0A4E970
:1019100020000F4A290028304BF09EE920000D4A94
:10192000290034304BF098E920000B4A2900403060
:101930004BF092E9211D20004BF08AE970BD0000B8
:10194000CFFA02006C3A0500EFFA020017FB020022
:101950006FFB0200CBFB02006FFC02000EB52748B4
:1019600000F012F82549254810314BF072E90420A7
:1019700000220090214801920292214A70300023F7
:1019800020A14BF062E90EBD70B50400214A002190
:10199000001D4BF062E920001F4A211D10304BF062
:1019A0005CE920004C301D4A211D05004BF054E934
:1019B00020001B4A290058304BF04EE92000194AFC
:1019C000290064304BF048E920001C30164A211DE4
:1019D00005004BF042E92000144A290028304BF062
:1019E0003CE92000124A290034304BF036E920004F
:1019F000104A290040304BF030E970BDB83A05007C
:101A0000757D0100536C656570436F6E6669726D1C
:101A1000546D72001DFF020035FF02007D020300BD
:101A2000B902030017030300CBFF02002B000300E1
:101A30003D01030089010300024901480860704725
:101A400010DCF503C8630004F0B5202000211E4A15
:101A500010601000C030876B006884461B4B4A0141
:101A6000D518FF330020A133D61882003C68AB188C
:101A70001C60B318401C000662461268000E08285D
:101A80001A60F2D3491C0906090E0D29E6D30F4C42
:101A90000F4D104E002007000C22424341010B194C
:101AA000B7509219401C49190006000E53600D28CA
:101AB0009160F1D3F0BD04480749C030086008497F
:101AC0000648086070470000843401C0A8E601C0E1
:101AD00048E801C0E8E901C0306400047D9A0300D1
:101AE000346400040249014808607047A10E0300F5
:101AF0005864000404490348086005490348086025
:101B000070470000B74500005C640004319B010091
:101B10006064000410B5904C8E4860612000143061
:101B2000FEF714FE30F004F9FEF7ACFFFFF7D4FE29
:101B3000FFF790FE4BF0B0E8FFF79EFE87480021CC
:101B4000FFF723FD86490028486004D00122406841
:101B50001100FFF73FFD7F480C22203820617E48AE
:101B60000121103005F061F8FEF7EEFAFEF776FB82
:101B70007C484BF096E8FFF767FFFFF78BFD78494D
:101B8000794808314860080005F019F932F04CF83E
:101B9000002010BD10B5FEF7CFFE00280BD1FFF7D7
:101BA00041FD002807D1FEF7C7FF002803D1FFF74A
:101BB00083F9002800D0012010BD10B5FFF705F80B
:101BC000FFF7B8F9FEF7B2FEFFF74EFD002010BD9B
:101BD000F8B50025654826F07BFB654C6649226810
:101BE0000092644A6548614B4BF05EE822680092BF
:101BF000634A64496448654B4BF056E8226800929A
:101C0000634A64496448654B4BF04EE82268009291
:101C1000634A64496448654B4BF046E82268009289
:101C2000634A64496448654B4BF03EE82268009281
:101C3000634A64496448654B4BF036E82268009279
:101C4000634A64496448654B4BF02EE82268009271
:101C5000634A64496448654B4BF026E82268009269
:101C6000634A64496448654B4BF01EE8E5E88C82A2
:101C700001000000E41B000000040000B6F0A8CC46
:101C800022680092634A64496448654B4BF016E849
:101C900022680092634A64496448654B4BF00EE841
:101CA000002804D0634800F01DFE05F00FF81BF07B
:101CB0004BFE002805D05F48401C00F013FE05F0E5
:101CC00005F8FEF7FFFE5C4E0024A0003058804768
:101CD000002800D00125641C052CF6D32800F8BD8F
:101CE00056493E4810B5086000F0F2F900F0B0F92E
:101CF000FFF79EFCFEF7C2FDFEF780FEFFF77CFCBF
:101D0000FFF7C2F8FFF700FF00F0A0F9FEF776FD3D
:101D1000FFF77EFD00F0BEF9FEF70CFFFFF70CFDAC
:101D2000FFF776F9FEF796FEFFF71DF9FFF7CDFEF8
:101D3000FFF78CFEFFF720FDFFF796F84AF0C2EFA1
:101D4000FFF7BEFD00F0B4F9FEF772FFFEF770FA80
:101D5000FFF7D2FEFFF7EAFCFEF7E2FE0DF0F2FA23
:101D600038F07AF8002010BDD03C0500203A01C0C0
:101D7000B741F503D4F704001C780004911B03005D
:101D8000C01401C07CF40400F40B0104FC780004CE
:101D9000F0780004580C0104B4790004A879000418
:101DA00080A201C03C7A00048C7900048079000490
:101DB000889A01C0040C010410790004047900041D
:101DC000005801C0140C010424790004187900049F
:101DD000006501C0480C0104A07900049479000456
:101DE00088580500347A00044079000434790004EE
:101DF0000C7A01C0387A0004547900044879000450
:101E0000FC8101C0300C0104687900045C79000495
:101E1000008A01C0DC0C0104187A00040C7A00046A
:101E2000C0D901C0980C0104DC790004D079000409
:101E300050BA01C02300010018010500B06200047F
:101E40000F483C2110B54AF0E6EE0D480021016034
:101E5000416081608161016201630A4A4163C2623B
:101E6000816300F03DF9084C0848EE2221004AF059
:101E7000DEEE0648064B042221004AF028EF10BD92
:101E80005845000423B90300DC050000386505004F
:101E900097FEF3031649154808601749154808606E
:101EA0001749164808601849164808601849174825
:101EB00008601949174808601949184808601A4904
:101EC000184808601A49194808601B4919480860F1
:101ED0001B491A4808601C491A4808601C491B48DD
:101EE00008601D491B480860704700004F720300DE
:101EF00060690004CB72030058690004D9720300C2
:101F00005C690004E7720300646900041D73030048
:101F10007469000435730300786900044973030091
:101F20007C6900046D730300706900040F75030081
:101F300068690004997303006C6900047B730300F3
:101F4000546900048973030050690004A5710300FB
:101F500090710004A57303008C71000404490348C8
:101F600010B54860080004F034FF10BDA9780300E4
:101F70006CF80400114910480860124910480860C4
:101F80001249114808601349114808601349124862
:101F9000086014491248086014491348086015493C
:101FA0001348086015491448086016491448086029
:101FB0001649154808607047BF7D03002C6900046E
:101FC000C17D03001C690004F77D03002069000443
:101FD000FD7D030024690004257E030028690004B8
:101FE0002F7E03003C690004497E03004069000421
:101FF0007B7E030030690004937E03003469000493
:102000005D7E0300446900046D7E030038690004AE
:102010000A480021C94300B5416000210160084819
:1020200001680122920511430160074905480880B3
:10203000091F088037F0FEFA00BD000078F80400A0
:1020400000210080FFFF0000500600907047000054
:1020500008490748086009490748086009490848CD
:1020600008600A490848086009491E20086070474E
:10207000219D030070630004479D03008799A88B8E
:1020800001000000E01F000000040000E52A7BA022
:1020900074630004579D030078630004739D03007C
:1020A0007C63000480630004044903480860044919
:1020B0007D20000108607047F07800040C64000483
:1020C0001064000404490348086005490348086097
:1020D00070470000F7AE0300A46400040FAF0300D4
:1020E000A8640004024901480860704799B00300E1
:1020F0005464000404490348086005490348086023
:102100007047000069BB0300406C00047DBB030006
:10211000446C000470B50024064D04E0401940688A
:1021200000F050FC641CE00029580029F6D170BD75
:102130007047000028FE040010490F4810B50860E1
:1021400010490F48086011490F48086011491048AC
:102150000860FFF719FFFFF7A7FE00F08BFB0F49A0
:102160000D4808600F490E4808604AF0BEED0F495F
:102170000D48086010BD00002D750300B069000413
:1021800035750300A86900043D750300AC690004BF
:10219000C9730300AC680004E5330400586D000403
:1021A000A13604005C6D0004C5580400D87000041A
:1021B000F7B5012082B00D0001900888460804F0B0
:1021C00098FA710002980F0004F0ECFA012409E07B
:1021D000029A6000295A8018801E0004000C04F046
:1021E000E1FA641CB442F3DD78194188029804F0E6
:1021F000D9FA04F0A0FA04F0A8FA462004F0F9FA9B
:1022000004990842F9D0000601D50020019004F09D
:10221000BFFA019805B0F0BD2B4970B5086B0E0CE4
:102220003043086304F091FA092004F0E2FA0C212B
:102230000143092004F0C4FA152004F0DAFABF21A2
:102240000140152004F0BCFA472004F0D2FA062120
:1022500005000143472004F0B3FA0024472004F0AE
:10226000C8FA641C0A2CF9DB2900F9200140472038
:1022700004F0A6FA462004F0BCFA102101434620DF
:1022800004F09EFA002004F0B4FA1049087001200E
:1022900004F0AFFA0E49087004F07AFA0D492022D2
:1022A0003000FFF785FF002807D003200A494022AD
:1022B0008003FFF77DFF002800D1FEE700F0D8FA89
:1022C000012039F0DFFD70BD00230080007600049E
:1022D00001760004F42200C0541100C070B59E497C
:1022E0009C4808609E499D4808609F499D48086039
:1022F0009F499E480860A0499E480860A0499F48A1
:102300000860A14C9F48A2492060A0480860A249EB
:10231000A0480860A249A1480860A349A1480860F4
:10232000A349A2480860A449A2480860A449A34858
:102330000860A549A3480860A549A4480860A549C4
:10234000A5481FF037FDA649A4480860A649A5483E
:102350000860A749A5480860A749A6480860A84999
:10236000A6480860A849A7480860A949A748086086
:10237000A949A8480860AA49A8480860AA49A948E4
:102380000860AB48A949C164AB4AC162A949116060
:10239000AB4AAA491160AC4AAA491160AC4AAB49A0
:1023A0001160AD4AAB491160AD4AAC491160AE4A0B
:1023B000AC491160AE4AAD491160AE490022AF4B45
:1023C0008A75AD491960AF4BAD491960AF4BAE4945
:1023D0001960B04BAE491960AF49B04B1960B14BB1
:1023E000AF491960B14BB0491960B24BB04919609F
:1023F000B24BB1491960B24B04211980B24BB149BB
:102400001960B2490161B34B0162B1491960B34B24
:10241000B1491960B34BB2491960B44BB249196064
:10242000B44BB3491960B44B05211970B44BB3498F
:102430001960B54BB3491960B54BB4491960B64B37
:10244000B4491960B64BB5491960B74BB549196025
:10245000B74BB6491960B749B84B0163B649196023
:10246000B7498164B84B8162B6491960B749416385
:10247000B749B84BC84D1960B84BB7491960B94B4B
:10248000B7491960B94BB8491960BA4BEDC91F7209
:1024900001000000DC23000000040000CDBBFE1D95
:1024A000B8491960BA4BB9491960BB4BB9491960B1
:1024B000BB49BA4B0B62BB4B4B62BB4B2B60BC4B5B
:1024C0004365BC4BBD4D8B61BB4B2B60BD4DBC4BC5
:1024D0002B60BE4DBC4B2B60BE4DBD4B2B60BF4D2A
:1024E000BD4B2B60BF4DBE4B2B60C04DBE4B2B6018
:1024F000C04DBF4B2B60C14DBF4B2B60C14DC04B7E
:102500002B60C24DC04B2B60C24DC14B2B60C24BE8
:102510002360C34CC14B2360C24B8B60C24BCB6169
:10252000C34BC2491960C34941614162C349C248B2
:102530000860C449C2480860C449C3480860C54926
:10254000C3480860C549C4480860C649C448086013
:10255000C548C7490270C5480860C749C5480860F2
:10256000C749C648086070BDF5C303005071000438
:10257000FDC00300DC6700040FC30300B46C00045B
:102580001BC30300B06C000423C30300E86F000406
:102590002DC00300C46F0004DDC30300CC6F000432
:1025A0004FCF0300A86B00042DC20300C86F0004C6
:1025B00005C40300506700040DC60300706F0004DB
:1025C0008FC60300946B000465C703009C6F000472
:1025D000C3C803007468000429C90300A06F000485
:1025E0005FC90300786F0004082C00D28014F20346
:1025F000F3C90300406800042FCA030010680004F8
:10260000F1CB0300B468000409CC0300A069000406
:1026100029CC03002C680004F1CC0300306F0004C7
:102620000DCD030080710004A5CD030020680004D7
:10263000C1CD0300286F00045FD40300A06A00042A
:1026400089D703005C600004DBD703008C6B0004B7
:10265000E9D703008C6A0004AFD20300E46B0004E6
:10266000D3D803005467000441DB0300EC6D000481
:102670002DDD0300706A0004BFDD03002467000441
:10268000A5D80300E0680004E05D0004ABDD0300B2
:10269000006A00049BDD0300887000045BE4030013
:1026A0006C6F00041FE30300F870000461E6030090
:1026B000F0700004BDE603002868000425E703006D
:1026C000046E000493E80300E46D0004F9E30300E2
:1026D000EC700004305F0004E9DD0300F46A0004DC
:1026E00001DE030035DF0300FC6B00046BE1030037
:1026F0006C6700046BE203008471000425EA0300A8
:102700009067000455EB0300706700041D5B000434
:1027100073EB0300C06F000457EC0300646800040F
:102720007DED03004C70000403EE0300086A000412
:102730000DEF0300F86A000437F00300EC6A0004B0
:10274000DBEF0300C86A00044DE1030047F003001B
:10275000586F000485F0030083F20300B46B00049B
:102760001DF303001DF503003C6F000441F6030058
:10277000506E0004C5FD030054700004C302040041
:1027800038680004FF030400CC680004130404004C
:10279000D46F00045B040400E46F000453040400DD
:1027A000085E00045704040019050400086B0004C7
:1027B0008F050400E304040067070400A06B000415
:1027C00051090400986F0004F5F7030074700004C9
:1027D00085FD030068670004C30804003870000426
:1027E00065090400E06E0004AD090400D470000423
:1027F000DB0A0400C06B0004E50B0400DC6B000482
:102800002D0E0400AC6B0004CF0E0400B06B00046E
:10281000F70E0400186B000433E40300290F0400D2
:1028200088680004390F0400C70F0400FB0F040080
:10283000246B00041910040057100400BC6B000442
:102840008B100400DC6D0004CF100400D86B000472
:1028500019110400E86B000485120400E06B000409
:10286000C1120400085D0004445E000473130400F8
:10287000C46D000401140400CC6B000417140400A0
:10288000B86B000470470000074906480860084913
:102890000648086008490748086009497152A88538
:1028A00001000000D8270000000400009E612D7187
:1028B0000748086070470000C7BB03005C6700045E
:1028C0007D5904004C6B00048B590400506B0004CC
:1028D00099590400486B00040020704710B5144C4F
:1028E000206800280CD101F02BFA2060114A202129
:1028F000A0604AF0AAE9104A606820214AF0A4E9E1
:1029000010BD10B50A4C2068002808D00022132101
:102910004AF09AE920684AF000EA0020206010BDE1
:102920000200034810B5006868214AF08EE910BD26
:1029300078EF0400E9610400076204000449054AD5
:10294000497812780120914200D0002070470000A1
:10295000000002900000029010B54AF00AE94AF027
:10296000E0E9002010BDFE4810B5006800022FD538
:10297000FC4CFD4A0020C11C0901616123698100F2
:102980005350031D1B01636123698918801C0C28A7
:102990004B60F0DBF548FFF7C3FF04F0B5F9FF210A
:1029A000F34A2D3102E0401C8842FCDB50780028BD
:1029B000F9D0F0486061F048206101204003606177
:1029C000EE482061EB48E03860610520206105E0B9
:1029D000E648401CFFF7A4FF04F096F9012010BD63
:1029E000E34910B5486004F0ABF810BD70B50400C1
:1029F000DE480D005830FFF793FF202C01D304F080
:102A000083F9DA485930FFF78BFFDD4EA4003059C7
:102A1000002801D004F078F901200004FFF780FFBE
:102A20000020355170BDD64A0021800011500800A9
:102A30007047D4480068002800D001207047026821
:102A40008368C1681000184770B5052804D2CE4DC0
:102A500084002B59002B01D0012070BD2C23CA4EBD
:102A60004343DC3E9B192B5135000401F0352851BE
:102A70006019C260816000214160C44919615861D8
:102A8000002070BDFEB50E001700052815D2BE4906
:102A90000201143155186968BB4B840000290DD11F
:102AA00001220197009602921859436902694AF07F
:102AB000F4E8002801D101206860FEBD18591D000E
:102AC0004AF032E928593A0031004AF032E92859EF
:102AD0004AF032E9FEBDA64970B50878401C0006F0
:102AE000000E0870012149044018FFF719FFA84D96
:102AF0006C6AE00705D04AF024E94AF026E9A817F5
:102B00006862A44EA0070CD5A86A02218843A86277
:102B10002020F060491F6962B1680143B1604AF04A
:102B200018E9600705D5A86A04218843A8624AF01D
:102B300014E920070AD5A86A08218843A8628020E2
:102B4000F060C9436962B1680143B160012070BDA2
:102B500070B501248F4D8440EC60002044F004FDEA
:102B6000A8682043A860012070BD70B50125894E7A
:102B70008540F56004007D480F3C5C30FFF7D0FED7
:102B8000002C01DA04F0C0F878485D30FFF7C8FE89
:102B9000022C01DB04F0B8F801200004FFF7C0FEAE
:102BA0007D4A0021A000821811607B4A40328018C3
:102BB0000162B0682843B060012070BD70B5012586
:102BC000744E8540F56003F063F90400400506D5B6
:102BD00002F050FC002802D02A2014F045FF6007C4
:102BE00003D503F071FB03F0A4FB200003F05BF9B5
:102BF000200003F05DF9B0682843B060012070BD8B
:102C0000F8B5664DEC68E00702D0A817E86004400C
:102C1000600704D50420C043E860042084432006F4
:102C200006D58020C043E8608020844303F04FF93C
:102C3000200709D50820C043E860082084431DF020
:102C400097FA082002F00BF9600604D54020C04333
:102C5000E86040208443A00606D52020C043E860F9
:102C60002020844302F0E5FA200407D50126F6036C
:102C7000300003F02CF9F043E860B4436003400FE8
:102C800006D00720000421000140C943E9608443C5
:102C90002002000F30D0200224D5414801684205AF
:102CA000114301603F480068002803D18DD648C514
:102CB00001000000D42B0000000400006A0E58C57B
:102CC00090008078800702D401200005044303F0BF
:102CD0003FF9002804D0012002F08EFA02F09EFA9B
:102CE0003648817C890889008174400C03F0A8F97A
:102CF0000120C00503F0F5F80F273F0526003E40F0
:102D0000300001F0E0FFF043E860BC43E000400F1A
:102D100009D00727BF0626003E40300001F02DFFF6
:102D2000F043E860BC43E00614D51020C043E860DF
:102D30001020844344F012FB00280BD00CF003FB5E
:102D4000002807D01D48817C8908890081741020E3
:102D500001F0A3FD002C06DA0120C00701F037FFC7
:102D600016488138E86010498868012292051043AE
:102D70008860F8BD0031008080290080003802C0E2
:102D800040000100B8710004F0200000FF0C0000BA
:102D9000070080FFF0FA0004A83D0104D08D000474
:102DA00067290000003400800030008040E8008087
:102DB0008022008000210080B0F3040080000080A9
:102DC000044B0122920510B5DA60FFF723FF0120C2
:102DD00010BD00000030008030B5040020202081AC
:102DE00065692018AD7905706469E47944700171F2
:102DF000090A4171110A8271C171190A8370C17087
:102E000030BDF7B5070048780E00097805020D437C
:102E10002035280034300104090C0022FF4849F015
:102E2000AAEF040021D028001430A0806761202779
:102E3000E0191421278149F052EF2B04029A1B0C50
:102E400014212000FFF7C8FF3420208120182A0019
:102E5000310049F094EF0021200043F0F2FA207B8A
:102E6000202804D1200043F0C9FA0020FEBD2781AC
:102E700046F087FB002802D0052014F0FFFD43F048
:102E800081FAE84B0500E64821001C680022006832
:102E90000523A047280043F079FA0120FEBDFFB5C5
:102EA0000120904083B0039F0406240EFF37613752
:102EB000F87B0E00150020422FD1FF2291324623CD
:102EC00001A902A80CF0D5FC002826D0F87B172118
:102ED0002043F873019C1034200049F000EF06985D
:102EE000002801D1052000E00D206072257220002D
:102EF000627A0C990A3049F042EF310006220C3117
:102F0000A01C49F03CEF607A01990A308872000AEF
:102F1000C872029903980CF077FC07B0F0BDF8B5C1
:102F200005000C00002743F02DFA0090E168A0682E
:102F300000232E005940584008433BD0A088A77971
:102F4000B94BC11940392A1A8C460100D2184031B8
:102F50005B009A4205D99A1CA84201D2AE1A00E041
:102F6000AE18664524DD8E4222DAB0420FDD801BAA
:102F70000604360CE168A068320049F004EFE16015
:102F8000B919A17101210843A580A06018E0301A89
:102F90000204120C974200D2A2710021012049F0D4
:102FA000F2EEA268E36810431943E160A06007E015
:102FB0000CF03AFD0020A5800121A071A160E06025
:102FC000009843F0E3F9F8BDFFB59FB00600080094
:102FD00037680021179121997C69002910D0403071
:102FE0001E9049F0D4EE229905004118C078203196
:102FF000400602D4B88823B0F0BD2888682801D8DC
:103000000020F8E719AA18910092219918981AAA95
:1030100017AB49F0C0EE280049F0C0EE002853D0AD
:103020008248002104AA01AB07C318AB804A009272
:103030001D7910AB1A7F38002B001AA949F0B2EEA7
:1030400005002DD12000FF306130C17B090624D559
:10305000002C0CD00521C9016118496A002906D04D
:1030600018AB1A79920068328B585B1C8B50C17B6D
:103070004906490EC1731E9849F088EE18AB1D79B8
:1030800021992A01521B52180E320092010010ABF6
:103090001B7F2A002000FFF702FF00203060AFE70F
:1030A000356028891E99401949F080EE0088A88073
:1030B0002000FF30613018AB1B7901268870363450
:1030C00001000000D02F00000004000039D48BA9BB
:1030D0003200C17B9A409143C1731DE010AB197F50
:1030E000009101952A8818991898643A091D1AAB1D
:1030F00049F06AEE06001CD0200018AB1A79FF30A8
:1031000061300123C17B93409943C17328880838FB
:103110002880B8880838B880002C08D00520C00165
:103120002018406A002802D0416E491C41663000D8
:103130006BE7002C14D00520C0012018416A00293B
:103140000ED018AB1A79920068328B585B1C8B50EA
:10315000416A0A69521C0A61406AC168491CC1601F
:103160001E9849F01EEE010018AB1879219A030150
:103170001B1A9A180E320092020010AB1B7F20001F
:10318000FFF797FED3E700280CD00521C9014118AD
:10319000486A002806D00269521C0261486AC16C64
:1031A000491CC1647047FFB583B004001E000C9F2A
:1031B0000E9D47F015F8002820D0607902281DD018
:1031C000082E1BD3082F01D30120B0E6380049F0A8
:1031D00000EE03008000B3250019AD00119A10998C
:1031E00040196D4607C55800B721001989004318DA
:1031F0000D9A0599049849F0F0ED98E60FA807C8D4
:103200006C462B0007C4F3E7F7B592B014000F002B
:10321000129800680D9000200A900D9845690800EA
:103220004030119049F0BCED0600243009900BE0CD
:10323000F07800047CEF0400F8F10400FF070000C0
:10324000303802C0F03501C028001BF0AAFC210074
:103250002C311091091D203700280F9122D0109891
:1032600007AA08A903AB07C36B46E0790F9A0107C9
:10327000387E090F4007400F07C30021B078099A34
:1032800003092800FFF78FFF00280BD0002D08D07E
:103290000520C0012818406A0028F8D0016D491C9B
:1032A00001658AE030886828FBD922004C326838F2
:1032B0000304111F081F0692021F05910490039238
:1032C0000C3938381C3A029101900092387E1B0C60
:1032D00047077F0F1A00099930003B0049F080ED45
:1032E0000700300049F064ED00283ED00AA90091A3
:1032F00000200BAA01920A900D9B099A3100380018
:1033000049F072ED002858D0614A0092614A624B40
:103310000D98310049F06CED002802D11299086037
:103320004BE012990600086001890818119949F0CC
:1033300048ED0E900A9800284AD00BAA00920999ED
:103340000E982300320049F058ED070040D1002DBF
:1033500008D00520C0012818406A002802D0016862
:10336000491C01600E98807922E0002F28D0380790
:10337000800F0FD0002D20D00520C0012918486AE9
:1033800000281AD0C26C521CC264486A0169491CE8
:10339000016112E0B80710D5002D08D00520C0014A
:1033A0002818406A002802D00168491C0160B079E1
:1033B000C107C90F280019F0EAFB002015B0F0BDC5
:1033C0003088143830800D980D99808814388880A2
:1033D000079C6B461A8C10990F98230049F010ED4A
:1033E000002F0AD1002D08D00520C0012818406AFE
:1033F000002802D0416E491C41660120DEE7F7B586
:1034000082B01400002502980768039801974030A5
:1034100049F0C6EC0600C0787F69400605D4203725
:10342000B87D400732D4012530E0002C02D10020C5
:1034300005B0F0BDA07AC00721D0E0790007000FE9
:10344000012805D10399220001A8FFF7DDFE05E060
:1034500003992200042301A8FFF7C0FD029905008B
:1034600001980860B079C00710D1002D0ED0A07966
:1034700080070BD52100380043F053FF06E00520FC
:10348000C0013818406A8168491C81602800CFE774
:10349000E43501C0EC3501C0303802C070B505001C
:1034A0000089441946F077F800280AD0607B217B18
:1034B000000208430B2804D00A2802D0052014F08B
:1034C000E7FA00222900FF480068FF4B6DB4B7C738
:1034D00001000000CC330000000400008611AE1A89
:1034E0001C680223A04770BDFD48010008394860F0
:1034F000FC4801214170002101707047F84900200B
:1035000008394860F749487008707047F5484178B5
:10351000002901D001210170704770B542F046FFCB
:103520000500F14849F07AEC0400280042F042FF1F
:1035300002250DE020002573FFF7BAFF42F036FFA9
:103540000600E94849F06AEC0400300042F032FF1E
:10355000002CEFD170BD70B542F028FFE14C0500A2
:103560006078002809D0DE4904200856411C04D0A8
:10357000811C02D0012149F056ECDC48007801287A
:1035800002D1142014F072FA00202072042007F0F7
:1035900053FFD748002200680C2149F074EBFFF775
:1035A000BCFF280042F006FF70BD10B5FFF7D3FF47
:1035B000CC49002008704870CE49086010BDC94849
:1035C000017A032901D0032101727047FF2800D03E
:1035D00008407047C84910B5096849F088EB7D225A
:1035E000D20049F024EC8905800A084301D049F053
:1035F000D8EA10BDF8B50025170004000E002A0017
:10360000002901D03089821943F056FE00287ED06F
:10361000B449087A03287BD00228FCD0600726D55D
:10362000002E2DD0507B117B05020D430B2D08D0B1
:1036300010DC032D0BD0082D09D0092D07D00A2D41
:1036400013D1AE48AE490088097808430BD0FF2457
:1036500005270EE0102DFAD0122DF8D04F2D04D1F1
:10366000FF24072705E004208443042701E0002EFF
:1036700006D0A006800F03D0507B117B05020D43BE
:10368000062F06D196480838406849F094EBC005EB
:1036900055D493480838406849F08CEB010020006D
:1036A000FFF794FF00284AD08E484030818A0029D5
:1036B00000D18782934F0024002D1BD0388800282A
:1036C0000ED0874904200856401C09D1080008384C
:1036D00040684079FFF77EFFFFF767FF3C8045E0D9
:1036E00042F064FE05008048310049F0A4EB280058
:1036F00042F060FE7A4D0420083D696802220856B7
:1037000078490A72411C07D0811C05D001E027E0EE
:1037100017E0002149F086EB68684079FF2828D03F
:10372000FFF758FF3888002823D043F0C5FD002854
:1037300003D0FFF73AFF3C801BE0388819E00020F7
:10374000F8BD600715D5002E13D042F02FFE0400FF
:103750006548310049F06EEB200042F02BFE08E096
:10376000600706D5002E04D0FFF7D7FE3000FFF724
:103770009FFE0120F8BD5B48582110B549F086EA4C
:1037800010BDF8B500200D00564F1600B88232E08B
:103790006878297800020843FF38163821D1E97883
:1037A000AA7809021143CC082800E200914218D1FE
:1037B000121D11040914B14213DC0821082C00D297
:1037C0002100CA00011D4748143049F0ECEA06E028
:1037D000E000C019002114300A0006C0641C082C47
:1037E000F6DBE978AA7808021043311A091F0E04A3
:1037F00036142D1D4519042ECADCF8BDFFB58BB05B
:103800000A2000261D000A9605900B983700406993
:10381000079046F0DDFB06900B980B990089441841
:1038200024314118E078C00701D1A01D01E020003B
:103830001230A27894461207930F012B04D16046F0
:10384000000908286BD01DE0920F02D14026092004
:1038500017E003882C4A934209D14388934206D14A
:103860008388934203D101263700300009E00078B5
:10387000C00703D008260327022002E002263700F3
:1038800003202880A0780007800F02287ED10D9A9F
:10389000002010700B98891D0A9140690290002841
:1038A0003FD01A4808900A98022208A942F0CDF9A0
:1038B000002836D1029843F033FD002803D0029847
:1038C000007A400704D4029805F00FFA002828D0A7
:1038D0000D98012101701BE07CEF040033A6900DD0
:1038E00001000000C837000000040000D5CB7D7641
:1038F000F8F1040018720004348E000480170500EB
:1039000088F2040078EF0400F0F30400C03501C031
:10391000DC1B050074F3040078F30400FFFF0000D3
:10392000888E00005448406849F04EEAC0057DD4B6
:10393000062028808AE007984079022841D10C9817
:10394000002825D00C9820300500007DC006800F8F
:10395000012807D90C98183049F036EA000701D53C
:10396000012200E00022A17800200B079B0F022B10
:1039700003D10909090700D50120024308D0287E98
:103980003E4A41072000490F0C3049F062EA059099
:1039900004A903AA0091112101920698490100E0AF
:1039A0000FE040180378059A0798210042F0B0FE16
:1039B0000398002802D00D9901200870049800286F
:1039C00041D02D48406849F000EA30423BD0A07811
:1039D0000007800F022839D1294EB08A002835D03F
:1039E000C120C0000025099028E0B84202D0254936
:1039F000884220D1E08A2349884207D021000A98D2
:103A00001631022242F02BF9002814D1A069401C83
:103A10001CD00A98022209A942F021F900280AD1F3
:103A20000A9821001A301831042200E00BE042F01D
:103A300016F900280AD06D1C082D04DAE800841954
:103A4000A08A0028D1D100200FB0F0BD0120FBE7F3
:103A500009480078C00700D00120704700B543F046
:103A600040FC002805D0FFF7F3FF002801D001201B
:103A700000BD002000BD00001072000424FF0004FF
:103A8000348E0004FFFF0000F3B589B00C000998E4
:103A9000002837D0207D0E2834D214264643B84D56
:103AA0002021A859401CA85101A849F0FAE820009B
:103AB00001A915F0D0F9677D607E00902068012192
:103AC0008068800000281FDB0098401C02062069E7
:103AD000120E002800D00021099815F053FF20692C
:103AE00001A9002824D10E2F05D2142078434019B3
:103AF0004268521C4260009800280BD170198168FE
:103B0000491C81600BB0F0BD2069002800D0002165
:103B10000022E1E700200206120E142353438A5CC0
:103B20005B199C68401CA2180E289A60F3D3E9E741
:103B3000E07D002804D070190269521C026103E084
:103B40007019C268521CC26000200206120E1423B3
:103B500053438A5C5B199C68401CA2180E289A602B
:103B6000F3D3CFE710B5FF2419348549220049F07B
:103B700074E98348210049F094E810BD70B50D0048
:103B8000002805D00521C9014018446A002C06D13F
:103B9000002D03D04C21280049F0BEE870BD794AC1
:103BA000D168794803685918764B0160403B21621F
:103BB000596B4668711841606162196B83685918C6
:103BC0008160A1621168C2685118C160002DA163B3
:103BD000E4D0A06C290049F008E96069291D49F08A
:103BE00004E92900A069083149F0FEE82900E069EC
:103BF0000C3149F0FAE82900206A103149F0F4E864
:103C00002900606A143149F0F0E82900A06A1831EF
:103C100049F0EAE82900E06A1C3149F0E6E82900A9
:103C2000206B203149F0E0E82900606B243149F035
:103C3000DCE82900A06B283149F0D6E82900E06BC8
:103C40002C3149F0D2E82900A06E343149F0CCE89B
:103C50002900E06E383149F0C8E82900206F3C3176
:103C600049F0C2E82900606F403149F0BEE815F024
:103C700088FC2900443149F0B8E815F07FFC2900A0
:103C8000483149F0B2E870BDF0B4002835D00522C3
:103C9000D2018218526A002A2FD04B7ED46AE418CF
:103CA000D4620C69002C23D10D68EC6DE678F60720
:103CB00007D0A6783607B60F022E02D1A67CF607EB
:103CC00002D1A479E40702D0946C641C9464D46B90
:103CD000641CD463AC68A4000DD4002B0BD0946991
:103CE000641C012B946106D9D3695B1C60BD12165C
:103CF00001000000C43B00000004000021A408C231
:103D0000D36102E053695B1C5361F0BCC6E6F0BCB2
:103D10007047002808D00522D2018018406A002888
:103D200002D08269511881617047002810B51AD0FD
:103D30000523DB01C318586A002806D04469641CB7
:103D40004461586AC36B5B1CC3630E290BD21420F9
:103D50004843104B1958491C002A195003D0C01869
:103D60000169491C016110BD002809D00521C90164
:103D70004018406A002803D080300188491C018027
:103D80007047FF210348193110B548F094EF002027
:103D900010BD000070FB000440A800808CEF040000
:103DA000AC207047010002A010B548F07CEF10BDB8
:103DB0007364696F00000000F7B515000600002469
:103DC000002A1FD1002E14D07079022811D002E0F1
:103DD000012002F037FF2000641C022807D20022D5
:103DE000FA48110048F0EEEF0500F1D00AE0002D8E
:103DF00008D10022F6481100032345F09EFC05007F
:103E000000D1FEBD6E61FFF7CBFF0004000C2881DE
:103E100008274419122120002F7348F088EF300042
:103E20001BF0E9FE20731220207100206071707970
:103E3000022803D1DF20A071002001E0380AA77119
:103E4000E071B0792070F0796070019812340460EC
:103E50002800FEBD10B504000321323048F066EFA3
:103E600020001C21353048F062EF2034A07D012174
:103E70000843A07510BD70B50400FFF7EBFF2000EC
:103E8000FF30FF220421953048F020EF2000FF2171
:103E900054304131050048F00EEFFF344134012128
:103EA00000206161A0612074280048F0E4EF70BD3B
:103EB0000B21890170B54418A16B00292ED100791E
:103EC000002803D0032801D0042827D142F082FA29
:103ED0000500C0480021FF2299324A438258002A37
:103EE0000AD1FF239933594301220E184250300062
:103EF000FFF7C1FFA66302E0491C0229EBDB2800A3
:103F000042F06CFAB448FEF73DFDA06B002801D1E9
:103F100002F02CFF01200004FEF734FD70BD0B21E0
:103F200089014018816B002902D000220A60826357
:103F3000704710B50289123112189170090AD170B8
:103F40000F2143F0E7F910BD0A000B218901411848
:103F500010B5896B263115F063FE10BDF0B58FB03A
:103F60000600149D159C1700092916D1382101A8B7
:103F700048F0A0EE04206B4698809848D88002A8AC
:103F800006223900801C1D8148F020EF04A82A0079
:103F90002100801C48F01AEF05E0230000222900D0
:103FA00001A848F06CEF300001A903F029FA0FB026
:103FB000F0BDFEB50C3A0D0014060600240E1021CB
:103FC000102C00D8210030000A00FF3029001930E1
:103FD0000831070048F0FAEEFF3601970094761C8E
:103FE0002B787069AA1C0921FFF7B8FFFEBD10B538
:103FF000040008004979C90610D5010060318A78AB
:104000004B78110219430922633048F03CEF002835
:1040100004D04278811D2000FFF7CBFF012010BDA6
:104020000B218901401810B5806B543048F02EEFF9
:1040300010BD7CB50C001500069900910B21079A64
:10404000890140180192806B2A003530210048F028
:1040500022EF7CBDFFB585B000220E001D00018956
:10406000446908180390200004A9FFF7A5FE070083
:1040700002D1012009B0F0BD0B2080010096261866
:10408000B26B0399130004982C33263248F006EFE4
:104090000498817C012910D0002200920192B26B19
:1040A000010013002C33263271312000FFF7C1FFCD
:1040B00004996031C873000A0874079904982B00AA
:1040C000012248F0F0EE01003800FFF732FF002037
:1040D000D0E70B229201801810B5806B353048F084
:1040E000E6EE10BD30B504000520C0012018002AFE
:1040F0008FB009D0002C10D0406A00282580FC2CFD
:1041000001000000C03F000000040000727EDBAE32
:104110000DD08030C5886D1CC58008E0002C06D00D
:10412000406A002803D0803045896D1C458101A874
:1041300048F0AEEE200001A903F06CF90FB030BDDD
:1041400070B505000B2080012C18A06B28220100FF
:10415000FF312931D83048F094EE01212800FFF7D3
:10416000C2FFA36B0100D83301222800FFF7C4FF70
:1041700070BD10B544692000FFF7E2FF0B208001FD
:104180002018816B0122C0310A61806BC030406908
:10419000002803D0817AFD2211408172002010BDD9
:1041A00070B5002145692800FFF79DFF0B218901AB
:1041B0006C18A36B0100FF335B1C00222800FFF783
:1041C0009BFFA06B0121C0308160A06BC030C26832
:1041D000002A03D1C16028001AF0C4FF002070BD7E
:1041E000A8790004DC780004BC0A050097000100EF
:1041F00004040000F7B584B005000E00476900898B
:10420000002240190290380003A9FFF7DFFD0400E7
:1042100002D1012007B0F0BD0B2000228001381828
:104220000092826B0299130003982C33263248F0D7
:1042300040EE3100039801224031002348F03CEE6B
:104240000700706F00280BD0607B0121084360736A
:104250000698002801D0FF4800E0FF48A06109E06F
:104260000698002803D0280000F00EFB02E028008A
:10427000FFF77FFF39002000FFF765FE0020C9E748
:10428000FEB500220E00018945690F18280001A91A
:10429000FFF79CFD040001D10120FEBD0B20002290
:1042A000800128180092826B019813002C3326326B
:1042B000390048F0FEED3100019801224031002321
:1042C00048F0FAED617B012211436173E349A1617A
:1042D00001002000FFF737FE0020FEBDF7B586B0D5
:1042E0000026069847690B2080013D18AC6B0698A4
:1042F0005434210048F0E8ED0028059016D0A86B52
:104300003A3048F0E6ED002829D0A86B3A3048F062
:10431000E4ED0028A86B04D04179801D15F0B0FCB5
:1043200002E0263048F0DCED060001D10020ABE6CB
:10433000A86B3A3048F0D8ED020021002000D431BB
:10434000503002AB07C322004032B43901920091D1
:10435000079A08992300300048F0CAED0126220090
:1043600021000698403220310023FFF77DFE00280F
:1043700001D0002614E0012E12D1002F09D0052013
:10438000C0013818406A002803D06030418B491CB6
:10439000418305992000093148F0AEED0020A06767
:1043A000300071E6F8B5060045690B208001281839
:1043B000876B30005437390048F0A2ED040001D17A
:1043C0000020F8BD20790122022800D00022390007
:1043D0003000FFF70FFF002801D02000F8BD002DAE
:1043E00009D00520C0012818406A002803D0603099
:1043F000418B491C418321000931380048F07CED94
:10440000DEE7F8B5070044690B2080012018866BB1
:1044100038005436310048F078ED050005D0310001
:104420003800FFF72DFF002801D00020F8BD002C38
:1044300009D00520C0012018406A002803D0603050
:10444000418B491C418329000931300048F054ED6B
:104450002800F8BDF8B505000E00008917004019C6
:1044600081790024090716D54079C00709D02800B2
:10447000FFF798FFF8BD642002F046F8641C24069C
:10448000240E3A0031002800FFF728FF0028F1D160
:10449000072CF0D3F8BD2800FFF7B3FFF8BDFEB539
:1044A0000C000600086F1700401C06D1E06E401C8F
:1044B00003D1200048F0E8ECFEBD41F095FF050077
:1044C00002E0002141F07FFF654848F0C6EC00287B
:1044D000F7D1280041F08CFF0022300001A9FFF73E
:1044E00075FC0500E8D00B20800136180094B26BF3
:1044F000019813002C332632390048F00AEDB06BD6
:104500003A3048F0F2EC0200B06B2030AADCD5ACB7
:1045100001000000BC43000000040000708703B8E5
:10452000417E807D0907CB0F8006C10F019848F0BE
:10453000FEECE06E401C0128E06602D1206F401CBA
:1045400020672100019801224031002348F0BEEC91
:1045500001002800FFF701FDFEBDFFB581B00C0092
:1045600005001F0048F0E6EC010028002200E51DD0
:10457000414E0123E032F935002801D1137705E0DF
:1045800002206B601077002060662066802902D1CF
:1045900048F0D0EC02E0080048F0D0ECE86848F0C1
:1045A000D2EC2300FF3303980D3332002100009733
:1045B00048F0CCEC05B0F0BDF3B581B006000B209F
:1045C00080013518A86B0400FF30553007000068E3
:1045D0005434002820D0FC20005D009018F06DFCC1
:1045E000029A21003000FFF764FF0098002814D0E1
:1045F000012811D1A86B214A2030017D0823491CD4
:10460000017500982100FFF7A8FF1D4A1D492000F1
:1046100008237E6148F09EECFEBD184A00982100F8
:104620000823FFF79AFFA86B2030C17C491CC17496
:10463000FEBD70B50E0011000B2292018418A56B0F
:10464000FF22543515325051A06B06222C3048F011
:10465000D2EBA06B06222630310048F0CCEB2800CC
:10466000094A0A49082313E03947000023400000A3
:10467000514000000002010400879303F93EF50356
:10468000409C0000253FF503809698004D3FF503C0
:1046900048F064ECADE5FFB581B0050016000A9F57
:1046A00042F066FE002885D02800FFF7CDFC0B20E5
:1046B00080012C18A06B0299801D320048F09AEB03
:1046C000A06B3A00467104992800FFF7B2FF71E72A
:1046D0000B2189014018806BFF3041308069000652
:1046E000000E70470B218901401808B5806BC08E01
:1046F000009008BD020010B542F03AFE00280BD031
:104700000B2080011018816B20314A7D5208520025
:104710004A75806BFFF7B2FB10BD0B218901401871
:10472000806B01222030417D114341757047F0B507
:1047300085B00E000B9915000A9F0C9A0400002901
:1047400002D1002004A904900B20800120180197B9
:10475000009303920291806B2B000100FF31953191
:104760003530320048F0FEEB24E7F0B506000B20B0
:1047700080013418A06B0F0041791500801D8FB0A7
:1047800015F088FA002810D001002B003A0001A88B
:1047900048F0ECEB300001A902F046FE3000FFF7D4
:1047A00053FCA06B0121C030C16014E470B505005A
:1047B0000B2080012C18A06B2030417DC90712D03E
:1047C000817DC9060FD5007E00220007C10F280099
:1047D000FFF7CBFFA06B01222030007E0007C10F46
:1047E0002800FFF7C2FF04E50FB50B21890140182F
:1047F000816B6B46FF319A8881318A82816B1A7A8C
:10480000FF3181318A75806B197BFF308130C17532
:104810000FBD30B50B24A4010019846BFF34813423
:10482000257D0D70647D4C70816BFF318131897DF8
:104830001170806BFF308130C07D187030BD30B595
:104840000B24A4010019846B2034A57D0D70E47D38
:104850004C70816B2031097E1170806B2030407E5E
:10486000187030BD0B21890110B54418A06B0028C9
:104870000BD0FF304130C069002806D048F062EB11
:10488000A06B0021FF304130C16110BDEAE70B2170
:1048900089014018806BFF306D30704710B50400FF
:1048A000FFF771FC2000FFF785FC002010BD70B5FC
:1048B000002503891C1866784369002E17D0032E43
:1048C00020D1002B09D00524E4011C19646A002CB6
:1048D00003D0803465886D1C65805B79022B02D122
:1048E00004F0C5FA01E0FFF7BFFD01250AE05879A1
:1048F000032801D0012805D12079012802D1080020
:1049000048F038EB280070BD10B515F0E5F900202F
:1049100010BD10B50400C0201BF0D2FE985762AB4A
:1049200001000000B847000000040000235DD0D45F
:1049300001F097FCE00602D518F044FB10BD18F01A
:10494000E2FA10BD10B501F049FB002804D00120A7
:1049500000F098FC00F0A8FC0020FFF7E4FF10BD79
:1049600070470000022910B505D0032903D004299F
:1049700001D0052903D1C04BFF21491C9960042AAD
:1049800005D0052A03D0062A01D0072A07D100281E
:1049900005D100210A2208000B0033F09AF810BD5F
:1049A0007047052803D2B5498000085C7047FF2096
:1049B000704710B50C000020FFF7F3FFA04201D1B3
:1049C00000F084FA0120FFF7ECFFA04201D100F0D3
:1049D00076FC0320FFF7E5FFA04201D1FFF7B2FF0D
:1049E00010BD10B50C000020FFF7DBFFA04201D185
:1049F00000F080FA0120FFF7D4FFA04201D100F0BF
:104A000063FC0320FFF7CDFFA04201D1FFF7A8FF11
:104A100010BD042910B507D004DC022904D00329F5
:104A200006D101E0052903D100F025FA002800D0C5
:104A3000012010BD022910B505D0032903D0042997
:104A400001D0052901D100F0C4F910BD022910B52B
:104A500005D0032903D0042901D0052901D100F094
:104A60006DF910BDFF280BD0844A00218B00D35C68
:104A7000834202D10806000E7047491C0529F5D370
:104A8000FF207047FF280CD07C4A00218B009B1828
:104A90005B78834202D18800105C7047491C05296D
:104AA000F4D3FF207047052804D2744980004018D1
:104AB00040787047FF207047FF280CD06F4A0021D4
:104AC0008B00D35C834203D1880080184078704704
:104AD000491C0529F4D3FF207047FF280CD0674AF2
:104AE00000218B00D35C834203D18800801880783A
:104AF0007047491C0529F4D3FF207047F7B582B0F1
:104B000007000E000C2901D2092F02D3002005B0A6
:104B1000F0BD00255949A8000A5CBA421ED14418CC
:104B2000A278B2421AD02806000E390001901BF07C
:104B300058FF002812D0A670E07804994007400F73
:104B4000C9000843E0700198320039001BF04BFFA8
:104B5000002808D0E07802210843E0706D1C052D84
:104B6000D8D30120D3E74548AA00FF21101881704F
:104B7000E0784007400FE070C8E7F0B50600080095
:104B80003E4F002204219300FC5CB44209D1DD19A0
:104B9000EC7823000B43002802D02300FB242340A1
:104BA000EB70521C052AEED3F0BD344A00218B0075
:104BB000D35C834206D188008018C0784007C017B4
:104BC000401C7047491C0529F1D30020704770B57F
:104BD00005000C00100001F079FA200001F0C7F97F
:104BE0002800FFF74FFF022805D0032803D0042830
:104BF00001D0052803D1200000F0ABF870BD2000E3
:104C00001BF0DBFD70BD70B504001D4DC00004D568
:104C10002A00A9040C20FFF7DAFF200105D50122A4
:104C2000D20211040B20FFF7D2FF600105D501214C
:104C30002A0089060A20FFF7CAFF70BD0120C003C1
:104C400010B501F03DFA0120C00701F087F90D48C9
:104C5000C16880221143C16010BD0120C00310B59E
:104C600001F034FA0120C00701F081F90549C86854
:104C700080229043C86010BD0030008050F40400D2
:104C80000004000000280080F3B581B00198FFF710
:104C9000E9FE04000198FFF70FFF05000198FFF7F8
:104CA0001CFF012706003F05032C02D1042D25D14E
:104CB0000BE0002C03D0012C01D0022C1ED12B1FA5
:104CC00048F066E90403080E141C102001F0FEF9F8
:104CD000380011E0202001F0F9F9012040050BE037
:104CE000402001F0F3F90120800505E00120800358
:104CF00001F0ECF90120C00501F042F9029800280A
:104D000016D10198FFF751FF002811D0331F48F04A
:104D100040E9060F0F0F0F07040F0021072005E0E1
:104D20006749A0004018C0780021C008F3B7D3EC51
:104D300001000000B44B000000040000D732A56061
:104D400048F0ACE8FF2201991000FFF73CFEFEBDE1
:104D50000800002110B5FFF7A1FF5F48817C89089A
:104D60008900817410BD10B50400C00203D5012173
:104D70000220FFF793FFA00203D501210320FFF7D4
:104D80008DFF600203D501210420FFF787FF200279
:104D900003D501210520FFF781FF01200007844290
:104DA00005D04010844202D0401084421AD1FF2026
:104DB0008206A11808D0891804D0C206891804D127
:104DC0000C2002E00B2000E00A20FFF765FE02281D
:104DD00005D0032803D0042801D0052802D10121E1
:104DE000FFF75CFF10BDF8B504000E0017000800C7
:104DF000FFF77DFE0500002C03D0012C01D0022C12
:104E00002BD13B1F48F0CEE804030C151E291020BF
:104E100001F060F9102001F069F9012000051AE0A5
:104E2000202001F057F9202001F060F90120400511
:104E300011E0402001F04EF9402001F057F9012027
:104E4000800508E00127BF03380001F043F938006E
:104E500001F04CF9780201F08BF82B1F48F0A2E822
:104E6000060F0F0F0F07040F0121072005E0194956
:104E7000A0004018C0780121C00848F010E8FF22C7
:104E800031001000FFF7B7FDF8BD70B50400002039
:104E9000032C1CD0002C03D0012C01D0022C15D1E6
:104EA0000E4D00222868462147F028EF00280CD13B
:104EB00028680022082147F022EF002805D1022CA3
:104EC00005D048F074E8002801D1002070BD012011
:104ED00070BD000050F40400800000805472000493
:104EE000022010B51BF000FC01F082F8002804D06D
:104EF000012000F0D1F900F0E1F9002108220800BA
:104F00000B0032F0F0FD10BD022010B51BF042FB8B
:104F100010BD70B50020FFF74EFD04000020FFF724
:104F2000CCFD050001201BF0DFFB9149C868102271
:104F30001043C8608F495004886001F007F90820C9
:104F400001F01FF82A0021000020FFF715FD70BDB9
:104F500070B541F067FA050087480068C00710D0B7
:104F60000020FFF7D6FF7D20C00001F0EBFA002003
:104F700048F020E8040002E0002048F01CE8A042CD
:104F8000FAD0280041F052FA70BD002010B5FFF7AA
:104F900012FD04000020FFF790FD02002100002018
:104FA000FFF75EFD10BD10B541F03CFA04007248F9
:104FB0000068800701D5FFF7E8FF200041F036FACE
:104FC00010BD002010B5FFF7F6FC04000020FFF72D
:104FD00074FD020021000020FFF725FD002800D00D
:104FE000012010BD38B501F003F8002826D1401E7D
:104FF00000906148614C0068C00711D06068401C97
:1050000018D0A0681BF0D1FB5D4947F0B4EE0090CA
:105010006168884201D3002000E0081A009009E08E
:10502000684632F052FB00280CD0009860601BF0FC
:10503000B8FBA06021780098884203D3FFF7C1FF36
:10504000002801D1002038BD012038BD4A4810B5E4
:105050000068C00705D0FFF7C5FF002801D0012078
:1050600010BD002010BD002010B5FFF7A4FC040007
:105070000020FFF722FD020021000020FFF7E4FCE2
:1050800010BD10B5FFF79DFF002804D0002032F0BE
:10509000BFFD002801D1002010BD012010BD364801
:1050A00010B5006880070DD436480078022809D171
:1050B000FFF7CCFF002805D0FFF7E3FF002801D061
:1050C000FFF7D1FF10BD70B50020FFF774FC04009E
:1050D0000020FFF7F2FC2C490500096817204883DF
:1050E000082000F045FF01F029F801F01FF82149E0
:1050F00001204005C8602A0021000020FFF75AFC6B
:105100001B48C16810229143C16001201BF042FA84
:1051100070BD70B5184D2868C00703D1FFF762FF56
:10512000002804D0012032F043FB00280BD0134CA0
:10513000E0681BF03AFB1549884204D94D71837031
:1051400001000000B04F00000004000084E8760C6D
:105150001BF031FBE06032F056FA2868C0070FD12F
:10516000FFF74AFF00280BD041F066F90400FFF773
:1051700043FF002801D0FFF7B0FF200041F060F9A5
:1051800070BD0000002800800030008038F404006A
:10519000A8EF0400E204000066F80400AC5F00041D
:1051A00080841E00F8B541F047F9C74D0700286814
:1051B000002830D101F001FC86211F2001F09CFB6A
:1051C00001F0F1FBC14E7068012109070843C910C5
:1051D0008843706000F084FF040000F081FFA0426B
:1051E000FBD070680921490608437060B8494868D7
:1051F000402290434860B649803908682022904395
:10520000086001F0DAFB0821202001F080FB01F0AA
:10521000CAFB01202860380041F012F9F8BDF8B54A
:1052200041F00AF9A84D0090286801283AD101F010
:105230009CFC002807D101F0C0FB0821202001F0D0
:105240005BFB01F0B0FBA2498039086820221043C3
:1052500008609F4841684026B14341609B4F786891
:10526000D1050843C9108843786000F039FF040075
:1052700000F036FFA042FBD00A2001F06DF99449FE
:105280004868304348607868092149068843786057
:1052900001F093FB04211F2001F039FB01F083FB97
:1052A00000202860009841F0CBF8F8BD10B504004C
:1052B0000120FFF78AFB002C05D186490968CA073F
:1052C00005D0490603D5062801D0FFF7CBFC10BD59
:1052D000012010B5FFF779FB062803D000F092FEFD
:1052E0000028FBD110BD082010B51BF007FA10BD37
:1052F000082010B51BF058F910BD38B500200090FB
:105300000120FFF762FB04000120FFF7E0FB05002E
:1053100004201BF0F3F9FFF782FF00F067FF202065
:1053200000F039FE00F036FF684634F087F80121BE
:10533000694AC906002800D0009891602A0021001F
:105340000120FFF723FB38BD10B541F075F80400CC
:1053500060480068400702D50020FFF7CEFF20001C
:1053600041F06EF810BD012010B5FFF72EFB0400D0
:105370000120FFF7ACFB020021000120FFF75DFBDD
:10538000002800D0012010BD08B5684634F052F85E
:10539000002803D0FFF7E7FF002801D1002008BD57
:1053A000012008BD4B4810B50068400705D5FFF740
:1053B000EBFF002801D0012010BD002010BD70B50A
:1053C0000120FFF702FB04000120FFF780FB05002E
:1053D0000020FFF7FAFAA04204D02A0021000120A1
:1053E000FFF73CFB70BD3B4810B50068000709D4CF
:1053F000FFF7D8FF002805D0FFF7B5FF002801D040
:10540000FFF7DDFF10BD10B500F0D6FE3348416850
:10541000334A114041602D4C206840084000206014
:10542000606828218843606001F026FB002803D1D2
:10543000606802218843606010BD38B5002000908C
:105440000120FFF7C2FA04000120FFF740FB05002E
:10545000202000F097FD00F0C0FE1F490120C0068B
:10546000C860684633F0EAFF002808D1FFF7CBFF99
:1054700033F0F4FF002808D0FFF794FE05E0009811
:10548000002800D0012000F02DF82A002100012082
:10549000FFF79AFA04201BF087F838BD0D4810B5C5
:1054A000006840070FD4FFF76FFF00280BD040F0D3
:1054B000C3FF0400FFF768FF002801D0FFF7BDFF1E
:1054C000200040F0BDFF10BDB8EF040000280080B0
:1054D0008021008038F40400003000800029008022
:1054E000FDFF7FCC10B500F055FE10484168104A12
:1054F00011400722D2051143416001F036FB0D4CEB
:10550000002803D120680C490843206060683C21D2
:1055100088432C30606001F0AFFA002804D1606845
:1055200080088000801C606010BD000000290080A1
:10553000FDFFFFCF0028008001000100FF48406808
:105540007047403010B547F07CEC80780F3EFDC2CC
:1055500001000000AC530000000400003B2D53BFCD
:105560000107890F022908D10009042805D00C2859
:1055700003D0F8494869401C486110BDF549086AE4
:10558000496A704710B51EF0D7F8002809D040F0DE
:105590005DFFEF4A117C002901D0491E117440F0D3
:1055A00059FF10BD70B5022044F0B0FD07E02000A7
:1055B00013F0E0FCE279A179200018F03EF8040035
:1055C000F5D144F0A3FD002801D013F0D3FC012055
:1055D00000F0A3FFE0490869022290430861DC4C17
:1055E0000025A561DD48257460611EF0BEF8656187
:1055F00070BDF3B5040083B047F0F4EC0090D448DC
:10560000D34D2038007E0E00603D0027002843D196
:10561000D0492A69086A496A6B69121A8B411ED2FD
:10562000009A28696969801ACD4AB1418518E069F4
:105630007941010604D5A581E58147F0D8EC06E063
:10564000800605D5A581E58147F0D0EC40002D1AF4
:10565000E069012189020843E0616068858004985F
:105660000006000E21F052F880020190B8483A2757
:10567000E75F4069009AFB17C11780187141C01B92
:10568000019A99410023801A9941616120616088E3
:105690000121C9030843608005B0F0BDF8B50400DE
:1056A0000E0047F0A0EC009030060D00000E21F037
:1056B0002DF861680127897800230A07920FFF03FC
:1056C000022A0ED10E09042E0BD18602A048009AA0
:1056D000603880690021808880186941801B994169
:1056E0000EE0012A11D109090E290ED1009A80027B
:1056F0001E00101A2B00B34164221900801871415A
:1057000061612061608838436080F8BDF8B58446E7
:105710000C00C869C10407D5218D89054D0E2821CB
:10572000095DCE07F60F14E000231A006778E66AD9
:10573000190008E08B009B191B68491C1D012D0FE7
:10574000AA180E2901D29742F4D299054D0EDE0710
:10575000F60F0204120C2900604620F095FF0700A6
:10576000012E02D10E352D062D0E60680123028810
:10577000E0690104090C280047F0DCEA7949C01906
:10578000096B08186087F8BDF8B5022044F0BEFC2C
:105790000500FF21744800222D3147F050EB060030
:1057A00079D00221AC20317334183081A078F322F3
:1057B00080088000104008300207120F4032A270AB
:1057C000E078062240084000084383210840E0704A
:1057D0002F20000129180D00A01D47F034EB2000F8
:1057E000062229000C3047F07EEB2000062229001B
:1057F000123047F028EB00211C2021803518308121
:105800007021280047F092EA514A2F001620603795
:10581000EC65603A78725088A87010004030017EC4
:10582000002904D0C188A1808089A87002E0906915
:10583000C088A080022044F069FC70614B48007968
:10584000800607D4A878002804D0A8680121890719
:105850000843A860082015252D0238721BF0E6F9D0
:105860000124002804D0012000F032FB39480460F4
:105870002900300021F021FB37490869022210433A
:105880000861334801001C3184614868401C48604D
:105890000120F8BDFFE72E491C318868401C886054
:1058A0000020F6E72B4910B58A68002482421ED1F9
:1058B0000020886026488069002803D1FFF764FF34
:1058C00004000AE02A4801694069814205D029485C
:1058D00007220068012141F0BBFD1D492039087EE7
:1058E000002804D0002C03D12D2012F02BF910BD7C
:1058F0000128FCD10220087610BD10B5154CE168D6
:10590000814204D1302012F01DF90020E06010BD6A
:10591000F8B5002506000E48856147F064EB0D4C94
:10592000616220621BF082F92168084303D00020E5
:1059300000F0CEFA2560002E04D005491C3108681D
:10594000401C0860024D203D287E0228A1D113E0B2
:10595000500E0500C0EF0400C0A200808035D89230
:1059600001000000A85700000004000068F780D381
:10597000FFFFFF7FA60E000040A6008018790004FC
:10598000C41C010400A000804CF50400012000F0BC
:10599000CEFDE06847F008EB08220092EA88FE4856
:1059A000FE4B002147F004EB032028767BE7F8B597
:1059B000022044F0B5FB050047F01EEBF74C070052
:1059C0000E000C3C803508E0A88BA26A8002E36AD6
:1059D000C11780185941E162A062A26AE36AD21B32
:1059E000B341F1D3E16AA06A5DE7FEB547F004EB8D
:1059F0000C00009040F034FDE849E94D01900C396D
:105A0000287C8969084326D128002038017E0700B8
:105A10000026403F002904D080887B6D3A6D31001C
:105A20000AE01DF047FE002801D168690AE0B86964
:105A30007B6940883A6931008018009A5941801A80
:105A4000A1416861002806DD21F0E8FB002802D0B2
:105A5000287C401C2874019840F006FDFEBDF8B576
:105A600047F0CAEACE4ACD4E603A51650C3E106509
:105A7000B06847F09AEACA4C203C207E002872D0D9
:105A80001BF0E4F87D256D0100282DD01BF040F9B6
:105A9000002817D01BF00CF9002813D1E088C14969
:105AA000FF30F5300004000C8842E08000D9E1802E
:105AB000A088FF38F5380004000CA842A08052D21C
:105AC000A58050E0E08864380004000CA842E08023
:105AD00000D2E580A088B44964300004000C8842FC
