:1000000001000000000000A0000200000AB6BD1BB5
:100010001CF09FE51CF09FE51CF09FE51CF09FE5A0
:100020001CF09FE51CF09FE51CF09FE51CF09FE590
:10003000071D0F0120300200A42F0200A82F02008C
:100040000030020004300200083002000C300200D0
:1000500019300200000000EACD8A00EA28008FE291
:10006000000C90E800A08AE000B08BE001704AE24A
:100070000B005AE1C68A000A0F00BAE814E04FE20A
:10008000010013E303F0471013FF2FE1B833020020
:10009000F83302000030A0E30040A0E30050A0E3EA
:1000A0000060A0E3102052E27800A128FCFFFF8A44
:1000B000822EB0E13000A128003081451EFF2FE1E3
:1000C00004309FE503308FE013FF2FE1892D0200FC
:1000D0001E480121490341611D4901611D494161DA
:1000E0000521016170471C48802110B549F37EEB62
:1000F0001A48582149F37AEB194800210A0006C032
:1001000020211648583049F372EB002010BDF0B59D
:100110000024134F134E083708E0C519686801F032
:10012000B0FC696801208840B060641CE000395868
:100130000029F2D10C491F2001F0A3FCFFF7C8FFF2
:100140000120C007B0600020F0BD000080290080C1
:10015000070000FF1020000074340200F00F0004BC
:10016000580E0004009000A8031A0000554804220D
:100170000621027041700271417102724172704732
:100180005048F8B50024001F046000F014FB05F08F
:1001900052FA4D490D5C01F006FE290049F36EEC60
:1001A0004A4E2300320049F3E8E8401C614105044F
:1001B0002D0C05F040FA464940000F5A05F0F3FABD
:1001C000390049F35CEC2300320049F3D6E8401CC7
:1001D00061410004000C290000F0FCFA05F02BFA44
:1001E0003C490D5C01F0DFFD290049F348EC230098
:1001F000320049F3C2E8401C614105042D0C05F0B2
:100200001AFA35490F5C01F0CEFD390077165BF123
:1002100001000000FC0100A000020000CE6362307B
:1002200049F336EC2300320049F3B0E8401C614149
:100230000004000C290000F0EEFA082000F0DAFAC1
:1002400001F0BBFD310049F33EEC401C0004000C02
:1002500000F0D9FA01F0B1FD052149F31AEC244A66
:10026000230049F394E81922801861410006000E2A
:1002700000F0D7FA601E04F017F8FF24641C200079
:1002800004F00CF8200004F015F804F025F804F050
:1002900037F8402002F038FC00F0D4FA00F0C9FA38
:1002A00004F048F804F072F8C02001F07BFD04F07F
:1002B000B9F804F0C9F804F0D0F804F0E0F8302000
:1002C00001F070FD0320000201F06CFDFFF758FF04
:1002D00000F082F9F8BD0000346000B02C0000048A
:1002E00040420F00160000044200000437000004E2
:1002F000C0C62D0010402DE9AB8B00EB78409FE588
:10030000000094E5000050E30300000A640100FAD5
:10031000000094E5000050E3A58B001B020200FAE8
:100320000000A0E3A51500FB8F0100FA0000A0E388
:10033000550100FB550100FA000094E5000050E370
:100340004601001BA90100FBD90100FB000094E558
:10035000000050E30100000AA50100FB041600FAAA
:10036000A30100FA00000FE1BF0000E200F021E16C
:10037000FD1400FA0000A0E31080BDE8746D00B029
:1003800010B500F097FC05F0FFFA00F06DFC0028B6
:1003900001D0012010BD05F023FE002010BD10B5D6
:1003A000FFF7F8FE22F082FD0400012003F026FF93
:1003B000200022F07FFD002010BD10B502F046FDA8
:1003C00010BD9308002210B502E09400521C0151A8
:1003D0009A42FAD310BD064A0648002110B5FFF72D
:1003E000F0FF00F015FB00F09BF9002010BD0000AD
:1003F00038550000748E0004F8B505F036F9050094
:1004000087480168022211430160016808231943EB
:10041000016083494031CB681343CB60807EE8475D
:1004200001000000F80300A0000200003A8BDC8D00
:10043000436813434360CA6840263243CA60CB68AE
:1004400080221343CB60016831430160016811438E
:100450000160416831434160416811434160764C1D
:1004600020681E2188432060744FF96A2020814350
:10047000F96204F0F1FE022005F093F8000604D5BD
:100480004021272005F0CAF803E00321092005F0E8
:10049000DBF8A80703D4B86801210843B8606848AE
:1004A000C16B0122D2059143C163C16B0322D20407
:1004B0001143C1630721082005F0C6F80321072076
:1004C00005F0C2F804F0F7FE2068E02188432060C0
:1004D00060691521884360616069B043606160694B
:1004E0000121890688436061606905210907884305
:1004F0006061E06953490840E061E06940084000FC
:10050000E061E0691027B843E06103F08DFF4E4AD7
:1005100010682021084310604C4A10680421884369
:1005200010604B480D21006889014018016852068F
:1005300011430160A069B043A0616068454908406B
:1005400060606168444801406160A168434A1140AD
:10055000A160A1680140A160E168414A1140E160E9
:10056000E1687A039143E160E1680140E160374A64
:100570001820C043C03A1168014039431160394A1C
:10058000A906116803D501400820014301E001409C
:1005900039431160344801690904090C016141695A
:1005A0000904090C416181690904090C8161E06950
:1005B000012189038843E061E06989008843E061A3
:1005C000E06909118843E061E069052109060843F3
:1005D000E06103F09FFFF8BD10B500F008F8234874
:1005E0000068002801D0FFF711FF10BD70471248C6
:1005F0000168032212029143016041694201914363
:10060000416141694200914341618169C200914366
:1006100081610F480068016F012211430167016F7A
:10062000022291430167C0300168D2062392E201A1
:1006300001000000F40500A000020000237302FD89
:1006400011430160704700000023008000280080F3
:100650000029008000910090FBFBFFFF0027008035
:10066000403D0080886000B0DFFFD5FD7FFF7FFF49
:10067000D5FDD5FDD5FDD7FDC03C00800022008012
:10068000746D00B0084810B50168084B0A000C31C1
:1006900008001960111D5960202149F3C6E804497A
:1006A000022002F045FC10BD58CF00B07C6000B0C5
:1006B000E1370000F8B5002425001C48A7001426E7
:1006C0006643C5511A481421301849F3AEE818485A
:1006D00014211430301849F3A8E8154814212830A3
:1006E000301849F3A2E8114830222838C15910487F
:1006F00062433C301018C4608160456185610D49DA
:10070000C56101610C4901620C498562416206F3D1
:10071000CBFB641C012CD0DB0949082001F0CFF988
:100720000849FF20401C8860F8BD0000EC6D00B057
:10073000600A01B0293A0000453C00006F3E00000D
:100740000F400000009000A80F490E4810B5086047
:100750000F490E48086010490E48086010490F48BC
:10076000086011490F4808601048802149F35CE88F
:100770000E488021803049F358E80D48802149F324
:1007800054E810BD51330200D8E300040F420000CA
:10079000DCE3000417420000E0E300044054890059
:1007A000D0E30004A0860100D4E3000400D600B02A
:1007B00000D700B010B5084C00206062DF200002B6
:1007C000E0620648A06201210548490249F32CE88D
:1007D00001206062002010BDC09B00A800ADDEEFCC
:1007E00080D700B026484068C168264A1143C160DE
:1007F000704700B5FFF7F6FF2148406841680122C5
:100800005202114341604168D2001143416000BD72
:10081000090401431A4840688161704718494968D2
:10082000CA681204120C00040243CA6070471449DB
:1008300049684A69120C120402434A61E90420A083
:1008400001000000F00700A000020000D79BBC40A0
:100850007047090401430F484068C16370470D4960
:1008600049684A68120A120202434A6070470948FE
:100870004068FF30413041681D229143416070471C
:1008800004484068FF304130416802229143416092
:1008900070470000846000B08F0300008FC08FE2BB
:1008A0001CFF2FE1012109200007016000214160A8
:1008B0007047684801210160002141607047664827
:1008C000016B80221143016370477047634800B594
:1008D0000068002801D0FFF7F2FFFFF7EAFF00BD34
:1008E00010B55F4C22F088ECA04221D05D49084051
:1008F000040004F0C5FC262004F067FE010920076F
:100900000901000F08430106090E262004F04FFEDE
:1009100004F0E5FC200A4107534A490F04291170ED
:1009200001DD04211170000702D5107840421070DB
:1009300010BDFF20C130202100B504F0E2FE00BD53
:1009400010B54A4C207900280BD10120207104F009
:10095000EEFE062004F039FEC006C00F607104F000
:10096000D8FE607910BD70B50600FFF7E9FF404D75
:100970002C0D002811D004F0DAFE8021262004F08E
:1009800061FE04F0C6FEA8682043A860394881686B
:10099000220211438160002003E0A868A043A86000
:1009A000300005F01DF870BD10B507F035FD04F0FE
:1009B0003AFC02F07FFE7D24E4010021200004F0D7
:1009C0003AFC0021200004F039FC0021200004F052
:1009D00038FC0021200004F037FC274C02212000C5
:1009E00004F02CFC0221200004F02EFC234C606853
:1009F000234908406060E068172149020843E0602D
:100A000004F051FE2168C2061E4801D5014300E0F2
:100A100081436268626021602168014321600F4860
:100A20000068002802D0B520FFF79DFF10BD704779
:100A3000704710B504F0D7FE0C4C002802D005F02A
:100A400022F801E005F02EF8E06010BDEFA07AB5C5
:100A500001000000EC0900A0000200001082BE1D91
:100A60000F490E4808607047003000A8400C009005
:100A7000746D00B0FFFF00003F0F0000846000B005
:100A80004C6100B08028008040230080409C000022
:100A900000210080FF7FFF7F000000206B570000D7
:100AA000DC6200B0F8B5324800680002000F082888
:100AB00028D1304C6069E5042843606160694000DA
:100AC0004008606120680826304320602068EF12EB
:100AD000B84320604821452004F073FD04214820DC
:100AE00004F06FFD206830432060206838432060A8
:100AF000322004F074FE606928436061606921055A
:100B000008436061F8BD1C4810B5006800282DD06E
:100B100004F017FEFFF7C6FF2021192004F09CFD0A
:100B20000221162004F098FD2F21332004F049FD06
:100B30000321572004F045FD9221242004F041FDBB
:100B40006221252004F03DFD262004F048FD8008A8
:100B50008000022108430106090E262004F031FD21
:100B60006621412004F02DFD04F0DDFD10BD0000E4
:100B70000020008000280080746D00B070B5444CE7
:100B8000444D2068444E002808D0E817306070605B
:100B900004F05CFF286A4000400828623D48C038E5
:100BA000816A090C09048162816A8B2292001143D7
:100BB00081623A4900208860900639490122120476
:100BC000036880188842FBD3002001688018904297
:100BD000FBD30120800600682068002855D004F06F
:100BE000B0FD0F21622004F0ECFC1021332004F052
:100BF00049FD04F098FD706B0121C9020843706340
:100C00003068632188433060F06826490840F0600E
:100C100004F040FB07210D2004F034FD07211B20C8
:100C200004F030FD04211B2004F016FD4021252096
:100C300004F012FD4021172004F00EFD022004F004
:100C4000CEFC400603D540210B2004F005FD04F046
:100C500050FB04F032FD800604D4F06809570747C2
:100C600001000000E80B00A000020000E46A00A000
:100C7000012189038843F0601048C168104A11407F
:100C8000C160C1680F4A1143C1602068002806D0C6
:100C9000012040046862801CA8620B48E8620020C2
:100CA00070BD0000746D00B0C09000900021008005
:100CB00000230080000001B0C0FFFF7F802800807B
:100CC000F0F0FFFF0A0A00000202020000B50D4921
:100CD000002087B00860020001001E2003AB07C39C
:100CE00002000948FF21491C6B4607C3A838074A80
:100CF000002307A103F306FD0006000E00D001202B
:100D000007B000BDD06100B0D8DA00B0915F00003C
:100D100049646C650000000010B5FFF7E9FC06F0BF
:100D2000ADFC07F0E3FC07F017FD07F0A3FF10BDD3
:100D300012483C2110B548F396ED1048114A426024
:100D40000F49114A016082608161002101620163E3
:100D50000E4A4163C2620E4C81630E48EE222100AE
:100D600048F3DCEC0B480C4B042221003EF3B9F8AD
:100D700010BD10B500F01CFB002010BD8CD5000488
:100D800035890000538B0000E98B0000BF92000002
:100D9000DC0500006810000433EE3300F8B5CA4CDF
:100DA00020680C25A8432060C848C168820C114304
:100DB000C160C168072252021143C160C1680122AB
:100DC00012061143C160C16889098901C160C16807
:100DD000C20D9143C160C168C20C9143C160C1683A
:100DE0005603B143C160C1680722D2069143C16076
:100DF000C168F2101143C1600168B54A1143016036
:100E00007D200021400204F02AFA7D27FF01002105
:100E1000380004F02AFA0021380004F023FA0021F7
:100E2000380004F025FAAB48016A10221143016230
:100E30002068A8432060606851068843606004F021
:100E400093FEA068B1000843A0602069A90588430B
:100E500020612069304320619F4D686800206860F0
:100E6000686819210906084368609B48634A294D50
:100E700001000000E40D00A000020000FD92DED0A1
:100E8000803001684026B143016001680F221202E0
:100E9000914301600168032252021143016001681D
:100EA0000F22120391430160016803225203114390
:100EB00001600168090909010160016806273943D9
:100EC0000160206830432060206830218843206022
:100ED00004F0F7FB0528206802D910210843FFE73A
:100EE000206028680121084328602868B8432860EA
:100EF0007B48C168020D1143C160816A3143816240
:100F0000012004F0CCFE764880308168784A114098
:100F100081608168D24311438160012004F073FC39
:100F2000F8BD10B505F04FF9724908807248734951
:100F3000000C0004086073497148086073497248E6
:100F400008607449724808607449734808607549BC
:100F500073480860754974480860764974480860A9
:100F6000764975480860774975480860774976483A
:100F70000860784976480860784977480860794978
:100F8000774808607949784808607A497848086065
:100F90007A49794808607B49794808607B497A48F2
:100FA00008607C497A4808607C497B4808607D4934
:100FB0007B4808607D497C4808607D487D49086021
:100FC0007E497D4808607F497D4808607F497E48AA
:100FD000086080497E48086080497F4808608149F0
:100FE0007F480860814980480860824980480860DD
:100FF00010BD0121080010B502F0FEFC04F061FBF9
:101000007D494000085A7D49086000F03BFA022102
:10101000012002F0F1FCFFF7CBFE0321012002F0DA
:10102000EBFC22F00CE90421012002F0E5FCFF2298
:10103000734919321C2006F327F80521012002F01C
:10104000DBFC0621012002F0D7FCFFF76AFF072135
:10105000012002F0D1FC6B49E1204002086022F03F
:10106000F2E80821012002F0C7FC664904220720AB
:1010700022F0ECE80921012002F0BEFC6000931E82
:1010800001000000E00F00A000020000097A606D7E
:10109000624800210A0006C0604A61496148624B0B
:1010A00006F36BF90A21012002F0B0FC00F002FA0D
:1010B0000B21012002F0AAFC00F072F90C210120A2
:1010C00002F0A4FC00F0B2F80D21012002F09EFC19
:1010D0000E21012002F09AFC002010BD10B500F096
:1010E000F9F900F033FA00F05FF9002010BD0000BC
:1010F000002F00800021008000081C2000280080B4
:1011000080260080FEFFFFFB88E70004607700B0C8
:1011100080E900040160000000E40004599F000021
:10112000F0E300048F9F0000F4E30004A99F000097
:10113000FCE30004A19F0000F8E30004431400B0A6
:101140004CE500045D1000B050E50004691300B0E8
:1011500054E50004AF1300B058E50004CB1300B011
:101160005CE50004F1FE0000E8EA000403FF000073
:10117000ECEA000415FF0000F0EA00043F720000F2
:10118000E4EA0004411400B060E50004F71900B07F
:1011900064E50004491A00B070E50004CD1A00B0FF
:1011A00074E500040B1B00B078E500040DFB0000A3
:1011B00044E50004BB60000054F500041D7100000C
:1011C00050E400048357000068E5000485570000E0
:1011D0006CE50004A771000048E4000461710000A0
:1011E0004CE400047D6B000044E40004336B000019
:1011F00040E400049F6000003CE50004AD60000096
:1012000040E50004C960000048E500040000000457
:1012100010E400040032000428E40004D86100B0A7
:10122000B81B000048160004D05F00B00449034812
:1012300010B54860080004F01EFF10BD6F6200008A
:10124000FC6100B01149104808601249104808605C
:10125000124911480860134911480860134912489F
:101260000860144912480860144913480860154979
:101270001348086015491448086016491448086066
:101280001649154808607047C367000024B471828E
:1012900001000000DC1100A0000200007761C7DD42
:1012A00000F40004C5670000F0F30004FB670000D1
:1012B000F4F3000401680000F8F30004296800005A
:1012C000FCF300044B68000010F4000465680000A3
:1012D00014F400049768000004F40004AF680000F0
:1012E00008F400047968000018F40004896800001C
:1012F0000CF4000410B50124A4021F48EE222100C2
:1013000086B048F32AEA13F0A3FF012200210C2043
:1013100003AB07C30200184802920090174A001955
:10132000002317A1019403F30BFA00281DD11948DB
:1013300015A101F397FF18481A4A416817488160C0
:1013400017490161002141618261174AC16102624E
:1013500041621649816205F3E3FD002805D1144975
:10136000112000F0E8FB002802D0012006B010BDDB
:1013700000F050FB0020F9E7C03A000409790000B2
:101380004E66635461736B004E6663466C616773AF
:1013900000000000683F0004806200B030F300B03D
:1013A0000579000001790000ED780000E378000085
:1013B000C9780000064900200880704706490548A2
:1013C00008600749054808600749064808607047F3
:1013D000E0F500B0618500009CFB0004378500004B
:1013E00098FB00043585000094FB00041349124863
:1013F00008601449124808601449134808601549E8
:10140000134808601549144889680860154914484C
:1014100008601649144808601649154808601749BD
:10142000154808601749164808601B4816A1016056
:101430001AA14160704700002194000028F70004C1
:10144000359400002CF700043D9400001CF70004C4
:101450009397000020F70004600E00A9046300B019
:10146000A797000068F70004CF9700003CF700043E
:10147000E397000044F70004C79800005CF70004FD
:10148000081000A938EB00046D6465765F6169752A
:101490007265636F7264000080EB0004E8F0C9D5E8
:1014A00001000000D81300A00002000083897960C9
:1014B0006D6465765F616975706C6179000000002C
:1014C00070B500240B4D04E04019406800F03DFB6E
:1014D000641CE00029580029F6D170BD06488168D7
:1014E000FF22521C114381608168102211438160E8
:1014F00070470000246300B0009000A810490F4816
:1015000010B5086010490F48086011490F4808607D
:10151000114910480860FFF7A9FE21F0BAEE00F06B
:1015200095FA0F490D4808600F490E48086007F307
:10153000E3F80F490D48086010BD00005561000038
:1015400084F400045D6100007CF400046561000027
:1015500080F400041B2600B080F30004C91700B01B
:10156000D8F70004D11900B0DCF700043D67010092
:1015700058FB00048249814810B5086082498148BF
:10158000086083498148086083498248086084492B
:101590008248086084498348086085498348086018
:1015A000854884490163864A816184491160864A7D
:1015B00084491160864A85491160874A85491160CE
:1015C000874A86491160884A86491160884A874956
:1015D0001160894A8749116088498A4AC1678849E8
:1015E00011608A4A884911608A4A894911608B4A88
:1015F000894911608B4A8A4911608C498A4A0A627A
:101600008B4A4A628B4AC266C2638C4B8A4A1A6012
:101610008C4B8B4A1A608D4B8B4A1A608D4B8C4ACF
:101620001A608E4B8C4A1A608E4B8D4A1A608F4B13
:101630008D4A1A608F4B8E4A1A60904B8E4A1A6000
:10164000904B8F4A1A60914B8F4A1A60914B904A87
:101650001A60924B904A1A60924B914A1A60924AD1
:1016600002640267914A934BC264914A1A60934B99
:10167000914A1A60934B924A1A60944B924A1A60AC
:10168000934A0023944C1373924A2260944C934AD9
:101690002260954C934A2260954C944A2260954A68
:1016A000954C2260964C954A2260964A169B3E7B4A
:1016B00001000000D41500A0000200009A71A710DC
:1016C0008A60964A974CCA61954A2260964AC261DE
:1016D000974C4263954A2260974C964A2260984CF8
:1016E000964A2260984C974A2260994C974A226009
:1016F000994C984A22609A4C984A22609A4C994A8E
:1017000022609B4C994A22609A4A13709B4B9A4ADA
:101710001A609C4B9A4A1A609C4B9B4A1A609D4BDC
:101720009B4A1A609D4B9C4A1A609E4B9C4A1A60C9
:101730009E4B9D4A1A609F4B9D4A1A609F4B9E4A42
:101740001A6002009E4BC03213619F4B9D4A1A6083
:101750009F4B9E4A1A60A04B9E4A1A60A04B9F4A1C
:101760001A60A14B9F4A1A60A04A8264A04A0A608C
:10177000A04A4A60A14AA0491160A24AA04911604A
:10178000A24AA1491160A2494165A249816710BDE1
:1017900081A70000E0FB0004FFA00000ACF2000401
:1017A0003DA0000044FA000403A600009CF70004DA
:1017B0000FA6000098F70004C7A4000048FA000430
:1017C000D9A7000024F2000445A9000000EA0004A3
:1017D000CFAA0000ECF900043FB00000CCFA0004EE
:1017E000ABB2000054FB00043BB40000DCE4000496
:1017F00091B4000020F2000463EC0000FCF500044A
:101800008FEC000028F6000425B60000F8F500046F
:101810005FB60000ABB40000B4F500048BB7000065
:1018200008F30004C7B80000A0F30004DBB8000010
:1018300054FA000423B9000064FA00041BB9000044
:101840009CE700041FB900009FB9000023BC000002
:101850009CF60004FDBC000088F60004EBCD0000FF
:10186000B8FA000425BE000018FA0004C1C2000046
:10187000F4FA0004E9BF0000BCF900040DC1000047
:10188000D0F8000485C8000034F20004C5C8000088
:10189000D4FA0004A3CE00008CF500043DAA000099
:1018A0004CFA00048BD0000058F80004F7D1000077
:1018B0001CFA000491D100006CFB00042B6D461A49
:1018C00001000000D01700A0000200006E9919ADC1
:1018D000E7D500003DD6000079D6000048F30004AB
:1018E000B1D6000094F600044FD7000098F600042B
:1018F00075D7000008F60004686300B0E9D700005F
:10190000DCF600041DD90000E4F60004CDD9000087
:1019100090F60004BBDA0000A8F6000429DB000002
:1019200040FA00043DDB00005CF300044DDB0000E6
:1019300089DB0000FFDB000014F600041DDC000062
:101940000FDD0000A4F600046BDE0000C4F6000406
:10195000E9E00000C0F6000467E10000D0F60004F2
:101960003BE30000C8F60004D9E30000F0F90004EE
:1019700073E4000044F50004DDE4000098E6000490
:101980005FE30000E8F90004D8E7000495E50000F3
:1019900040F8000441E60000DCFB0004F1EB00002D
:1019A00074FB00043DE70000A0F600042BE70000F4
:1019B000B4F60004D3E7000070FB000447E8000021
:1019C00068FB000475E80000FCF40004A3E80000D4
:1019D000A0F40004CFE8000071EA0000F0F5000474
:1019E00089EA0000E4F500040DE9000074F6000443
:1019F000D5E9000078F400041DB20000E8FB000403
:101A0000ABEA00008BEB0000B1EB0000D7EB00006D
:101A10008CF30004ABEC000094F5000439ED0000F9
:101A200098F50004A3ED0000EFED0000054810B5A7
:101A30000078102804D1044904484C2208F05CFBCB
:101A400010BD0000A50E0004B20E0004E20F000459
:101A50000548064910B50078097800F029F80448CF
:101A60000068804710BD0000004000AA004000AAA6
:101A7000D4EE000407490648086008490648086093
:101A8000084907480860094907480860704700008E
:101A9000C59D000028F20004956701003CF6000493
:101AA000A367010040F60004B167010038F60004A6
:101AB000064808B502680092054A06491300080066
:101AC0000C386C3303F3E0FF08BD0000ACB9562DB1
:101AD00001000000CC1900A000020000A9801BF04A
:101AE000A00E0004982C01B01C6D00B00449054AFA
:101AF000497812780120914200D000207047000000
:101B0000000002A9000002A910B521F052EB01F378
:101B1000D7FD002010BD814810B5006800022BD50C
:101B20007F4A804B0020C11C09015161146981006A
:101B30005C50041D240154611469C918801C0C28D0
:101B40004C60F0DBFF21784B2D3102E0401C8842D5
:101B5000FCDB18780028F9D0744850617448106193
:101B6000012040035061734810617048E0385061B3
:101B700005201061012010BDFEE76B4910B54860DB
:101B800001F09BF810BD202800D3FEE76A4A8000D0
:101B90001358002B00D0FEE7115000207047664A12
:101BA0000021800011500800704764480068002838
:101BB00000D00120704702688368C1681000184790
:101BC00070B55F4D6C6AE00703D0FFF278EEA8179E
:101BD00068625C48A10706D52021C16042176A628D
:101BE00082680A438260610703D5A96A042291438F
:101BF000A96221070AD5A96A08229143A962802116
:101C0000C160D2436A6282680A438260012070BD6B
:101C1000F8B54D4D2C6BE00702D0A817286304409F
:101C2000200606D58020C04328638020844300F02E
:101C3000ECFF200709D50820C0432863082084430F
:101C400001F068FD082000F060FC600604D540202B
:101C5000C043286340208443A00606D52020C0430B
:101C600028632020844300F019FE600706D5042075
:101C7000C04328630420844300F000FF200407D5FC
:101C80000126F603300000F0C0FFF0432863B443A0
:101C90006003400F06D00720000421000140C94323
:101CA000296384430B26200036053040070005D009
:101CB000380000F04DFBF8432863B443E000400FC8
:101CC00009D00727BF0626003E40300000F0A9FAE1
:101CD000F0432863BC43002C06DA0120D482287E1E
:101CE00001000000C81B00A0000200005D68A54DB7
:101CF000C00700F0CAFA1A48286304401948044291
:101D000005D0200000F028F9200001F0C7F91248A2
:101D100081680122D20411438160F8BD0E4B01227B
:101D2000D20410B5DA60FFF77DFF012010BD00007E
:101D3000009100A880290080903F0004500E00040C
:101D4000F0200000FF0C0000070080FF7434020048
:101D5000A8FD0004009400A8009000A88022008044
:101D6000FFFFFF7F0010000110B504F0A3F921F080
:101D7000FAE904F0A0F910BD10B502F0FBFA002852
:101D800024D002F0F6FA7B490120C00488600011DB
:101D900000F03CFF78480088002801D102F03AFBAF
:101DA00002F0A3FB02F07DFB02F044FB01F06AFDB0
:101DB00021F0D8E901F071FD02F034FB02F09EFB46
:101DC00002F078FB02F037FB02F0D2FA10BDFEB54C
:101DD00000242500260021F0EBF8019000F09DFE84
:101DE000002802D1FFF7C0FF44E000F05EFC00F0E5
:101DF000D5FD00F0C0FE61480068810702D5C1072B
:101E000000D00124010702D5410700D50125810634
:101E100002D5C00600D5012604F0B4FA009001F006
:101E200021F9070002D1012001F030F90120C0079B
:101E3000807804210840400702D400F01AFC05E035
:101E4000002CCFD0002DCDD0002ECBD00098002874
:101E5000C8D0002FC6D0474CA568E017E060012627
:101E60003603300000F0DBFEFFF786FF300000F0A5
:101E7000CDFEA560019821F09FF8FEBD10B500F0E1
:101E80004EFC00F0DAFD00F0A7FEFFF7A0FF10BD4A
:101E900010B521F08DF80400FEF716FC01F07EFC71
:101EA000200021F089F810BD10B5040021F080F861
:101EB000324A11682143116021F07EF810BD10B53F
:101EC00003F045FC2E494000085A2E4B2E4958433A
:101ED000096A0B071B0F47F368EE0805070606099A
:101EE000090B0B06400810BD800810BDCCD6D7D911
:101EF00001000000C41D00A00002000044907B3DD2
:101F0000C00810BD000910BD10B5040021F05AF83A
:101F10001F4A1168A143116021F058F810BD1C4AF6
:101F2000010012680020914300D10120704710B5D4
:101F300002F03CFA10BD70B5040002F037FA041B41
:101F400003F0C7FC050016490026200047F32CEEDD
:101F500033002A0047F3A6EA70BDC00005D50C483F
:101F600018304068002800D0004770470300012067
:101F700010B5FFF7D4FF002804D0D80102D5002007
:101F800000F0D7FA10BD0000009000A8D46100B0A6
:101F9000306000B000000004A0860100002800802E
:101FA00040420F00022910B505D0032903D00429AF
:101FB00001D0052903D1C14BFF21491C9960042A96
:101FC00005D0052A03D0062A01D0072A07D1002808
:101FD00005D100210A2208000B0004F02CFA10BDE4
:101FE0007047052803D2B6498000085C7047FF207F
:101FF000704710B50C000020FFF7F3FFA04201D19D
:1020000000F07EFA0120FFF7ECFFA04201D100F0C2
:102010004FFC0220FFF7E5FFA04201D100F038FDA0
:1020200010BD10B50C000020FFF7DBFFA04201D16E
:1020300000F07AFA0120FFF7D4FFA04201D100F0AE
:102040003CFC0220FFF7CDFFA04201D100F025FDAE
:1020500010BD042910B507D004DC022904D00329DF
:1020600006D101E0052903D100F01BFA002800D0B9
:10207000012010BD022910B505D0032903D0042981
:1020800001D0052901D100F0B5F910BD022910B524
:1020900005D0032903D0042901D0052901D100F07E
:1020A00068F910BDFF280BD0854A00218B00D35C56
:1020B000834202D10806000E7047491C0529F5D35A
:1020C000FF207047FF280CD07D4A00218B009B1811
:1020D0005B78834202D18800105C7047491C052957
:1020E000F4D3FF207047052804D2754980004018BA
:1020F00040787047FF207047FF280CD04002A7822D
:1021000001000000C01F00A000020000B078C580E0
:10211000704A00218B00D35C834203D18800801871
:1021200040787047491C0529F4D3FF207047FF28E9
:102130000CD0684A00218B00D35C834203D1880015
:10214000801880787047491C0529F4D3FF20704718
:10215000F7B582B007000E000C2901D2092F02D377
:10216000002005B0F0BD00255A49A8000A5CBA421B
:102170001ED14418A278B2421AD02806000E3900A7
:10218000019001F08FFB002812D0A670E07804992E
:102190004007400FC9000843E07001983200390041
:1021A00001F082FB002808D0E07802210843E070AB
:1021B0006D1C052DD8D30120D3E74648AA00FF2186
:1021C00010188170E0784007400FE070C8E7F0B564
:1021D000060008003F4F002204219300FC5CB4423B
:1021E00009D1DD19EC7823000B43002802D023002D
:1021F000FB242340EB70521C052AEED3F0BD354A78
:1022000000218B00D35C834206D188008018C078FF
:102210004007C017401C7047491C0529F1D3002016
:1022200070470020704770B505000C00100002F0E8
:10223000D1F8200000F007FD2800FFF74DFF02282D
:1022400005D0032803D0042801D0052803D120009D
:1022500000F09CF870BD2000FFF789FE70BD10B53E
:102260000400C00005D50122120311040C20FFF761
:10227000DAFF200105D50122D20211040B20FFF75D
:10228000D2FF600105D50122920211040A20FFF756
:10229000CAFF10BD0120C00310B502F095F801205F
:1022A000C00700F0C7FC0C48016A8022114301629C
:1022B00010BD0120C00310B502F08CF80120C0074A
:1022C00000F0C1FC0449086A80229043086210BDF6
:1022D000009000A8346000B000280080F3B581B001
:1022E0000F000198FFF7E8FE04000198FFF70EFFCA
:1022F00006000198FFF71BFF0500002C03D0012CFE
:1023000001D0022C19D1331F01267605C777D7C615
:1023100001000000BC2100A000020000B8A7345D4D
:1023200047F360EC040309090E15102002F05CF875
:102330000120000509E0202002F056F8300004E0FA
:10234000802002F051F80120C00500F08FFC002F22
:102350001DD10198FFF75DFF002818D02B1F47F310
:1023600042EC06161616160A04160198FFF763FFCC
:102370000100112009E00198FFF75DFF684AA10004
:102380008918C978CA080100100000F054FFFF2224
:1023900001991000FFF741FEFEBD08000021A7E7EC
:1023A00010B50400C00203D501210220FFF7A0FFF1
:1023B000A00207D501210320FFF79AFF0121042085
:1023C000FFF796FF200203D501210520FFF790FFBC
:1023D00001200007844205D04010844202D0401002
:1023E00084421AD1FF208206A11808D0891804D08F
:1023F000C206891804D10C2002E00B2000E00A205C
:10240000FFF774FE022805D0032803D0042801D06A
:10241000052802D10121FFF76BFF10BDF8B50400BC
:102420000D0017000800FFF78CFE0600002C03D0FB
:10243000012C01D0022C22D13B1F01277F0547F33D
:10244000D2EB04030C0C141E102001F0C7FF102067
:1024500001F0D6FF012000050FE0202001F0BEFFB3
:10246000202001F0CDFF380007E0802001F0B6FF0A
:10247000802001F0C5FF0120C00500F0E5FB331FFF
:1024800047F3B0EB061D1D1D1D0E041D2800FFF7B0
:10249000D2FE002801D1012100E0002111200CE032
:1024A0002800FFF7C8FE002801D1012100E000212B
:1024B0001B4AA0008018C078C00800F0BCFEFF22B4
:1024C00029001000FFF7C1FDF8BD70B50400002021
:1024D000002C03D0012C01D0022C1ED1114D002262
:1024E0002868462104F303FE002815D1286800223D
:1024F000082104F3FCFD00280ED1022C04D0012C8D
:1025000002D020F010EF05E005F088FA002803D192
:1025100005F00CFC002801D0002070BDABFEA5D357
:1025200001000000B82300A0000200004C4F8AE028
:10253000012070BD346000B0880E0004022010B588
:10254000FFF700FD01F03AFF002804D0012000F061
:10255000B0F900F0C0F90021082208000B0003F0D8
:1025600088FF10BD022010B5FFF7C6FC10BD70B586
:102570000020FFF754FD04000020FFF7D2FD050006
:102580000120FFF7DFFC8549086A1022104308622A
:1025900083499003886001F05DFF082000F067FB2D
:1025A0002A0021000020FFF71BFD70BD70B520F050
:1025B00027FD05007B480068C00710D00020FFF70A
:1025C000D6FF7D20C00003F08CF9002037F361FABC
:1025D000040002E0002037F35CFAA042FAD02800A1
:1025E00020F012FD70BD002010B5FFF718FD0400AB
:1025F0000020FFF796FD020021000020FFF764FD98
:1026000010BD10B520F0FCFC04006648006880078F
:1026100001D5FFF7E8FF200020F0F6FC10BD0020F8
:1026200010B5FFF7FCFC04000020FFF77AFD020064
:1026300021000020FFF72BFD002800D0012010BD55
:1026400038B501F0BBFE002826D1401E0090554849
:10265000554C0068C00711D06068401C18D0A068B5
:10266000FFF787FC514947F3D8EA00906168884238
:1026700001D3002000E0081A009009E0684603F04A
:102680002EFE00280CD000986060FFF76EFCA06062
:1026900021780098884203D3FFF7C1FF002801D1B9
:1026A000002038BD012038BD3E4810B50068C00785
:1026B00005D0FFF7C5FF002801D0012010BD002084
:1026C00010BD002010B5FFF7AAFC04000020FFF7A2
:1026D00028FD020021000020FFF7EAFC10BD10B524
:1026E000FFF79DFF002804D0002003F067FF0028BB
:1026F00001D1002010BD012010BD2A4810B500688E
:1027000080070DD42A480078022809D1FFF7CCFFB2
:10271000002805D0FFF7E3FF002801D0FFF7D1FF25
:1027200010BD70B50020FFF77AFC040009FBC94B0F
:1027300001000000B42500A00002000055B754902D
:102740000020FFF7F8FC204905000968172048839E
:10275000082000F08DFA01F07FFE01F071FE1549AE
:1027600001208004C8602A0021000020FFF760FCDF
:102770000F48016A1022914301620120FFF7C6FB56
:1027800070BD0D4810B50068C0070FD1FFF762FF9C
:1027900000280BD020F03EFC0400FFF75BFF002870
:1027A00001D0FFF7C8FF200020F038FC10BD00006A
:1027B00000280080009000A8306000B0606000B089
:1027C000E2040000F86100B048E90004F8B520F028
:1027D00021FCBE4D0700286800282ED103F03DF8EB
:1027E0004021182002F0C4FF03F029F8B84E3069E8
:1027F0000221084340084000306101F0FFFD040061
:1028000001F0FCFDA042FBD0306903210843306198
:10281000B04A90680121490688439060AD4A803AE9
:10282000D0688843D06003F018F80821332002F004
:10283000B5FF03F004F801202860380020F0EEFB1B
:10284000F8BDF8B520F0E6FBA04D009028680128FF
:1028500035D103F002F80821332002F089FF02F09D
:10286000EEFF9C498039C868012676063043C8606F
:10287000984FB868B043B860954908690222104380
:1028800040084000086101F0B9FD040001F0B6FD08
:10289000A042FBD00A2003F02EF8B8683043B8609D
:1028A0008B49086980088000086102F0D6FF40214A
:1028B000182002F073FF02F0C2FF00202860009889
:1028C00020F0ACFBF8BD10B504000120FFF7B1FB10
:1028D000002C05D180490968CA0705D0490603D5EF
:1028E000062801D0FFF7F4FC10BD012010B5FFF75A
:1028F000A0FB062803D001F06BFD0028FBD110BD22
:10290000082010B5FFF728FB10BD082010B5FFF711
:10291000FDFA10BD38B5002000900120FFF789FBBB
:1029200004000120FFF707FC05000420FFF714FB5B
:10293000FFF787FF01F0DEFD202000F0A4D06E45F8
:1029400001000000B02700A000020000A15FEA2DF6
:10295000A2F901F0ADFD684605F06EF80121644A68
:102960004906002800D0009891602A00210001202B
:10297000FFF74AFB38BD10B520F056FB04005B485A
:102980000068400702D50020FFF7CEFF200020F0AE
:102990004FFB10BD012010B5FFF755FB04000120CF
:1029A000FFF7D3FB020021000120FFF784FB002882
:1029B00000D0012010BD08B5684605F039F80028A0
:1029C00003D0FFF7E7FF002801D1002008BD012058
:1029D00008BD464810B50068400705D5FFF7EBFF76
:1029E000002801D0012010BD002010BD70B50120CD
:1029F000FFF729FB04000120FFF7A7FB05000020DB
:102A0000FFF721FBA04204D02A0021000120FFF79C
:102A100063FB70BD354810B50068000709D4FFF7A7
:102A2000D8FF002805D0FFF7B5FF002801D0FFF739
:102A3000DDFF10BD10B501F03BFD02F074FF10BDCD
:102A400010B501F035FD02F06EFF10BD38B5002065
:102A500000900120FFF7F7FA04000120FFF775FB53
:102A60000500202000F00EF901F045FD204901206D
:102A70004006C860684604F0DFFF002808D101F076
:102A800029FD04F0E0FF00280AD0FFF7A9FE07E0C7
:102A90000098002802D1FFF7CDFF01E0FFF7D0FF3B
:102AA0002A0021000120FFF7CDFA0420FFF738FAB1
:102AB00038BD0E4810B5006840070FD4FFF77BFF04
:102AC00000280BD020F0B0FA0400FFF774FF0028B4
:102AD00001D0FFF7BBFF200020F0AAFA10BD0000D4
:102AE0006C6000B00028008080210080306000B061
:102AF000009000A8202010B5FFF738FA10BD202064
:102B000010B5FFF70DFA10BD70B50220FFF79BFA64
:102B100004000220FFF719FB05001020FFF726FA3A
:102B2000564901204004886001F04CFD042000F06B
:102B3000B2F801F035FD2A0021000220FFF764FA07
:102B400001F052FD4E480068800601D44012AB27C8
:102B500001000000AC2900A0000200006646E870F9
:102B600001F05FFD70BD10B520F068FA040049481F
:102B70000068C00602D50020FFF7D0FF200020F03B
:102B800061FA10BD022010B5FFF767FA04000220B9
:102B9000FFF7E5FA020021000220FFF796FA00286D
:102BA00000D0012010BD10B505F096F8002803D024
:102BB000FFF7E8FF002801D1002010BD012010BD63
:102BC000344810B50068C00605D5FFF7ECFF0028B3
:102BD00001D0012010BD002010BD70B50220FFF70C
:102BE0003CFA04000220FFF7BAFA05000020FFF7C4
:102BF00034FAA04204D02A0021000220FFF776FA1E
:102C000070BD244810B50068800609D4FFF7D8FFCE
:102C1000002805D0FFF7B6FF002801D0FFF7DDFF41
:102C200010BD70B50220FFF718FA04000220FFF76C
:102C300096FA0500042000F02FF801F0C4FC01F022
:102C4000B9FC134901204004C8602A002100022079
:102C5000FFF702FA1020FFF76DF901F0C6FC01F052
:102C6000D6FC70BD0B4810B50068C0060FD4FFF746
:102C70009AFF00280BD020F0E1F90400FFF793FF42
:102C8000002801D0FFF7CDFF200020F0DBF910BDB8
:102C9000009000A8306000B023494A6A02434A62AB
:102CA000CA6A0243CA62012070471F494A6A8243C6
:102CB0004A62CA6A8243CA62012070471A49C04305
:102CC000086301207047184B80339969DA6909015C
:102CD000120909091201002804D005204007014308
:102CE0000A2003E005200007014305200243D961C3
:102CF000DA6170470D48016B022291430163016B59
:102D0000402291430163016B0422914301637047A8
:102D10000648006B810701D500207047400601D5A9
:102D2000022070470120704780220080002100802F
:102D300010B520F083F90400022020F0E3FB002806
:102D400002D01449012008600021012001F0FCFAA2
:102D5000200020F077F9002010BDF8B592F9570453
:102D600001000000A82B00A00002000092AE56CD8A
:102D700001200E4900F0D6FE0B4E0024361D01271F
:102D8000FF0308E02104090C3943012000F0CAFECA
:102D900070598047641CA50070590028F2D103F0D7
:102DA000C9FD04F0B8FDF8BD746D00B07F8B000064
:102DB000F84841680068814201D101207047002035
:102DC0007047F44810B541680068012292070B0073
:102DD000040093439443A34205D111401040814223
:102DE00001D0012010BD002010BDEB49002048613A
:102DF000EA4A5060C8607047F8B504000D0016003C
:102E000020F026F907000021032001F0A7FA002C8A
:102E10000ED0002D0CD032002900200046F326ED04
:102E2000032001F0BDFA380020F016F90020F8BDAB
:102E3000380020F011F9FEE7D74810B580682C2142
:102E400046F3B0ED10BDF8B505000E0000240028D3
:102E500003D0D14F3878012801D00120F8BD012ED0
:102E600002D120F0F5F804000021032001F076FAE9
:102E700020F0EEF88446FFF7A4FF002804D0604657
:102E800020F0EAF8002013E0F868401CF860C14820
:102E900000680C210004000C4143C14808180021BF
:102EA00007000A000B000EC0604620F0D5F838007D
:102EB000002800D1FEE7EA78082A01D8121D00E0B8
:102EC0000C22290046F3D2ECB24800F053F9B54881
:102ED000816B012211438163032001F061FA012E0D
:102EE00002D1200020F0B8F80020F8BDFEB5AE4CAD
:102EF000AA4E0022AC48D243009201220321283876
:102F000001AB00F3A3FA01980028F2D00128F0D118
:102F100020F09EF8A54D070011E070680C23000416
:102F2000000C584340190AD00278052A05D29100B6
:102F30006158002901D0002A00D1216888477068B3
:102F400031688842E9D1380020F086F8D1E710B521
:102F500020F07EF804000021032001F0FFF98F48E3
:102F6000001D00F007F98F49C86BCA0DD40F0E5B26
:102F700001000000A42D00A0000200008B5688BDB7
:102F80001043C863032001F015FA200020F06EF80A
:102F900010BD002810B508D00078012805D1FFF732
:102FA0002EFFFFF7DEFF002010BD012010BD10B581
:102FB0000178042901D0012010BD7C494A68521CC7
:102FC0004A600969002901D0884701E0FFF7C9FF7D
:102FD000002010BD0EB504216B46197001215970F7
:102FE0000221D97001781971407858716F48416891
:102FF000491C4160FFF7B5FF01216846FFF72DFF2F
:1030000000200EBDF0B587B020F02CF806006D480A
:10301000FFF756FE6C490120C0048860C4122000EE
:1030200001F018FA200001F021FA5F480024046042
:103030005E4D6C615E48446060486449016064496B
:103040000161644941602C6101220A20059202005D
:1030500003906148012189026B46049407C3002351
:1030600056485E4AD0385EA101F3F6FB002802D034
:10307000012007B0F0BD51485BA1283800F37EF96C
:103080000021032001F074F9A8685A4F0068B84283
:103090000AD101206B461874DC742870002104A842
:1030A000FFF7DBFE2C7003E0FFF7D0FEA868076097
:1030B000032001F07FF930001FF0D8FF0020D8E78F
:1030C00000290BD0052809D2042802D13748016114
:1030D00002E03A4A800011500020704701207047FA
:1030E00070B51FF0BFFF314C2F4D060008E0E168BE
:1030F000002910D02D48491E1430E16000F044F83A
:10310000606969688842F2D130001FF0AFFF3B4927
:103110003948086370BDFEE7234801684068814272
:1031200001D0012000E0002021494A6809688A4254
:1031300001D0012100E000210843012148407047EF
:1031400001001E480022283810B500F319FA10BDFE
:1031500070B5040015480178012901D001210170E2
:10316000E0010CD5254926480863CD0D280001F063
:1031700077F9280001F06EF90120FFF7A0E383360C
:1031800001000000A02F00A0000200007FBE36005A
:10319000E1FFE00401D5FFF7ADFF70BD0268012338
:1031A0001104090C9B07491C1A4011430A009A4359
:1031B000082A01D35940194001607047001300C02C
:1031C00050CF00B0801300C0081300C0802A0080D8
:1031D0009C0F01B0881300C000100001009000A8EF
:1031E000F92D0000D32D0000B72D0000CC0A01B04E
:1031F000252D00004963635461736B00496363517B
:10320000466C616773000000CDAB0000FFEFFFFF6D
:1032100080220080FFFFFFFEF8B504000D00764815
:10322000764A0168126801209047002848D00120A2
:103230002700734E0100103F0200A140BA40704BBE
:103240004036002D2ED00325082C07D21E686200C0
:1032500095409040AE4306431E6009E0102C0AD210
:103260005E68083C620095409040AE4306435E6055
:10327000986888431AE0182C07D2F36979008D40CA
:103280008840AB430343F36109E0202C07D2336A43
:10329000183C61008D408840AB4303433362706A41
:1032A000904307E0102C03D298680843986002E02E
:1032B000706A1043706253490120096888470120F1
:1032C000F8BD70B504004C484C4A0D000168126806
:1032D0000120904700281AD00122102C08DA484912
:1032E000C868A2409043002D00D01043C8600AE097
:1032F000434B4033986A103CA24090430100002D9C
:1033000000D0114399623F4901200968884770BD88
:1033100010B504003848394A016812680120904706
:1033200000281AD00122102C06D235488168A2400C
:1033300011438160006907E031484030416A103C28
:10334000A24011434162C06AE0402E49C4070968A7
:10335000E40F01208847200010BDFF2010BDF8B504
:103360002548264A0168126801209047002840D06D
:10337000254801210903C1602148016A20484030E5
:10338000C06B0F043F0C0006000A0743E8FB08A5CA
:10339000010000009C3100A00002000001A591B0D6
:1033A00000241F4801261EE04068E20081580029E1
:1033B00018D010184068320082403A4212D00500FE
:1033C0008847102D06D21349086A3200AA4090435C
:1033D000086207E00F494031C86B103D3200AA4037
:1033E0009043C863641C0E4801788C42DCD30B48C0
:1033F0008168012212031143816007490120096895
:1034000088470020F8BD0120F8BD0000D4E3000487
:10341000DCE3000400020090E0E30004009000A858
:10342000706000B0F8B50025FF4F387D012802D943
:103430007D2000023860787DC00709D002F064FE6C
:103440003968884204D2787D4008400001257875AB
:10345000787D400731D502F073FE79680400FB26C1
:10346000814220D8F868A0421DD8052001F0C1FF94
:10347000A04218D8052001F0BFFFA04213D80120B8
:1034800001F0B7FFA0420ED8012001F0B5FFA04225
:1034900009D8022001F0ADFFA04204D8022001F0BB
:1034A000ABFFA04201D9787D04E0787DC10701D04F
:1034B000810702D43040012578752800F8BD70B529
:1034C0001FF0E4FD0500FFF7ADFF0028FBD1D64C4F
:1034D000607DC00706D002F0EBFD002802D101207C
:1034E00002F049FC607D800706D502F0E4FD00286B
:1034F00002D1012002F0C1FC607D400709D502F035
:10350000B8FD002802D1012002F066FD607D400771
:1035100006D402F0AEFD002802D0002002F05CFDCF
:10352000607D800706D402F0C6FD002802D000208E
:1035300002F0A3FC607DC00706D102F0B9FD0028AF
:1035400002D0002002F017FC6068002101F045FF66
:10355000A068002101F047FF607DC00709D1206805
:103560007D210902884201D1012000E0002002F003
:10357000EBFDE068002101F033FF2069002101F03C
:1035800035FFAA490020087028001FF083FD0020A5
:1035900070BDF0B506000D0087B0A349C1FCEB5A21
:1035A00001000000983300A000020000F54D2F0D2F
:1035B0000027182201A846F3ECE9A04C607D000723
:1035C00002D4012007B0F0BD002E02DA76007608A2
:1035D00001273300042646F360EB0852051420440B
:1035E000512C385202F09AFDA84204D2607D400866
:1035F0004000607503E0617D012001436175256035
:103600003DE002F0A7FDA842607D02D2FB21084008
:1036100000E030436075656031E002F09BFDA84238
:10362000607D02D2FB21084000E030436075A56058
:1036300025E002F08FFDA842607D02D2FB21084008
:1036400000E030436075E56019E002F083FDA842B8
:10365000607D02D2FB21084000E0304360752561A7
:103660000DE0280002F072FD0028607D02D1FD21EE
:10367000084001E002210843607500E025756F49AC
:10368000182201A81FF05EFB002802D06C4901201F
:103690000870002F01D0FFF71CFF002092E7FEB555
:1036A00000207D24E401270001250194009012F3FD
:1036B000B7F88821694306000291405C02282FD1A7
:1036C0002804000C1CF309FE0099491C0906090E88
:1036D00000910279012A02D18179012904D002994D
:1036E00089194B7D092B08D102997D208919C97848
:1036F0008001002910D140100EE0052A05D1807903
:10370000052802D17D20000201E07D20C001C9789A
:10371000002901D17D208001844209D8040007E0FE
:10372000012805D17D20C0018442F7D92000F5E7AA
:103730006D1C082DBBD30098012805D97D200002FF
:10374000844200D9200004003E48C06900280BD004
:103750007D200002844200D9200004007D20C001A9
:10376000874200D9380007003748807902280AD1FB
:103770007D21C90108008C4200D9200004008F423D
:1037800000D939000F0001990120FFF70CFF390023
:103790000320FFF708FF21000220FFF704FF0020AD
:1037A000FEBD10B5254C607D000734D5D480D01AFD
:1037B00001000000943500A000020000ECB5F17D8E
:1037C00002F093FC002802D1012002F0EAFB02F093
:1037D00089FC002802D1012002F0A4FB02F088FC41
:1037E000002802D1012002F05BFC1D480168042082
:1037F000FFF7E3FEFFF75DFF7D21490160680C00E4
:103800008A00904201D9140011000720FFF7D5FE6D
:1038100021000620FFF7D1FE0E480078002804D0D2
:1038200001200021C007FFF7C8FE10BD084870B591
:10383000407D000723D57D24E401062001F0EDFD45
:10384000050002F02AFC002810D002F08DFC09E0EF
:10385000E8D500B0786000B038D600043CD1000450
:1038600028E40004A04200D320000400A54206D2B0
:103870000021200001F0C5FD07490120087070BD3E
:1038800006480822417D1143417570470348F722DD
:10389000417D114041757047786000B0E8D500B0B7
:1038A000002010B5FEF715FC04000020FEF793FC85
:1038B000020000202100030000F082F80120FEF742
:1038C00008FC04000120FEF786FC02002100012014
:1038D000002300F075F80220FEF7FBFB0400022035
:1038E000FEF779FC020021000220002300F068F8B6
:1038F00010BD70B501252F4E082A13D0092A3DD1DD
:10390000002B3BD101211120FFF7A4FC0021112045
:10391000FFF7F5FC7169680481437161B169814306
:10392000B1612BE0002B29D1810023480C18E078ED
:10393000C008411E182901D300251FE00121FFF70F
:1039400089FCE0780121C008FFF7D9FCE278012169
:10395000D008102807D2726981408A437261B06929
:103960008843B0610AE013484030036B5206120FDF
:1039700091408B430363426B8A434263280070BDCE
:103980000123B6E70023B4E70C4810B5006800280F
:1039900004D000221100032002F016F810BD0748E1
:1039A00010B50068002804D000220121032002F095
:1039B0000BF810BD00020090346000B07B259CFD28
:1039C00001000000903700A000020000185D4FC009
:1039D0006CCF00B00A2A10B511D00B2A0FD00C2AD8
:1039E0000DD1002B0BD100210F20FFF73DFC044827
:1039F000426981018A43426182698A43826110BDC2
:103A0000000200901CB50400634808224168684623
:103A1000FFF72EFAA00702D5019806F04AFA1CBD5E
:103A200010B54078FFF7EEFFFFF7CDFA002010BD8C
:103A30003EB5040002E0012001F0B7FFFFF7F4F902
:103A40000028F8D002206B46187000205C70987037
:103A5000D87001216846FFF732FA3EBD4E4808B5DE
:103A600041680122891C6846FFF702FA6B46187804
:103A700008BD10B50400FFF7F1FF002802D12000B7
:103A8000FFF7D6FF10BD10B50C0001004248202200
:103A90000068FFF7EDF9002C02D02000FFF7E9FFE6
:103AA00010BD3D4910B509682022FFF7E1F910BDAE
:103AB00001B539480122006869460830FFF7D8F996
:103AC00008BD01B534480122006869460930FFF796
:103AD000CFF90820FFF7CDFF08BD11B581B02E4CFE
:103AE0000122216868460A31FFF7C2F96B4618784F
:103AF0001979884208D0206801220A3001A9FFF70D
:103B0000B7F90820FFF7B5FF1CBD01B52248012217
:103B1000006869460B30FFF7ABF908BD01B51E48D8
:103B20000122006869460C30FFF7A2F908BD01B513
:103B300019480122006869460D30FFF799F908BD60
:103B400013B50422144C694620681030FFF790F931
:103B500020680422143001A9FFF78AF91CBD01B5C1
:103B60000D480122006869461D30FFF781F908BD44
:103B700001B509480122006869461E30FFF778F94F
:103B800008BD054808B5416801226846FFF770F98D
:103B90006B46187808BD00007C6000B0FB4A10B589
:103BA0001068437804781802F94B2043984203D0F8
:103BB00010680170090A417010BDF4498000091FA6
:103BC00008580221593002780A430270B811972A26
:103BD000010000008C3900A000020000DF444D9D70
:103BE000F14A507C084350747047ED48F8B52430D2
:103BF0000188EE4A91421DD00200128801244188BA
:103C00009440EB4F012904D1FD68A5432C432600C5
:103C100003E0FE68A64334432500E649808809682E
:103C200046F34EE88905800A0843FD6001D01FF085
:103C30005AEBFE60F8BDDA4A8000121F105840307F
:103C40008183D2E770B50500DB4C09D10022DB4847
:103C5000110046F387F80028206001D0202101815F
:103C6000A8002158002908D00A898918CC4A121FB7
:103C70001258116720580821017370BD70B50400F7
:103C8000C068C74D012180002D1F285800264166BD
:103C9000E068800028584666E068800028580B23BA
:103CA000D83002689B021A430260E06880002858FE
:103CB0000823D83002681A430260E0688000285860
:103CC0004B05D83002689A430260E06880002858AB
:103CD000D83002680A430260E068FFF7B3FFE1688A
:103CE0000720890069580866E068FFF770FFE06800
:103CF000002802D1296817200866E068800028584B
:103D0000AA498666E068002804D1AB4A08321180CF
:103D100051809180A84A0B0A0E3211705370917035
:103D2000090AD17081000E3A5158002901D00D21A5
:103D300000E00C21FFF77FFFE0689F498000091F2A
:103D40000E50E0680521820095488258D170E168E4
:103D5000890041588E70E168890041580E71E16810
:103D6000890040584671002070BDF8B50400142247
:103D7000914F62439248A5003F1F0026032911D1AD
:103D8000002C0AD146F350F820213860018101004F
:103D90002431002002F04DFD14E0101846F344F8E1
:103DA00078510FE0052904D1002C08D0844814383C
:103DB000F3E7022901D0082904D1002C2ED146F3C3
:103DC00033F838607859002827D0002C25D138687E
:103DD000734C0189411848780B780202B02FD79DA7
:103DE00001000000883B00A0000200002BACF32083
:103DF0001A43241F2068C030828248780A78030260
:103E00001343201D0268D5780122AA40521E9A1839
:103E100003680068DB781A418270CA7820688030B5
:103E2000C28122683000D1660221FFF70EFFF8BD83
:103E300068481430BBE7012270B5D2079378634C11
:103E400080000C3C22588A422FD0002921500DD0EE
:103E500000200122850065598D4204D0461C1500C2
:103E6000B5401D4221D1401C0128F3D351480C38E4
:103E700002788A4219D00170514A3630002909D09F
:103E8000C17883780802184390420ED001F0A1FD5A
:103E9000012008E04178037808021843904204D0DA
:103EA00001F097FD0020FEF768FF70BDFFB581B0FF
:103EB0000400029800287BD0E068002878D1029D99
:103EC0000498E88020202881121D2035100A2A70CD
:103ED000687000200126A8701FF00AF90090E068C1
:103EE0000021FFF7A8FFE068384F8000083F3858EE
:103EF00000280ED00498032805D1291D002002F0C7
:103F0000BCFC002805D100210B2208000B0002F0A8
:103F100028FB0498022874D0032821D005285BD000
:103F2000082817D10320E870E0681421414329488C
:103F30000818029945F3ABFFE068244A8100121F7C
:103F40005258002A06D17958002903D10221FFF7DF
:103F500016FF002600981FF0CFF8300005B0F0BD26
:103F6000FE20E870291D002002F087FC0028E06890
:103F70000BD01423584317494018029945F3A9FF61
:103F8000E16800208900785006E01421414311487F
:103F90000818029945F37BFFE0680C4A8100121F64
:103FA0005258002AD6D179580029D3D10321CEE71F
:103FB0002FE026E0CC6D00B0DCFE00008000008029
:103FC000FFFF00000002009068CF00B0E86D00B075
:103FD000406200B0740A01B00220E870E068142169
:103FE0004143FF480818029945F351FF7B01F4391A
:103FF00001000000843D00A00002000032542D505A
:10400000E068FD4A81005258002AADD17958002954
:10401000AAD10521A5E70420E870E06814235843DD
:10402000F44940188FE70020A2E710B504001FF004
:1040300069F8F14AA1001C3AF04B54586366525893
:1040400017231366EC4B00220C3B5A501FF05EF80E
:1040500010BDFEB584000600E74800251C38015954
:104060000D660259012151660059E34F45663F1D17
:104070003859002802D045F35FFE3D51DD49142236
:104080007243DD4F0B0014333859D31801930B00E2
:10409000143BD31856180028009307D045F34CFE64
:1040A00004E0300045F3D4FE3851F7E7300045F323
:1040B00038FF0028F5D105E0009845F3C9FE3851D6
:1040C00045F33AFE009845F32CFF0028F4D105E0B3
:1040D000019845F3BDFE385145F32EFE019845F396
:1040E00020FF0028F4D13D51FEBDF8B504001500B5
:1040F000C1481C380600083E152958D010DCBE4FB8
:10410000091F00223F1D0B0045F3F8ED11BCBDBD9A
:10411000BDA470BD7BBD8787BDBDBDBD8235BD0063
:10412000B54812301D2949D016DC19295AD01A2950
:1041300072D01B290FD01C290DD169782A78090269
:1041400011430170090A4170E978AA780902114304
:104150008170090AC17096E01E293ED0202978D0CE
:104160004629F8D1E0680028F5D1A3480068002866
:1041700000D00120F8BD1EF0C5FF0500E0688100F9
:10418000795800290FD1FFF771FDE0688100795857
:10419000002903D128001EF0B9FFEAE7002802D168
:1041A0000121FFF75CFD28001EF0B0FF6BE0E16825
:1041B00089004058022180680840F8BD41780278A3
:1041C000090211432970090A6970C17882780802CE
:1041D0001043A870000AE87055E0E0680121FFF77D
:1041E00034FE50E0E06800284DD107E0E068002888
:1041F00049D181490C390968002944D0E8D3139189
:1042000001000000803F00A000020000C6BC93ED4A
:10421000FFF715FF41E0E16800293ED10068172152
:1042200001663AE0E068FFF71EFF36E030E0E16843
:1042300000290FD1717800290CD076490068734BA2
:10424000C0308182E0688000183B18580170090A6C
:1042500041707270E0688100795800291DD00121F9
:10426000FFF707FD19E00DE0E068002815D166486A
:1042700014388168143080680918634814308068E5
:104280000818F8BDE0686149800008310D5004E06D
:104290001EF042FF756191E735610020F8BDF8B569
:1042A0000025A80059491C390A581023566EF243BC
:1042B0001A430B585A6608584030007E002D7ED1B4
:1042C0000024F1073FD040073DD450490022091D8A
:1042D00008680389C418637827781B023B434E4F54
:1042E000BB4204D901212800FFF7C3FC2AE00223C6
:1042F000037346480021001D0768072208000B00D1
:1043000002F043F90020FFF7BBFC4048001D0068A5
:10431000002803D001212800FFF7ABFC3889001DDD
:104320003881E078FE2801D10120E070E078F88043
:104330003548364928307861E37808310C68002226
:104340003900A0470124B00746D5304F0021386816
:10435000002816D001894118091D002002F097FAA3
:10436000002802D00120391F08602848243801693C
:104370003868002901D0884701E045F3E7FC0020B8
:104380003860230400211B0C0622080002F0FDF80F
:104390001D4C200045F3CFFD002809D1200045F336
:1043A000CAFD002804D1200045F3C5FD002813D024
:1043B0001649091F0968002908D00B2200E020E0F7
:1043C000002108000B0002F0E0F805E0C0880106BB
:1043D000090E2800FFF7E7FC0C491C390868006E3D
:1043E000C0060ED5F0060CD50A0001201032106070
:1043F0000968072008660021092208000B0002F066
:10440000C4F86D1C012D09E0740A01B04BAD823B6C
:10441000010000007C4100A00002000023EBCEEA76
:10442000E46D00B0EFFEFFFFDCFE000005040000BD
:1044300000DA40E70120F8BD70B505000C0009D195
:1044400002E0012001F0E3FA28001FF0D3F8002871
:10445000F7D011E0641E28001FF0CCF800280BD123
:10446000012001F0D4FA002CF4D11649A8000A5812
:10447000521C0A50002070BD012070BD124B30B597
:1044800001215A6881400A408000002A05D10D4967
:1044900080310A58521C0A50FEE70A4C803C2258D0
:1044A000012A02D15D688D435D60521E22500120B9
:1044B00030BD022800D10120BEE7022800D1012032
:1044C000DCE7000080D600B0C02A0080FF484068CA
:1044D000016F1022114301677047FC484068016F6B
:1044E0001022914301677047002070477047704762
:1044F000F6484068816B090C01D000207047816B41
:10450000490504D5816B0904090FFBD100E0806BDC
:1045100001207047ED484068406B7047EB4949689F
:104520004A6E82434A667047E84949684A6E0243C8
:104530004A667047E5494968CA6E0243CA667047D1
:10454000E24949688A6E02438A667047DF484068DC
:10455000806B8007C00F7047DC484068C0304168FE
:104560003722914341604168012211434160704705
:10457000D6484068C0304168082291434160704786
:10458000D2484068C03041680822114341607047FA
:10459000CE484068C0300168012211430160704775
:1045A000CA484068C0300168490849000160704746
:1045B00070477047C5484068416801229204114322
:1045C00041608168121191438160FF30401C416855
:1045D0004908490041607047BC484068C11DF93135
:1045E0004A6801231A434A6041689A049143416032
:1045F00081681211114381607047B4484068FF30F0
:10460000401C41680222914341607047AF484068B6
:10461000FF30401C41680222114341607CE7FA658B
:1046200001000000784300A000020000D70370578B
:104630007047AB484068FF30401C016801221143BD
:1046400001607047A6484068FF30401C0168490877
:10465000490001607047A2484068FF30401C016873
:1046600008221143016070479D484068FF30401C9C
:104670000168082291430160704799484068C03042
:1046800001680122D20711430160704794484068D5
:10469000C03001684900490801607047904840688F
:1046A00080680003C00F70478D4840688168012210
:1046B000D20411438160704789484068FF3041301F
:1046C000416A890889004162704785484068FF3027
:1046D0004130416A042291434162704780484068FA
:1046E000FF304130416A04221143416270477C48E7
:1046F0004068FF304130016A012211430162704776
:1047000077484068FF304130016A4908490001623A
:10471000704773484068FF304130016A0122D20778
:104720001143016270476E484068FF304130016AB2
:10473000490049080162704769484068FF304130CC
:10474000806A0005C00F70476548416809208001F4
:104750000818C169012292031143C161C169520065
:104760001143C161C16952001143C16170475C4886
:104770004168092080010818C16901229203114390
:10478000C161C16952001143C161C16952009143C5
:10479000C1617047524840688168102211438160AE
:1047A00070474F484168092080010818C1690122FB
:1047B00052041143C161C169D2001143C161704704
:1047C000474905224968D2018918CA693823400738
:1047D0009A43800E0243CA61C86901221043C8612E
:1047E00070473F4A0023D3561F21C0181F2800DA04
:1047F00001000806000E70470D2804D83849002231
:104800008A56002A00DBECE77047F0B593B0354CD0
:104810002068030960681B010109A06809010209F9
:10482000E068120100090001C01C1290CF7DB49510
:1048300001000000744500A000020000CEFBAE277E
:104840002069491C050960692D0100090001401D0E
:104850001190A069921C00090001801D1090E06970
:104860002D1D0609206A36010009000108300F904D
:10487000606AF61D0009000109300E90A06A000967
:1048800000010A300D90E06A000900010B300C9025
:10489000206B000900010C300B90606B0709A06BC6
:1048A0003F01000900010D300A90E06B0D3700094F
:1048B00000010D308646F020814310318543099177
:1048C000129940350895119D8243854350350795CF
:1048D000109D81438543503506950F9D86432032B8
:1048E000303150368543503505950E9D83438543C1
:1048F000944603E0846000B080D900B05035049540
:104900000D9D0C9A8543503503950B9D824385433D
:10491000503501950A9D503285430292724682437A
:10492000874350351F2000020095132583432D0235
:104930005B192360099B814383435B196360634672
:1049400083435B194919A360E160089D50320B2134
:104950008543490296466A182261079D864385432E
:104960006A186261069D503785436918A161032169
:10497000C9027218E261059D85436A182262049D8E
:1049800085436A186262039D85436A18A262029A8F
:1049900082435218E262019D874385436A1822636D
:1049A0007A186263009D85436A18A2637246824347
:1049B000511800250700E163AE00A059C004C00EE5
:1049C000FFF719FFA159C006C00CB9436D1C014384
:1049D0002D062D0E102DA151EED313B0F0BDF0B564
:1049E00088B0FF490A6A1206130F4A6A1206120FAC
:1049F000120113438A6A1206120F12021343CA6A83
:104A00001206120F120313430A6B1206120F12043E
:104A100013434A6B1206120F120513438A6BC96BBC
:104A20001206120F09061206090F134309070B435A
:104A3000EC494A68D11DFF31FA310C69D7A24A7E90
:104A400001000000704700A0000200003A13109A15
:104A50000B610C6B0B630924A4011219D468D36099
:104A6000E44BDC682406260F04969C683501240676
:104A7000240F03942C431D692D062E0F3502370396
:104A80002C43059700962600A6465C693E43240603
:104A9000240F0194240426430694019C27059C6955
:104AA0003E432406240F2506DC692E432406240FEA
:104AB00024072643029607965B68BC461B061F0F19
:104AC000039B1E013B003343049E059F3602334384
:104AD000009E3B4336041E4367463E432E43264317
:104AE000072803D0062801D00A2809D19068029827
:104AF0009060C8680798C860C86ACE6208B0F0BD08
:104B00000528FBD19068019E704636033043069E0F
:104B1000304366463043284320439060CA68C860EB
:104B2000C86A06980343604603432B432343CB6282
:104B3000E4E7F0B5AF480168426809071207090FBA
:104B4000120E11438268036B1207120D1143C268E3
:104B50001207120C114302691207120B114342692A
:104B60001207120A11438269120712091143C2691E
:104B70009446120711439646026A1407426A240FAC
:104B80001207120E1443826A1207120D1443C26AEE
:104B90001207120C14431A07120F15042C43456B0D
:104BA00026002D072D0A2E43856BC06B2D072D097E
:104BB0002E430007064390484568E81DFF30FA3051
:104BC00047684160876886601605344312061443BF
:104BD0001A07144309229201AA1813681160536836
:104BE000546062461207120F130113431402234349
:104BF00014032343140423431405234312061343CD
:104C000072461343426A4162816A8362F0BDF0B525
:104C1000784908684A69C004C50E4868D204C004CF
:104C2000C00E400105438868D20EC004C00E800249
:104C30000543C8685206C004C00EC0030543086996
:104C4000CB69C004C00E0405254315430055AD8C47
:104C5000010000006C4900A000020000FD0A12C71C
:104C60008A69DB04D204DB0ED20E5B011A430B6AA5
:104C7000AC46DB04DB0E9B021A434B6A4D6BDB0434
:104C8000DB0EDB031A438B6AED04DB04DB0E1B0532
:104C90001A43CB6AED0EDB04DB0E5B061A430B6B8B
:104CA0006D01DB04DB0E2B438D6BC96BED04ED0E48
:104CB000AD022B43C904C90E470106003E438702DB
:104CC0003E43C7033E4326434006064348010C00CB
:104CD0000443880204434D48CD0340682B43010040
:104CE000FF302C43FF30801C45696546456187696C
:104CF0008261C769C361436B33004663866B83631C
:104D0000C66BC36308000921890140180169056168
:104D10004169426181698461F0BD10B50400FFF70B
:104D200012FF2000FFF76FFEFFF77BFF10BD374932
:104D30004968FF31FF31891C0A6A00071209120114
:104D4000000F02430A62086A0F22120390430862AE
:104D500070472E494968FF31FF31891C0A6AF023E8
:104D600000079A43000E02430A62086A1A0390433E
:104D70000862704730B50400244D04280CD211207D
:104D8000FFF758FD6968092292018918C9698904E9
:104D9000C90E884200D204246868FF30FF30801CAE
:104DA000016A0F22120291432207120D1143016280
:104DB00030BD164A10B553680522D2019A181369FE
:104DC0001F246406C006A3438008034313611069CF
:104DD0006311C9069843C9090843106110BD0B4A05
:104DE00010B553680522D2019A1813691F24E403F1
:104DF000C006A343000B0343136110696311C90686
:104E00009843490C084303E080D900B0846000B0A7
:104E1000106110BDF94A10B552680523DB01D218A4
:104E200013691F246401C006A343800D034313616B
:104E30001069C90640094001C90E0843106110BD40
:104E4000EE4A10B552680523DB01D21853691F24BE
:104E50006401C006A343800D03435361FDB9777518
:104E600001000000684B00A00002000009E2AC7ADB
:104E70005069C90640094001C90E0843506110BD80
:104E80000C2010B5FFF7D5FC04001120FFF7D1FC72
:104E90002100FFF7DFFF1220FFF7CBFC04001320F7
:104EA000FFF7C7FC2100FFF78EFF1420FFF7C1FCBE
:104EB00004001620FFF7BDFC2100FFF79AFF172022
:104EC000FFF7B7FC04001920FFF7B3FC2100FFF740
:104ED000ABFF10BDCE4905224968D20189180A6985
:104EE0009205D20E824206D30A69D206D20E8242BF
:104EF00001D8082070470A691203D20E824206D3F5
:104F00000A695204D20E824201D8042070470A690D
:104F10009200D20E824206D30A69D201D20E824298
:104F200001D8022070474A699205D20E824206D308
:104F30004969C906C90E814201D801207047002085
:104F40007047B34949688031CA6AFF23E1330007DB
:104F50009A43C00D0243CA627047AD4900B5496823
:104F60008031CA6AC30652095201DB0E1A43CA6273
:104F7000FFF7B0FF0006000EFFF7E3FF00BDA449F6
:104F80004968C0314A69FF23E13300079A43C00DE5
:104F900002434A6170479E4900B54968C0314A6979
:104FA000C30652095201DB0E1A434A61FFF792FF12
:104FB0000006000EFFF7E3FF00BD95494968FF3189
:104FC00041314A6BFF23E13300079A43C00D02438E
:104FD0004A6370478E4900B54968FF3141314A6BD9
:104FE000C30652095201DB0E1A434A63FFF772FFF0
:104FF0000006000EFFF7E1FF00BD85494968FF315B
:10500000491C4A69FF23E13300079A43C00D02435C
:105010004A6170477E4900B54968FF31491C4A69B9
:10502000C30652095201DB0E1A434A61FFF752FFD1
:105030000006000EFFF7E1FF00BD75494968FF312A
:10504000FF31891C0A6A0F235B0600079A43C008D8
:1050500002430A6270476E4900B54968FF31FF316B
:10506000891C0A6A1F231B059A43C306265BE17D40
:1050700001000000644D00A000020000101A720A36
:10508000DB091A430A62FFF72FFF0006000EFFF745
:10509000DEFF00BD70B505000D20FFF7DFFB6149A5
:1050A0004E68092189017118CA699204D20E904292
:1050B00001D2012200E000225A480024401C035D76
:1050C000AB4204D0641C2406240E022CF7D3086AD9
:1050D00018255543534A000C00040832535B18430B
:1050E0000862486A000C0004AA18538818434862F2
:1050F000886A9388000C000418438862C86AD388C1
:10510000000C00041843C862086B1389000C0004EB
:1051100018430863486B5389000C00041843486324
:10512000886B9389000C000418438863C86BD3898B
:10513000000C00041843C8630520C0013018036840
:10514000168A1B0C1B04334303604368568A1B0CEE
:105150001B04334343608368968A1B0C1B04334350
:105160008360C368D28A1B0C1B041343C3603023C3
:105170002C4A634338329A18535B0C6A1B0424048C
:10518000240C23430B62521953884C6A1B042404D9
:10519000240C23434B6293888C6A1B042404240C44
:1051A00023438B62D388CC6A1B042404240C23433E
:1051B000CB6213890C6B1B042404240C23430B6364
:1051C00053894C6B1B042404240C23434B639389A5
:1051D0008C6B1B042404240C23438B63D389CC6B7A
:1051E0001B042404240C2343CB63118A03680904A1
:1051F0001B041B0C19430160518A436809041B04FA
:105200001B0C19434160918A836809041B041B0C21
:1052100019438160D18AC26809041204120C114337
:10522000C16070BD846000B055494A680921890198
:105230005118CA691F235B02C0069A43800C0243BF
:10524000CA61C869012292049043C86170474C4901
:105250004968C0314A690F239B0300079A43800BBA
:1052600002434A617047464900B54968C0314A69FE
:105270001F235B029A43C3069B0C1A439DE12F6CCC
:1052800001000000604F00A000020000E4F2CCB773
:105290004A61FFF733FE0006000EFFF7E2FF00BD94
:1052A0003C494A68092189015118CA69FF23E13341
:1052B00000079A43C00D0243CA617047354900B5E3
:1052C0004A68092189015118CA69C3065209520165
:1052D000DB0E1A43CA61FFF711FE0006000EFFF74E
:1052E000DFFF00BD10B504000D20FFF7C1FAFFF786
:1052F000A5FF1620FFF7B1FAFFF7C1FEE00614D5AF
:105300000120C007C07CC1070FD00007400F022852
:105310002AD0032809D11620FFF7AAFAFFF78EFF3B
:105320001620FFF79AFAFFF7AAFE1620FFF795FA64
:10533000FFF7C4FF1620FFF790FAFFF79EFF182033
:10534000FFF78BFAFFF71DFE1620FFF786FAFFF72F
:1053500036FE1620FFF781FAFFF750FE1620FFF702
:105360007CFAFFF76BFE10BD1120FFF781FAFFF703
:1053700065FFDAE7084881680122120791438160DE
:105380008168C205914381608168521091438160B8
:1053900070470000846000B0802A008070B506006D
:1053A0000C0015001DF008FF604A31018918002D1E
:1053B00003D0002C06D1091D04E0002C01D00831D7
:1053C00000E00C310C681DF0FBFE200070BDFFB545
:1053D00085B014000D001E001DF0EEFE0190534834
:1053E00029010818010008310F1D002E049105D075
:1053F000002C01D0010006E0011D04E0002C01D0CA
:10540000049900E03900494B09681A006032964659
:10541000121D0392121D9446121D002E029204D0FA
:10542000002C724605D1039A03E0002C624600D19D
:10543000029A059B12681500002E03D0002C06D19D
:10544000001D04E0002C01D0049800E03800036047
:105450000598904202D9059D012727E0914244D149
:105460000598814241D9314B012700252800002EA3
:1054700008D0002C02D00101C9180CE00101C918A4
:10548000091D08E0002C03D00101C9180611C783CB
:10549000010000005C5100A0000200009AE96B07C7
:1054A000083102E00101C9180C310968A94200D98C
:1054B0000D00401C0628E4DB954220D0002F1ED0B2
:1054C000002E04D0002C704605D1039803E0002C78
:1054D000604600D10298002F056010D0002C09D042
:1054E000002E03D0280000F0B8FA08E0280003F0EE
:1054F00068F904E0002E02D0280003F049F9019871
:105500001DF068FE280009B0F0BD0E4810B5006817
:10551000002801D0FFF738FF10BD0122130060E71B
:10552000012200235DE7002201235AE70022130035
:1055300057E7012211003BE70022012138E7000074
:10554000C0D900B0746D00B0FD49FF22C432888B11
:105550001042FCD17047FB49FF22C832888B1042B1
:10556000FCD17047F8B5F84C6069002802D01DF0F6
:105570002DFEFEE71DF02AFE606100210120FEF7EE
:10558000ABFF002810D0EE4EB4880120800204400A
:10559000B088EB4D3527A0433F012035B84204D1F8
:1055A000287D012108432875F8BD022000F059FB31
:1055B0000028F9D03C43B480297D0120014329759E
:1055C000F8BDE14810B5446900214161FF21017037
:1055D000DB482030017D4908490001750120FEF7B4
:1055E0009DFF20001DF0F6FD10BD70B5FCF270EAC5
:1055F000D54D0400287802280ED1A869401CA86166
:10560000200600D4FEE7802C02D1FCF262EA70BDD5
:105610002000FCF268EA70BD6869002800D0FEE74F
:1056200000210120FEF758FF0028F4D002206C6111
:1056300028700120A861C24DAC8880020440A8886F
:105640006B26A043F600B042E5D0022000F009FB33
:105650000028E0D03443AC8070BDBB4910B58869E8
:10566000401E88610FD14C694861FF2008700120FD
:10567000FEF754FF802C02D1FCF22AEA10BD200074
:10568000FCF230EA10BD0028FCDAFCF222EAFEE768
:1056900070B5AD4C6069002802D01DF020313A4150
:1056A00001000000585300A0000200006E01D5BAAE
:1056B00097FDFEE71DF094FD606100210120FEF7DB
:1056C00015FF00280DD0A34DAC88012080020440B6
:1056D000A888A04305D0012000F0CDFA002800D012
:1056E000AC8070BD9D4810B5446900214161FF2127
:1056F00001700120FEF71CFF20001DF075FD10BD9C
:1057000070B5964E7069002802D01DF069FDFEE765
:105710001DF066FD706100210120FEF7E7FE002804
:1057200014D08C4DAC88012080020440A888A0438E
:1057300082280BD02888F080002000F09CFA0028F6
:1057400004D0A888308182200443AC8070BD834897
:1057500010B58049028944698A80C2880A80002184
:105760004161FF2101700120FEF7E2FE20001DF0E3
:105770003BFD10BD70B5794D6869002802D01DF061
:105780002FFDFEE71DF02CFD686100210120FEF7D2
:10579000ADFE00281BD06F4EB4880120800204406B
:1057A000B088A043022812D0FDF784FB002803D064
:1057B000012803D13F2002E01A2000E07F20318839
:1057C000E9803080B088288102200443B48070BD15
:1057D000624810B55F49028944698A80C2880A809C
:1057E00000214161FF2101700120FEF7A1FE200090
:1057F0001DF0FAFC10BD70B5584C6069002802D04D
:105800001DF0EEFCFEE71DF0EBFC534D6061AC8833
:10581000012080020440A888514EA043B04206D027
:10582000042000F028FA002801D03443AC8070BD79
:105830004A4910B5486900224A61FF220A701DF0EA
:10584000D3FC10BD70B5454C6069002802D01DF036
:10585000C7FCFEE71DF0C4FC606100210120FEF7DB
:1058600045FE002810D03C4DAC8801208002044049
:10587000A8883C4EA043B04206D0042000F0FBF9BB
:10588000002801D03443AC8070BD344810B5446961
:1058900000214161FF2101700120FEF749FE200037
:1058A0001DF0A2FC10BD30B505000C004A13A21D6E
:1058B00001000000545500A00002000077F90BCA57
:1058C000FFF756FE284B20331D81FFF751FE9C80C9
:1058D000FFF74EFE30BD10B50400FFF749FE224B26
:1058E00020331C81FFF744FE187910BD30B5050048
:1058F0000C00FFF744FE1D4B20331D81FFF73FFED8
:105900009C80FFF73CFE30BD30B505000C00FFF772
:1059100036FE164B20331D81FFF731FE9C80FFF7CA
:105920002EFE30BD10B50400FFF729FE0F4B2033CB
:105930001C81FFF724FE988810BD10B50400FFF706
:105940001EFE0A4B20331C81FFF719FE187910BD8B
:1059500030B504000D00FFF7BEFF28430100200012
:10596000FFF7ABFF30BD000000080090003800A832
:105970004C6100B0505300005013000030B50400DB
:105980000D00FFF7A8FFA84301002000FFF795FFD7
:10599000E8E7C3484178002909D1C24909680122D2
:1059A00009024270090F02002432515C8170807834
:1059B0007047BB4910B5C878002815D10861B948AF
:1059C00040680A008007800F10321023012400284D
:1059D00007D0012803D0022803D0032803D1136085
:1059E00001E030201060CC70086910BDAE4B5968E2
:1059F000382291431040084358607047AA4B5968B9
:105A00000F2292019143104008435860704710B52F
:105A10000C00FFF7F3FF2000FFF7E8FF10BDA048E0
:105A200010B5446900214161FF2101700120FEF79A
:105A300089FD20001DF0E2FB10BD70B5984C606937
:105A4000002802D01DF0D6FBFEE71DF0D3FB6061FD
:105A500000210120FEF754FD002811D0934DAC88A1
:105A6000012080020440A888B526A0433601B04238
:105A700006D0022000F009F9002801D03443AC80A0
:105A800070BD10B502F073FE10BD8948C168890071
:105A90008908C160C168032292071143C160810C6B
:105AA0008148803041618349016183494161052119
:105AB00001617047814800B500680028D004C92002
:105AC00001000000505700A0000200008311B577CC
:105AD00001D0FFF7E4FF7F491620C86048607E4888
