:1000000001000000000000A0000200000AB6BD1BB5
:100010001CF09FE51CF09FE51CF09FE51CF09FE5A0
:100020001CF09FE51CF09FE51CF09FE51CF09FE590
:10003000041C0F67A82100002C21000030210000C3
:10004000882100008C2100009021000094210000F4
:10005000A1210000000000EA340700EA28008FE236
:10006000000C90E800A08AE000B08BE001704AE24A
:100070000B005AE12D07000A0F00BAE814E04FE226
:10008000010013E303F0471013FF2FE134EF0200E8
:1000900074EF02000030A0E30040A0E30050A0E3B2
:1000A0000060A0E3102052E27800A128FCFFFF8A44
:1000B000822EB0E13000A128003081451EFF2FE1E3
:1000C00004309FE503308FE013FF2FE1251F000070
:1000D0001E480121490341611D4901611D494161DA
:1000E0000521016170471C48802110B502F018E914
:1000F0001A48582102F014E9194800210A0006C0E4
:1001000020211648583002F00CE9002010BDF0B54F
:100110000024134F134E083708E0C51968682BF008
:1001200071FB696801208840B060641CE0003958A8
:100130000029F2D10C491F202BF064FBFFF7C8FF08
:100140000120C007B0600020F0BD000080290080C1
:10015000070000FF1020000020F10200BC04000492
:1001600008000004009000A8D50E010053480422A6
:100170000621027041700272417270474F48F8B513
:1001800000241838046000F0F4F903F0C7FA4C4971
:100190000D5C0EF0FDF9290002F0C6E8494E23007F
:1001A000320002F0C6E8401C614105042D0C03F04A
:1001B000B5FA454940000F5A13F01EF8390002F015
:1001C000B4E82300320002F0B4E8401C61410004AE
:1001D000000C290000F0DCF903F0A0FA3B490D5CAB
:1001E0000EF0D6F9290002F0A0E82300320002F058
:1001F000A0E8401C614105042D0C03F08FFA34493E
:100200000F5C0EF0C5F9390002F08EE8B9B6567BE6
:1002100001000000FC0100A000020000CE6362307B
:100220002300320002F08EE8401C61410004000C03
:10023000290000F0CEF9082000F0BAF90EF0B2F96A
:10024000310002F084E8401C0004000C00F0B9F911
:100250000EF0A8F9052102F072E8234A230002F00B
:1002600072E81922801861410006000E00F0B7F90B
:10027000601E11F03DFAFF24641C200012F048F8C3
:10028000200012F04DF811F0EFF911F011FA4020B2
:1002900014F03EFE00F0D6F900F0C2F90C200EF08A
:1002A000D9F9C0200EF0D6F911F0C2FF11F0E4FF29
:1002B00012F004F811F0D4FF30200EF0CBF9032037
:1002C00000020EF0C7F9FFF75BFF00F0A3F8F8BDDE
:1002D000C80900B070D5020040420F005AD5020094
:1002E00086D502007BD50200C0C62D0010402DE946
:1002F000F81300FA78409FE5000094E5000050E311
:100300000300000A010100FA000094E5000050E338
:10031000074C001BA90100FA0000A0E3214900FAE4
:10032000320100FA0000A0E3F20000FBF20000FA44
:10033000000094E5000050E3E300001B500100FBC7
:10034000820100FB000094E5000050E30100000A78
:100350004E0100FA894A00FA4B0100FA00000FE151
:10036000BF0000E200F021E1EE5200FA0000A0E33D
:100370001080BDE8241700B010B500F00FFC01F0AC
:10038000EAEF12F07FFC00F0E3FB002801D001202F
:1003900010BD13F0F9FE002010BD10B5FFF7F8FEF8
:1003A00001F042FE0400012011F06AF8200001F083
:1003B0003FFE002010BD10B513F05CFD10BD30B540
:1003C0009408002203E09300CD58521CC550A2426D
:1003D000F9D330BD9308002210B502E09400521CFE
:1003E00001519A42FAD310BD4B2209481202002152
:1003F00010B5FFF7EFFF03220B2052020021000788
:10040000FFF7E8FF00F051FA00F068F8002010BD97
:10041000605E000470470000084810B5119E831B01
:1004200001000000F80300A0000200003A8BDC8D00
:100430000168084B0A000C3108001960111D596051
:10044000202101F082EF0449022013F07DFE10BD4F
:10045000007900B00C0A00B009070100F8B50024CB
:1004600025001C48A70014266643C5511A481421CC
:10047000301801F06AEF184814211430301801F0D8
:1004800064EF154814212830301801F05EEF114850
:1004900030222838C159104862433C301018C460DB
:1004A0008160456185610D49C56101610C49016249
:1004B0000C498562416201F05CEF641C012CD0DBC9
:1004C000094908202BF0B2F90849FF20401C886038
:1004D000F8BD0000941700B0B0AE00B075C60200C1
:1004E00059C7020045C30200F1C40200009000A8F1
:1004F0000F490E4810B508600F490E4808601049B2
:100500000E48086010490F48086011490F480860FC
:100510001048802101F018EF0E488021803001F052
:1005200014EF0D48802101F010EF10BD49150100B6
:100530008CA900043915010090A900049D14010044
:1005400094A900044054890084A90004A0860100F5
:1005500088A90004707D00B0707E00B010B5084C12
:1005600000206062DF200002E0620648A0620121F4
:100570000548490201F0E8EE01206062002010BD4C
:10058000C09B00A800ADDEEFF07E00B0524840688E
:10059000C168524A1143C160704700B5FFF7F6FFCA
:1005A0004D48406841680122520211434160416850
:1005B000D2001143416000BD090401434648406830
:1005C0008161704744494968CA681204120C0004EA
:1005D0000243CA607047404949684A69120C1204D4
:1005E00002434A617047090401433B484068C163C4
:1005F0007047394949684A68120A120202434A6040
:1006000070473548406801690122120411430161B5
:10061000704731484068C030016840221143016092
:10062000704770472C484068C0304168CDFFF58165
:1006300001000000F40500A000020000237302FD89
:10064000372211434160704728484068FF304130ED
:1006500041681D2291434160704724484068FF3043
:10066000413041681D221143416070471F48406876
:10067000FF304130416802229143416070471B487E
:100680004068FF30413041680222114341607047A9
:1006900016484068803041680622914341607047A7
:1006A000124840688030416806221143416070471B
:1006B0000E4A52688032536A09011B0F1B07090951
:1006C0000B435362116A4003C90CC904400B014338
:1006D000116210681F21090488430121090540188F
:1006E000106010684900084310607047140A00B099
:1006F0008F0300008DC08FE21CFF2FE10121092034
:1007000000070160002141607047744801210160C9
:100710000021416070477248016B802211430163E0
:10072000704770476F4800B50068002801D0FFF798
:10073000F2FFFFF7EAFF00BD10B56B4C04F09CFE22
:10074000A04220D069496A4B084099690F22D2051E
:100750009143020752090A439A61654B4033196875
:100760003022914302400A431A60000A4107614A5D
:10077000490F0429117001DD04211170000702D511
:1007800010784042107010BDFF2310B5C1332024F3
:1007900002F0E2FF052803D002F0DEFF012801D1BC
:1007A00001235B022100180010F0A5FE10BD10B55A
:1007B000514C207900280BD1012020712CF03AFDFA
:1007C000062012F025F9C006C00F60712CF064FC01
:1007D000607910BD70B50600FFF7E9FF444D803D1C
:1007E0002C0D002811D02CF025FD8021262012F0A0
:1007F0001BF92CF051FCA8682043A8603F48816891
:10080000220211438160002003E0A868A043A86091
:10081000300011F0FAFF70BD70B512F03BF812F025
:1008200057F910F0D1F97D24E4010021200012F0E5
:100830005BF90021200012F05DF90021DCFDD8F306
:1008400001000000F00700A000020000D79BBC40A0
:10085000200012F0F5F90021200012F0F7F92D4CDC
:100860000221200012F050F90221200012F0EEF9CE
:10087000214D294C2868002804D020680121C90591
:10088000884320606068254908406060E06817215F
:1008900049020843E06012F0DFF92168C2062048EF
:1008A00001D5014300E081436268626021602168F4
:1008B000014321602868002802D0B520FFF794FF8B
:1008C00070BD7047704770477047704710B512F0A1
:1008D000C1FC0E4C002802D012F0C6FC01E012F060
:1008E000D5FCE06010BD10490E480860704700005C
:1008F000003000A8400C0090241700B0FFFF00005B
:100900003F0F000000290080140A00B0100B00B057
:1009100040230080409C000000210080FF7FFF7F7B
:10092000000000207D150100940C00B0F8B530489F
:1009300000680002000F082828D12E4C6069E504E9
:1009400028436061606940004008606120680826B3
:10095000304320602068EF12B843206048214520D2
:1009600012F088F80421482012F084F820683043FF
:100970002060206838432060322010F02FFE60692C
:10098000284360616069210508436061F8BD1A4829
:1009900010B5006800282AD02CF056FCFFF7C6FFDF
:1009A0002021192012F04AF80221162012F046F8F0
:1009B0003721332012F05EF89421242012F05AF8E7
:1009C000262012F02FF8800880000221084301063B
:1009D000090E262012F04EF86621412012F04AF846
:1009E0002CF064FB11F0F0FE642010F0F7FD10BD58
:1009F0000020008000280080241700B0F8B5594C72
:100A0000594D2068002804D0E8172860686011F06C
:100A10006FFD5648016A49004908016254480721A0
:100A200001610521416106218161524900208860F0
:100A30000B205149000701221204036880188842E4
:100A4000FBD30020016880189042FBD3E43270D8B9
:100A500001000000EC0900A0000200001082BE1D91
:100A60000120800600684448006800287ED02CF0F1
:100A7000F5FB2CF025FB4148416B020D114341630E
:100A800001686F2291430160C16889098901C160D1
:100A90003F48416A7022914341628169914381617B
:100AA000816A020C1143816212F0E0F804008007B1
:100AB0000DD53848C168090109D5C1680F22120552
:100AC0009143C160C168072292051143C160304D56
:100AD0000326314F2107803D36020F20002922DAFC
:100AE000610610D4A00712D4386802218843386008
:100AF0002869B043286128698843286128690D2145
:100B0000084328611FE0A10701D4610612D514F043
:100B10001FFA212817D328693043286138680A2131
:100B2000884338600FE0610601D4A10702D5296926
:100B3000314304E02969B1432961296901432961ED
:100B4000396801433960A00605D40C49C8681922E8
:100B500092039043C86008480068002809D00848FC
:100B6000012149044162891C816200E001E00B49D6
:100B7000C1620020F8BD0000241700B000210080F1
:100B8000C0900090000800A800230080000001B081
:100B900000290080802F0080802700800202020050
:100BA00000B50D49002087B00860020001001E203A
:100BB00003AB07C302000948FF21491C6B4607C36A
:100BC000A838074A002307A101F0F4EB0006000E45
:100BD00000D0012007B000BD9C0B00B0488200B0DF
:100BE0002D48000049646C650000000010B5FFF757
:100BF00053FC0FF043F913F00BFE13F097FD13F0C5
:100C0000D9FD10BD11483C2110B501F0BCEB0F48D7
:100C1000104A42600E49104A0160826081610021E1
:100C2000016201630D4A4163C262816300F058FBB7
:100C30000B4C0C48EE22210001F0C0EB09480A4B96
:100C40000422210001F0BEEB10BD0000000000B046
:100C5000D12F0000C12D00008132000061F74F73D9
:100C600001000000E80B00A000020000E46A00A000
:100C700069D30000DC050000F00900045FF2F30313
:100C8000F8B5C44D28680C2188432860C24CE06840
:100C9000A10C0843E060E068072149020843E060D6
:100CA000E068012109060843E060E06880098001EE
:100CB000E060E06809148843E060E0680901884367
:100CC000E060E0684F03B843E060E0680721C906D0
:100CD0008843E060E068F9100843E0602068AF49AD
:100CE000084320607D200021400211F01BFF7D267B
:100CF000F6010021300011F0B7FF0021300011F0A3
:100D000017FF0021300011F0B5FFA549086A102631
:100D10003043086228680C218843286068686105B0
:100D20008843686012F01EF8A868E1040843A860D0
:100D30002869032109068843286128693843286106
:100D400098494868002048604868192212061043F4
:100D500048609448803003684022934303600368EE
:100D60000F273F02BB430360036803277F023B4317
:100D7000036003680F273F03BB4303600368032737
:100D80007F033B43036003681B091B010360036887
:100D900006273B43036028681043286028683023F7
:100DA0009843286028683043286008680123184366
:100DB00008600868B8430860E068090D0843E0600F
:100DC000A06A1043A062180012F042F97248803005
:100DD0008168754A114081608168D2431143816006
:100DE000012010F00FFCF8BD10B50EF0A1FE6F4908
:100DF00008806F486F49000C000408606F496E4816
:100E0000086070496E48086070496F480860714911
:100E10006F480860714970480860724970480860FE
:100E20007249714808607349714808607349724893
:100E300008607449724808607449734808607549CD
:100E400073480860754974480860764974480860BA
:100E5000764975480860774975480860774976484B
:100E600008607849764808607849774877C92B9AAE
:100E700001000000E40D00A000020000FD92DED0A1
:100E800008607949774808607949784808607A4964
:100E90007848086079487A4908607B497948086051
:100EA0007B497A4808607C497A4808607C497B48DD
:100EB00008607D497B4808607D497C48086010BD1A
:100EC0000121080010B50BF067FF02F06DFC7949B5
:100ED0004000085A7849086000F058FA02210120C1
:100EE0000BF05AFFFFF7D6FE032101200BF054FF51
:100EF00000F03EFB042101200BF04EFFFF226F4962
:100F000019321C2001F076EA052101200BF044FF84
:100F1000062101200BF040FFFFF770FF07210120A1
:100F20000BF03AFF6649E120400208602AF02EFDEE
:100F3000082101200BF030FF6149042207202AF02C
:100F4000C3FD092101200BF027FF5E4800210A00A4
:100F500006C05C4A5C495D485D4B01F050EA0A21DD
:100F600001200BF019FF00F01FFA0B2101200BF0FC
:100F700013FF00F06BF90C2101200BF00DFF00F0C6
:100F8000A9F80D2101200BF007FF0E2101200BF025
:100F900003FF002010BD10B500F016FA00F04AFB68
:100FA00000F058F9002010BD002F008000210080C3
:100FB00000081C200028008080260080FEFFFFFB28
:100FC00040AD0004082100B034AF000487D5000014
:100FD000D8A9000409790000C8A9000449790000D3
:100FE000CCA900045B790000D4A900046179000059
:100FF000D0A9000499DA000018AB000421D6000043
:101000001CAB000405D6000020AB000489D500000D
:1010100024AB0004095A000054B00004215A000017
:1010200058B00004355A00005CB0000419440000B8
:1010300050B0000481D9000028AB000429D9000079
:101040002CAB00049DDA000038AB0004D1DA0000BC
:101050003CAB0004D5DA000040AB0004A1D900008D
:1010600008AB000481DA00001CB50004FDC30000D9
:1010700018AA0004E731010030AB00040B63576C81
:1010800001000000E00F00A000020000097A606D7E
:10109000E531010034AB000479C3000010AA00045C
:1010A00029C3000014AA00049DC500000CAA000476
:1010B000DDC6000008AA00047DFD000000AB0004AE
:1010C00035FD000004AB000444D50200E8A900048B
:1010D000882B0004F0A90004A80B00B0B81B000086
:1010E000D00F000470D602000449034810B54860D0
:1010F000080013F079F810BD51060100CC0B00B0C8
:1011000011491048086012491048086012491148F6
:1011100008601349114808601349124808601449CF
:1011200012480860144913480860154913480860BC
:1011300015491448086016491448086016491548AE
:1011400008607047F9C40000CCB300044DC400002F
:10115000BCB3000485C40000C0B3000491C4000007
:10116000C4B30004BDC40000C8B3000455C50000EA
:10117000DCB3000471C50000E0B30004FDC400004E
:10118000D0B3000419C50000D4B3000489C5000021
:10119000E4B3000441C50000D8B3000410B5012435
:1011A000A4022048EE22210086B001F026E925F0B5
:1011B000C3FB21F01FFD012200210C2003AB07C35C
:1011C0000200184802920090174A0019002317A144
:1011D000019401F00EE900281DD1194815A101F074
:1011E0001CE918481A4A416817488160174901618B
:1011F000002141618261174AC16102624162164960
:10120000816201F0F2E8002805D1144911202AF08A
:1012100049FB002802D0012006B010BD00F018FDE7
:101220000020F9E74834000435C401004E666354D9
:1012300061736B004E6663466C616773000000006B
:10124000F03800043C0C00B0709600B0615E020003
:101250003970020021A1020021320200694401001C
:10126000064900200880704706490548086007497C
:10127000054808600749064808607047D09800B0E4
:10128000AD1201002CBB00047D12010003A4A8C70D
:1012900001000000DC1100A0000200007761C7DD42
:1012A00028BB0004F911010024BB000410B500F0B4
:1012B0000BFF1B4C6060A168002904D0491CA16091
:1012C00000F006FF10BD0021012010F073F9A068A6
:1012D000401CA0600020C04320610020E060114855
:1012E0000168820B1143016010490F480880091FF3
:1012F000088004F0B7FA10BD10B5094CA0680128A9
:1013000002D9401EA06010BD04F090FA0020A06039
:10131000012010F005F9606800F0DAFE10BD000051
:10132000201B00C000210080FFFF0000500600903D
:101330000F490E48086010490E48086010490F48D0
:10134000086011490F488968086011490F48086012
:1013500011491048086012491048086012491148A4
:10136000086013491148086070470000119400009C
:10137000ECB6000429940000F0B60004BD90000013
:10138000E0B60004600E00A99C0C00B05D95000062
:101390002CB700043594000000B700044D94000001
:1013A00008B700041D95000020B70004081000A92C
:1013B000A4B0000470B500240B4D04E0401940684F
:1013C0002AF07AFA641CE00029580029F6D170BD91
:1013D00006488168FF22521C1143816081681022F7
:1013E0001143816070470000BC0C00B0009000A861
:1013F00010490F4810B5086010490F48086011499E
:101400000F480860114910480860FFF783FE00F09C
:101410002BF800F039FC0F490D4808600F490E48C1
:10142000086001F008E80F490D48086010BD000091
:101430003B05010050B400043105010048B400042C
:10144000390501004CB40004416800004CB30004AD
:1014500005C7000068B7000401CA00006CB70004AB
:1014600099BF0000E8BA00041649154808601749FA
:10147000154808601749164808601849164808605A
:101480001849174808601949174808601949184849
:1014900008601A49184808601A491948240B13783B
:1014A00001000000D81300A00002000083897960C9
:1014B00008601B49194808601B491A4808601C4904
:1014C0001A4808601C491B4808601D491B480860F1
:1014D00070470000AD6B000000B40004856B000095
:1014E000F8B30004996B0000FCB30004616C0000C9
:1014F00004B400048D6C000014B40004A96C000056
:1015000018B40004BD6C00001CB40004796C000029
:1015100010B4000419C2000008B40004696C000093
:101520000CB40004716B0000F4B300045D6B0000A8
:10153000F0B30004EDC1000094BB0004D9DA000050
:1015400090BB0004F7B5012082B00D00019008881F
:1015500046082BF061FE710002980F0011F04AF866
:10156000012409E0029A6000295A8018801E0004B4
:10157000000C11F03FF8641CB442F3DD7819418887
:10158000029811F037F82BF0ADFD2BF06FFE4920DB
:1015900011F02CF804990842F9D0000601D500207A
:1015A00001902BF0AFFD019805B0F0BD2B4970B54F
:1015B00048680E0C304348602BF058FE092011F0AB
:1015C00015F80C210143092011F018F8152011F02D
:1015D0000DF8BF210140152011F010F84A2011F03C
:1015E00005F80621050001434A2011F007F8002400
:1015F000472010F0FBFF641C0A2CF9DB2900F920BE
:1016000001404A2010F0FAFF492010F0EFFF1021AE
:101610000143492010F0F2FF002010F0E7FF1049CD
:101620000870012010F0E2FF0E4908702BF06AFDEF
:101630000D4920223000FFF785FF002807D01F202A
:101640000A494022C002FFF77DFF002800D1FEE7D3
:1016500000F000FB012010F0D5FF70BD402300809A
:101660007500000476000004082100B0A81700B03F
:1016700070B50025A849A7480860A949A74808608F
:10168000A949A8480860AA49A8480860AA49A948E1
:101690000860AB49A9480860AB49AA480860AC4952
:1016A000AA480860AC49AB480860AD494B07C45133
:1016B00001000000D41500A0000200009A71A710DC
:1016C000AB480860AD4CAC48E064AE49E062AC4861
:1016D0000860AE49AC480860AE49AD480860AF4903
:1016E000AD480860AF49AE480860B049AE480860F0
:1016F000B049AF480860B149AF480860B149B04847
:101700000860B148B2498571B0480860B14901200C
:101710008877B249B0480860B148B2490860B34917
:10172000B1480860B349B2480860B449B24808609B
:10173000B449B3480860B549B3480860B549B448EE
:101740000860B649B4480860B649B5480860B7496A
:10175000B5480860B749B6480860B849B648086057
:10176000B849B7480860B8482061B9492062B7480D
:101770000860B848B9494576B7480860B949B848DB
:101780000860BA49B8480860BA49B9480860BB4916
:10179000B9480860BA4905200870BB49B9480860D3
:1017A00013F012FC212802D2B949B8480860BA499E
:1017B000B8480860BA49B9480860BB49B9480860E8
:1017C000BB49BA480860BC49BA480860BC49BB4834
:1017D0000860BC48A064BD49A062BB480860BC4822
:1017E000BD496063BB480860BD49BC480860BE494C
:1017F000BC480860BE49BD480860BF49BD48086094
:10180000BE48C0496065BE480860C049BE4808601F
:10181000C049BF480860C148BF490162C049C24AC7
:101820004162C0491160C24AC0491160C24AC149FF
:101830001160C34AC1491160C34AC2491160C44A18
:10184000C2491160C44AC3491160C54AC349116005
:10185000C54AC4491160C64AC4491160C64AC5494F
:101860001160C74AC5491160C74AC6491160C84AD4
:10187000C6491160C84AC7491160C94AC7491160C1
:10188000C94AC8491160CA4AC8491160C94981603A
:10189000C949CB4AC161C9491160CA496161CB4A92
:1018A0006162C9491160CB4AC9491160CB4ACA4932
:1018B0001160CC4ACA491160CC4ACB49DA341C7950
:1018C00001000000D01700A0000200006E9919ADC1
:1018D0001160CD4ACB491160CC49CE4A0D70CC493C
:1018E0001160CE4ACC491160CE4ACD491160CF4A31
:1018F000CD491160CF4ACE4911602549CE4A803189
:10190000CA60CE49A165CF4AA163CD491160CF4AD3
:10191000CD491160CE490160CE494160CF49CE48E2
:101920000860D049CE480860D049CF480860D04808
:10193000D1492063CF48086070BD000021B200008B
:1019400070BB00043D61000078B20004759E000089
:10195000D4B90004B190000060B70004A990000061
:101960005CB70004C99B00007CB90004D9B000003A
:1019700000BB0004DD9E0000D8B90004359A0000C9
:1019800038B90004FD82000054B50004217D000038
:10199000B4AF000461A60000F8B9000449B100002A
:1019A0006CBB0004457F000040B50004F5890000D1
:1019B00090B60004A95E0000F0B100046599000033
:1019C000FCB70004819D0000ACB900041170000058
:1019D00010B50004DD9C000080B9000440AD000497
:1019E000316900005CB3000440AA0004ED960000D9
:1019F00094B700049596000090B70004C9970000C2
:101A00009CB70004C99500008CB70004456900002C
:101A100038B600042D630000D4B200042D6B000022
:101A200080B30004796F0000A0B40004B9AD0000D9
:101A300098BA0004B99D0000C8B90004996100007B
:101A400088B200042D9E0000CCB90004256500007A
:101A5000E0B20004E1750000A8B500041D8E00008E
:101A6000258F0000A8B60004F0EF0200818D000071
:101A7000A0B60004B17F000054B60004BDC1000050
:101A800088BB00048D950000A8AA0004CD5D00006D
:101A9000ECB1000465AA000431B40000D0B9000420
:101AA0001966000004B3000431A700005CBA00040A
:101AB000916F0000A8B40004FD750000ACB50004EF
:101AC00065750000A0B5000445740000ADD8ECC7F2
:101AD00001000000CC1900A000020000A9801BF04A
:101AE0007CB500043FB3000068B90004F179000040
:101AF0002585000060B60004B5790000F1BF000044
:101B00004CB900049199000060B8000489A8000055
:101B100064BA0004CDAD0000E4BA000469760000A8
:101B2000BCB50004C57D0000596900006CB3000419
:101B300031B80000E4B9000445B80000F4B900046D
:101B4000BF6A000054AD0004B56A000031710000A6
:101B50004CB600041DB40000A8B9000431BA00005E
:101B600084BA00041D61000000B20004E99900007D
:101B7000F0B8000491A6000048BA0004FDB70000C8
:101B8000DCB90004C9980000E8B7000491B0000077
:101B9000FCBA00042587000088B6000475660000C2
:101BA00014B300044D82000058B60004F584000010
:101BB0005CB6000401770000CCB50004D1760000CB
:101BC000C0B500040D780000ECB50004D985000014
:101BD0006CB60004E567000028B30004F567000058
:101BE0007169000061770000D8B50004AD8F000076
:101BF0002973000068B60004CD86000084B6000496
:101C0000598B000094B60004C98900008CB600040A
:101C1000CD64000058AC00047DB3000078B9000426
:101C200090AD0004FDB20000D0B70004B186000002
:101C300078B60004C585000064B60004E16F0000BA
:101C4000C8B40004E16E00006CB400047D7D0000A7
:101C5000ED8C000021C1000078BB0004356E00004F
:101C600044B40004196D0000E56C00001169000027
:101C700058B30004717200005CB500046573000085
:101C800060B500046979000081580000C0B100040B
:101C9000054810B50078102804D1044904484C22A6
:101CA0002BF0A2FC10BD00007600000482000004AE
:101CB000B20100040548064910B50078097800F023
:101CC00029F804480068804710BD0000004000AAC1
:101CD000004000AA04040004074906488EAED483DD
:101CE00001000000C81B00A0000200005D68A54DB7
:101CF000086008490648086008490748086009491B
:101D0000074808607047000035370000F4B1000450
:101D10003578000000B600044378000004B60004E3
:101D20002D780000FCB50004064808B50268009252
:101D3000054A0649130008000C386C3300F0B0EB7C
:101D400008BD000050000004E8D000B0B41600B098
:101D5000203052E20400005A203062E23002A0E15A
:101D6000110380E13112A0E11EFF2FE13103A0E158
:101D70000010A0E31EFF2FE1194930B417220A60BA
:101D800036224A60174A184C0021030C8D001B189C
:101D90005351164B491C584300193729F5DB30BC09
:101DA00070470120E8E770B40D4C0E4D6068216863
:101DB00083008E00EA58AE59491E401E9219EA501F
:101DC00036230029216002DA2360606003E00028E6
:101DD000606000DA6360500070BC4008704700002B
:101DE0001C1700B074AD00B0E119D666CD0D01002E
:101DF00010B4042A0ED303000B439B070AD108C872
:101E000010C9A34202D1121F042AF8D2A34201D062
:101E1000001F091F002A02D1002010BC7047D30701
:101E200001D0521C05E003780C78401C491CA342E9
:101E300007D103780C78401C491CA34201D1921EA3
:101E4000F1D1181BE9E700000000A0E1230000EB3E
:101E500003002DE9830000EB0300BDE84B0000FA0E
:101E60000F002DE9820000EB0F00BDE81CC09FE5CC
:101E70000FC08CE001001CE30DE08F120FE0A00109
:101E80001CFF2FE101C08FE21CFF2FE100F01CF8C6
:101E90005929010001402DE90000A0E16A0000FA83
:101EA0000140BDE8000000EA0000E0E30000A0E11E
:101EB0000C109FE51800A0E3563412EF1EFF2FE12F
:101EC000C40100002600020010B5C046C046040050
:101ED000C046C0462000FFF7DEEF10BC08BC184724
:101EE0000E40A0E1670000EB04E0A0E103CA126C21
:101EF00001000000C41D00A00002000044907B3DD2
:101F000001402DE97C0000EB0040A0E10140BDE86C
:101F100013402DE90100A0E3121DA0E3081084E5A1
:101F2000000084E51340BDE80010A0E1040084E552
:101F30000EF0A0E110402DE903002DE96E0000EB4A
:101F40000040A0E10300BDE8042094E50D30A0E1CD
:101F500000E082E003005EE1002081E50B00008AE2
:101F60000E3093E0011A8EE26330A0E1071081E2A7
:101F70000730C3E30710C1E3030051E10310A08160
:101F8000041084E51040BDE8020041E01EFF2FE18F
:101F90000020A0E10000A0E30000A0E11040BDE8A7
:101FA0001EFF2FE1F0B585B0C046C04605000C000D
:101FB0002BF05AEB002001950294C046C0460390D6
:101FC00001A8FEF714E9040001A80D00009303C85E
:101FD0001600C046C046C046C046FFF7ECFE0021D2
:101FE0000800C046C046070000F090E804900021B9
:101FF00007600800C046C046411C049841600021AB
:102000000800C046C0460100049881600021080015
:10201000C046C04601000498C16000210800C046C7
:10202000C046010004980161C046C046C046C04693
:10203000C046C046C046C046C046C046C046C04670
:10204000C046C046C046C046C046C046009B05B01C
:102050002000049C29003200A646F0BC01B0704765
:1020600010B5C046C0460020C046C046C046C04667
:10207000C046C04610BC08BC184700000000E0E3A2
:102080000210E0E31EFF2FE110402DE90000A0E167
:102090001040BDE81EFF2FE11EFF2FE10E50A0E112
:1020A0001F0000EB05E0A0E10050A0E10700C0E345
:1020B0000D10A0E10A30A0E100D0A0E160D08DE2D7
:1020C00020402DE9DD2E00FA2040BDE80060A0E3AD
:1020D0000070A0E30080A0E300B0A0E30710C1E31C
:1020E00005C0A0E1C009ACE8C009ACE8C009ACE893
:1020F000C009ACE801D0A0E11EFF2FE13A8EC15922
:1021000001000000C01F00A000020000B078C580E0
:1021100004009FE51EFF2FE11EFF2FE160AE00B01F
:1021200004009FE51EFF2FE11EFF2FE170AE00B0FF
:1021300010B410BC7047000000009FE51EFF2FE1A7
:1021400050AE00B004009FE51EFF2FE11EFF2FE1FF
:1021500054AE00B010B500F0BCE910BD802810B539
:1021600002D100F0B6E910BD00F0B6E910BD10B51F
:10217000040000F0B6E9206010BD0F4870B5046897
:102180000E4EA10706D500210161F26C0120904797
:102190000220844300250AE0E00706D0A800325858
:1021A000002A02D021002800904764086D1C002CF2
:1021B000F2D1002070BD0000009000A820F10200C4
:1021C000913082E00300A0E10210A0E11EFF2FE1A8
:1021D00000A0004734129FE5F8219FE5DB00A0E353
:1021E00000F021E1021081E00310C1E3041041E29C
:1021F00001D0A0E100A0A0E300B0A0E3D8219FE5BA
:10220000D200A0E300F021E1021081E00310C1E35D
:10221000041041E201D0A0E1D300A0E300F021E1ED
:10222000AC319FE5001083E5A4119FE5000091E526
:10223000040080E2A8219FE5000082E5D0219FE50F
:10224000D0019FE52C0082E50700A0E3300082E585
:102250000900A0E3000082E50B10A0E3101082E566
:102260000130A0E3243082E5283082E5A8219FE5F3
:102270001030A0E3083082E51EFF2FE10EF0B0E140
:10228000FF402DE900004FE101002DE98C119FE591
:10229000002091E51F2002E284319FE5823193E71F
:1022A0000FE0A0E113FF2FE174019FE50810A0E308
:1022B000920102E00410A0E3012082E0021090E706
:1022C00024209DE5012082E024208DE50100BDE869
:1022D00000F069E1FF80FDE8FEFFFFEAFEFFFFEA94
:1022E000FEFFFFEA7F0000EAFFF747FF4E48004786
:1022F000F346FFF7FDFF00002C019FE50010E0E32F
:10230000001080E5001090E520019FE5B99B6296E2
:1023100001000000BC2100A000020000B8A7345D4D
:10232000100F01EE1CF19FE5900F07EE1EFF2FE14D
:10233000F8009FE50010E0E30C1080E5EC009FE55D
:1023400004119FE5081080E500019FE5001090E56D
:10235000081081E3001080E5001090E5081011E2FC
:10236000FCFFFF0A900F07EE1EFF2FE1100F11EE8A
:102370001EFF2FE1100F01EE1EFF2FE1010050E2C2
:10238000FDFFFF1A1EFF2FE1C4109FE5A520A0E36B
:102390000000A0E3040081E4012052E2FCFFFF1AE8
:1023A000B0009FE5B0109FE5001080E5AC009FE510
:1023B000AC109FE5001080E5A8009FE5A8109FE500
:1023C000001080E51EFF2FE100000FE11F0000E27A
:1023D000120050E30100A0030000A0131EFF2FE134
:1023E000100F6FE11EFF2FE1ACBD000410000000D4
:1023F00000040000E00300009CBD000401C05EE595
:102400000C0053E10330DE370C30DE2783C08EE052
:102410001CFF2FE13F96A0E319FF2FE14C909FE5B1
:1024200019FF2FE1A0F10200009400A83F1F000057
:10243000009000A8B0380080F07E00B00016F003D5
:10244000002100807C1700004400000002004000D2
:10245000C42000806CBD0004F4BD00048120000095
:10246000F8BD0004C5D40200FCBD000499210000A1
:102470000000FFFF04F01FE54038F40304F01FE5FF
:10248000D03AF40304F01FE52C33F40304F01FE505
:102490003041F40304F01FE5015EF00304F01FE592
:1024A000D573F00304F01FE57D46F00304F01FE54B
:1024B000F836F40304F01FE587F2F30304F01FE598
:1024C000FD7DF00304F01FE5DB80F00304F01FE561
:1024D000A131F00304F01FE57D93F00304F01FE544
:1024E000015FF00304F01FE58C17F00304F01FE513
:1024F000A017F00304F01FE5114DF00304F01FE5F1
:102500001817F00304F01FE5EB0BF40304F01FE5CC
:10251000B50CF40304F01FE5DB0CF4034DF731DBDD
:1025200001000000B82300A0000200004C4F8AE028
:1025300004F01FE5830CF40304F01FE5AF0BF40374
:1025400004F01FE5A141F40304F01FE50375F00357
:1025500004F01FE57905F40304F01FE56542F40378
:1025600004F01FE53D42F40304F01FE59438F40342
:1025700004F01FE54708F40304F01FE5FB07F4032C
:1025800004F01FE52108F40304F01FE5FB08F40341
:1025900004F01FE5D907F40304F01FE50837F4033E
:1025A00004F01FE59F5FF00304F01FE51998F003A6
:1025B00004F01FE583ECF30304F01FE567ECF3037D
:1025C00004F01FE5457EF00304F01FE5637EF00391
:1025D00004F01FE555ECF30304F01FE50FDBF003F7
:1025E00004F01FE559ABF00304F01FE5039CF00372
:1025F00004F01FE54D41F40304F01FE537ACF00390
:1026000004F01FE50BAAF00304F01FE5E43AF4031D
:1026100004F01FE54B7EF00304F01FE5939FF003E9
:1026200004F01FE5558CF30304F01FE5E99CF30368
:1026300004F01FE541C5F00304F01FE541C3F003BA
:1026400004F01FE5E58BF30304F01FE54BADF30346
:1026500004F01FE54DADF30304F01FE57B8CF3039D
:1026600004F01FE5CDA1F00304F01FE58532F0036F
:1026700004F01FE5A533F00304F01FE55C39F40313
:1026800004F01FE5D764F10304F01FE51F9EF30378
:1026900004F01FE54FA1F30304F01FE5174DF2030B
:1026A00004F01FE50D80F00304F01FE52580F00322
:1026B00004F01FE5038CF30304F01FE5CD8BF30357
:1026C00004F01FE5976AF20304F01FE51970F203A6
:1026D00004F01FE51F6AF20304F01FE5550BF30336
:1026E00004F01FE5FD56F30304F01FE5970BF30319
:1026F00004F01FE58B0BF30304F01FE5650BF303F8
:1027000004F01FE56DD9F20304F01FE54149F4031D
:1027100004F01FE51D4FF20304F01FE543A4F3038B
:1027200004F01FE5A119F00304F01FE51209DBF620
:1027300001000000B42500A00002000055B754902D
:10274000997AF00304F01FE513EDF30304F01FE59D
:102750005BECF30304F01FE5E7F0F30304F01FE57F
:1027600033C5F30304F01FE5D128F20304F01FE59D
:10277000E9D9F00304F01FE5BFB3F20304F01FE54D
:10278000DB24F10304F01FE515ACF00304F01FE5B2
:102790000D4AF10304F01FE5C148F40304F01FE5FE
:1027A0000BB8F00304F01FE5C3ABF00304F01FE522
:1027B00071CFF00304F01FE5F543F40304F01FE5C7
:1027C00085B9F20304F01FE5ABB9F20304F01FE58D
:1027D000CB1BF30304F01FE51DF8F10304F01FE524
:1027E000D3C0F20304F01FE57FBAF20304F01FE543
:1027F0001B69F10304F01FE595BAF20304F01FE52D
:102800009FC3F20304F01FE5DC37F40304F01FE577
:102810005DD1F10304F01FE58353F10304F01FE5DC
:1028200035B5F20304F01FE54927F20304F01FE574
:102830000118F20304F01FE5A114F20304F01FE5F0
:102840007543F20304F01FE52553F20304F01FE57E
:102850004150F20304F01FE5EF39F10304F01FE5E6
:10286000D9A5F20304F01FE5F797F20304F01FE582
:10287000F187F20304F01FE59584F00304F01FE5EF
:10288000EB86F00304F01FE52186F20304F01FE558
:10289000BB6CF20304F01FE513AAF20304F01FE57A
:1028A0009F76F20304F01FE52D8CF20304F01FE580
:1028B0004F89F20304F01FE511ACF20304F01FE5A9
:1028C000F38CF20304F01FE59DB3F20304F01FE55F
:1028D000C5B9F20304F01FE50D8CF30304F01FE506
:1028E0002384F00304F01FE57371F20304F01FE585
:1028F00005FEF20304F01FE50FA4F30304F01FE547
:102900007152F30304F01FE59913F30304F01FE57C
:1029100065D0F00304F01FE5412AF30304F01FE53E
:102920005B34F30304F01FE5B34DF30304F01FE53C
:10293000AB48F30304F01FE59D5EF30389F00A4EF4
:1029400001000000B02700A000020000A15FEA2DF6
:1029500004F01FE5F384F30304F01FE5D79EF303AF
:1029600004F01FE5539CF30304F01FE5DFB6F20308
:1029700004F01FE585A2F30304F01FE59FA3F30312
:1029800004F01FE573C4F30304F01FE587CBF303E2
:1029900004F01FE565DEF30304F01FE53DE2F303F9
:1029A00004F01FE5CBC6F30304F01FE5DFC0F3031B
:1029B00004F01FE50DDDF30304F01FE5A7E2F303C8
:1029C00004F01FE50B0AF30304F01FE5B9DDF30380
:1029D00004F01FE5FFDAF30304F01FE509A4F30395
:1029E00004F01FE50BE3F30304F01FE51FDBF00326
:1029F00004F01FE595ABF00304F01FE56FBEF30391
:102A000004F01FE5C9ADF30304F01FE5D35BF20347
:102A100004F01FE57BA4F30304F01FE545C4F303B2
:102A200004F01FE549B9F30304F01FE58FC0F30379
:102A300004F01FE5C9BEF30304F01FE521ACF30366
:102A400004F01FE5C7EBF30304F01FE5590BF30394
:102A500004F01FE5DFA7F30304F01FE523CFF30322
:102A600004F01FE52BD8F30304F01FE5C7D8F303E8
:102A700004F01FE54DCDF30304F01FE5BBC3F303E2
:102A800004F01FE549E0F20304F01FE53BA5F30362
:102A900004F01FE5D9D1F30304F01FE5A5DEF2032E
:102AA00004F01FE535E0F20304F01FE5B1DEF203A8
:102AB00004F01FE517DFF20304F01FE521A1F30383
:102AC00004F01FE5054FF20304F01FE531A1F30305
:102AD00004F01FE553BAF30304F01FE5E7B2F30374
:102AE00004F01FE521B2F30304F01FE5CBB1F303BB
:102AF00004F01FE535B4F30304F01FE5D5B5F30387
:102B000004F01FE539A7F30304F01FE50923F103DF
:102B100004F01FE52312F20304F01FE5BF69F2037E
:102B200004F01FE54134F10304F01FE58169F2036D
:102B300004F01FE5E111F20304F01FE5E5BCF20328
:102B400004F01FE5293CF10304F01FE5F92B8D99F2
:102B500001000000AC2900A0000200006646E870F9
:102B60009F69F20304F01FE52731F10304F01FE52C
:102B7000258BF10304F01FE5558CF10304F01FE5EC
:102B800001C4F10304F01FE51B0FF20304F01FE57D
:102B900047DEF10304F01FE5170FF20304F01FE511
:102BA000210FF20304F01FE5FB0EF20304F01FE512
:102BB00063BCF10304F01FE54341F10304F01FE59A
:102BC000E913F30304F01FE50D69F10304F01FE5B9
:102BD000699DF20304F01FE5759AF20304F01FE506
:102BE000D97AF20304F01FE52582F20304F01FE511
:102BF0006770F20304F01FE5296DF20304F01FE58E
:102C0000BD7FF20304F01FE53911F20304F01FE564
:102C1000DDA5F20304F01FE53195F20304F01FE592
:102C2000A30BF30304F01FE50B0FF20304F01FE501
:102C3000110FF20304F01FE5FD1BF30304F01FE581
:102C40000F6DF20304F01FE5CD5FF10304F01FE503
:102C50008F84F00304F01FE53B97F30304F01FE5B6
:102C60004B8EF30304F01FE5EF9CF00304F01FE527
:102C7000C933F10304F01FE5FD36F10304F01FE54D
:102C8000FDF3F10304F01FE5711BF20304F01FE5EF
:102C90001919F10304F01FE56581F10304F01FE544
:102CA000251CF20304F01FE5C546F20304F01FE5FE
:102CB000C971F20304F01FE54D11F20304F01FE5A2
:102CC000259DF20304F01FE5A571F20304F01FE552
:102CD000A3A2F20304F01FE5E583F20304F01FE56D
:102CE000398EF20304F01FE5578BF20304F01FE561
:102CF00025C6F30304F01FE5B5B7F30304F01FE5A1
:102D0000A9A1F30304F01FE52380F30304F01FE5FA
:102D100011EFF10304F01FE53B85F00304F01FE51C
:102D2000E784F00304F01FE5EDA3F00304F01FE5D2
:102D3000EF9FF00304F01FE58D9AF00304F01FE508
:102D40009D9AF00304F01FE5639AF00304F01FE579
:102D5000EB88F00304F01FE58513F403686F701C23
:102D600001000000A82B00A00002000092AE56CD8A
:102D700004F01FE58D9BF00304F01FE5350FF4030D
:102D800004F01FE57B11F40304F01FE5556BF0031D
:102D900004F01FE5CB74F00304F01FE56B74F0033F
:102DA00004F01FE55D11F40304F01FE5E10EF403E8
:102DB00004F01FE56D6BF00304F01FE5EB74F00306
:102DC00004F01FE5736FF00304F01FE5A76EF00336
:102DD00004F01FE5690EF40304F01FE5190FF40376
:102DE00004F01FE5FF0EF40304F01FE55B75F0032C
:102DF00004F01FE5ED75F20304F01FE54780F003D2
:102E000004F01FE53C39F40304F01FE5EF96F003EE
:102E100004F01FE56575F00304F01FE5C83AF403FC
:102E200004F01FE5B742F40304F01FE55542F40334
:102E300004F01FE5F582F10304F01FE5DF15F2034E
:102E400004F01FE5EDA6F00304F01FE5D999F003A7
:102E500004F01FE5FBDEF30304F01FE575DFF30369
:102E600004F01FE5BDB5F20304F01FE50F9AF0036F
:102E700004F01FE5319AF00304F01FE5BD7EF00376
:102E800004F01FE5CF9AF00304F01FE5B79CF003B0
:102E900004F01FE5BB9EF00304F01FE5C19DF003A5
:102EA00004F01FE56B9DF00304F01FE5459EF00361
:102EB00004F01FE5019BF00304F01FE52B9CF003D9
:102EC00004F01FE51B99F00304F01FE59398F0034D
:102ED00004F01FE50D4AF00304F01FE5AD35F003E3
:102EE00004F01FE5F5B5F20304F01FE56571F20388
:102EF00004F01FE55F92F20304F01FE58186F00302
:102F000004F01FE54987F00304F01FE54733F2039F
:102F100004F01FE5ED0600B004F01FE5490700B01E
:102F200004F01FE5290700B004F01FE5410900B0D7
:102F300004F01FE50D0900B004F01FE5F947F003A8
:102F400004F01FE53743F40304F01FE5FB42F403EC
:102F500004F01FE53394F00304F01FE5A98FF0039C
:102F600004F01FE5BF92F00304F01FE5D855452695
:102F700001000000A42D00A0000200008B5688BDB7
:102F8000D58FF00304F01FE58995F00304F01FE5E9
:102F9000A817F00304F01FE5B70EF40370B50400A2
:102FA00008000025E20704D0FFF7E8EA12491148BB
:102FB000086012480078012819D1200702D500F0D6
:102FC0001FF80500600602D5FFF7DCEA05002006C1
:102FD00002D5FFF7DCEA0500A00502D500F06AF88B
:102FE00005006007800F02D0FFF7D4EA0500280033
:102FF00070BD00001513010064B700046CB000043C
:103000007FB525480078002843D1FFF7C8EA0022A1
:103010002248D2430021FFF7C6EA214E1F2230602A
:103020000189520308181F49000C009008681E4DC2
:1030300090430F225203801808600A00A8692521D6
:10304000FFF7B4EA686925216A46FFF7B0EA154A36
:10305000A8692621FFF7AAEA144A68692621FFF722
:10306000A6EA134CE080306800892081FFF7A2EACD
:1030700060814004000C0021A081218061803168C2
:103080000A89019051180391A8692C2101AAFFF720
:103090008EEA002004B070BD88B00004100C00B0AF
:1030A00078B00004500000B0AC0000B05C0000B08C
:1030B000B00100B0FEB50024334E344D27216869BD
:1030C00001AAFFF774EA0198641CC00701D0B4425A
:1030D000F4D32F4C2F4E2088002822D130680027AF
:1030E000002803D02C490968884737602B48FFF730
:1030F00066EA002830600FD001890A182849521E5C
:1031000089788A1812781207120F22806780E78068
:1031100000894018A0800DE022490868401C086022
:1031200008E068692D216A46FFF740EAE0880099C7
:103130004018E080E1891C480429218902D1628974
:103140008918FFE7026811812188002913D00168DE
:1031500032680A60A088E2880523801832681081EE
:1031600068690122FFF72EEA6088401C6080208891
:10317000401E208005E0006801890818602AC627E3
:1031800001000000A02F00A0000200007FBE36005A
:103190006189FFF726EA0020FEBD0000FFFF000066
:1031A000AC0000B0B00100B07CB0000484B00004FA
:1031B0003C0000B0680000B090B0000478B000049B
:1031C00070B504001A4D0020E20708D06868002896
:1031D00002D1194A174810600800FFF706EA17499C
:1031E000097801291AD1210704D51548007800284B
:1031F00015D00020610604D5124900200860FFF7B1
:10320000F8E9210601D5FFF7F8E9E10501D500F05D
:1032100071F86107890F01D0FFF7F2E970BDFFF780
:10322000F4E968680028E4D100F00EF8E1E7000056
:10323000AC0000B01513010064B700046CB00004CA
:1032400088B00004980C00B07FB50022D243002162
:103250002048FFF7B2E9204E204D30600189204A16
:103260000818000C0090E8682521FFF7AAE92869F2
:1032700025216A46FFF7A4E9194AE8682621FFF7E5
:10328000A0E9184A28692621FFF79AE9164CE08040
:10329000306800892081FFF798E960814004000CC4
:1032A0000121A08121800021618031680A8901907B
:1032B00051180391E8682C2101AAFFF782E90B4815
:1032C000E1880088FFF728E90949C870002004B0A8
:1032D00070BD0000100C00B074B00004AC0000B071
:1032E000500000B05C0000B0A00100B06EB000045F
:1032F000680000B0F8B50024534D544827210069F8
:103300006A46FFF75EE90098641CC00701D0AC4232
:10331000F3D34F4D4F4E6888F1784F4F4F4C884252
:103320004BD12368242018816888E988B278484303
:10333000310080189880B078F21C80180278F378F9
:1033400012091B0712011B0F1A430270B0783200DA
:10335000093A80188278C37812021A43521C130A61
:103360008370C2703A68130E0371130C4371130A11
:103370008371C2712268081D9288121F8A712268A7
:103380009288121F1212CA712268938813CE21915B
:10339000010000009C3100A00002000001A591B0D6
:1033A000083B0B729388083B1B12437110898018ED
:1033B0008A78091DFFF736E921682E488A88006857
:1033C0001123FFF714E900206880206002E02068E4
:1033D000002819D12848FFF72AE9042814D8002228
:1033E0002548D2430021FFF7F2E811212060C18077
:1033F00020300221C17021682420088100206880CB
:10340000B0782430A88003E01C490868401C08609C
:10341000206800281AD01A49096808606888EA8874
:103420005043AA88801822681081E88904282889D6
:1034300002D16A898018FFE70881094801220069E2
:103440000423FFF7D4E86888401C68800020E881E6
:103450003868401C38600020F8BD0000FFFF000005
:10346000AC0000B0A00100B0680000B0980C00B043
:1034700080B000043C000004100C00B08CB00004CC
:1034800074B00004002070470449012010B5087092
:1034900000F03AF8FFF7CEE810BD0000300000045D
:1034A0007047102010B500F08FF810BD10B50BF06C
:1034B0008BFF10BD70B50500FFF7C0E8002803D1F1
:1034C00000F00EF9002801D0012400E00024002DB6
:1034D00002D0FFF7B8E800E00020204370BD0000F4
:1034E000042008B5FFF7B2E80028009006D0044990
:1034F0000160044801686846FFF7ACE808BD0000B9
:10350000EF1300005058F403F8B521484569681CD2
:103510003DD01020FFF79AE80028009037D01D49D1
:10352000002402C0FF220A21FFF710E824E0E80788
:1035300020D0601E0D281DD8A0000019083800D525
:10354000002001001A314F2903DD4F210E2C00D03D
:103550003520009A091A121D41188C4608E04607CA
:10356000C108760F0127535CB740BB43401C53543E
:103570008445F4D86D08641C002DD8D10098001D36
:1035800000F018F8044801686846FFF764E8F8BDE1
:1035900030000004011400005058F403344055F486
:1035A00001000000983300A000020000F54D2F0D2F
:1035B000044910B502480978012200F069F910BDEC
:1035C00087FC0000D00D00B0020003480A2101234F
:1035D00010B500F023F810BD89FC00000D4A30B58D
:1035E000040012880020C0210A4201D0012030BD11
:1035F000094D00210A224A435219137A022B02D1A3
:103600005288A242F2D3491C0904090C0229F1D3C1
:1036100030BD00004EB00004A4A40004FFB581B08A
:1036200006000D003C292CD82F0009373806000E63
:10363000FFF71EE8040024D0208916490019016014
:103640000021017114492A00096841711149C7809C
:10365000083078390160868085710399C01DFEF7B6
:10366000ECEF0E480022006821000123FEF7C8EFAE
:103670000498002803D100210120FEF7FEEF05B0D9
:10368000F0BDB30512219B0DB20A0420FEF7F8EF3E
:10369000F5E700000A1400005058F4037C0D00B058
:1036A000034810B5006800224B21FEF79EEF10BDC5
:1036B0007C0D00B070B5064C258800F045F8054A31
:1036C00020881388411BC918401A1180208070BDC2
:1036D00004AA000406AA00040449054A497812789D
:1036E0000120914200D0002070470000000002A994
:1036F000000002A9024800884007C00F7047000080
:103700004EB00004030000208B4201DA401E7047D7
:103710009342FCDD0120704770B504258024200011
:10372000641C2404240C00F00FF8BF2CF7D9054CBE
:103730000020207011F038FC052800D101252570EB
:1037400070BD0000D00D00B0F8B500240600803830
:10375000104B11490004000C1A5C0D880F4F5219D0
:103760000A801C5411E0A0003D58A8880005000DF7
:10377000B04207D11C3D2000FEF786EF2800FEF77F
:1037800088EF02E0641C2406240E05480078844279
:10379000E9D3F8BD506A000404AA0004906A00044A
:1037A000F8A9000410B5C17882780902C4B0B1A4A8
:1037B00001000000943500A000020000ECB5F17D8E
:1037C0000A4324381C21431801810849C16103219F
:1037D0001971074909685971111D41840100054893
:1037E00004230068FEF716EF10BD00000B14000064
:1037F0004C58F4037C0D00B00A4930B40978002914
:1038000003D009490988002903D00849096830BC58
:103810000847074A074C11788B00491CE05011708B
:1038200030BC7047F7A9000404AA00040CAA0004E5
:10383000F8A90004906A000470B504000D0000208F
:103840000CF066FF052D19D1E188A088091D0A0436
:10385000104900050978000D120C002912D0010052
:1038600080393F290ED80C4B1988491E19800B4905
:10387000081880380178491C017003E0E088001FB7
:103880000204120C0648210000681C392B00FEF7C8
:10389000C2EE70BDF7A9000404AA0004506A000437
:1038A00040000004FEB56B46140007000806001631
:1038B0001970062605005A7011F06EFB6B46010A5E
:1038C0009870D970010C1971000E587104492300C9
:1038D0000D70310038006A46FFF7AAFEFEBD0000F9
:1038E000D00D00B070B5060010781400E02886B046
:1038F00004D120000CF06CFF050000E01125002130
:10390000481EFEF7D4EE2279E178A07803AB07C316
:103910003300627821780191FF21029221310E203B
:1039200002A20095FEF7C6EE06B070BD5268626254
:10393000626262620000000007484178002909D1F4
:1039400006490968012209024270090F0200283263
:10395000515C817080787047100B00B000200080AF
:10396000034881680122920411438160704700007E
:10397000009000A8F8B5012400253D4FB8880090BC
:1039800072E03C49E000411808784E78420660D564
:1039900003003F3BFEF792EE0A6B1E1E06130A0D54
:1039A0001C181C1F641C2404240C5DE088783861FA
:1039B000F8E78878C978090201437981816409D2DE
:1039C00001000000903700A000020000185D4FC009
:1039D000F2E72E482022FEF744EE03E08878787064
:1039E000C878B870301947E0891C49281CD07F2856
:1039F0001AD04888000B01D0088815E0087802002A
:103A0000AF3A072A01D9BF280ED10A7AD30303435C
:103A100010091B0400011B0C00021843B22803D13B
:103A2000497A0907090D0843184A002120320BE0A2
:103A300006234B43D35A834203D16D1E2D062D0E10
:103A400004E0491C0906090EA942F1D30623594393
:103A50005052881844804671301904046D1C240C9F
:103A60002D062D0E0AE0022801D189783970012136
:103A7000002800D0310008190404240C0098844266
:103A800089D3F8BD001B00C0401D00C0402700C006
:103A900010B504001248134A0168126801209047CB
:103AA00000281AD00122102C06D20F488168A240AB
:103AB00011438160006907E00B484030416A103CC7
:103AC000A24011434162C06AE0400849C407096846
:103AD000E40F01208847200010BDFF2010BD00002A
:103AE00088A9000490A900040002009094A9000491
:103AF0000749401E8A780749424388784978101858
:103B0000401829300006000E442800D34320704797
:103B1000E4A90004CC0C00B0F8B50C0000270600A6
:103B20001500401E00971528177034D81C20FEF78A
:103B3000ACED002800902CD018490160217801726A
:103B4000C90747721CD0012E1AD9072E13D36179E9
:103B5000102910D8A278617812021143818022794D
:103B6000E17812021143C18062794272A11D0A30CC
:103B7000FEF776ED04E0122028706846FEF7ACED03
:103B80002878002804D1064801686846FEF780EDD1
:103B9000F8BD072000E012202870F8BD0E140000C8
:103BA0004C58F403F0B506000C001F00002585B04A
:103BB00001F026FC002804D0012816D0022814D1D8
:103BC0000C25032E03D1A17860782A0071123418D5
:103BD000010000008C3900A000020000DF444D9D70
:103BE00002E0152200212800029101900392227820
:103BF00000920021FF205B2304A2FEF770ED00205D
:103C000038700A98057005B0F0BD00005662626217
:103C10006262000070B588B00C9D0C00122604286A
:103C200020D100206B46D8836178207809020843B0
:103C30001883E178A0780902084358830E481C21B4
:103C4000006806AAFEF7EEEC002800D02E702A7855
:103C5000E178A07802AB07C362782178019207A2CD
:103C6000009102E02E7007A200960021FF20692338
:103C7000FEF734ED08B070BD400000045662626289
:103C80006262620056626200F3B50C0081B0344F8C
:103C90007878002804D02079FF2801D011F04AF963
:103CA00021793048FF29017109D17878002804D0A2
:103CB00011F040F9012011F071F80020FEBD2178CB
:103CC000017061784170A1788170E178C1702179CB
:103CD000017161794171A1798171E179C171217AB3
:103CE00001720091657A4572E17AA67A09020E4363
:103CF0004681217B0173019912290CD3A27B617B40
:103D000012021143E27B237C12041B061A43114367
:103D10000161617C02E0002101610421017511480B
:103D2000019915301C2905D321000A221231FEF712
:103D3000A2EC03E0FF220A21FEF730EC002E07D0B0
:103D400009496800085A864202D800980E2801D90D
:103D50001220FEBDE806C00FB87011F0B7F8ACE74E
:103D6000C00D00B0D89A00B03C5BF403FEB5382318
:103D70004343554C8E7A1C19CB7A4D7A1B021E4355
:103D80000B7A2D022B430193A37C257C042B01D3BA
:103D9000002D79D10B795700022B05D0032B36D09B
:103DA000062B7FD1002058E07D2201005201012026
:103DB00001F0C8FA002102206174009001980825E2
:103DC000112805D0132803D019286DD1012500959D
:103DD000207C002804D138212000FEF78A9DF215AE
:103DE00001000000883B00A0000200002BACF32083
:103DF000C4EB0FE000208100625A002A05D10919A6
:103E00004988002901D1E07404E0401C0006000E3E
:103E10000428F0D3E07C81000819C653257400986B
:103E200049E0E07C800003190120002A00D0002036
:103E30004000185AB0423FD10220012D03D1012287
:103E40002074627404E0082D02D109232374607485
:103E5000087B002805D1487B002802D1A07C401CAB
:103E6000A074E07C019982001019C15324E0810004
:103E70000B19D95BB14212D10121002A00D00021D7
:103E80004900595A019B994209D182001119002217
:103E90000A804A80A17C491EA17405E016E0401CFE
:103EA0000006000E0428E2D3002805D1082D05D015
:103EB000092D03D020746074002D08D0207C0028C8
:103EC00005D10CF07DFD00200CF086FDFEBD607C70
:103ED0000128FBD10CF074FDFEBD00002C0800048D
:103EE0001CB500200B4901900090040008702000D0
:103EF0006A4601A900F064F8002801D000F04EF8ED
:103F0000641C2404240C082CF1D3009901980CF0B3
:103F10006FFD1CBD74000004F1B500998A884E7BCA
:103F20001005000D05000B2822D2920B00D00020B6
:103F3000164AC3009C182279002A19D0E5808A8885
:103F40008968120B002300F0FBFB002E02D1607980
:103F5000401C60710E480078012805D00D480168AA
:103F60006846FEF7AAEBF8BD0098FEF7CEEBF8BD69
:103F700088680949096888476846FEF7C2EB002E41
:103F8000F5D10121280008F0DDFCF8BDF869000436
:103F9000F4A90004B85BF403C8B30004064810B5E4
:103FA0000178002907D1012101707D2003490022F9
:103FB000C000FEF7AEEB10BD74000004F313000068
:103FC000F8B50D00002100913821160041431A4A2E
:103FD0008C1800210FF03CFB00282AD0207DC11C4A
:103FE0008A07411C80000019836989075E8018B91F
:103FF00001000000843D00A00002000032542D505A
:10400000920F890F002B0AD1876A002F07D19200E7
:1040100012199769002F02D1926A002A01D0012259
:104020000092002D08D0002E06D02A68D2182A60EF
:104030003268806A1018306000228800001982619E
:104040008262627521750098F8BD00002C0800049A
:1040500038B504000089011900910A7A052A0CD0AC
:10406000082A01D0142A0CD1C87A097B0902084316
:10407000002100F059F8002803D06846FEF74AEB0B
:1040800038BD07490868002802D10C6038BD080017
:1040900001680029FBD104600020206038BD0000C9
:1040A000DC0C00B00FB410B50A486B46197B0171E7
:1040B0005A7B002A09D0198901805989418003A9B6
:1040C0004271891C801DFEF7EAEA10BC08BC04B0EE
:1040D00018470000E00C00B070B5114D28680028AA
:1040E0001DD0281D0079C00719D00E4E2968C88838
:1040F0000C68022805D12520425C3068921C0223FE
:1041000008E00889052340188278C078000202433D
:104110003068121DFEF7A6EA002C2C60E6D170BDB7
:10412000DC0C00B040000004F7B582B005000027A9
:104130002F480468260053E0E188208902292FD106
:10414000049A0019002A01900BD0037BC27A1B024B
:104150001A43037A0498834240D195423ED1012705
:1041600029E0027A032A06D01B2A0AD1827AC07A71
:104170000002024302E0C27A007BF9E795422DD1AA
:1041800019E0122A0AD0202A28D10A3003990622DF
:10419000FDF7D8FE002821D1E1880AE00B30F5E7D1
:1041A000001902784078000202431005000DA84271
:1041B00014D1002912D00E4B20001A6894422268B4
:1041C00001D11A6000E032602468022903D101A8FD
:1041D000FEF7A0EA04E00FF08DFC01E02600246861
:1041E000002C01D0002FA7D0380005B0F0BD000092
:1041F000DC0C00B038B50C00032812D107BE85E6F0
:1042000001000000803F00A000020000C6BC93ED4A
:104210000820FEF762EA09490090016021780171E7
:10422000A278617812021143C1800548016868468E
:10423000FEF756EA38BD1220107038BDFD0C0000A4
:10424000B45BF40338B50C0002280FD10820FEF748
:1042500044EA084900900160217801716178417158
:10426000054801686846FEF73CEA38BD1220107028
:1042700038BD0000F40C0000B45BF4033EB50C0044
:104280000C2810D10422210002A8FEF712EA08220D
:10429000211D6846FEF70CEA02A800F057FE6846AA
:1042A00000F06CFE3EBD122010703EBD12230128AE
:1042B000137004D10878024908700020107070470C
:1042C00006F0020010B50400FEF73AEA0A21614345
:1042D00008186038C07C012800D0002010BD000004
:1042E00038B50C000D78497809020D432900803952
:1042F0003F2907D82200104B01001C680D480F4BC6
:10430000A04738BD0820FEF7E8E9FF217E31009084
:1043100001608580A1788171A078290000F068FF94
:10432000074801686846FEF7DCE929000120FEF72E
:10433000F0E938BD75FC000024AB00043C6B0004C0
:10434000B45BF40384461000F8B5382362465A4340
:104350001A4BD4188A78C97809020A43217C0129AA
:1043600007D0022905D0082901D0092903D1022349
:1043700002E0012300E000230121002800D00021F9
:104380004E00A15B914206D1012B637402D1012042
:104390000CF02AFBF8BD01218D002D19AD5B954273
:1043A00006D1012B6374F5D161460BF065FBF8BDB6
:1043B000491C0906090E0429EED3F8BD2C08000497
:1043C000F0B5482085B0FEF788E9394902900968C0
:1043D0001522C01DFEF76CE902980025817D467DFF
:1043E0000902027E0E43C17D120211430191417EFA
:1043F0000091C17E877E09020F433F21C41D817158
:104400000520A073E57325746574A5746DCACE0D7F
:10441000010000007C4100A00002000023EBCEEA76
:10442000E07425756575A5753C20E5752076657683
:10443000A076E5767D2025776077A577E57720342F
:1044400025706070A5700020E57000F089FC207177
:104450006571A571E5710020257200F081FC607224
:10446000A572E572257308206573A073E573207447
:10447000657401990806800F039000F07FFCA0741A
:10448000039800F07BFCE074257501206575A0752C
:10449000E075102020766076300AA676E076380A3D
:1044A000277760770099A1770298074A8179117080
:1044B0000449C01D0860FEF752E902A8FEF73EE974
:1044C00005B0F0BDB0AA000470AA0004F0B5442005
:1044D00085B0FEF70CE93949029009681122C01D28
:1044E000FEF7F0E802980025817C467C0902027DF7
:1044F0000E43C17C120211430191417D0091C17DA7
:10450000877D09020F433B21C41D81710520A072E4
:10451000E57225736573A573E07325746574A574DE
:104520003C20E57420756575A075E5757D202576C0
:104530006076A576E57625776077A5770020E57724
:1045400000F00EFC203420706570A570E57000202E
:10455000257100F005FC6071A571E57125720820D8
:104560006572A072E5722073657301990806800F69
:10457000039000F003FCA073039800F0FFFBE073CE
:10458000257401206574A074E07410202075607596
:10459000300AA675E075380A277660760099A1760C
:1045A0000298074A817911700449C01D0860FEF71E
:1045B000DAE802A8FEF7C2E805B0F0BDB0AA000430
:1045C00070AA000410B50400FEF7C4E800210A2216
:1045D0004A4312185279002A03D00A000832A24234
:1045E00004D1491C0904090C0329F0D3083108043B
:1045F000000C10BDF8B500240600154F2500002161
:1046000028000FF043F800281AD0002E03D1641CB4
:104610002406240E14E0012E08D1382098372E7E6F
:1046200001000000784300A000020000D70370578B
:104630006843C019007C0128F3D00228F1D009E0BA
:10464000022E07D138206843C019007C0828E8D022
:104650000928E6D06D1C2D042D0C082DD9D320007F
:10466000F8BD00002C080004002010B5FFF7CCFFB7
:1046700010BD000070B50125134C060063782A00B8
:10468000002B00D00022A0782900002800D00021B3
:104690008A4203D1802B01D0607070BD002804D104
:1046A000002E02D12178002902D100F07BF970BDE3
:1046B000E0780028FBD10022012004490003130008
:1046C000E570FEF75EE870BD3000000404140000E1
:1046D00038B504000820FEF714E80028009007D041
:1046E000044901600471044801686846FEF70CE85B
:1046F00038BD0000031400004C58F40310B504004A
:10470000FEF742E8FE20002C00D10120FFF7E0FF79
:1047100010BD000001000839022904D803494000F7
:10472000085C012800D00020704700006E71000472
:1047300010B50400FEF718E80A2161430818603834
:10474000407D002800D0012010BD00007CB5040091
:104750000820FDF7D6EF0C49009001600025848009
:104760000A4E857131686846FDF7CEEF0820FDF7E7
:10477000C8EF05490190491C01608480857131684A
:1047800001A8FDF7C2EF7CBD9E1300004C58F40356
:10479000FFB581B0060008284FD23823734328485C
:1047A0000D781C184878CB780002054388781B02E6
:1047B0009207677C1843920F012A3ED0012806D049
:1047C00000206074049A3000FFF7D0FD03E0049AE3
:1047D0003000FFF7FDFA607C320029000BF040F951
:1047E00004980028207D05D080000019816A4919AD
:1047F000816204E080000019816949198161FFF735
:10480000F5FB607CB84218D0012801D1012700E0F7
:1048100000270125022800D0002531003800FDF7CF
:10482000B8EF3100280000F011FD310077DF017092
:1048300001000000744500A000020000CEFBAE277E
:10484000380002F045FF607C31000BF031F905B013
:10485000F0BD00002C08000438B54A780C7812022C
:1048600014432200803A3F2A07D80E4B0A00010069
:104870001C680B480023A04738BD0820FDF74AEF0D
:10488000FF217C3100900160848007480168684600
:10489000FDF744EF21000120FDF758EF38BD00007F
:1048A00074FC000024AB0004B45BF40370B5040096
:1048B00008281CD2002211002000FFF7B3FBFFF7ED
:1048C000DDFE00280CD10A4D2878002808D00948C0
:1048D0000021FDF76CEF0020010028700CF0BAF801
:1048E00038206043044940183821FDF778EE70BD48
:1048F00074000004F31300002C08000471B581B0AB
:10490000019A274E908894680B2839D22549830054
:104910001B1859188B78002B32D0FF23F7330092E5
:104920001360009A2389D3800A79521C0A711E49A8
:104930000978012905D01D4801686846FDF7EEEEAB
:104940001BE021891C230D195843194940181949A6
:10495000407909688847009AA978D180AA78E91C2B
:10496000FDF7C4EE0098FDF726EF2000FDF7EAEE14
:10497000306900221421FDF792EE002001907CBDE9
:104980002000FDF7E0EE306900221421FDF786EEED
:1049900001980028F3D001A8FDF7E4EE7CBD0000EB
:1049A00030000004C06A0004F4A90004B85BF403FA
:1049B00010820004D8B3000438B5040009F0B6FA38
:1049C0000820FDF7A8EE08490090002C016001D0F6
:1049D000002100E00121017104484470044801688D
:1049E0006846FDF79CEE38BDCE0C00003000000498
:1049F000C05BF40338B50C000D78497809020D430B
:104A0000290080393F2907D822000F4B01001C687C
:104A10000C480E4BA04738BD0820FDF77CEEFF2167
:104A20008031009001608580A1788171E178C17149
:104A3000074801686846FDF772EE290003EBC139AB
:104A400001000000704700A0000200003A13109A15
:104A50000120FDF786EE38BDE9FC000024AB000420
:104A60003C6B0004B45BF403026801231104090CDD
:104A70009B07491C1A4011430A009A43082A01D394
:104A80005940194001607047FEB5184C184E00227D
:104A90001648D243009201220321283801ABFDF7CA
:104AA00098EE01980028F2D00128F0D1FDF71AFC09
:104AB000104D070011E070680C230004000C5843EF
:104AC00040190AD00278052A05D2910061580029C0
:104AD00001D0002A00D12168884770683168884277
:104AE000E9D13800FDF702FCD1E70000ECB300B0DB
:104AF000801300C0881300C001000348002210B5D5
:104B0000FDF76AEE10BD0000C4B300B070B509F047
:104B100015FF0948002200680D21FDF7CAED074D79
:104B20002C6804E06068002800D080472468002CCE
:104B3000F8D109F0FBFEF3E7380000049C0B00B04D
:104B4000134810B501680800FF306130C2880323A4
:104B50001B039A43C280C28801231B031A43C280ED
:104B60001622CA840B4ACA87018840221143018059
:104B700009480078012802D100200DF047FE0749BE
:104B800048680A0C904348600DF004FF10BD000017
:104B900000AF000440800000CC0C00B04023008037
:104BA000F7B51300140415003E4E0700240C3668B8
:104BB000010082B0039A30A0B04703993800FDF796
:104BC00024ED002955D10398854234DD039928004E
:104BD000FDF706EE681A334E04043268240C2100F7
:104BE00031A0904723E003992000FDF70EED002946
:104BF00019D1002F3DD02B4E009736682B00039A19
:104C0000210033A0B047BC4205D939002000FDF790
:104C1000FCEC00292DD0BC4205D821003800FDF75E
:104C2000F4EC002925D00398201A0404240C0398DE
:104C30008442D8D21DE01B4A00261268290034A005
:104C4000904710E0174B019A1B6839000F52F0B8DB
:104C5000010000006C4900A000020000FD0A12C71C
:104C60003AA0984701993800FDF7D8EC002901D106
:104C7000019C08E0B61C3604360CA81B0004000C8E
:104C800006280190E8D2200005B0F0BD7569547384
:104C90006E6966662025642C207569546573636FA0
:104CA0002025642C20756954617267657454736E95
:104CB0006966662025640A00D8A90004436173650B
:104CC00020313A20496E697469616C2075694E65BE
:104CD0007754617267657454736E696666203D200F
:104CE00025640A0075694E6577546172676574546E
:104CF000736E696666202564207569546573636FF9
:104D000020256420756954617267657454736E69F7
:104D1000666620256420756954736E696666202571
:104D2000640A00004361736520323A20496E697459
:104D300069616C20756954617267657454736E693A
:104D40006666203D2025640A00000000436173650B
:104D500020323A20756954736E6966662025642096
:104D60007544697669736F72202564203D2025643F
:104D70000A000000F8B506000F00FDF740ED050041
:104D80000C20FDF7DCEC8821714300904D19E91DE2
:104D9000062280C0FDF7BEEC0099287D887203488A
:104DA00001686846FDF7CEECF8BD000070AC000469
:104DB000002807D0012803D0022805D0032800D0FE
:104DC000002070470220704701207047002807D05C
:104DD000012807D0022807D0032807D104207047F4
:104DE0000120704702207047032070470020704761
:104DF000FEB5FDF708ED05008007800FFFF7D8FF2F
:104E00000D490C4E0190096830008847012801D0F7
:104E1000012400E0002409497D270968BF01300012
:104E20008847074B009021001C683A0001982B002E
:104E3000A047FEBDFFFF000028B5000424B5000414
:104E400034B500040C2358430149401800897047C9
:104E5000D09900B0F8B506000020FDF76DC041C63E
:104E600001000000684B00A00002000009E2AC7ADB
:104E7000D8EC0F4F0500796B0024884203D00D4811
:104E8000C562FDF7D2EC082E7D630CD0102E06D043
:104E9000FDF7CAEC0406FDF7C8EC00040443FDF777
:104EA000C4EC00020443FDF7C0EC2043F8BD000051
:104EB000F0EF020080AC000438B504002AD0164898
:104EC0001C2340881549584340180079A04221D13D
:104ED0001348007800281DD012490120C874FDF73E
:104EE000A8EC1149600009684018018D02221143A5
:104EF0000185FDF7A2ECD1252D0121002800FDF749
:104F0000A0EC0A4829000268009222000420002335
:104F1000FDF79AEC38BD0000E0AC000410820004FC
:104F20004CAF0004F0EF0200B0AE0004C05BF4032D
:104F30001C235843134910B540180079124C00281F
:104F400009D1E17E1148FDF784EC1048E17F083873
:104F5000FDF77EEC10BD0D48617F001FFDF778EC7A
:104F60000320FDF77AEC0028F4D109480068018895
:104F7000490849000180074800680188490849003C
:104F8000018010BD108200044083000404AD0004C1
:104F9000ACAE000498AE0004F8B505000E00170092
:104FA000FDF736EC882169430C182034A07C0128D9
:104FB00006D13A0031002800FDF752EC0020A07421
:104FC000F8BD000001784278C907D206C90F920ED9
:104FD00011438278C078D207D20DC0061143800CED
:104FE000014303480068FF30FF30801CC1837047D5
:104FF00000AF00040178CA074178D20FC906890EB4
:105000000A438178C906490D0A43C178C9020A4397
:105010000A490B681121490159180A80027943791C
:10502000D207DB06D20F9B0E1A438379C079DB06C9
:105030005B0D1A43C00202434A80704700AF000470
:10504000024948810249088070470000CC0C00B03A
:1050500098AD00040849C97900290BD00749FF22FF
:105060000968521C40310028888801D00F870D73D1
:1050700001000000644D00A000020000101A720A36
:10508000104300E0904388807047000040660004B1
:10509000E0AE0004F8B50C00070015001E00FDF797
:1050A000EEEB7421794308184030818A2180418BCE
:1050B0002980C08B3080F8BD10B50400FDF7DEEB11
:1050C00074216143425C002A06D008184030007900
:1050D000032801D1012010BD002010BDF3B504004C
:1050E00083B02F4D687901283FD12E4B00201A68DC
:1050F000C100565A3607360F0A2E04D1565A3609C1
:105100003601761C5652401C0004000C0E28EED3CB
:10511000AE8901204002864201D9060002E0402EFD
:1051200000D240260020FDF786EB07001020FFF795
:10513000A5FE3100FDF786EA781886011A48B609FF
:10514000EE640068008FC107184800D00121017487
:10515000017C0172AA89E989019200912B7C144D8E
:1051600001222D6831000C20A84712480078002841
:1051700013D00820FDF7F6EAFF215C3102900160B0
:105180002178017161784171A17881710499C171AF
:105190000948016802A8FDF7EAEA05B0F0BD000081
:1051A00004A10004A4AE000400AF000444A1000464
:1051B000CCB5000438AD000470AC000410B5040098
:1051C0000020FDF760EBFF21193161430818817C55
:1051D000002901D00D2905D140300078002803D0E6
:1051E000092801D0012010BD002010BD042008B501
:1051F000FDF7B8EA04490090016004480168684678
:10520000FDF7B4EA08BD0000A40F00003058F40315
:10521000012181400248827F11438177704700005D
:10522000F0EF020070B504000C4E008A01252A0040
:10523000B1788240114203D0FDF728EB607600E0A0
:105240006576208A2900727881402B000A4203D0BB
:10525000FDF720EB207670BD237670BD10A400040E
:1052600070B50D001400012A07D9401B0019401E1B
:105270002100FDF7E8E94443601970BD41CFBDE26C
:1052800001000000604F00A000020000E4F2CCB773
:105290000122054B8A40597D002802D00A435A75E5
:1052A0007047914359757047F0EF020010B5FDF754
:1052B0007EE92021081A0004000C02D0401E0004E0
:1052C000000C10BD10B50C00002814D02000FDF714
:1052D000F0EA00280FD01C206043074940180079ED
:1052E000002808D10548005D002804D101221221C0
:1052F0002000FDF7E2EA10BD1082000498AF000420
:1053000000B5008AFFF7BCFD904201D9012000BD25
:10531000002000BD0100034810B54078FDF7D0EA39
:1053200010BD000010F002000149497808407047A4
:1053300010A400040300084800B5407FFFF7F4FF05
:10534000002806D0998A0720072900D208009882F1
:1053500000BD02480088FAE7F0EF020046B0000402
:105360000121034A8140907F884390777047000075
:10537000F0EF0200F7B504001600807E002500283B
:1053800044D1208AFDF7A0EA002815D1204F208AB9
:1053900001227978824011420ED11E4A0199126889
:1053A00090473979884207D3618A01E005042D0CC2
:1053B0004819B042FAD329E0207E617E00264018C9
:1053C000A18D400841430B04E18A1B0C002904D045
:1053D000A18A4143C81803041B0C0F48807F002892
:1053E00002D05B1C1B041B0CFFF79EFF002801D0A2
:1053F0000A2606E00948807EFFF796FF002800D0C5
:105400000826608A9919814200D905002800FEBD4E
:1054100010A4000444B50004F0EF0200D0A0000482
:1054200070B5160001228A408C000949074D4B785F
:10543000002805D01A434A70FDF74AEA801902E0B5
:10544000934300204B70285170BD0000209900B09C
:1054500010F0020030B50122054D064B285C9C6817
:105460008240002901D0144300E094439C6030BD89
:10547000A0AF000450A0000401228A400449002883
:105480000B7802D01A430A707047934384DF98ADBB
:10549000010000005C5100A0000200009AE96B07C7
:1054A0000B70704710F0020070B50C000978144DB5
:1054B00001290AD0022908D003291FD101281DD1B2
:1054C0002878012816D0022202E0012804D1012206
:1054D000002108000B0008E003280FD1A0786378B2
:1054E000000203430021012208000BF05FF920783D
:1054F000002801D020782870012070BD002070BDE8
:10550000C80B00B038B500240878F12807D0F2287D
:1055100005D10320009001206946FFF7C5FF200058
:1055200038BD0000F8B504000600194F0D003878AA
:105530001C3E00280AD017480079C0070BD0002075
:105540000AF0F4FF002806D0032D04D03000F580C7
:10555000FEF7E2FDF8BD00200BF066F9207A0E2878
:105560000CD1207BE17A8207920D114380083F28FD
:1055700004D15A2902D100200BF06AF9FEF710FE7F
:10558000627A3869921C2B003100FDF7D0E8F8BD33
:1055900030000004E00C00B0F1B50098C17A857AC3
:1055A000047A4068090206060D43360E6846FDF788
:1055B00016E92A00210030000BF028F8F8BD0000A1
:1055C000F8B5150006000A4C302021781A0048432F
:1055D000084B069FC018491C3060217000922B00B8
:1055E0003A00611CFDF782E90006000EF8BD0000DC
:1055F0004C000004A09600B00C49002010B50870C3
:105600000B48416900290FD101214161002000F0C0
:10561000B5F8002801D100F053FA00F0A1F80020FD
:1056200000F07CF8FEF732FA10BD0000402700C001
:10563000001B00C0002310B51A00837004E0845CD6
:10564000E3181B061B0E521C8A42F8D30121C91A0B
:10565000817010BDFFB5FF2100240500491C2048C2
:1056600081B0FCF7F8EF1E4A28680821106004207A
:1056700029E02B5CE340A41C9B0724069B0F240E0F
:10568000082C03D1401C00240006000E032B12D16D
:105690002B5C002C04D1401C0006000ED9388097EA
:1056A00001000000585300A0000200006E01D5BAAE
:1056B00053540FE0401CE3400006000E08275354EB
:1056C0002E5C3F1BBE401E4303E0FF26022B00D092
:1056D0001E005654491C0906090E029B9842D2D35B
:1056E000049801700398026004980078508005B017
:1056F000F0BD0000401B00C00B4910B508887022A7
:1057000010430880094B002005240A881A400A80AB
:105710000A8822430A80401C3C28F6DB08882F2296
:10572000D2431040088010BD24060090F0FF000016
:10573000F8B504000D4D0E4F13E0A001060000F077
:1057400027F800280AD0300000F088F92A89D30011
:10575000DB1903C3601C521CE8802A81641C2404EA
:10576000240CA8888442E8D3F8BD0000001B00C0C8
:10577000401D00C00249FF20403088807047000073
:10578000001B00C00148408970470000001B00C09A
:1057900010B50400FBF7D4FE0021200000F00EF845
:1057A00005480088800701D5012400E00024FBF7AC
:1057B000EDFE200010BD0000180600900C4A136991
:1057C000984209D010610B4B0204920D1A80094ACD
:1057D0008006800E2032108008010649401C0C31E2
:1057E00008800449091D08880004FCD570470000A2
:1057F000201B00C01C060090F8B5144D28887021AD
:1058000008432880124F002426003B20021B114928
:105810003800FCF7B6EBC007C00F3100001871412B
:105820008100014328880F22D2431040084328807A
:105830002888052108432880641C3C2CE5DB288847
:105840002F21C94308402880F8BD0000240600909D
:10585000C61A6BACB1C61A0BFFB5C3B0684600F0F0
:1058600093F800282DD06B465C884498844228D851
:1058700000256E4605E07059FDF746E8439948510A
:105880002D1DA542F7D345982018FDF73EE8439912
:10589000486043982100FFF7D7FE3848002762E0B0
:1058A00009065DD53549449B40184088BFE4234C28
:1058B00001000000545500A00002000077F90BCA57
:1058C000C1003448081881880A0B0E05360DA1194D
:1058D0009942419202D9012047B0F0BD002A02D17D
:1058E000801C42900EE02C4B92003106D218090E1B
:1058F000801C403AD56B40AA41ABA847409840ABCA
:1059000042901E79006880218843FDF708E843999A
:105910000425085109E04299A80880000858FCF7BE
:10592000FEEF439A61192D1D5050B542F3D318492B
:105930007D1C02E0000607D46D1C202D04D2062039
:105940006843085C0028F5D10020C043202D07D013
:1059500006226A43895C002902D04598A1190818DB
:10596000FCF7DCEF01004398001941603100FFF7BC
:1059700075FEA4197F1C202F05D206207843044A07
:10598000115C002996D1469804800020A4E700000D
:10599000602700C0401D00C0181B00C07CB504007B
:1059A0000020184A002C2AD024E00D291FD10623FC
:1059B0005843154980184088C00040188288110B50
:1059C00001D1811C0EE01106104B120B9200D2186F
:1059D000090E801C403AD56B6A4601ABA8476B465E
:1059E0001A7900992000FCF7D2EE01207CBD401C02
:1059F000202804DA06214143515C0029D5D100203A
:105A00007CBD0000602700C0401D00C0181B00C006
:105A100070B506000D0000F00DF80C00FCF77EEFED
:105A20000004000C30602000FCF778EF28600120B3
:105A300070BD00000C4A00200DE07F2908D106232C
:105A400058430A4980184088C000411803C970476C
:105A5000401C202804DA06214143515C0029ECD186
:105A60000020C04301007047602700C0401D00C0F7
:105A7000002110B500F002F810BD0000F8B50024B8
:105A800006000F002500FBF765FD39003000FFF729
:105A90009FFE0E48C068002812D10D480488E21706
:105AA000001D0388DD17001D0188001D00881E0CE5
:105AB0002D04354315431B040D43000499AF96A7ED
:105AC00001000000505700A0000200008311B577CC
:105AD0001C430543FBF76EFD20002900F8BD0000C4
