:1000000001000000000000A0000200000AB6BD1BB5
:100010001CF09FE51CF09FE51CF09FE51CF09FE5A0
:100020001CF09FE51CF09FE51CF09FE51CF09FE590
:10003000071D0F01A0F1010024F1010028F10100CA
:1000400080F1010084F1010088F101008CF10100D0
:1000500099F10100000000EA2D7B00EA28008FE200
:10006000000C90E800A08AE000B08BE001704AE24A
:100070000B005AE1267B000A0F00BAE814E04FE2B9
:10008000010013E303F0471013FF2FE130F50100E7
:1000900070F501000030A0E30040A0E30050A0E3B1
:1000A0000060A0E3102052E27800A128FCFFFF8A44
:1000B000822EB0E13000A128003081451EFF2FE1E3
:1000C00004309FE503308FE013FF2FE109EF0100BB
:1000D0001E480121490341611D4901611D494161DA
:1000E0000521016170471C48802110B549F3CEEB12
:1000F0001A48582149F3CAEB194800210A0006C0E2
:1001000020211648583049F3C2EB002010BDF0B54D
:100110000024134F134E083708E0C519686801F032
:100120006AFB696801208840B060641CE0003958AF
:100130000029F2D10C491F2001F05DFBFFF7C8FF39
:100140000120C007B0600020F0BD000080290080C1
:10015000070000FF10200000ECF501009C0F0004D8
:10016000080E0004009000A87717000055480422EC
:100170000621027041700271417102724172704732
:100180005048F8B500241838046000F016FB05F05C
:100190004CF94D490D5C01F0DDFC290049F3BEEC42
:1001A0004A4E2300320049F338E9401C61410504FE
:1001B0002D0C05F03AF9464940000F5A05F0EDF9CB
:1001C000390049F3ACEC2300320049F326E9401C26
:1001D00061410004000C290000F0FEFA05F025F949
:1001E0003C490D5C01F0B6FC290049F398EC230072
:1001F000320049F312E9401C614105042D0C05F061
:1002000014F935490F5C01F0A5FC3900A964CDAEA5
:1002100001000000FC0100A000020000CE6362307B
:1002200049F386EC2300320049F300E9401C6141A8
:100230000004000C290000F0F0FA082000F0DCFABD
:1002400001F092FC310049F38EEC401C0004000CDC
:1002500000F0DBFA01F088FC052149F36AEC244A3E
:10026000230049F3E4E81922801861410006000EDA
:1002700000F0D9FA601E03F015FFFF24641C200073
:1002800003F00AFF200003F013FF03F023FF03F045
:1002900035FF402002F03EFB00F0D6FA00F0CBFA2A
:1002A00003F046FF03F070FFC02001F052FC03F0A2
:1002B000B7FF03F0C7FF03F0CEFF03F0DEFF3020EF
:1002C00001F047FC0320000201F043FCFFF758FF58
:1002D00000F084F9F8BD0000E85100B02C000004E3
:1002E00040420F00160000044200000437000004E2
:1002F000C0C62D0010402DE90B7C00EB78409FE537
:10030000000094E5000050E30300000A650100FAD4
:10031000000094E5000050E3057C001B030200FA96
:100320000000A0E3221500FB900100FA0000A0E30A
:10033000560100FB560100FA000094E5000050E36E
:100340004701001BAA0100FBDA0100FB000094E555
:10035000000050E30100000AA60100FB811500FA2D
:10036000A40100FA00000FE1BF0000E200F021E16B
:100370007A1400FA0000A0E31080BDE8705E00B0BF
:1003800010B500F099FC05F3ABF905F0F7F900F0B2
:100390006DFC002801D0012010BD05F01BFD0020E0
:1003A00010BD10B5FFF7F6FE1EF040FE0400012060
:1003B00003F02AFE20001EF03DFE002010BD10B507
:1003C00002F04AFC10BD9308002210B502E0940030
:1003D000521C01519A42FAD310BD064A0648002128
:1003E00010B5FFF7F0FF00F015FB00F09BF90020BF
:1003F00010BD000060530000B0910004F8B505F096
:100400002EF8050087480168022211430160016847
:1004100008231943016083494031CB68E95C7E962B
:1004200001000000F80300A0000200003A8BDC8D00
:100430001343CB60436813434360CA68402632438A
:10044000CA60CB6880221343CB60016831430160EE
:1004500001681143016041683143416041681143C3
:100460004160764C20681E2188432060744FF96AF1
:1004700020208143F96204F0EAFD022004F08CFFA1
:10048000000604D54021272004F0C3FF03E0032128
:10049000092004F0D3FFA80703D4B868012108435A
:1004A000B8606848C16B0122D2059143C163C16B3A
:1004B0000322D2041143C1630721082004F0BEFFC8
:1004C0000321072004F0BAFF04F0F0FD2068E021CA
:1004D0008843206060691521884360616069B0438A
:1004E0006061606901218906884360616069052156
:1004F000090788436061E06953490840E061E069A9
:1005000040084000E061E0691027B843E06103F073
:1005100089FE4E4A10682021084310604C4A10683A
:100520000421884310604B480D2100688901401860
:100530000168520611430160A069B043A061606880
:100540004549084060606168444801406160A168B5
:10055000434A1140A160A1680140A160E168414A9D
:100560001140E160E1687A039143E160E168014094
:10057000E160374A1820C043C03A1168014039434E
:100580001160394AA906116803D5014008200143CA
:1005900001E0014039431160344801690904090C44
:1005A000016141690904090C416181690904090C6F
:1005B0008161E069012189038843E061E069890084
:1005C0008843E061E06909118843E061E069052141
:1005D00009060843E06103F09BFEF8BD10B500F08A
:1005E00008F823480068002801D0FFF711FF10BD6C
:1005F0007047124801680322120291430160416969
:1006000042019143416141694200914341618169E5
:10061000C200914381610F480068016F01221143BC
:100620000167016F022291430167C0308E061E757B
:1006300001000000F40500A000020000237302FD89
:100640000168D2061143016070470000002300805A
:10065000002800800029008000910090FBFBFFFF34
:1006600000270080403D00803C5200B0DFFFD5FDF8
:100670007FFF7FFFD5FDD5FDD5FDD7FDC03C0080B8
:1006800000220080705E00B0084810B50168084B79
:100690000A000C3108001960111D5960202149F32E
:1006A00014E90449022002F049FB10BD54C000B017
:1006B000305200B0ED350000F8B5002425001C488C
:1006C000A70014266643C5511A481421301849F36F
:1006D000FCE8184814211430301849F3F6E815489E
:1006E00014212830301849F3F0E811483022283816
:1006F000C159104862433C301018C46081604561A4
:1007000085610D49C56101610C4901620C49856231
:10071000416206F301F9641C012CD0DB0949082071
:1007200001F087F80849FF20401C8860F8BD0000F0
:10073000E85E00B058FA00B035380000513A0000C9
:100740007B3C00001B3E0000009000A80F490E48B3
:1007500010B508600F490E48086010490E4808603F
:1007600010490F48086011490F480860104880215F
:1007700049F3AAE80E488021803049F3A6E80D48E5
:10078000802149F3A2E810BDC9F401003CE5000452
:10079000A13F000040E50004E53F000044E50004FF
:1007A0004054890034E50004A086010038E50004C7
:1007B000FCC600B0FCC700B010B5084C0020606259
:1007C000DF200002E0620648A062012105484902DC
:1007D00049F37AE801206062002010BDC09B00A8A8
:1007E00000ADDEEF7CC800B026484068C168264AEC
:1007F0001143C160704700B5FFF7F6FF214840681C
:10080000416801225202114341604168D200114304
:10081000416000BD090401431A4840688161704786
:1008200018494968CA681204120C00040243CA60DD
:100830007047144949684A69120C1204DE7E8EA47E
:1008400001000000F00700A000020000D79BBC40A0
:1008500002434A617047090401430F484068C1637D
:1008600070470D4949684A68120A120202434A60F9
:10087000704709484068FF30413041681D2291436C
:100880004160704704484068FF30413041680222AF
:100890009143416070470000385200B08F03000060
:1008A0008FC08FE21CFF2FE10121092000070160AA
:1008B00000214160704768480121016000214160CA
:1008C00070476648016B802211430163704770478F
:1008D000634800B50068002801D0FFF7F2FFFFF77A
:1008E000EAFF00BD10B55F4C1EF046EDA04221D0DE
:1008F0005D490840040004F0BEFB262004F060FDC2
:10090000010920070901000F08430106090E2620EE
:1009100004F048FD04F0DEFB200A4107534A490F6A
:100920000429117001DD04211170000702D510782F
:100930004042107010BDFF20C130202100B504F0EE
:10094000DAFD00BD10B54A4C207900280BD10120FA
:10095000207104F0E6FD062004F032FDC006C00F51
:10096000607104F0D0FD607910BD70B50600FFF72E
:10097000E9FF404D2C0D002811D004F0D2FD80215C
:10098000262004F05AFD04F0BEFDA8682043A860AC
:1009900039488168220211438160002003E0A86881
:1009A000A043A860300004F015FF70BD10B507F03B
:1009B0006DFB04F036FB02F083FD7D24E401002191
:1009C000200004F036FB0021200004F035FB00215C
:1009D000200004F034FB0021200004F033FB274CFE
:1009E0000221200004F028FB0221200004F02AFB51
:1009F000234C6068234908406060E0681721490281
:100A00000843E06004F049FD2168C2061E4801D594
:100A1000014300E081436268626021602168014314
:100A200021600F480068002802D0B520FFF79DFF25
:100A300010BD7047704710B504F0CFFD0C4C002876
:100A400002D004F01AFF01E004F026FF70B7936DA6
:100A500001000000EC0900A0000200001082BE1D91
:100A6000E06010BD0F490E4808607047003000A8D4
:100A7000400C0090705E00B0FFFF00003F0F0000D0
:100A8000385200B0005300B080280080402300801E
:100A9000409C000000210080FF7FFF7F00000020BD
:100AA0005F5500008C5400B0F8B532480068000271
:100AB000000F082828D1304C6069E50428436061A4
:100AC000606940004008606120680826304320606B
:100AD0002068EF12B84320604821452004F06CFCE8
:100AE0000421482004F068FC20683043206020681E
:100AF00038432060322004F06CFD60692843606157
:100B00006069210508436061F8BD1C4810B50068A4
:100B100000282DD004F00FFDFFF7C6FF202119207B
:100B200004F095FC0221162004F091FC2F213320C3
:100B300004F042FC0321572004F03EFC92212420C3
:100B400004F03AFC6221252004F036FC262004F053
:100B500041FC80088000022108430106090E26207E
:100B600004F02AFC6621412004F026FC04F0D5FCA8
:100B700010BD00000020008000280080705E00B0E2
:100B800070B5444C444D2068444E002808D0E81706
:100B90003060706004F054FE286A4000400828620B
:100BA0003D48C038816A090C09048162816A8B2240
:100BB0009200114381623A490020886090063949C9
:100BC00001221204036880188842FBD300200168C8
:100BD00080189042FBD3012080060068206800281E
:100BE00055D004F0A8FC0F21622004F0E5FB102191
:100BF000332004F041FC04F090FC706B0121C90229
:100C0000084370633068632188433060F068264988
:100C10000840F06004F039FA07210D2004F02CFCA4
:100C200007211B2004F028FC04211B2004F00FFCEA
:100C30004021252004F00BFC4021172004F007FC84
:100C4000022004F0C7FB400603D540210B2004F02E
:100C5000FEFB04F049FA04F02AFC800678FA49B356
:100C600001000000E80B00A000020000E46A00A000
:100C700004D4F068012189038843F0601048C168FA
:100C8000104A1140C160C1680F4A1143C160206819
:100C9000002806D0012040046862801CA8620B482E
:100CA000E862002070BD0000705E00B0C09000904F
:100CB0000021008000230080000001B0C0FFFF7F02
:100CC00080280080F0F0FFFF0A0A00000202020004
:100CD00000B50D49002087B00860020001001E2009
:100CE00003AB07C302000948FF21491C6B4607C339
:100CF000A838074A002307A103F304FC0006000EEE
:100D000000D0012007B000BD845300B0D4CB00B0A8
:100D1000855D000049646C650000000010B5FFF7B8
:100D2000E9FC06F028FB07F025FB07F059FB07F06C
:100D3000E5FD10BD12483C2110B548F3E4ED104824
:100D4000114A42600F49114A0160826081610021AD
:100D5000016201630E4A4163C2620E4C81630E4818
:100D6000EE22210048F32AED0B480C4B042221000F
:100D70003EF30FF910BD10B500F01CFB002010BDB4
:100D80005CD60004BD850000DB8700007188000090
:100D9000578F0000DC05000018100004E3EE33005C
:100DA000F8B5CA4C20680C25A8432060C848C16823
:100DB000820C1143C160C168072252021143C16015
:100DC000C168012212061143C160C1688909890105
:100DD000C160C168C20D9143C160C168C20C91433A
:100DE000C160C1685603B143C160C1680722D20621
:100DF0009143C160C168F2101143C1600168B54AF6
:100E0000114301607D200021400204F026F97D2776
:100E1000FF010021380004F026F90021380004F019
:100E20001FF90021380004F021F9AB48016A1022B3
:100E3000114301622068A84320606068510688431E
:100E4000606004F08BFDA068B1000843A0602069D9
:100E5000A905884320612069304320619F4D68685F
:100E6000002068606868192109060843CE27147FAE
:100E700001000000E40D00A000020000FD92DED0A1
:100E800068609B48803001684026B143016001687A
:100E90000F221202914301600168032252021143A2
:100EA000016001680F22120391430160016803226F
:100EB00052031143016001680909090101600168D9
:100EC00006273943016020683043206020683021C4
:100ED0008843206004F0EFFA0528206802D9102129
:100EE0000843FFE72060286801210843286028683C
:100EF000B84328607B48C168020D1143C160816A14
:100F000031438162012004F0C4FD7648803081685D
:100F1000784A114081608168D24311438160012089
:100F200004F06BFBF8BD10B505F047F87249088076
:100F300072487349000C00040860734971480860E6
:100F4000734972480860744972480860744973486C
:100F500008607549734808607549744808607649A7
:100F60007448086076497548086077497548086094
:100F70007749764808607849764808607849774824
:100F800008607949774808607949784808607A4963
:100F9000784808607A49794808607B497948086050
:100FA0007B497A4808607C497A4808607C497B48DC
:100FB00008607D497B4808607D497C4808607D4821
:100FC0007D4908607E497D4808607F497D4808600A
:100FD0007F497E48086080497E48086080497F4894
:100FE000086081497F4808608149804808608249DB
:100FF0008048086010BD0121080010B502F002FC15
:1010000004F059FA7D494000085A7D49086000F013
:10101000F3F90221012002F0F5FBFFF7CBFE0321DB
:10102000012002F0EFFB1EF0CAE90421012002F0CA
:10103000E9FBFF22734919321C2005F38BFD0521C2
:10104000012002F0DFFB0621012002F0DBFBFFF7AD
:101050006AFF0721012002F0D5FB6B49E120400225
:1010600008601EF0B0E90821012002F0CBFB6649C0
:10107000042207201EF0AAE909210120ADAB1C6261
:1010800001000000E00F00A000020000097A606D7E
:1010900002F0C2FB624800210A0006C0604A6149B2
:1010A0006148624B05F3CFFE0A21012002F0B4FB38
:1010B00000F0BAF90B21012002F0AEFB00F072F94A
:1010C0000C21012002F0A8FB00F0B2F80D21012054
:1010D00002F0A2FB0E21012002F09EFB002010BDB9
:1010E00010B500F0B1F900F0EBF900F05FF9002065
:1010F00010BD0000002F00800021008000081C208F
:101100000028008080260080FEFFFFFBC8E8000466
:101110005C6800B0BCEA0004F55D00006CE500040A
:10112000D59600005CE500040B97000060E5000424
:101130002597000068E500041D97000064E50004A1
:10114000011200B098E60004C30E00B09CE6000453
:10115000271100B0A0E600046D1100B0A4E6000461
:10116000891100B0A8E6000445D1000080EC00041D
:1011700057D1000084EC000469D1000088EC000421
:10118000FF1100B0ACE600042F1400B0B0E600047C
:10119000811400B0BCE60004951400B0C0E6000461
:1011A000991400B0C4E6000461CD00008CE6000490
:1011B00033CE000090E60004AF5E0000F4F60004B9
:1011C000116F0000BCE5000477550000B4E6000490
:1011D00079550000B8E600049B6F0000B4E50004F8
:1011E000556F0000B8E5000471690000B0E5000427
:1011F00027690000ACE50004935E000084E600046B
:10120000A15E000088E60004BD5E000094E60004D4
:10121000000000047CE50004B031000494E5000403
:101220008C5300B0B81B0000F8150004705100B0DA
:101230000449034810B54860080004F016FE10BDCC
:1012400063600000B05300B01149104808601249B3
:101250001048086012491148086013491148086095
:101260001349124808601449124808601449134889
:101270000860154913480860154914480860164964
:10128000144808601649154808607047CB7B5546DE
:1012900001000000DC1100A0000200007761C7DD42
:1012A000B7650000A0F50004B965000090F50004E2
:1012B000EF65000094F50004F565000098F5000462
:1012C0001D6600009CF500043F660000B0F50004B8
:1012D00059660000B4F500048B660000A4F5000414
:1012E000A3660000A8F500046D660000B8F50004D0
:1012F0007D660000ACF5000410B50124A4021F486F
:10130000EE22210086B048F378EA10F05BFF01225C
:1013100000210C2003AB07C3020018480292009082
:10132000174A0019002317A1019403F309F90028B3
:101330001DD1194815A101F395FE18481A4A4168B4
:101340001748816017490161002141618261174A94
:10135000C161026241621649816205F319FB0028EE
:1013600005D11449112000F0A0FA002802D0012074
:1013700006B010BD00F008FA0020F9E7703A00044A
:10138000ED7500004E66635461736B004E666346F4
:101390006C61677300000000183F0004305400B017
:1013A00030E400B0E9750000E5750000D17500007B
:1013B000C7750000AD750000064900200880704721
:1013C0000649054808600749054808600749064876
:1013D00008607047E0E600B0D581000004FD00041D
:1013E000AB81000000FD0004A9810000FCFC0004AA
:1013F000064802A1016006A1416070476D646576F0
:101400005F6169757265636F7264000018ED0004B6
:101410006D6465765F616975706C617900000000CC
:1014200070B500240B4D04E04019406800F03DFA0F
:10143000641CE00029580029F6D170BD0648816877
:10144000FF22521C11438160816810221143816088
:1014500070470000C45400B0009000A810490F4825
:1014600010B5086010490F48086011490F4808601E
:10147000114910480860FFF7F1FE1DF0C0EF00F0C1
:1014800095F90F490D4808600F490E48086006F3AA
:10149000FDFD0F490D48086010BD000091D6CF1327
:1014A00001000000D81300A00002000083897960C9
:1014B000495F000024F60004515F00001CF60004A0
:1014C000595F000020F60004B71F00B024F50004A7
:1014D000211300B054F90004091400B058F90004B5
:1014E000B1350100C0FC00044B494A4808604C4932
:1014F0004A4808604C494B4808604D494B480860D1
:101500004D494C4808604E494C4808604E494D488A
:1015100008604F494D4808604F494E48086050499F
:101520004E48086050484F494162514A41644F4912
:101530001160514A4F491160514A50491160524A55
:1015400050491160524A51491160C11D514AF93147
:101550004A61524A504911605249514A0A60524AFE
:101560004A60534A51491160534A52491160544AE2
:1015700052491160544A534911605449544A116008
:101580000100544A80310A610265534A4A6142654A
:10159000524ACA61C265C266514A0267514A0A622A
:1015A000514A4A62524A51491160534A51491160A5
:1015B000534A52491160544A52491160544A53499E
:1015C0001160554A53491160554A54491160564AB1
:1015D00054491160564A55491160564901665649A9
:1015E000574A41665549116056490162016457499D
:1015F0005548086057495648086058495648086099
:101600005849574808605949574808605949584847
:10161000086070475B98000034FD0004EF970000FD
:1016200050F40004B9970000C0FB00044798000084
:1016300018F900045398000014F90004F9A80000F8
:10164000C8F300046D9B000040FC000425A30000CB
:10165000BCFC00043BA200003CFD0004B7A4000059
:1016600054F70004B1A5000040EB00043BA70000C4
:1016700018F60004E1A70000C4FB000413A8000052
:10168000E4F6000453A80000D8FC0004E59C000028
:1016900048FC000471A800008DA8000034F7000485
:1016A000E3A90000D8E8000409AA000043B62BAC67
:1016B00001000000D41500A0000200009A71A710DC
:1016C0002FAA000030F5000449AA000004F8000425
:1016D0007DAA000058F8000403AB00002CFD0004B4
:1016E00069AB0000DCFC00046BAC000011B2000030
:1016F0002DAD0000E5B9000031BA00004FBA00007E
:10170000A1B200008CF70004B9B2000080F7000419
:101710005BAD00002CF7000467B200004CF8000439
:10172000A9B900003CF80004DBB20000ECF40004AE
:10173000A3B300000CF80004B1B3000040F80004AB
:10174000BDB3000014F80004D7B300001BB40000C0
:10175000BDB6000060F800041FB5000073B80000BB
:10176000A4F700044FB8000094F700049FB80000ED
:1017700098F70004CBB80000C0F70004EFB80000F1
:101780005CFC00043FB9000038F70004054810B5C0
:101790000078102804D1044904484C2208F060F86D
:1017A00010BD0000510E00045E0E00048E0F0004F8
:1017B0000548064910B50078097800F029F8044872
:1017C0000068804710BD0000004000AA004000AA49
:1017D00074F0000407490648086008490648086094
:1017E0000849074808600949074808607047000031
:1017F00047950000CCF3000409360100D4F700043B
:1018000017360100D8F7000425360100D0F7000490
:10181000064808B502680092054A06491300080008
:101820000C386C3304F340F808BD00004C0E000483
:10183000901C01B01C5E00B00449054A497812783A
:101840000120914200D0002070470000000002A952
:10185000000002A910B51DF058ED01F31DFE002097
:1018600010BD814810B5006800022BD57F4A804B1F
:101870000020C11C09015161146981005C50041DE4
:10188000240154611469C918801C0C284C60F0DBD9
:10189000FF21784B2D3102E0401C8842FCDB187898
:1018A0000028F9D074485061744810610120400349
:1018B0005061734810617048E03850613DCAEC6671
:1018C00001000000D01700A0000200006E9919ADC1
:1018D00005201061012010BDFEE76B4910B548607E
:1018E00001F0E7F810BD202800D3FEE76A4A800027
:1018F0001358002B00D0FEE7115000207047664AB5
:1019000000218000115008007047644800680028DA
:1019100000D00120704702688368C1681000184732
:1019200070B55F4D6C6AE00703D0FFF2BEEEA817FA
:1019300068625C48A10706D52021C16042176A622F
:1019400082680A438260610703D5A96A0422914331
:10195000A96221070AD5A96A08229143A9628021B8
:10196000C160D2436A6282680A438260012070BD0E
:10197000F8B54D4D2C6BE00702D0A8172863044042
:10198000200606D58020C04328638020844301F0D0
:1019900038F8200709D50820C0432863082084436D
:1019A00001F0B4FD082000F0ACFC600604D5402036
:1019B000C043286340208443A00606D52020C043AE
:1019C00028632020844300F065FE600706D50420CC
:1019D000C04328630420844300F04CFF200407D553
:1019E0000126F603300001F00CF8F0432863B443FD
:1019F0006003400F06D00720000421000140C943C6
:101A0000296384430B26200036053040070005D0AB
:101A1000380000F099FBF8432863B443E000400F1E
:101A200009D00727BF0626003E40300000F0F5FA37
:101A3000F0432863BC43002C06DA0120C00700F005
:101A400016FB1A48286304401948044205D02000B8
:101A500000F074F9200001F013FA124881680122A5
:101A6000D20411438160F8BD0E4B0122D20410B59F
:101A7000DA60FFF77DFF012010BD0000009100A893
:101A800080290080403F0004000E0004F020000088
:101A9000FF0C0000070080FFECF50100A8FD00042A
:101AA000009400A8009000A880220080FFFFFF7F24
:101AB00000100001F8B50027A74D3C00E968A868B0
:101AC0003E0079407840084303D005F34004A7F86E
:101AD00001000000CC1900A000020000A9801BF04A
:101AE00047F806000C0004F0D5F91DF0F2EB04F005
:101AF000D2F9E968A8687940084309D005F338F8B5
:101B0000AA68801BEB68A14180185941E960A86070
:101B1000F8BD10B502F022FB002824D002F01DFB16
:101B200093490120C0048860001100F06BFF9148C8
:101B30000088002801D102F061FB02F0CAFB02F02C
:101B4000A4FB02F06BFB01F099FD1DF0C2EB01F06C
:101B5000A0FD02F05BFB02F0C5FB02F09FFB02F070
:101B60005EFB02F0F9FA10BDFEB500242500260048
:101B70001DF0D4FA019000F0CCFE002802D1FFF74E
:101B8000A3FF44E000F08DFC00F004FE00F0EFFE47
:101B900076480068810702D5C10700D001240107FB
:101BA00002D5410700D50125810602D5C00600D522
:101BB000012604F0D7FA009001F050F9070002D195
:101BC000012001F05FF90120C0078078042108405E
:101BD000400702D400F049FC05E0002CCFD0002DD6
:101BE000CDD0002ECBD000980028C8D0002FC6D072
:101BF0005F4CA568E017E06001263603300000F076
:101C00000AFFFFF786FF300000F0FCFEA560019898
:101C10001DF088FAFEBD10B500F07DFC00F009FE55
:101C200000F0D6FEFFF7A0FF10BD10B51DF076FA4C
:101C30000400FEF741FD01F0ADFC20001DF072FA3A
:101C400010BD10B504001DF069FA484A116821431F
:101C500011601DF067FA10BD10B503F068FC46492D
:101C60004000085A454B46495843096A0B071B0F69
:101C700047F3E0EF080507060609090B0B064008C5
:101C800010BD800810BDC00810BD000910BD10B502
:101C900004001DF043FA354A1168A14311601DF09C
:101CA00041FA10BD314A010012680020914300D171
:101CB00001207047F8B52D4C04F35AFF226963697F
:101CC000851A99410E00E1680091A068642207001E
:101CD00047F3A2EF33002A0047F320EC7862A2EE2C
:101CE00001000000C81B00A0000200005D68A54DB7
:101CF000009906000025380069406840084309D172
:101D00000120E560A06004F33DFF6A1E8018514188
:101D1000616120613000F8BD194800218160C16017
:101D200001614161704710B502F034FA10BD70B521
:101D3000040002F02FFA041B03F0BBFC0500164957
:101D40000026200047F376EF33002A0047F3F0EB3C
:101D500070BDC00005D50A482C304068002800D06E
:101D6000004770470300012010B5FFF7A5FF0028CA
:101D700004D0D80102D5002000F0D7FA10BD000031
:101D8000D05100B0009000A8885300B000000004BB
:101D9000A08601000028008040420F00022910B5F3
:101DA00005D0032903D0042901D0052903D1C14B53
:101DB000FF21491C9960042A05D0052A03D0062A70
:101DC00001D0072A07D1002805D100210A220800E6
:101DD0000B0004F020FA10BD7047052803D2B64965
:101DE0008000085C7047FF20704710B50C00002091
:101DF000FFF7F3FFA04201D100F07EFA0120FFF7C8
:101E0000ECFFA04201D100F04FFC0220FFF7E5FFFC
:101E1000A04201D100F038FD10BD10B50C0000202B
:101E2000FFF7DBFFA04201D100F07AFA0120FFF7B3
:101E3000D4FFA04201D100F03CFC0220FFF7CDFF0F
:101E4000A04201D100F025FD10BD042910B507D036
:101E500004DC022904D0032906D101E0052903D1BD
:101E600000F01BFA002800D0012010BD022910B597
:101E700005D0032903D0042901D0052901D100F0A0
:101E8000B5F910BD022910B505D0032903D00429E6
:101E900001D0052901D100F068F910BDFF280BD051
:101EA000854A00218B00D35C834202D10806000ED4
:101EB0007047491C0529F5D3FF207047FF280CD037
:101EC0007D4A00218B009B185B78834202D18800F9
:101ED000105C7047491C0529F4D3FF207047052882
:101EE00004D2754980004018407870471D45758AB6
:101EF00001000000C41D00A00002000044907B3DD2
:101F0000FF207047FF280CD0704A00218B00D35C63
:101F1000834203D18800801840787047491C052906
:101F2000F4D3FF207047FF280CD0684A00218B00B3
:101F3000D35C834203D18800801880787047491CA5
:101F40000529F4D3FF207047F7B582B007000E00D3
:101F50000C2901D2092F02D3002005B0F0BD0025C5
:101F60005A49A8000A5CBA421ED14418A278B2426B
:101F70001AD02806000E3900019001F08FFB0028CE
:101F800012D0A670E07804994007400FC9000843BA
:101F9000E07001983200390001F082FB002808D07F
:101FA000E07802210843E0706D1C052DD8D3012094
:101FB000D3E74648AA00FF2110188170E078400757
:101FC000400FE070C8E7F0B5060008003F4F002260
:101FD00004219300FC5CB44209D1DD19EC782300A4
:101FE0000B43002802D02300FB242340EB70521C3B
:101FF000052AEED3F0BD354A00218B00D35C834225
:1020000006D188008018C0784007C017401C704770
:10201000491C0529F1D3002070470020704770B596
:1020200005000C00100002F0C9F8200000F007FDC8
:102030002800FFF74DFF022805D0032803D004280D
:1020400001D0052803D1200000F09CF870BD2000CD
:10205000FFF789FE70BD10B50400C00005D5012250
:10206000120311040C20FFF7DAFF200105D501222D
:10207000D20211040B20FFF7D2FF600105D5012227
:10208000920211040A20FFF7CAFF10BD0120C0030D
:1020900010B502F08DF80120C00700F0C7FC0C4815
:1020A000016A80221143016210BD0120C00310B5F6
:1020B00002F084F80120C00700F0C1FC0449086A5E
:1020C00080229043086210BD009000A8E85100B043
:1020D00000280080F3B581B00F000198FFF7E8FEFB
:1020E00004000198FFF70EFF06000198FFF71BFFA1
:1020F0000500002C03D0012C01D0022C25525C6677
:1021000001000000C01F00A000020000B078C580E0
:1021100019D1331F0126760547F3AAED04030909F7
:102120000E15102002F054F80120000509E02020CF
:1021300002F04EF8300004E0802002F049F801205F
:10214000C00500F08FFC002F1DD10198FFF75DFF47
:10215000002818D02B1F47F38CED06161616160A0A
:1021600004160198FFF763FF0100112009E00198B0
:10217000FFF75DFF684AA1008918C978CA08010005
:10218000100000F054FFFF2201991000FFF741FEFC
:10219000FEBD08000021A7E710B50400C00203D56A
:1021A00001210220FFF7A0FFA00207D50121032093
:1021B000FFF79AFF01210420FFF796FF200203D5C5
:1021C00001210520FFF790FF01200007844205D080
:1021D0004010844202D0401084421AD1FF2082066F
:1021E000A11808D0891804D0C206891804D10C207F
:1021F00002E00B2000E00A20FFF774FE022805D061
:10220000032803D0042801D0052802D10121FFF7BB
:102210006BFF10BDF8B504000D0017000800FFF7B4
:102220008CFE0600002C03D0012C01D0022C22D100
:102230003B1F01277F0547F31CED04030C0C141E04
:10224000102001F0BFFF102001F0CEFF012000059B
:102250000FE0202001F0B6FF202001F0C5FF38007C
:1022600007E0802001F0AEFF802001F0BDFF0120DB
:10227000C00500F0E5FB331F47F3FAEC061D1D1DFA
:102280001D0E041D2800FFF7D2FE002801D10121F8
:1022900000E0002111200CE02800FFF7C8FE002814
:1022A00001D1012100E000211B4AA0008018C07864
:1022B000C00800F0BCFEFF2229001000FFF7C1FD9E
:1022C000F8BD70B504000020002C03D0012C01D013
:1022D000022C1ED1114D00222868462104F335FC42
:1022E000002815D128680022082104F32EFC0028BC
:1022F0000ED1022C04D0012C02D01DF0CAE805E05A
:1023000005F0F4F9002803D105F078FBA8B70F6EAB
:1023100001000000BC2100A000020000B8A7345D4D
:10232000002801D0002070BD012070BDE85100B030
:10233000340E0004022010B5FFF7D1FC01F032FF8B
:10234000002804D0012000F0B0F900F0C0F900210D
:10235000082208000B0003F07CFF10BD022010B51E
:10236000FFF797FC10BD70B50020FFF754FD040087
:102370000020FFF7D2FD05000120FFF7B0FC8549E2
:10238000086A10221043086283499003886001F0B4
:1023900055FF082000F067FB2A0021000020FFF70E
:1023A0001BFD70BD70B51CF0E1FE05007B480068A8
:1023B000C00710D00020FFF7D6FF7D20C00003F03B
:1023C00080F9002037F3CFF8040002E0002037F353
:1023D000CAF8A042FAD028001CF0CCFE70BD002044
:1023E00010B5FFF718FD04000020FFF796FD02006E
:1023F00021000020FFF764FD10BD10B51CF0B6FEF3
:10240000040066480068800701D5FFF7E8FF200058
:102410001CF0B0FE10BD002010B5FFF7FCFC04005E
:102420000020FFF77AFD020021000020FFF72BFDBE
:10243000002800D0012010BD38B501F0B3FE0028FF
:1024400026D1401E00905548554C0068C00711D059
:102450006068401C18D0A068FFF787FC514947F31B
:1024600022EC00906168884201D3002000E0081A45
:10247000009009E0684603F022FE00280CD0009886
:102480006060FFF76EFCA06021780098884203D35B
:10249000FFF7C1FF002801D1002038BD012038BD61
:1024A0003E4810B50068C00705D0FFF7C5FF0028FB
:1024B00001D0012010BD002010BD002010B5FFF795
:1024C000AAFC04000020FFF728FD020021000020E4
:1024D000FFF7EAFC10BD10B5FFF79DFF002804D000
:1024E000002003F05BFF002801D1002010BD012077
:1024F00010BD2A4810B5006880070DD42A4800781E
:10250000022809D1FFF7CCFF002805D0FFF7E3FF31
:10251000002801D0FFF7D1FF10BD70B513C06A2AA3
:1025200001000000B82300A0000200004C4F8AE028
:102530000020FFF77AFC04000020FFF7F8FC204998
:102540000500096817204883082000F08DFA01F083
:1025500077FE01F069FE154901208004C8602A0059
:1025600021000020FFF760FC0F48016A1022914310
:1025700001620120FFF797FB70BD0D4810B50068A0
:10258000C0070FD1FFF762FF00280BD01CF0F8FD49
:102590000400FFF75BFF002801D0FFF7C8FF200011
:1025A0001CF0F2FD10BD000000280080009000A883
:1025B000D05100B0145200B0E2040000AC5300B09F
:1025C00084EA0004F8B51CF0DBFDBE4D0700286866
:1025D00000282ED103F031F84021182002F0B9FF75
:1025E00003F01DF8B84E306902210843400840004E
:1025F000306101F0F7FD040001F0F4FDA042FBD0D2
:102600003069032108433061B04A906801214906CE
:1026100088439060AD4A803AD0688843D06003F028
:102620000CF80821332002F0A9FF02F0F8FF012086
:10263000286038001CF0A8FDF8BDF8B51CF0A0FD1E
:10264000A04D00902868012835D102F0F6FF08213E
:10265000332002F07EFF02F0E2FF9C498039C86817
:10266000012676063043C860984FB868B043B8601A
:10267000954908690222104340084000086101F0B2
:10268000B1FD040001F0AEFDA042FBD00A2003F032
:1026900022F8B8683043B8608B4908698008800028
:1026A000086102F0CAFF4021182002F067FF02F023
:1026B000B6FF0020286000981CF066FDF8BD10B53C
:1026C00004000120FFF7B1FB002C05D18049096807
:1026D000CA0705D0490603D5062801D0FFF7F4FC48
:1026E00010BD012010B5FFF7A0FB062803D001F0B4
:1026F00063FD0028FBD110BD082010B5FFF7F9FAE3
:1027000010BD082010B5FFF7CEFA10BD38B5002077
:1027100000900120FFF789FB04000120FFF707FC70
:1027200005000420FFF7E5FAFFF787FF296A026733
:1027300001000000B42500A00002000055B754902D
:1027400001F0D6FD202000F0A2F901F0A5FD6846B9
:1027500004F0DAFF0121644A4906002800D00098FD
:1027600091602A0021000120FFF74AFB38BD10B517
:102770001CF010FD04005B480068400702D50020F3
:10278000FFF7CEFF20001CF009FD10BD012010B5A1
:10279000FFF755FB04000120FFF7D3FB02002100E7
:1027A0000120FFF784FB002800D0012010BD08B5F0
:1027B000684604F0A5FF002803D0FFF7E7FF0028D4
:1027C00001D1002008BD012008BD464810B50068B1
:1027D000400705D5FFF7EBFF002801D0012010BD11
:1027E000002010BD70B50120FFF729FB0400012077
:1027F000FFF7A7FB05000020FFF721FBA04204D054
:102800002A0021000120FFF763FB70BD354810B599
:102810000068000709D4FFF7D8FF002805D0FFF7AC
:10282000B5FF002801D0FFF7DDFF10BD10B501F0A6
:1028300033FD02F068FF10BD10B501F02DFD02F070
:1028400062FF10BD38B5002000900120FFF7F7FAB5
:1028500004000120FFF775FB0500202000F00EF9B1
:1028600001F03DFD204901204006C860684604F0A3
:102870004BFF002808D101F021FD04F04CFF002897
:102880000AD0FFF7A9FE07E00098002802D1FFF761
:10289000CDFF01E0FFF7D0FF2A0021000120FFF764
:1028A000CDFA0420FFF709FA38BD0E4810B50068CC
:1028B00040070FD4FFF77BFF00280BD01CF06AFC09
:1028C0000400FFF774FF002801D0FFF7BBFF2000D2
:1028D0001CF064FC10BD0000205200B000280080F5
:1028E00080210080D05100B0009000A8202010B5B9
:1028F000FFF709FA10BD202010B5FFF7DEF910BD73
:1029000070B50220FFF79BFA04000220FFF719FBC5
:1029100005001020FFF7F7F95649012040048860B0
:1029200001F044FD042000F0B2F801F02DFD2A0072
:1029300021000220FFF764FA01F04AFD8E4D0C0FD2
:1029400001000000B02700A000020000A15FEA2DF6
:102950004E480068800601D401F057FD70BD10B5E7
:102960001CF022FC040049480068C00602D5002083
:10297000FFF7D0FF20001CF01BFC10BD022010B59B
:10298000FFF767FA04000220FFF7E5FA02002100D2
:102990000220FFF796FA002800D0012010BD10B5E4
:1029A00005F002F8002803D0FFF7E8FF002801D166
:1029B000002010BD012010BD344810B50068C006CD
:1029C00005D5FFF7ECFF002801D0012010BD002045
:1029D00010BD70B50220FFF73CFA04000220FFF79B
:1029E000BAFA05000020FFF734FAA04204D02A000A
:1029F00021000220FFF776FA70BD244810B5006868
:102A0000800609D4FFF7D8FF002805D0FFF7B6FFEE
:102A1000002801D0FFF7DDFF10BD70B50220FFF7E1
:102A200018FA04000220FFF796FA0500042000F0CF
:102A30002FF801F0BCFC01F0B1FC13490120400467
:102A4000C8602A0021000220FFF702FA1020FFF7D9
:102A50003EF901F0BEFC01F0CEFC70BD0B4810B594
:102A60000068C0060FD4FFF79AFF00280BD01CF0B7
:102A70009BFB0400FFF793FF002801D0FFF7CDFF79
:102A800020001CF095FB10BD009000A8D05100B0B4
:102A900023494A6A02434A62CA6A0243CA6201205F
:102AA00070471F494A6A82434A62CA6A8243CA62BD
:102AB000012070471A49C043086301207047184B32
:102AC00080339969DA69090112090909120100289C
:102AD00004D00520400701430A2003E00520000739
:102AE000014305200243D961DA6170470D48016B4B
:102AF000022291430163016B402291430163016B08
:102B000004229143016370470648006B810701D599
:102B100000207047400601D5022070470120704711
:102B2000802200800021008010B51CF03DFB0400D5
:102B300002201CF099FD002802D0144901200860F1
:102B40000021012001F0FCFA20001CF07342FC443B
:102B500001000000AC2900A0000200006646E870F9
:102B600031FB002010BDF8B501200E4900F0D6FE63
:102B70000B4E0024361D0127FF0308E02104090C39
:102B80003943012000F0CAFE70598047641CA5003B
:102B900070590028F2D103F0BDFD04F024FDF8BD0A
:102BA000705E00B07F8B0000F84841680068814289
:102BB00001D10120704700207047F44810B54168EA
:102BC0000068012292070B00040093439443A34240
:102BD00005D111401040814201D0012010BD0020DC
:102BE00010BDEB4900204861EA4A5060C860704758
:102BF000F8B504000D0016001CF0E0FA07000021F3
:102C0000032001F0A7FA002C0ED0002D0CD03200CA
:102C10002900200046F370EE032001F0BDFA3800D1
:102C20001CF0D0FA0020F8BD38001CF0CBFAFEE70B
:102C3000D74810B580682C2146F3FAEE10BDF8B5E0
:102C400005000E000024002803D0D14F3878012859
:102C500001D00120F8BD012E02D11CF0AFFA040012
:102C60000021032001F076FA1CF0A8FA8446FFF751
:102C7000A4FF002804D060461CF0A4FA002013E052
:102C8000F868401CF860C14800680C210004000C82
:102C90004143C1480818002107000A000B000EC07C
:102CA00060461CF08FFA3800002800D1FEE7EA7871
:102CB000082A01D8121D00E00C22290046F31CEE60
:102CC000B24800F053F9B548816B0122114381638A
:102CD000032001F061FA012E02D120001CF072FAEB
:102CE0000020F8BDFEB5AE4CAA4E0022AC48D2433F
:102CF000009201220321283801AB00F39DFA0198CC
:102D00000028F2D00128F0D11CF058FAA54D070098
:102D100011E070680C230004000C584340190AD0DD
:102D20000278052A05D291006158002901D0002AB5
:102D300000D121688847706831688842E9D138003D
:102D40001CF040FAD1E710B51CF038FA040000215D
:102D5000032001F0FFF98F48001D00F01386E4C442
:102D600001000000A82B00A00002000092AE56CD8A
:102D700007F98F49C86BCA0D1043C863032001F0DF
:102D800015FA20001CF028FA10BD002810B508D054
:102D90000078012805D1FFF72EFFFFF7DEFF0020A6
:102DA00010BD012010BD10B50178042901D001200B
:102DB00010BD7C494A68521C4A600969002901D04B
:102DC000884701E0FFF7C9FF002010BD0EB50421C0
:102DD0006B461970012159700221D970017819715F
:102DE000407858716F484168491C4160FFF7B5FF52
:102DF00001216846FFF72DFF00200EBDF0B587B01A
:102E00001CF0E6F906006D48FFF756FE6C490120FC
:102E1000C0048860C412200001F010FA200001F004
:102E200019FA5F48002404605E4D6C615E4844609E
:102E300060486449016064490161644941602C61F2
:102E400001220A20059202000390614801218902B3
:102E50006B46049407C3002356485E4AD0385EA1EF
:102E600001F3F0FB002802D0012007B0F0BD51486B
:102E70005BA1283800F378F90021032001F074F9F0
:102E8000A8685A4F0068B8420AD101206B461874EE
:102E9000DC742870002104A8FFF7DBFE2C7003E02F
:102EA000FFF7D0FEA8680760032001F07FF930002B
:102EB0001CF092F90020D8E700290BD0052809D290
:102EC000042802D13748016102E03A4A80001150DB
:102ED000002070470120704770B51CF079F9314C23
:102EE0002F4D060008E0E168002910D02D48491E4A
:102EF0001430E16000F044F8606969688842F2D1FA
:102F000030001CF069F93B493948086370BDFEE7A1
:102F1000234801684068814201D0012000E0002080
:102F200021494A6809688A4201D0012100E0002154
:102F3000084301214840704701001E4800222838FC
:102F400010B500F313FA10BD70B5040015480178F0
:102F5000012901D001210170E0010CD52549264845
:102F60000863CD0D280001F06FF92800D0A2FE1CE7
:102F700001000000A42D00A0000200008B5688BDB7
:102F800001F066F90120FFF7E1FFE00401D5FFF74A
:102F9000ADFF70BD026801231104090C9B07491C99
:102FA0001A4011430A009A43082A01D35940194094
:102FB00001607047001300C04CC000B0801300C017
:102FC000081300C0802A008094FF00B0881300C05E
:102FD00000100001009000A8052C0000DF2B00006D
:102FE000C32B0000C4FA00B0312B000049636354C6
:102FF00061736B0049636351466C61677300000045
:10300000CDAB0000FFEFFFFF80220080FFFFFFFE3F
:10301000F8B504000D007648764A01681268012070
:103020009047002848D001202700734E0100103F30
:103030000200A140BA40704B4036002D2ED003252F
:10304000082C07D21E68620095409040AE430643AC
:103050001E6009E0102C0AD25E68083C62009540B0
:103060009040AE4306435E60986888431AE0182C8F
:1030700007D2F36979008D408840AB430343F36185
:1030800009E0202C07D2336A183C61008D4088404B
:10309000AB4303433362706A904307E0102C03D2C2
:1030A00098680843986002E0706A10437062534960
:1030B0000120096888470120F8BD70B504004C481C
:1030C0004C4A0D00016812680120904700281AD070
:1030D0000122102C08DA4849C868A2409043002D0C
:1030E00000D01043C8600AE0434B4033986A103C5C
:1030F000A24090430100002D00D0114399623F4946
:1031000001200968884770BD10B504003848394A65
:10311000016812680120904700281AD00122102C63
:1031200006D235488168A24011438160006907E0FA
:1031300031484030416A103CA24011434162C06AAC
:10314000E0402E49C4070968E40F012088472000A9
:1031500010BDFF2010BDF8B52548264A0168126849
:1031600001209047002840D0254801210903C16073
:103170002148016A20484030C06B0F0424E08EBA19
:1031800001000000A02F00A0000200007FBE36005A
:103190003F0C0006000A074300241F4801261EE0DA
:1031A0004068E2008158002918D0101840683200A9
:1031B00082403A4212D005008847102D06D21349AA
:1031C000086A3200AA409043086207E00F49403184
:1031D000C86B103D3200AA409043C863641C0E487F
:1031E00001788C42DCD30B48816801221203114321
:1031F000816007490120096888470020F8BD012047
:10320000F8BD000038E5000440E50004000200902D
:1032100044E50004009000A8245200B0F8B5002551
:10322000FF4F387D012802D97D2000023860787D6B
:10323000C00709D002F058FE3968884204D2787D70
:103240004008400001257875787D400731D502F0AF
:1032500067FE79680400FB26814220D8F868A04206
:103260001DD8052001F0B9FFA04218D8052001F0B3
:10327000B7FFA04213D8012001F0AFFFA0420ED843
:10328000012001F0ADFFA04209D8022001F0A5FF06
:10329000A04204D8022001F0A3FFA04201D9787D0A
:1032A00004E0787DC10701D0810702D430400125B8
:1032B00078752800F8BD70B51BF09EFF0500FFF77C
:1032C000ADFF0028FBD1D64C607DC00706D002F0D0
:1032D000DFFD002802D1012002F03DFC607D800767
:1032E00006D502F0D8FD002802D1012002F0B5FC7D
:1032F000607D400709D502F0ACFD002802D1012015
:1033000002F05AFD607D400706D402F0A2FD0028BD
:1033100002D0002002F050FD607D800706D402F04C
:10332000BAFD002802D0002002F097FC607DC007A3
:1033300006D102F0ADFD002802D0002002F00BFC07
:103340006068002101F03DFFA068002101F03FFF0F
:10335000607DC00709D120687D210902884201D122
:10336000012000E0002002F0DFFDE068002101F014
:103370002BFF2069002101F02DFFAA4900200870D1
:1033800028001BF03DFF002070BDF0B566638D1670
:10339000010000009C3100A00002000001A591B0D6
:1033A00006000D0087B0A3490027182201A846F3A4
:1033B00036EBA04C607D000702D4012007B0F0BDC1
:1033C000002E02DA7600760801273300042646F341
:1033D000AAEC085205142044512C385202F08EFDFC
:1033E000A84204D2607D40084000607503E0617D22
:1033F00001200143617525603DE002F09BFDA8427C
:10340000607D02D2FB21084000E0304360756560BA
:1034100031E002F08FFDA842607D02D2FB2108401E
:1034200000E030436075A56025E002F083FDA8420E
:10343000607D02D2FB21084000E030436075E5600A
:1034400019E002F077FDA842607D02D2FB2108401E
:1034500000E03043607525610DE0280002F066FD54
:103460000028607D02D1FD21084001E002210843CF
:10347000607500E025756F49182201A81BF018FD42
:10348000002802D06C4901200870002F01D0FFF7FE
:103490001CFF002092E7FEB500207D24E4012700F8
:1034A00001250194009011F380FE882169430600F4
:1034B0000291405C02282FD12804000C1CF3DDFD92
:1034C0000099491C0906090E00910279012A02D1CE
:1034D0008179012904D0029989194B7D092B08D1E2
:1034E00002997D208919C9788001002910D14010E6
:1034F0000EE0052A05D18079052802D17D20000241
:1035000001E07D20C001C978002901D17D20800122
:10351000844209D8040007E0012805D17D20C001BC
:103520008442F7D92000F5E76D1C082DBBD3009825
:10353000012805D97D200002844200D92000040022
:103540003E48C06900280BD07D200002844200D98B
:10355000200004007D20C001874200D93800070008
:103560003748807902280AD17D21C90108008C42A0
:1035700000D9200004008F4200D939000F000199C2
:103580000120FFF70CFF39000320FFF708FF21009F
:103590000220FFF704FF0020FEBD10B592E67D700B
:1035A00001000000983300A000020000F54D2F0D2F
:1035B000254C607D000734D502F087FC002802D13D
:1035C000012002F0DEFB02F07DFC002802D1012088
:1035D00002F098FB02F07CFC002802D1012002F0EE
:1035E0004FFC1D4801680420FFF7E3FEFFF75DFF75
:1035F0007D21490160680C008A00904201D91400C5
:1036000011000720FFF7D5FE21000620FFF7D1FEAD
:103610000E480078002804D001200021C007FFF7E1
:10362000C8FE10BD084870B5407D000723D57D2435
:10363000E401062001F0E5FD050002F01EFC002873
:1036400010D002F081FC09E0E4C600B02C5200B0BA
:1036500008D70004D0D1000494E50004A04200D3B0
:1036600020000400A54206D20021200001F0BDFD8B
:1036700007490120087070BD06480822417D1143AA
:10368000417570470348F722417D114041757047ED
:103690002C5200B0E4C600B0002010B5FEF715FCB7
:1036A00004000020FEF793FC02000020210003002C
:1036B00000F082F80120FEF708FC04000120FEF76C
:1036C00086FC020021000120002300F075F8022092
:1036D000FEF7FBFB04000220FEF779FC020021004C
:1036E0000220002300F068F810BD70B501252F4EB0
:1036F000082A13D0092A3DD1002B3BD101211120EA
:10370000FFF7A4FC00211120FFF7F5FC71696804A4
:1037100081437161B1698143B1612BE0002B29D1F3
:10372000810023480C18E078C008411E182901D3F5
:1037300000251FE00121FFF789FCE0780121C00886
:10374000FFF7D9FCE2780121D008102807D272696E
:1037500081408A437261B0698843B0610AE01348CE
:103760004030036B5206120F91408B430363426B50
:103770008A434263280070BD0123B6E70023B4E703
:103780000C4810B50068002804D000221100032066
:1037900002F00AF810BD074810B50068002804D0F0
:1037A00000220121032001F0FFFF10BD5B9E386263
:1037B00001000000943500A000020000ECB5F17D8E
:1037C00000020090E85100B068C000B00A2A10B5AD
:1037D00011D00B2A0FD00C2A0DD1002B0BD10021B8
:1037E0000F20FFF73DFC0448426981018A43426192
:1037F00082698A43826110BD000200901CB50400FA
:103800006348082241686846FFF72EFAA00702D5F0
:10381000019805F00BFF1CBD10B54078FFF7EEFFD7
:10382000FFF7CDFA002010BD3EB5040002E00120F4
:1038300001F0ABFFFFF7F4F90028F8D002206B4647
:10384000187000205C709870D87001216846FFF7EE
:1038500032FA3EBD4E4808B541680122891C6846CF
:10386000FFF702FA6B46187808BD10B50400FFF7A1
:10387000F1FF002802D12000FFF7D6FF10BD10B5E0
:103880000C000100424820220068FFF7EDF9002CEF
:1038900002D02000FFF7E9FF10BD3D4910B50968CF
:1038A0002022FFF7E1F910BD01B539480122006877
:1038B00069460830FFF7D8F908BD01B53448012240
:1038C000006869460930FFF7CFF90820FFF7CDFF00
:1038D00008BD11B581B02E4C0122216868460A311D
:1038E000FFF7C2F96B4618781979884208D020682A
:1038F00001220A3001A9FFF7B7F90820FFF7B5FF49
:103900001CBD01B522480122006869460B30FFF753
:10391000ABF908BD01B51E480122006869460C30AC
:10392000FFF7A2F908BD01B51948012200686946F0
:103930000D30FFF799F908BD13B50422144C694600
:1039400020681030FFF790F920680422143001A994
:10395000FFF78AF91CBD01B50D48012200686946D0
:103960001D30FFF781F908BD01B509480122006843
:1039700069461E30FFF778F908BD054808B541686B
:1039800001226846FFF770F96B46187808BD000001
:10399000305200B0FB4A10B5106843780478180222
:1039A000F94B2043984203D010680170090A417016
:1039B00010BDF4498000091F085802216BDECE4B70
:1039C00001000000903700A000020000185D4FC009
:1039D000593002780A430270F14A507C084350740F
:1039E0007047ED48F8B524300188EE4A91421DD069
:1039F00002001288012441889440EB4F012904D130
:103A0000FD68A5432C43260003E0FE68A64334432B
:103A10002500E6498088096846F398E98905800A07
:103A20000843FD6001D01BF014EDFE60F8BDDA4ADA
:103A30008000121F105840308183D2E770B5050016
:103A4000DB4C09D10022DB48110046F3D1F90028F4
:103A5000206001D020210181A8002158002908D030
:103A60000A898918CC4A121F125811672058082158
:103A7000017370BD70B50400C068C74D012180009E
:103A80002D1F285800264166E068800028584666A9
:103A9000E068800028580B23D83002689B021A4344
:103AA0000260E068800028580823D83002681A4372
:103AB0000260E068800028584B05D83002689A43BD
:103AC0000260E06880002858D83002680A4302602B
:103AD000E068FFF7B3FFE1680720890069580866CE
:103AE000E068FFF770FFE068002802D1296817201E
:103AF0000866E06880002858AA498666E0680028C1
:103B000004D1AB4A0832118051809180A84A0B0A37
:103B10000E32117053709170090AD17081000E3A03
:103B20005158002901D00D2100E00C21FFF77FFF43
:103B3000E0689F498000091F0E50E068052182005F
:103B400095488258D170E168890041588E70E168CB
:103B5000890041580E71E168890040584671002083
:103B600070BDF8B504001422914F62439248A5003D
:103B70003F1F0026032911D1002C0AD146F39AF9E0
:103B800020213860018101002431002002F041FD34
:103B900014E0101846F38EF978510FE0052904D18E
:103BA000002C08D084481438F3E7022901D00829F2
:103BB00004D1002C2ED146F37DF9386078590028C5
:103BC00027D0002C25D13868734C0189D0BBD1FC9B
:103BD000010000008C3900A000020000DF444D9D70
:103BE000411848780B7802021A43241F2068C0301D
:103BF000828248780A7803021343201D0268D57830
:103C00000122AA40521E9A1803680068DB781A4104
:103C10008270CA7820688030C28122683000D16604
:103C20000221FFF70EFFF8BD68481430BBE7012200
:103C300070B5D2079378634C80000C3C22588A42BE
:103C40002FD0002921500DD0002001228500655978
:103C50008D4204D0461C1500B5401D4221D1401CA8
:103C60000128F3D351480C3802788A4219D00170E8
:103C7000514A3630002909D0C178837808021843A8
:103C800090420ED001F095FD012008E041780378C4
:103C900008021843904204D001F08BFD0020FEF78B
:103CA00068FF70BDFFB581B00400029800287BD08A
:103CB000E068002878D1029D0498E88020202881BF
:103CC000121D2035100A2A70687000200126A87085
:103CD0001BF0C4FA0090E0680021FFF7A8FFE0683D
:103CE000384F8000083F385800280ED00498032829
:103CF00005D1291D002002F0B0FC002805D10021CB
:103D00000B2208000B0002F01CFB0498022874D060
:103D1000032821D005285BD0082817D10320E8709C
:103D2000E0681421414329480818029946F3F5F840
:103D3000E068244A8100121F5258002A06D179589F
:103D4000002903D10221FFF716FF002600981BF07F
:103D500089FA300005B0F0BDFE20E870291D002072
:103D600002F07BFC0028E0680BD01423584317496D
:103D70004018029946F3F3F8E16800208900785072
:103D800006E01421414311480818029946F3C5F88A
:103D9000E0680C4A8100121F5258002AD6D1795887
:103DA0000029D3D10321CEE72FE026E0C85E00B082
:103DB000DCFE000080000080FFFF00000002009099
:103DC00064C000B0E45E00B0F45300B06CFA00B020
:103DD0000220E870E06814214143FF488A3BC6098D
:103DE00001000000883B00A0000200002BACF32083
:103DF0000818029946F39BF8E068FD4A8100525882
:103E0000002AADD179580029AAD10521A5E70420BF
:103E1000E870E06814235843F44940188FE7002005
:103E2000A2E710B504001BF023FAF14AA1001C3AE6
:103E3000F04B54586366525817231366EC4B00221C
:103E40000C3B5A501BF018FA10BDFEB5840006005A
:103E5000E74800251C3801590D66025901215166B9
:103E60000059E34F45663F1D3859002802D045F3FD
:103E7000A9FF3D51DD4914227243DD4F0B0014337D
:103E80003859D31801930B00143BD3185618002847
:103E9000009307D045F396FF04E0300046F31EF888
:103EA0003851F7E7300046F382F80028F5D105E0F5
:103EB000009846F313F8385145F384FF009846F311
:103EC00076F80028F4D105E0019846F307F8385158
:103ED00045F378FF019846F36AF80028F4D13D5184
:103EE000FEBDF8B504001500C1481C380600083EA8
:103EF000152958D010DCBE4F091F00223F1D0B00B2
:103F000045F342EF11BCBDBDBDA470BD7BBD87872D
:103F1000BDBDBDBD8235BD00B54812301D2949D09B
:103F200016DC19295AD01A2972D01B290FD01C2946
:103F30000DD169782A78090211430170090A41708C
:103F4000E978AA78090211438170090AC17096E0E4
:103F50001E293ED0202978D04629F8D1E0680028D3
:103F6000F5D1A3480068002800D00120F8BD1BF05F
:103F70007FF90500E0688100795800290FD1FFF72B
:103F800071FDE06881007958002903D128001BF0F9
:103F900073F9EAE7002802D10121FFF75CFD280050
:103FA0001BF06AF96BE0E1688900405802218068E3
:103FB0000840F8BD41780278090211432970090AC6
:103FC0006970C178827808021043A870000AE8700E
:103FD00055E0E0680121FFF734FE50E0E06800287A
:103FE0004DD107E0E068002849D1814986A3400A05
:103FF00001000000843D00A00002000032542D505A
:104000000C390968002944D0FFF715FF41E0E16849
:1040100000293ED10068172101663AE0E068FFF709
:104020001EFF36E030E0E16800290FD171780029E9
:104030000CD076490068734BC0308182E068800004
:10404000183B18580170090A41707270E0688100CD
:10405000795800291DD00121FFF707FD19E00DE077
:10406000E068002815D166481438816814308068EB
:1040700009186348143080680818F8BDE068614981
:10408000800008310D5004E01BF0FCF8756191E7E9
:1040900035610020F8BDF8B50025A80059491C3944
:1040A0000A581023566EF2431A430B585A660858A2
:1040B0004030007E002D7ED10024F1073FD0400724
:1040C0003DD450490022091D08680389C41863784B
:1040D00027781B023B434E4FBB4204D901212800E5
:1040E000FFF7C3FC2AE00223037346480021001DAA
:1040F0000768072208000B0002F037F90020FFF7DD
:10410000BBFC4048001D0068002803D001212800A6
:10411000FFF7ABFC3889001D3881E078FE2801D11B
:104120000120E070E078F880354836492830786121
:10413000E37808310C6800223900A0470124B00759
:1041400046D5304F00213868002816D00189411823
:10415000091D002002F08BFA002802D00120391F2F
:1041600008602848243801693868002901D0884748
:1041700001E045F331FE00203860230400211B0CD0
:104180000622080002F0F1F81D4C200045F319FF4B
:10419000002809D1200045F314FF002804D1200095
:1041A00045F30FFF002813D01649091F096800299D
:1041B00008D00B2200E020E0002108000B0002F0F4
:1041C000D4F805E0C0880106090E2800FFF7E7FCD7
:1041D0000C491C390868006EC0060ED5F0060CD5D7
:1041E0000A000120103210600968072008660021CB
:1041F000092208000B0002F0B8F86D1C215CFC1CC1
:1042000001000000803F00A000020000C6BC93ED4A
:10421000012D09E06CFA00B0E05E00B0EFFEFFFF98
:10422000DCFE00000504000000DA40E70120F8BDD4
:1042300070B505000C0009D102E0012001F0D7FAA9
:1042400028001BF089FA0028F7D011E0641E28002E
:104250001BF082FA00280BD1012001F0C8FA002CD3
:10426000F4D11249A8000A58521C0A50002070BD0F
:10427000012070BD0E4B30B501215A6881400A40C3
:104280008000002A05D1094980310A58521C0A5081
:10429000FEE7064C803C2258012A02D15D688D431E
:1042A0005D60521E2250012030BD00007CC700B06E
:1042B000C02A0080FF484068016F10221143016747
:1042C0007047FC484068016F1022914301677047B6
:1042D0000020704770477047F6484068816B090CB2
:1042E00001D000207047816B490504D5816B09041A
:1042F000090FFBD100E0806B01207047ED4840685A
:10430000406B7047EB4949684A6E82434A66704782
:10431000E84949684A6E02434A667047E549496878
:10432000CA6E0243CA667047E24949688A6E024310
:104330008A667047DF484068806B8007C00F70470F
:10434000DC484068C0304168372291434160416891
:104350000122114341607047D6484068C03041682F
:104360000822914341607047D2484068C03041689C
:104370000822114341607047CE484068C030016850
:104380000122114301607047CA484068C03001688B
:10439000490849000160704770477047C548406848
:1043A00041680122920411434160816812119143D6
:1043B0008160FF30401C41684908490041607047F6
:1043C000BC484068C11DF9314A6801231A434A605C
:1043D00041689A04914341608168121111438160E0
:1043E0007047B4484068FF30401C41680222914346
:1043F00041607047AF484068FF30401C416802226E
:10440000114341607047AB484068FF30FE79662237
:10441000010000007C4100A00002000023EBCEEA76
:10442000401C01680122114301607047A6484068A2
:10443000FF30401C01684908490001607047A248EC
:104440004068FF30401C016808221143016070473A
:104450009D484068FF30401C01680822914301607C
:10446000704799484068C03001680122D207114363
:104470000160704794484068C030016849004908AD
:10448000016070479048406880680003C00F704723
:104490008D48406881680122D204114381607047D1
:1044A00089484068FF304130416A8908890041628B
:1044B000704785484068FF304130416A042291438B
:1044C0004162704780484068FF304130416A0422B1
:1044D0001143416270477C484068FF304130016AB7
:1044E000012211430162704777484068FF30413034
:1044F000016A490849000162704773484068FF300B
:104500004130016A0122D2071143016270476E48AF
:104510004068FF304130016A490049080162704734
:1045200069484068FF304130806A0005C00F70471D
:1045300065484168092080010818C1690122920379
:104540001143C161C16952001143C161C169520087
:104550001143C16170475C48416809208001081817
:10456000C169012292031143C161C1695200114323
:10457000C161C16952009143C161704752484068AE
:10458000816810221143816070474F4841680920BB
:1045900080010818C169012252041143C161C16937
:1045A000D2001143C1617047474905224968D201D1
:1045B0008918CA69382340079A43800E0243CA61AA
:1045C000C86901221043C86170473F4A0023D3568F
:1045D0001F21C0181F2800DA01000806000E7047CE
:1045E0000D2804D8384900228A56002A00DBECE75F
:1045F0007047F0B593B0354C2068030960681B0123
:104600000109A06809010209E0681201000900011E
:10461000C01C12902069491C05096069440BE55EC5
:1046200001000000784300A000020000D70370578B
:104630002D0100090001401D1190A069921C000984
:104640000001801D1090E0692D1D0609206A3601C9
:104650000009000108300F90606AF61D0009000192
:1046600009300E90A06A000900010A300D90E06A3E
:10467000000900010B300C90206B000900010C3088
:104680000B90606B0709A06B3F01000900010D3022
:104690000A90E06B0D37000900010D308646F020CE
:1046A0008143103185430991129940350895119D38
:1046B0008243854350350795109D8143854350358E
:1046C00006950F9D86432032303150368543503554
:1046D00005950E9D83438543944603E0385200B010
:1046E0007CCA00B0503504950D9D0C9A8543503519
:1046F00003950B9D82438543503501950A9D5032A9
:104700008543029272468243874350351F20000240
:104710000095132583432D025B192360099B814378
:1047200083435B196360634683435B194919A36044
:10473000E160089D50320B218543490296466A1874
:104740002261079D864385436A186261069D503742
:1047500085436918A1610321C9027218E261059DB0
:1047600085436A182262049D85436A186262039D2C
:1047700085436A18A262029A82435218E262019D3E
:10478000874385436A1822637A186263009D8543D4
:104790006A18A26372468243511800250700E1633C
:1047A000AE00A059C004C00EFFF719FFA159C00602
:1047B000C00CB9436D1C01432D062D0E102DA151C7
:1047C000EED313B0F0BDF0B588B0FF490A6A120607
:1047D000130F4A6A1206120F120113438A6A120655
:1047E000120F12021343CA6A1206120F1203134366
:1047F0000A6B1206120F120413434A6B1206120FB1
:10480000120513438A6BC96B1206120F09061206B2
:10481000090F134309070B43EC494A68D11DFF31C7
:10482000FA310C690B610C6B0B6309249DC49AF17E
:1048300001000000744500A000020000CEFBAE277E
:10484000A4011219D468D360E44BDC682406260F57
:1048500004969C6835012406240F03942C431D699B
:104860002D062E0F350237032C43059700962600A0
:10487000A6465C693E432406240F01942404264383
:104880000694019C27059C693E432406240F2506B7
:10489000DC692E432406240F24072643029607963C
:1048A0005B68BC461B061F0F039B1E013B00334386
:1048B000049E059F36023343009E3B4336041E434D
:1048C00067463E432E432643072803D0062801D0DF
:1048D0000A2809D1906802989060C8680798C86053
:1048E000C86ACE6208B0F0BD0528FBD19068019E71
:1048F000704636033043069E3043664630432843B5
:1049000020439060CA68C860C86A0698034360463E
:1049100003432B432343CB62E4E7F0B5AF48016880
:10492000426809071207090F120E11438268036BD0
:104930001207120D1143C2681207120C11430269CB
:104940001207120B114342691207120A11438269BE
:10495000120712091143C269944612071143964681
:10496000026A1407426A240F1207120E1443826A65
:104970001207120D1443C26A1207120C14431A07CD
:10498000120F15042C43456B26002D072D0A2E43CC
:10499000856BC06B2D072D092E43000706439048F9
:1049A0004568E81DFF30FA304768416087688660D7
:1049B00016053443120614431A07144309229201C0
:1049C000AA18136811605368546062461207120FE8
:1049D00013011343140223431403234314042343F6
:1049E000140523431206134372461343426A41627D
:1049F000816A8362F0BDF0B5784908684A69C004ED
:104A0000C50E4868D204C004C00E40010543886842
:104A1000D20EC004C00E80020543C8685206C0040E
:104A2000C00EC00305430869CB69C004C00E04056D
:104A3000254315438A69DB04D204DB0E7D42A4536F
:104A400001000000704700A0000200003A13109A15
:104A5000D20E5B011A430B6AAC46DB04DB0E9B02F1
:104A60001A434B6A4D6BDB04DB0EDB031A438B6A84
:104A7000ED04DB04DB0E1B051A43CB6AED0EDB04F1
:104A8000DB0E5B061A430B6B6D01DB04DB0E2B4365
:104A90008D6BC96BED04ED0EAD022B43C904C90E3D
:104AA000470106003E4387023E43C7033E43264379
:104AB0004006064348010C000443880204434D4865
:104AC000CD0340682B430100FF302C43FF30801C96
:104AD00045696546456187698261C769C361436B02
:104AE00033004663866B8363C66BC363080009218A
:104AF00089014018016905614169426181698461E8
:104B0000F0BD10B50400FFF712FF2000FFF76FFEA5
:104B1000FFF77BFF10BD37494968FF31FF31891C22
:104B20000A6A000712091201000F02430A62086AAA
:104B30000F2212039043086270472E494968FF31E3
:104B4000FF31891C0A6AF02300079A43000E0243D2
:104B50000A62086A1A0390430862704730B504007D
:104B6000244D04280CD21120FFF758FD6968092252
:104B700092018918C9698904C90E884200D20424A7
:104B80006868FF30FF30801C016A0F2212029143D7
:104B90002207120D1143016230BD164A10B5536849
:104BA0000522D2019A1813691F246406C006A34384
:104BB00080080343136110696311C9069843C9094A
:104BC0000843106110BD0B4A10B553680522D2018D
:104BD0009A1813691F24E403C006A343000B034380
:104BE000136110696311C9069843490C084303E037
:104BF0007CCA00B0385200B0106110BDF94A10B53F
:104C000052680523DB01D21813691F246401C00612
:104C1000A343800D034313611069C9064009400195
:104C2000C90E0843106110BDEE4A10B55268052345
:104C3000DB01D21853691F246401C006A343800D11
:104C4000034353615069C906400940019797BEC8A4
:104C5000010000006C4900A000020000FD0A12C71C
:104C6000C90E0843506110BD0C2010B5FFF7D5FCEC
:104C700004001120FFF7D1FC2100FFF7DFFF122015
:104C8000FFF7CBFC04001320FFF7C7FC2100FFF760
:104C90008EFF1420FFF7C1FC04001620FFF7BDFCB7
:104CA0002100FFF79AFF1720FFF7B7FC0400192037
:104CB000FFF7B3FC2100FFF7ABFF10BDCE49052283
:104CC0004968D20189180A699205D20E824206D338
:104CD0000A69D206D20E824201D8082070470A69BA
:104CE0001203D20E824206D30A695204D20E8242C5
:104CF00001D8042070470A699200D20E824206D37E
:104D00000A69D201D20E824201D8022070474A6954
:104D10009205D20E824206D34969C906C90E814264
:104D200001D80120704700207047B349496880319D
:104D3000CA6AFF23E13300079A43C00D0243CA62E7
:104D40007047AD4900B549688031CA6AC306520947
:104D50005201DB0E1A43CA62FFF7B0FF0006000ED5
:104D6000FFF7E3FF00BDA4494968C0314A69FF234A
:104D7000E13300079A43C00D02434A6170479E49E0
:104D800000B54968C0314A69C30652095201DB0EB9
:104D90001A434A61FFF792FF0006000EFFF7E3FF98
:104DA00000BD95494968FF3141314A6BFF23E1332A
:104DB00000079A43C00D02434A6370478E4900B50D
:104DC0004968FF3141314A6BC30652095201DB0E7B
:104DD0001A434A63FFF772FF0006000EFFF7E1FF78
:104DE00000BD85494968FF31491C4A69FF23E13309
:104DF00000079A43C00D02434A6170477E4900B5DF
:104E00004968FF31491C4A69C30652095201DB0E49
:104E10001A434A61FFF752FF0006000EFFF7E1FF59
:104E200000BD75494968FF31FF31891C0A6A0F23AB
:104E30005B0600079A43C00802430A6270476E4946
:104E400000B54968FF31FF31891C0A6A1F231B0521
:104E50009A43C306DB091A430A62FFF78EA3EAAF3F
:104E600001000000684B00A00002000009E2AC7ADB
:104E70002FFF0006000EFFF7DEFF00BD70B5050036
:104E80000D20FFF7DFFB61494E6809218901711888
:104E9000CA699204D20E904201D2012200E000229F
:104EA0005A480024401C035DAB4204D0641C240615
:104EB000240E022CF7D3086A18255543534A000CD8
:104EC00000040832535B18430862486A000C00046F
:104ED000AA18538818434862886A9388000C000413
:104EE00018438862C86AD388000C00041843C8625B
:104EF000086B1389000C000418430863486B53893E
:104F0000000C000418434863886B9389000C00046C
:104F100018438863C86BD389000C00041843C86326
:104F20000520C00130180368168A1B0C1B0433438C
:104F300003604368568A1B0C1B0433434360836839
:104F4000968A1B0C1B0433438360C368D28A1B0CF4
:104F50001B041343C36030232C4A634338329A182E
:104F6000535B0C6A1B042404240C23430B62521968
:104F700053884C6A1B042404240C23434B629388FB
:104F80008C6A1B042404240C23438B62D388CC6AD0
:104F90001B042404240C2343CB6213890C6B1B04D5
:104FA0002404240C23430B6353894C6B1B042404FB
:104FB000240C23434B6393898C6B1B042404240C23
:104FC00023438B63D389CC6B1B042404240C23431D
:104FD000CB63118A036809041B041B0C194301608D
:104FE000518A436809041B041B0C19434160918AD0
:104FF000836809041B041B0C19438160D18AC268B1
:1050000009041204120C1143C16070BD385200B083
:1050100055494A68092189015118CA691F235B0251
:10502000C0069A43800C0243CA61C86901229204F7
:105030009043C86170474C494968C0314A690F23A1
:105040009B0300079A43800B02434A61704746491D
:1050500000B54968C0314A691F235B029A43C30601
:105060009B0C1A434A61FFF733FE00060362AAB4A1
:1050700001000000644D00A000020000101A720A36
:10508000000EFFF7E2FF00BD3C494A680921890193
:105090005118CA69FF23E13300079A43C00D024348
:1050A000CA617047354900B54A680921890151181C
:1050B000CA69C30652095201DB0E1A43CA61FFF7DF
:1050C00011FE0006000EFFF7DFFF00BD10B5040063
:1050D0000D20FFF7C1FAFFF7A5FF1620FFF7B1FA81
:1050E000FFF7C1FEE00614D50120C007C07CC10750
:1050F0000FD00007400F02282AD0032809D116201C
:10510000FFF7AAFAFFF78EFF1620FFF79AFAFFF7CC
:10511000AAFE1620FFF795FAFFF7C4FF1620FFF747
:1051200090FAFFF79EFF1820FFF78BFAFFF71DFE9E
:105130001620FFF786FAFFF736FE1620FFF781FAF2
:10514000FFF750FE1620FFF77CFAFFF76BFE10BD4D
:105150001120FFF781FAFFF765FFDAE70848816859
:1051600001221207914381608168C20591438160E9
:10517000816852109143816070470000385200B03E
:10518000802A008070B506000C0015001AF0CAF8DD
:10519000604A31018918002D03D0002C06D1091D69
:1051A00004E0002C01D0083100E00C310C681AF04A
:1051B000BDF8200070BDFFB585B014000D001E00C5
:1051C0001AF0B0F80190534829010818010008317D
:1051D0000F1D002E049105D0002C01D0010006E027
:1051E000011D04E0002C01D0049900E03900494B76
:1051F00009681A0060329646121D0392121D9446E9
:10520000121D002E029204D0002C724605D1039A82
:1052100003E0002C624600D1029A059B126815003B
:10522000002E03D0002C06D1001D04E0002C01D07C
:10523000049800E0380003600598904202D9059D6B
:10524000012727E0914244D10598814241D9314B51
:10525000012700252800002E08D0002C02D00101D3
:10526000C9180CE00101C918091D08E0002C03D081
:105270000101C918083102E00101C91813552F7046
:1052800001000000604F00A000020000E4F2CCB773
:105290000C310968A94200D90D00401C0628E4DB46
:1052A000954220D0002F1ED0002E04D0002C704636
:1052B00005D1039803E0002C604600D10298002F2E
:1052C000056010D0002C09D0002E03D0280000F07B
:1052D000B4FA08E0280003F0A4F804E0002E02D09D
:1052E000280003F085F801981AF02AF8280009B080
:1052F000F0BD0E4810B50068002801D0FFF738FF58
:1053000010BD0122130060E7012200235DE70022A7
:1053100001235AE70022130057E7012211003BE75F
:105320000022012138E70000BCCA00B0705E00B066
:1053300010B503F069F910BDF949FF22C832888B16
:105340001042FCD17047F8B5F64C6069002802D0D5
:1053500019F0F2FFFEE719F0EFFF60610021012074
:10536000FEF7B6FF002810D0EF4EB488012080026F
:105370000440B088EC4D3527A0433F012035B842AA
:1053800004D1287D012108432875F8BD022000F0D2
:1053900058FB0028F9D03C43B480297D012001430B
:1053A0002975F8BDDF4810B5446900214161FF212E
:1053B0000170DD482030017D490849000175012058
:1053C000FEF7A8FF200019F0BBFF10BD70B5FCF27E
:1053D00076EAD44D0400287802280ED1A869401C32
:1053E000A861200600D4FEE7802C02D1FCF266EA18
:1053F00070BD2000FCF26CEA70BD6869002800D026
:10540000FEE700210120FEF763FF0028F4D0022010
:105410006C6128700120A861C34DAC8880020440F3
:10542000A8886B26A043F600B042E5D0022000F029
:1054300008FB0028E0D03443AC8070BDB94910B5FA
:105440008869401E88610FD14C694861FF2008704F
:105450000120FEF75FFF802C02D1FCF230EA10BD84
:105460002000FCF236EA10BD0028FCDAFCF226EA45
:10547000FEE770B5AB4C6069002802D019F05CFF04
:10548000FEE719F059FF6061002101200A40AC0FCE
:10549000010000005C5100A0000200009AE96B07C7
:1054A000FEF720FF00280DD0A44DAC88012080021B
:1054B0000440A888A04305D0012000F0CCFA0028C1
:1054C00000D0AC8070BD9C4810B54469002141619A
:1054D000FF2101700120FEF727FF200019F03AFF9D
:1054E00010BD70B5944E7069002802D019F02EFFDF
:1054F000FEE719F02BFF706100210120FEF7F2FE9C
:10550000002814D08D4DAC88012080020440A8886A
:10551000A04382280BD02888F080002000F09BFA5E
:10552000002804D0A888308182200443AC8070BD5C
:10553000814810B58149028944698A80C2880A80FD
:1055400000214161FF2101700120FEF7EDFE2000E6
:1055500019F000FF10BD70B5774D6869002802D0C2
:1055600019F0F4FEFEE719F0F1FE68610021012058
:10557000FEF7B8FE00281BD0704EB48801208002D0
:105580000440B088A043022812D0FDF78FFB00280A
:1055900003D0012803D13F2002E01A2000E07F2041
:1055A0003188E9803080B088288102200443B480AB
:1055B00070BD614810B56149028944698A80C2881A
:1055C0000A8000214161FF2101700120FEF7ACFE3D
:1055D000200019F0BFFE10BD70B5574C606900285F
:1055E00002D019F0B3FEFEE719F0B0FE514D606134
:1055F000AC88012080020440A888514EA043B042EC
:1056000006D0042000F027FA002801D03443AC80F3
:1056100070BD494910B5486900224A61FF220A70ED
:1056200019F098FE10BD70B5434C6069002802D097
:1056300019F08CFEFEE719F089FE6061002101205F
:10564000FEF750FE002810D03A4DAC8801208002B1
:105650000440A8883B4EA043B04206D0042000F08E
:10566000FAF9002801D03443AC8070BD324810B53F
:10567000446900214161FF2101700120FEF754FEC1
:10568000200019F067FE10BD70B505000E0002F095
:10569000C5FF2A4C2034258102F0C0FF0BC186E1F2
:1056A00001000000585300A0000200006E01D5BAAE
:1056B000A68002F0BDFF70BD70B5050002F0B8FF16
:1056C000234C2034258102F0B3FF207970BD30B522
:1056D00005000C00FFF744FE1B4B20331D81FFF734
:1056E0003FFE9C80FFF73CFE30BD30B505000C004E
:1056F000FFF736FE144B20331D81FFF731FE9C80EF
:10570000FFF72EFE30BD10B50400FFF729FE0E4B4B
:1057100020331C81FFF724FE988810BD10B50400CB
:10572000FFF71EFE084B20331C81FFF719FE187986
:1057300010BD70B504000D00FFF7BEFF2843010047
:105740002000FFF7ABFF70BD003800A8005300B089
:1057500000080090505300005013000070B5040082
:105760000D00FFF7A9FFA84301002000FFF796FFF7
:10577000E9E7C3484178002909D1C24909680122F3
:1057800009024270090F02002432515C8170807856
:105790007047BB4910B5C878002815D10861B948D1
:1057A00040680A008007800F10321023012400286F
:1057B00007D0012803D0022803D0032803D11360A7
:1057C00001E030201060CC70086910BDAE4B596804
:1057D000382291431040084358607047AA4B5968DB
:1057E0000F2292019143104008435860704710B552
:1057F0000C00FFF7F3FF2000FFF7E8FF10BDA04803
:1058000010B5446900214161FF2101700120FEF7BC
:1058100095FD200019F0A8FD10BD70B5984C606989
:10582000002802D019F09CFDFEE719F099FD606197
:1058300000210120FEF760FD002884D0934DAC8844
:10584000012080020440A888B526A0433601B0425A
:1058500006D0022000F009F9002801D03443AC80C2
:1058600071E710B502F0B3FD10BD8948C168890029
:105870008908C160C168032292071143C160810C8D
:10588000814880304161834901618349416105213B
:1058900001617047814800B50068002801D0FFF71A
:1058A000E4FF7F491620C86048607E48384F69A4ED
:1058B00001000000545500A00002000077F90BCA57
:1058C0008168C2051143816000BD7C4910B509683B
:1058D00044F3D2EA8905800A084301D019F04EEE5C
:1058E00010BD704770476C480068000701D5012063
:1058F0007047002070476748C0687047F7B586B0AA
:1059000004000D0019F036FD009000210120FEF783
:10591000FDFC002854D00321620008009040049050
:105920002000083840000E00864003902000103808
:10593000059242000B00934002922200183A520056
:1059400091408E4601210F00874001935C480B0077
:10595000A34094465A4A4030002D39D0082C04D236
:105960001568049EB543156012E0102C03D25568EB
:10597000B54355600CE0182C04D2C569019EB543AF
:10598000C56105E0202C03D2056A7646B543056261
:10599000089D002D15D0102C03D294681C439460F0
:1059A00002E0426A3A434262826802231A438260FA
:1059B000404A80325068DB05184350603F484160E0
:1059C00055E03C4A803210680821884310604EE060
:1059D000082C09D21668059DAC46049DAE43654669
:1059E000A9400E43166021E0102C0AD25568AC463F
:1059F000039DAE466546B5437646B1400D435560BE
:105A000014E0182C09D2C669029DAC46019DAE4334
:105A10006546A9400E43C66108E0202C06D2056AFF
:105A20007646B5436646B1400D43056208990029A4
:105A300017D0102C03D291689943916002E0416A1B
:105A4000B94341628168022291438160194A8032E0
:105A500050680121090688435060184900204860B9
:105A600005E01449803108680822104308600120CD
:105A7000FEF76EFC009819F081FC09B0F0BD102112
:105A80000A2803D2034940003431095A04480180EE
:105A900001207047005300B00020008000290080E2
:105AA00000080090002A0080170000FF102000006E
:105AB000705E00B0C0220080009100A81525BB4C8C
:105AC00001000000505700A0000200008311B577CC
:105AD00064C000B000020090044903480860044913
