:100000000100000000000000000200000447BA08E0
:100010001CF09FE51CF09FE51CF09FE51CF09FE5A0
:100020001CF09FE51CF09FE51CF09FE51CF09FE590
:100030001D8E0E29E061000064610000686100000F
:10004000C0610000C4610000C8610000CC61000014
:10005000D9610000000000EA4E0000EA28008FE2AB
:10006000000C90E800A08AE000B08BE001704AE24A
:100070000B005AE14700000A0F00BAE814E04FE213
:10008000010013E303F0471013FF2FE1101B0500DD
:10009000601B05000030A0E30040A0E30050A0E397
:1000A0000060A0E3102052E27800A128FCFFFF8A44
:1000B000822EB0E13000A128003081451EFF2FE1E3
:1000C00004309FE503308FE013FF2FE1750400003B
:1000D00010B5040000F096E80068005D000706D542
:1000E000DF2C04D02000203810BC08BC18472000AA
:1000F000FAE710B4042A0ED303000B439B070AD17E
:1001000008C810C9A34202D1121F042AF8D2A34280
:1001100001D0001F091F002A02D1002010BC704727
:10012000D30701D0521C05E003780C78401C491C11
:10013000A34207D103780C78401C491CA34201D18B
:10014000921EF1D1181BE9E703000B43020070B4C3
:100150009B0710D10F4CE50100E008C208C91E1B27
:100160009E432E42F9D01906090E1170521C002927
:100170000DD01B0AF7E70C78491C531C002C147097
:1001800005D00C78491C5A1C002C1C70F3D170BC93
:1001900070470000010101010000A0E13A0000EBFE
:1001A00003002DE99A0000EB0300BDE8620000FAAD
:1001B0000F002DE9990000EB0F00BDE81CC09FE582
:1001C0000FC08CE001001CE30DE08F120FE0A001D6
:1001D0001CFF2FE101C08FE21CFF2FE100F04AF865
:1001E000E500040001402DE90000A0E1810000FAD3
:1001F0000140BDE8000000EA0000E0E3060000EA7C
:100200001EFF2FE110402DE9090000EB816E28FC54
:1002100001000000FC01000000020000C092652304
:100220001040BDE8040080E21EFF2FE12D00000019
:100230000C109FE51800A0E3563412EF1EFF2FE1CB
:10024000D4FFFFFF2600020004009FE51EFF2FE100
:100250001EFF2FE1349F050010B5C046C0460800C0
:1002600007D00178002904D005A100F024E9002876
:1002700004D10448784410BC08BC18470020FAE7B1
:10028000430000001818050010B5C046C046040021
:10029000C046C0462000FFF7B0EF10BC08BC1847AE
:1002A0000E40A0E1660000EB04E0A0E101402DE972
:1002B0007B0000EB0040A0E10140BDE813402DE9C8
:1002C0000100A0E3121DA0E3081084E5000084E50E
:1002D0001340BDE80010A0E1040084E50EF0A0E1A9
:1002E00010402DE903002DE96D0000EB0040A0E176
:1002F0000300BDE8042094E50D30A0E100E082E0B9
:1003000003005EE1002081E50B00008A0E3093E0DF
:10031000011A8EE26330A0E1071081E20730C3E3E7
:100320000710C1E3030051E10310A081041084E52C
:100330001040BDE8020041E01EFF2FE10020A0E1D7
:100340000000A0E30000A0E11040BDE81EFF2FE187
:10035000F0B585B0C046C04605000C0051F058E825
:10036000002001950294C046C046039001A8FFF703
:10037000B2EE040001A80D00009303C81600C046A9
:10038000C046C046C04606F016E800210800C04638
:10039000C0460700FFF758EF0490002107600800EF
:1003A000FFF75AFF411C0498416000210800C04635
:1003B000C04601000498816000210800C046C04684
:1003C00001000498C16000210800C046C046010039
:1003D00004980161C046C046C046C046C046C046FB
:1003E000C046C046C046C046C046C046C046C046DD
:1003F000C046C046C046C046009B05B02000049CD5
:1004000029003200A646F0BC01B0704710B5C046C6
:10041000C0460020C046C046C046C04629008C5099
:1004200001000000F803000000020000347ADB9EA7
:10043000C046C04610BC08BC184700000000E0E3FE
:100440000210E0E31EFF2FE110402DE90000A0E1C3
:100450001040BDE81EFF2FE10E50A0E1430000EB6D
:1004600005E0A0E10050A0E10700C0E30D10A0E10D
:100470000A30A0E100D0A0E160D08DE220402DE95B
:10048000206E00FA2040BDE80060A0E30070A0E309
:100490000080A0E300B0A0E30710C1E305C0A0E125
:1004A000C009ACE8C009ACE8C009ACE8C009ACE8D8
:1004B00001D0A0E11EFF2FE104009FE51EFF2FE108
:1004C0001EFF2FE1249F0500030010E3030011032A
:1004D0001700001A00402DE984E09FE5042090E415
:1004E000043091E40EC042E002C0CCE18EC31CE0B7
:1004F00003005201F8FFFF0A0040BDE8030CA0E131
:10050000020C50E0FF0E1C030700001A0308A0E1D4
:10051000020850E0FF0C1C030300001A0304A0E1D2
:10052000020450E0FF081C03020053006000A01109
:100530001EFF2FE10120D0E40130D1E4010052E39D
:10054000030052210400001A0120D0E40130D1E45C
:10055000010052E303005221F5FFFF0A030042E0CD
:100560001EFF2FE10101010110B410BC7047000013
:1005700000009FE51EFF2FE1149F050004009FE58A
:100580001EFF2FE11EFF2FE1189F050070B505002B
:100590000C003CF0D7FC002814D0686900F072FF12
:1005A00000280FD060792179000600140843203418
:1005B0000019C1798279080226491043884201D185
:1005C000012070BD002070BDF8B504000189081835
:1005D00042790379120612141A4315180E31501875
:1005E0000606360E200000F041FF002807D1697D85
:1005F0002A7D0802083610433606360E03E0687B73
:10060000297B0002084300F0F6FE0027FF43002884
:100610001DD0606905F0DCEE200000F02CFF002802
:1006200008D13CF08FFC002804D16069D33B599E6F
:1006300001000000F4050000000200002D8205EE1C
:1006400000F02AFF00280CD02A00A91D20002681D6
:1006500016F034FD002804D0200000F097F80020A8
:10066000F8BD3800F8BD0000888E00002A4810B59B
:1006700004684068042B01D14C6102E0012B02D1D7
:100680004C6105F0B4EE002010BDF8B50D00170068
:10069000214E1C00052B01D0162C14D1288940199D
:1006A000C17882780802104304D1280000F06EF867
:1006B0000220F8BD2800FFF791FF002801D101209A
:1006C000F8BD052C01D0172C04D13A002900306860
:1006D00005230EE0032C06D1280000F0CEFE3A00E0
:1006E0002900032305E0022C05D1B0683A00290057
:1006F000022305F07CEE0020F8BD70B5040000F088
:100700000DF8050001202073200005F074EE28008C
:1007100000F009F870BD0000F01B0500802010B546
:1007200005F06CEE10BD10B505F068EE10BD10B50B
:10073000040005F068EE206010BD124870B5046832
:10074000114EA10706D500210161B26D012090472D
:10075000022084432006000F03D0E02084431020B1
:10076000044300250AE0E00706D0A8003258002A1A
:1007700002D021002800904764086D1C002CF2D1A3
:10078000002070BD00280080D4690004002810B546
:1007900007D00169002905D14189C088032205F0ED
:1007A00036EE10BD05F026EE10BD10B50189C12250
:1007B0000818418D0024D200914208D10100062280
:1007C00012310C30FFF7B3FC002800D101242000C7
:1007D00010BDF3B50400002085B00600049003901E
:1007E00002900190208901270519A8780007800F41
:1007F000022800D000276069407902280BD1200030
:10080000FFF7D3FF012806D1FB492020A6802073E3
:100810000868401C0860A08800287ED002F0DFFF36
:1008200000282BD03CF090FE002827D13CF0D8FFC8
:10083000002823D1002F41D020890519D4D103AC41
:1008400001000000F007000000020000D96ABB535D
:10085000E978C80701D1A81D01E028001230EC4A50
:10086000537C002B0DD01289092A0AD10078C007C9
:1008700007D0880602D546F001FD0BE00120049068
:1008800008E002F0B7F9012804D046F007FD01E0C6
:10089000002F1DD0A878010902D00009082817D11F
:1008A000228920002A3010180288DA4B61699A42A6
:1008B0000ED1C07803280BD1002909D00D2080016A
:1008C0000818406A002803D080300188491C018044
:1008D00000F0C3FD002868D0280005F0A6ED002830
:1008E0005BD1002F13D001222000694640F0A6F80A
:1008F00000280CD0684640F013F800284DD007209F
:10090000019000214F203CF005F8039007E0069984
:10091000200002AA01AB3CF01FFA00283DD000F0F5
:1009200091FD002848D0BC4D01242C6100E032E04C
:1009300046F014FD02F05AFF00280BD149F012F9DD
:10094000002807D1B5480660B54806800320AC7082
:1009500049F0B4F86B469A880399FF203CF08AFB73
:10096000B04C2088002804D0AF4904200856401C11
:1009700009D0022401200DF09CFC641E07D0287AC7
:100980000028F7D103E03CF07DF926802E721D206F
:1009900049F094F8EE6007B0F0BD20206B4620735C
:1009A000187A002808D1A68006E0002F04D0022281
:1009B0002000694640F042F804980028EBD01B2044
:1009C00049F07CF8E7E77CB50C00150049792379FC
:1009D0000906091419430B198188426924336029D7
:1009E00014D9603920328180517EC906CA0F009225
:1009F0002A0001A905F01CEDA071000AE071019820
:100A0000001B2071000A607101207CBD00207CBDAC
:100A10001A00D8E78288602A10D9603A8280487923
:100A20000A7900060014104324300871000A487146
:100A3000E62088710020C8710120704700207047AF
:100A40001FB501AA0400009202AA03ABFAB28637CE
:100A500001000000EC090000000200001E73B90E46
:100A60003FF0B0F90198020402981214010409142D
:100A700020003EF09DFF20000399C0304183019982
:100A800081830299C183200002F0B6FA1FBDFFB531
:100A900081B000201C0001260A9D0B9F2860386051
:100AA0008A7CD207002A07D0E1072E6002D0A10776
:100AB0001EE03E6005B0F0BD0800123003F03AFCC5
:100AC00000281DD0417902291AD1417AC90617D5CB
:100AD0000199C279C97991420DD103990A290FD39D
:100AE000610702D4E107E4D10AE0E107E2D061073F
:100AF0000029DEDADEE7210702D503990A29D9D2D7
:100B00002E60D7E7F3B595B005000A200A900020C3
:100B100009900120089000200790059004901698F5
:100B2000002802D1002017B0F0BD28896E69411954
:100B300020220CA805F08AEC0CA808AB0B90D87CFE
:100B4000C0070B9801D1801D00E01230169F06905F
:100B50002037387DC006800F012807D91698183035
:100B600005F078EC000701D5012400E0002408AB73
:100B7000997C00200A07920F022A03D1090909076C
:100B800000D50120204325D0FFF7DCFD0190387E01
:100B90002B4A41070B98490F0C3005F060EC0A28EE
:100BA0000A9014D2002C06D00A982549000140185A
:100BB000C168491CC160287B202808D10A982149B6
:100BC0000001411810AB1889000946F06DF9019831
:100BD000FFF7BDFD288920216C182038298120715C
:100BE000000A10AB6071188900092072000A607257
:100BF000B0792070F07960703079062824D108AB84
:100C0000D87C800720D4A07C01210843A0740F2049
:100C1000800130180069816C491C816418E0000073
:100C2000300D000438660500888E0000C8590500A4
:100C3000E02105007C2105006C210500101C050049
:100C4000806F0004B8710004A07C40084000A074CC
:100C5000A888002802D1287B20283DD1C6A2252DB6
:100C600001000000E80B000000020000EA9B07B34F
:100C700008ABD87C800601D50120049008AB987C95
:100C80000107890F022931D1397EC90620D5000913
:100C900000071DD5FF480078002819D03CF04EFE13
:100CA000002815D0FC480068002811D0FB480068D7
:100CB00000280DD046F074FA002809D043F01EFF3A
:100CC000012805D0F6480068002801D101200590D0
:100CD00002F0ABFD002809D00B9805F0BAEB002814
:100CE00004D1022003F002FB46F092FB169930007B
:100CF000FFF7BAFE3100C0311E201491085E02F0E9
:100D0000D8F8207314991A20085E02F0C5F808ABD1
:100D10006073987C0009000703D5387E4007400FB8
:100D200000E0FF20A072A07A0390A888002804D0D9
:100D30000B9805F08EEB002852D00020A070E070D8
:100D4000A888002802D1287B202845D103983CF0B0
:100D500049FD00280AD00498002804D00021300062
:100D600018F036F802E0CF490020087006980078A5
:100D7000C00714D12AF01CFD0028387E07D0C00619
:100D8000C30F059A049930002AF0B8FD06E0C006AA
:100D9000C30F059A0499300029F024FB059008AB95
:100DA000987C04990209300045F086FF05980128D7
:100DB00012D1BD48008800280BD0BC480022006832
:100DC000462105F05AEB002803D0B94901200870EC
:100DD00002E0162048F086FE2800FFF7F5FCABE69F
:100DE000387EC00905D0169A21002800FFF726FE9C
:100DF00005E00B9B169A21002800FFF71DFE002836
:100E00007ED0A888A070000A22000B32E0701698ED
:100E1000D11C05F036EB7079022810D1300003F0B8
:100E200017FA08A900911121490109AA0790401851
:100E3000019203780A9A30000CA9FFF732FE099854
:100E400000284CD09B48002201889B48032302F0D5
:100E5000A0FD0028009042D00098A98881800098C9
:100E6000AC21018100980821017300983B66784A03
:100E700001000000E40D000000020000F363D9C38C
:100E80001221AC30019005F00AEB01981421017198
:100E900000214171E079A279010201981143817129
:100EA000090AC1710798406A012805D1707A0007C4
:100EB00002D50198A17A01736079217900060014A6
:100EC000084301190198AA88143005F0D4EA009962
:100ED000F06848610199F07948700199B07908701B
:100EE0000199A8888870000AC8700098042100F051
:100EF000E1FA287B202853D0FFF738FC0290754B8D
:100F000073481C680022290000681623A0470400CB
:100F1000029800E044E0FFF72EFC022C33D0012CB5
:100F200025D002F08CFC002802D0052048F0E4FD1A
:100F30000A980A280CD20A9867490001401808301C
:100F400003C8002358405940084301D03BF05AFDE4
:100F5000FFF70CFC02905F4B5D481C6800222900E3
:100F600000681723A0470298FFF705FC0BE00A98DA
:100F70000A2808D20A9858490001411810AB18896C
:100F8000000945F0A5FF03983CF036FC002810D07E
:100F90000498012808D10021300017F023FF08E051
:100FA0000020A070E07021E70498002801D1424998
:100FB000087006980078C00714D12AF003FC0028B6
:100FC000387E07D0C006C30F059A049930002AF076
:100FD0009FFC06E0C006C30F059A0499300029F073
:100FE0000BFA059008AB987C04990209300045F093
:100FF0006DFE0598012812D13048008800280BD0DA
:101000002F4800220068462105F040EA002803D05E
:101010002C490120087002E0162048F06DFD0120E7
:1010200095E5F0B500260C8B178825090C7E240762
:10103000240FAF420FD1C9780907C90F214303D04C
:101040001988491CA14202D105998C4201D386809E
:10105000F0BD1C80F0BD002CF9D11580F9E7F0B58A
:10106000002097B004000490019002F0F5FB0028E6
:1010700006D000F005FA0028FAD01849B65192FEC1
:1010800001000000E00F000000020000078B677EF7
:101090000120C860C9E10020039028F0A9FA10AB34
:1010A000197B0020C906890F012902D90C98000775
:1010B000C00F02900598018908181BE0A6200500C2
:1010C000B8200500B420050008210500A520050072
:1010D000B46A0500F01B0500A12005008A21050067
:1010E000380E0004F41B05007C1E0500B8710004D6
:1010F000C859050006A901F04EFE1698002805D132
:10110000059800218180FFF773FB8EE116980C3063
:1011100003F02EF9040005D116990120123103F0D5
:1011200049F904001699200002F01CF9002801D0AA
:101130000024E5E7002CE3D005994C616079022892
:101140000CD1200003F0BDF80C300190607A169AA3
:10115000C0060599C00F05F0B0E917E02079012815
:1011600001D006280CD12300169AA233012005F0E5
:10117000A8E92079012809D1200003F0D7F805E07B
:101180002300169AA233012005F09EE905980189F3
:101190000E18F178C90701D1B51D01E035001235EF
:1011A0000D2189016718796A002902D00A6B521C47
:1011B0000A632978C90705D0796A002902D04A6BE9
:1011C000521C4A630299002966D1818800297ED089
:1011D000B1780A07920F022A32D109090C292FD0BF
:1011E00004292DD0082904D110AB197C4907490FD7
:1011F00000E00021E21DFF32FA32937D8B4203D0E2
:101200000023DB43538291751022009285229200C5
:10121000A318921E1699A218FFF70DFF0598808853
:1012200000280DD1200006A9FFF732FC0598FFF732
:10123000DFFA786A002802D0016A491C0162F4E0F2
:10124000A07AC0071ED0F078C10712D1800710D550
:101250003B2000012118300006221230FEF799FFD2
:10126000002806D1059988802878C207D20F01216D
:1012700004E02878C0070FD100221100200008F0F8
:101280001BFA09E02878C0070AD03B20C394876E78
:1012900001000000DC110000000200007990C0CEC7
:1012A000000122180598310005F01CE90598808896
:1012B000002896D06079022829D1200006A902F0E2
:1012C0007FFA16990198C978007EC906C90F88422D
:1012D00002D020001CF0E2F9200002F013F92000F7
:1012E00000E090E002F05EF9012803D11699200099
:1012F0004CF088FB01984030007E032803D005990C
:10130000002088807FE00598808800287BD020001E
:101310002CF070FF2878C0070AD127F0B5FF00280D
:1013200006D1059808AB8188DA7C06A829F0C2F8B6
:10133000169805F0DCE800281ED005988188403911
:1013400081801699097E090707D11699C97849073E
:1013500003D416990988818055E04D4A009201898D
:101360004C4A4D4B091805F0C6E8002867D0059097
:1013700001890818169046E016988079C00701D0B8
:10138000F86800E03869002801D1049801E00830CD
:101390000490002848D00498C1790807000F02285B
:1013A00001D003280FD185229200125B16990120EB
:1013B000002A00D0002005F0A2E8049A059806A9AA
:1013C00000F08CF917E0012801D008072BD101208B
:1013D00000F002F90028FAD1049A06A905A809F03C
:1013E00080F9002804D10598002828D000218180A8
:1013F0000398002807D00498C0790007000F02283E
:1014000009D0032807D0059806A9FFF71EFA05980A
:1014100006A9FFF79FFB2EF017F900280FD0012037
:1014200018F0B0FB14E0FEE7786A8168491C81601F
:101430001698BF21C07808401699C8705FE701214F
:10144000002006AA01F0D3FC0028059000D02CE66D
:1014500012498020C043086105F054E8002802D0FA
:10146000042018F08FFB0E490020C860002C086192
:1014700006D00F2080012018806803213DF028FF4E
:10148000E2E5084A01000120914200D000207047A7
:1014900064F301C06CF301C0300304C02E97500107
:1014A00001000000D8130000000200008D787E7358
:1014B00000A50080C8590500888E00000A49002058
:1014C0004968002904D009490978002900D0012081
:1014D0007047054900204968002904D0034949782C
:1014E000002900D001207047081C0500C8590500DC
:1014F00002220B0010B50100027309481C2200688B
:1015000004F0BAEF10BD4069C068704710B540697B
:1015100002F01BFF10BD10B540690BF09CFB10BD25
:10152000F41B05000F21890140184068002803D0F2
:101530002030407DC007C00F704703000A0000B58F
:10154000FFF7F0FFFD21002814D00F2080011818AC
:101550004368C0335A6140680300C033002A08D092
:101560002030407DC00701D0186909E0907A08401A
:10157000907200BD002AFCD0187A4307F6D5C00748
:101580000028F3D100BD00000348006880300068E7
:10159000C007C00F70470000881C050038B5140054
:1015A000049A009222000CF00AFF38BD10B50CF02E
:1015B000A9FF10BD10B50CF0EFFE10BD10B50CF07A
:1015C000B5FF112800D1122010BD10B50CF0C6FFD8
:1015D00010BD0000F94B01201A680021402A00D0FC
:1015E000511C5A68914200D000207047F449800095
:1015F0000858704770B58400F14D2859002803D170
:1016000033F0F0FB0120285170BD30B50025016892
:10161000FF242A00641CA14200D04A1C41688A426F
:1016200001D1002208E024224A432B0012180C3278
:10163000A14200D04B1C4360100030BD30B50024E7
:101640000A682300402A01D03F2A04D02300402A00
:1016500000D0531C5B1C4D68AB4201D1002030BD53
:101660002300402A00D0531C9A000B605118886058
:10167000012030BD016800231A00402900D04A1C17
:1016800041688A4201D1002206E08A00121892685D
:10169000402900D04B1C43601000704770B5050016
:1016A000FFF782F80400C64800210068DBD126C598
:1016B00001000000D4150000000200009480A00387
:1016C000002814D1C348C24B203805611A68402A4B
:1016D00000D0511C5868814205D08000C018806835
:1016E000002800D0FEE7280009F0F0F806E0B8492D
:1016F0002800FFF7ADFF002800D1FEE72000FFF72C
:1017000062F870BDF7B50D001600FFF757F804003A
:10171000B048406800281AD1AF4A00211068C31FA2
:10172000F93B00D0411C5068814205D02423584326
:1017300080180C3000D0FEE732002900684609F01E
:10174000B3F800280CD1009800F090F908E0A24B03
:1017500000983200290000F022F9002800D1FEE7AD
:101760002000FFF730F8FEBD10B5CC790300002053
:101770002409022C02D14031087C10BD002AFCD083
:1017800059790229F9D1180002F094FD1B21490171
:101790004018C08B0006000E10BDF0B503220021DA
:1017A0008C4E8C4D203E33681202012B85B05DD1EA
:1017B00000285BD189480368934303603160296046
:1017C0003069018947690C18B168002F4A88019275
:1017D00003D10021FEF7E1FFD3E06B465A795207AF
:1017E0001ED47979022902D03979062905D100223F
:1017F000390001F015FF0028EED16B46187900077B
:10180000800F022808D131692200380000F09FF9CA
:101810000028E1D13069DCE730692DF0AFFDB0E0A0
:10182000088820314018E16EC01C8608C879B600CF
:101830000007000F022810D1B079C207D20F38007C
:10184000FFF792FF3188103931800090E36E2268F3
:101850000021300008F0A2FF97E003287ED10B00A2
:1018600022680021300008F0EDFF8EE07368012B44
:10187000B2D10128B0D15A4B18681C6894431C603F
:101880007160696057490C6808310291B1696769F4
:10189000491CB161010702D5F169491CF161002FB2
:1018A00019D0010750481AD57169491C716104F0BB
:1018B0000EEE80780007800F02280CD12CDF4E4AF4
:1018C00001000000D01700000002000060681EBE8A
:1018D0000D2080013918486A002806D04268521C41
:1018E0004260486A0169491C0161200000F0C8F8A3
:1018F00051E0039004F0F4ED8079C00709D1F1685C
:101900008879800705D57879022802D03800FFF75A
:1019100028FEF068C0790007000F022805D103985F
:1019200004F0DEED0188103906E0032805D10398A4
:1019300004F0D6ED018822390180A0884038A080CB
:10194000039804F0CEED80780007800F02281FD1A5
:101950002B4A009220892B4A01192B4B200004F0BE
:10196000E8ED002817D004000D208001381800E0B1
:1019700018E0406A002802D0416E491C4166029975
:101980002000FEF780FF02992000FFF701F902E036
:1019900020003EF077FC1549124800F07BF82868DB
:1019A000002804D16868002801D133F025FA05B079
:1019B000F0BDF8B51C000E001D6807000021FF23D4
:1019C00008005B1C9D42944601D0FF2D04D0080006
:1019D0009D4200D0681C401C6268904216D10020D5
:1019E000F8BD0000D42E0500580D0004E02F0500BE
:1019F00000A0009000A80090B86C0004006D0004E6
:101A000064F301C06CF301C0300304C09D4200D0F8
:101A1000691C2420484321600019C76021682423E1
:101A20005943604609190861206818225843311D3E
:101A30000019143004F050ED206824235843011994
:101A400030002030037E02000B77407E487720680C
:101A500024235843127D00192030C178D206C723B1
:101A6000920F1940D2001143C1703000403004F091
:101A700038ED2168242359430919C8620120AFE7D2
:101A800010B50169002902D1FEF7DAFE10BD3EF063
:101A9000EDFB10BDF3B581B0254835E00298FFF7A6
:101AA000C8FD040034D06768002F2AD002982500B2
:101AB000816808350E000836009118222900301D73
:101AC00004F00AED3100287A20310876EC72BCE986
:101AD00001000000CC19000000020000A7711CE307
:101AE000687A4876087DE7221040EA7B1823920640
:101AF000920E1A4010430875E81804F0FCEC31000F
:101B0000403104F02CED00993A000831200008F033
:101B1000DFFE002806D12068FFF7BCFF09484068B7
:101B20000028C5D007480068002809D10198FFF7B0
:101B3000BFFD002804D003492039086108F0DAFE0F
:101B4000FEBD0000580D000410B50C008968CA00E5
:101B500010D5012212079143A16021780122490783
:101B6000490F25F056FD0101E06D028B1207120F9F
:101B70000A43028310BD70B50D0004001100FFF789
:101B8000E3FF2079012804D10121280049F064FEF7
:101B900070BD28F01BF8002822D02889441914347D
:101BA000280003F069FDE169280042F0A1FB00284C
:101BB00011D027F091FB002802D027F0E7F908E0C8
:101BC0003BF002FF002802D0002028F099FD29F008
:101BD00035FA012070BD280003F067FD002070BDBC
:101BE000280003F094FE70BD70B50400008965699B
:101BF0000619F06E002815D0C1790907090F0229CE
:101C000007D1827AD20704D0F06D018810390180A3
:101C100004E0032906D1807AC00703D02000FFF733
:101C20005BFD70BD002D09D06879022806D1002225
:101C30002900200001F008FD0128F2D03200210027
:101C40002800FFF798FF0028EBD120004FF090F913
:101C500000212000FEF7B5FD70BDFFB510008BB070
:101C60000124031F159D149A022B00D3FEE7001FC9
:101C7000060628006030360E0A90F00080194001F8
:101C8000FF4B0490C0181023B3400990FD48059302
:101C900080691700034008930423B3409C46034027
:101CA0009E46059B1C3F03430793059B9843069064
:101CB0000998FF301D300129039068D10898F14B35
:101CC0000028029635D170460028664656D1EC4869
:101CD0000499405C00281FD128780022E7DC3B8073
:101CE00001000000C81B0000000200005399A25E22
:101CF00041070B98490F25F096FC6B4619880001A7
:101D00000907090F014300911878000900011870B4
:101D100000990E9842F05CFE0A98017A0E9804F041
:101D20002CECDD4881690E43866131E00798DA4981
:101D300006438E61029952E009990E984870039803
:101D4000FEF763FD51E071460029604606D0029916
:101D500052E038000021FEF73EFD46E00699CD4FE7
:101D6000084398610298C6003618760108E0019889
:101D7000A9788170B95D1C38491CB955FFF73EFF41
:101D8000029801A92DF02CFC0028F0D0002C59D08D
:101D90000298C04AC30018184001115C491C115434
:101DA00050E002294ED10898BB4900281FD1704647
:101DB000002865463FD0B7490498085C002809D13F
:101DC0000A98017A0E9804F0DCEBB3498869A843BD
:101DD000886130E00798B049A843886131000B98CA
:101DE0002DF042FB0028B4D1A6E700242AE0734678
:101DF000002B604606D131000B982DF035FB0128F1
:101E0000F3D1A6E7069AF7008243BF197F018A61E2
:101E100009E00198A97881709E491C38CA5D521C5E
:101E2000CA55FFF7EBFE300001A92DF0D9FB0028C1
:101E3000EFD0002C06D0F0009649801940010A5CD2
:101E4000521C0A5420000FB0F0BDFFB583B00C0047
:101E5000FF2189050500C813019038200091405DDD
:101E60007F270026FF00FE2806D0218D4006B943BB
:101E7000800D014321850CE0287901280BD1280031
:101E800025F0CAFA407D002805D1208DB8430830DE
:101E9000208501260EE023200001281804F074EBB1
:101EA000218D4006800DB9430143218506980078B5
:101EB000C00728D0E069012109030843E0610699C1
:101EC0000978C9071FD0FF21491C084320218843F6
:101ED000E061687902280AD10598002803D00598A6
:101EE00004F056EB08E0280003F0A2FCD717B6A2D6
:101EF00001000000C41D0000000200004A617C2EA9
:101F000004E0002E2BD1280041F04BFE218D40062D
:101F1000800DB9430143218521E0687902281ED153
:101F2000208D00218005420E012004F040EB009B33
:101F3000019A1840002311405940584008430ED0E0
:101F4000280002F004FA8030007BC10707D0800728
:101F500005D5E0692021084380218843E061208D78
:101F60008105490E032906D851490978890602D509
:101F7000B8432830208507B0F0BDF3B50024050034
:101F800081B04C4E30783100497800283DD102F0C4
:101F9000EEF904000079012806D1029802F02EFA29
:101FA00000285AD0040058E0002801D0062854D157
:101FB00028894719380020304CF0B8FA05000298FB
:101FC00002F01CFA002818D0417ACA0615D5727B97
:101FD000D2060BD4042D10D0002D0ED0012D0CD024
:101FE000022D0AD00A2D08D0FF2D06D00400032DA3
:101FF00033D1EF20014061722FE0207900282CD0EE
:102000007978002025F02CF9CCE7012801D00228AE
:1020100023D102F0ACF904001FD0607902281CD152
:1020200002980078C0070BD0200002F06BF900285E
:1020300013D0092189014018006A00280DD10BE056
:10204000029802F0DBF9040002F081F9002C04D0C0
:1020500060300079032800D000242000FEBDF8B5D0
:1020600005002F0000895419401900901C202E18DB
:102070007C37002928813CD0607821780002084311
:102080001E2801D91E3800E000202070000A607070
:102090007021300004F08EEA0098407CF872686984
:1020A000007903280CD007E0046D0004F81D05003A
:1020B0008C8A0004446F00043FF040FF012801D1E6
:1020C000052000E00020B070A0780007800F0228F3
:1020D00020D102F07AF900281CD165217972FA49E1
:1020E000C868CA0D1043C860F8480178491C0170DF
:1020F00010E0607E217E000208430007C8712DCAEF
:1021000001000000C01F000000020000BE89C29351
:10211000000F2076000A6076E078FB210840E0702E
:10212000207E0009000120763078072108433070B6
:102130000920F465387228002CF0E0F9002802D15B
:1021400028002DF04DF9F8BD70B5E64804F040EADE
:1021500004001FD0208905196978287802F011F948
:10216000002810D0606168792A7921890002104323
:1021700008180204120C01212000FFF77AFF012049
:1021800017F046FD02E0200004F0B6E9D6490868E1
:10219000401C086070BDFEB5D14881698906890F71
:1021A0006CD0D24F0024CE4A1020A0409169030089
:1021B0000B4260D0E5002D196D017B5D002B5AD1DB
:1021C00081430420A0400842916136D0C849C948E3
:1021D0001AF007F8C84A0020EE1914214143535C55
:1021E000002B20D089188978737899421BD1142349
:1021F00058438118081D029102F00AF90299002241
:10220000497825F024FA6B46198800010907090F5F
:102210000143009118780009000118707078009946
:1022200042F0EAFB02E0401C0228D6D3201D010642
:102230007078090E04F0B4E90AE0B049AD4819F02D
:10224000D0FF201D0106E8194078090E04F0ACE922
:10225000A84E0AE0AA49300019F0C3FF01981C38C3
:10226000FFF7E0FC785D401C7855200001A92DF0B7
:10227000CBF90028EED0641C022C94D3FEBDF0B53F
:102280000020C3B0964C12900F909E4860612000D1
:102290000C22012114300CF01EF82DF0D3F99A48CD
:1022A00042900022D2438E4D00929849E86808225D
:1022B0003DABFFF7AFF93D980028F2D0400607D5B7
:1022C000002016F07BFA92484168420611434160B3
:1022D0003D98C0060AD54CF045FB8E4807220068A1
:1022E0001021FFF7A3F9372047F060FC3D988005E7
:1022F00015D5002025F0E2F804001D2676010CE03B
:10230000A019017EC80704D0480702D59831AB0C4C
:1023100001000000BC21000000020000B656334E50
:1023200020004CF055FD200025F0D2F80400002CD0
:10233000F0D13D98000601D52BF0BAF83D98C005C4
:1023400001D52BF031F93D98810602D5774A00215D
:102350001170400501D500F0EFFC3D98400701D514
:10236000FEF7E1FE3D98800711D504F040E9012811
:10237000A1D004E01198AC220021FFF784FE286967
:102380000422002311A9FFF757F90F28F2D13D9835
:102390000921084272D066480168584800688142A5
:1023A00001D0FFF7DBFE02F0AEF8002883D0E86929
:1023B000002880D12CF05AFF0028FAD147F0BCFB4E
:1023C000002884D004F012E90128D1D0FFF7EDFEF7
:1023D00012980025002850D00020099008900690FF
:1023E0005348016845480068814201D0FFF7B6FEB6
:1023F000129812220189091848483E91083804F0C1
:102400009EE846493E9808398A8810180C904888FA
:102410007D229201904200D3FEE740480838007BBD
:10242000082803D33D490020083908733B480C991C
:1024300008380EAA00F09CFC0128079013D108ABC5
:10244000187E00F090FC089080300569280001F0AB
:102450006DFF089C08982600143601007031012099
:10246000A1611090F9E00C991298FFF79AFD050010
:1024700005D112980021FEF7CCF913E332E32800CE
:1024800001F054FF070068790C990124032802D158
:102490002900A231002406220AA804F050E81F48AF
:1024A0001A4B0838007B0EAA0AA904F0A4E80028F9
:1024B000059043D01F48006800283FD01E480068A0
:1024C000007900283AD1154908AB187E2A0008394E
:1024D000230000F07DFC04007021089004F07EE8E9
:1024E000089826001436010070310120A1616DE0CA
:1024F00000A80080F81D050094720004801E0500ED
:10250000046D000411111111BBBBBBBB586F00045B
:102510002222222233333333CC5F0500858479694C
:1025200001000000B82300000002000042BE8DF34D
:102530004C6F0004FF0F000040A5008084200500C0
:1025400069210500741E0500740D00042C1C050093
:10255000012014AC09907021200004F04AE8260004
:1025600035A814361A90FF48407BC00728D02CF0BD
:10257000E7FE3BF07FF800281AD0FB4800780028DF
:1025800016D127F0B3FB002810D028004EF0DEF85B
:10259000012100220091F3490192497B02000907C1
:1025A000CB0F0121280016F077FA01E029F090FB0B
:1025B0003BF0ACF9002800D165E747F06BFC62E71F
:1025C0002879012804D06979022901D0062804D18C
:1025D0000C99280001F0BAFF02E0280001F0C4FFC6
:1025E0001090FA7F310028000AABFFF756FCDF4954
:1025F00001200979C90609D46979022905D1132175
:1026000049017918097A090700D400200D9028792A
:10261000002816D1280020304190807E000710D479
:10262000308D8005400E03F0F4EF0700122003F018
:10263000F0EF874205D84198807E8007C20F0121C4
:1026400004E03A20405D0D998007C20F300003F08E
:10265000E4EF0598002815D0308D8005400E03F07A
:102660003FFA002805D0C249C84319F0CEFD012722
:102670000FE0BF48BF49C04319F0C7FD0227012042
:10268000099006E0BA48BC49C04319F0BEFD0027D6
:10269000F5E7BA490120087000F03FFE079A009262
:1026A000109A3E983300290000F076FA129A1C2105
:1026B0001181129900061C313F910021A180718087
:1026C0001299000E4D61A74930944A8830AB121A16
:1026D0001A813E9A89881018081831900020D87203
:1026E0006879032801D001280CD1280001F03CFFB3
:1026F000002807D09B48017B280001F041FF994941
:10270000087315E02879012804D1280001F02CFF76
:10271000002805D16879022802D02879062809D135
:102720000C99280001F012FF002803D05AC28BCF69
:1027300001000000B4250000000200005B46538346
:102740008D48007B30ABD872002F07D03098012124
:10275000806809070843309988600FE010980028C6
:102760000CD030ABD97A0122280024F08EFF30AB98
:10277000198A00010907090F014319820798089A6D
:1027800000280DD07C4806A9C0886B460006000EC4
:1027900007C313AA0F9B129930A802F032FB10E076
:1027A00006A802901099744804920391C08813AA55
:1027B0000106090E00910F9B129930A8019702F0B3
:1027C0005DF8718C0028E18000D166E6139900293C
:1027D00010D0A1680122D2061143002DA16009D0BA
:1027E0000D2189016918496A002903D060310A8BDB
:1027F000521C0A83E065429803F0B8EE0009429942
:10280000000103F0E8EE318D10228905490E1143D5
:102810000843429903F0DEEEE0605748407B000732
:1028200006D52CF097FDA0680121C907084302E0F6
:10283000A06840004008A0602879062803D1E06D18
:1028400020304BF09BFE6879032801D0012808D185
:102850004948817B027B4B002100280001F0C9FE22
:1028600032E01098002803D04348007B03F0E2EEEA
:1028700003F0E4EE0490079800280CD1002F07D055
:10288000210008AB434A187E683103F0DCEE02E019
:102890000499682001554048416A04984000A430DA
:1028A000085A3E49884203D03348807B002802D131
:1028B000A08800280BD030480499807B4300682012
:1028C000025D200001F076FE002800D1E5E52879C0
:1028D000002802D0687903281CD101F095F800285F
:1028E00018D02548C088DF2802D13721692001553A
:1028F0002B48A0800898002805D008AB187E00F06F
:1029000015FA00F02DFA012F04D0E0680E2103F033
:102910009EEEE060A088002803D03100200003F084
:10292000C6F83E98F0633F983064F089608207985B
:10293000012839D11048C088E6282078A5674D4580
:1029400001000000B027000000020000AFAEED3E25
:1029500002D18021084301E04006400E08AB207000
:102960001149187E03F080EE6820005D124A001FB6
:10297000C30018184001115C491C11542088308490
:102980003F987022210003F074EEA6E0446F00042B
:10299000A42005008C8A00044444444455555555F0
:1029A00066666666600D0004586F00046C6B000478
:1029B000FFFF0000FF7F0000046D00041398002853
:1029C0001BD0012F19D0280041F01DF94006810DC0
:1029D000308D7F22D2009043084330852979032926
:1029E00002D1904328303085F069A021884301212D
:1029F00009030843F06101200990B08920820698FC
:102A0000002800D0E066308D8005400EA070E06D9B
:102A100080780009082810D1429803F0B2ED7F4970
:102A20000122C988E62900D000220092020030ABC2
:102A3000DB7A2100300003F020EE012F0FD178491E
:102A4000784819F0F6FB08AB7749187E03F00CEED6
:102A5000A06879070843A0600A20307009E0704937
:102A60007048C94319F0E5FB3200210028000BF043
:102A700011F932002100280002F04EFF6B4969482D
:102A800019F0D7FB6748A16819F0D3FB200060302C
:102A90004090017A634819F0CCFB208830843F983D
:102AA0007022210003F0E4ED002F0CD03F9900913B
:102AB00040980194027A08AB1B7E39002800FFF78A
:102AC00012F900280CD00998002806D108988442F1
:102AD00003D108980121803001761298FFF7CAF8D7
:102AE0003D980821084202D006F0E4FD0BE0504872
:102AF00003F096ED002804D14E4803F092ED002833
:102B000001D0042101730028129000D082E4002D2E
:102B100006D00F2080012818806803213CF046FC75
:102B2000454900200870FFF7E4FBF8B504000D00EC
:102B30001600001F01283ED8404A201F012192693B
:102B40008140114237D0C3003D4F1B18ABCA12C49D
:102B500001000000AC2900000002000068B7EF632C
:102B60005B01F95C002904D0491E0906090EF954DD
:102B700006D110218140114202D0012017F07AF8CD
:102B8000002D22D0286900281FD02C4A00201421B3
:102B90004143535C002B19D08918C978A14215D143
:102BA0002C682D49E46D8200248B51182409641C83
:102BB000CA1C8B1C0C80002111701978002904D1CB
:102BC0000106090E30002BF0E1FAF8BD401C022886
:102BD000DDDBF8BDF8B504000800154D0699AF8897
:102BE00000263C195F68012916D1EB8802002100FC
:102BF000A232E62B09D00379012B06D040790228B6
:102C000001D1891D02E0062B00D1110038001230DD
:102C1000062203F0BCEC05E00092054923003A00CF
:102C200000F01CF8E888E62800D00C263000F8BD3B
:102C3000446F000477777777BBBBBBBB586F00044A
:102C4000999999996C72000458720004600D0004FF
:102C5000F81D0500046D00046C0D0004FFB583B081
:102C6000040016000F00911C0C9800220291130022
:102C700069460CC10122F979BB7909021943E92996
:102C800000D00022797BC907C90F03F004ED0500CD
:102C9000F879B97900020843EA2803D1797B082240
:102CA000114379733B21090162182379012721001F
:102CB0003F03A231012B19D0062B1DD10B00069921
:102CC000300003F0ECEC0F20800120180069808FA9
:102CD000002800D100273D430298062205803000DD
:102CE0001A30694603F052EC07B0F0BD0B000699AC
:102CF000300003F0D4EC23E06379022B15D1069B5E
:102D00000A0006999B1D300003F0C8EC0120400228
:102D10000543B079C007DFD1022120004AF02EFF21
:102D20000128D9D140030543D6E7E62801D10B009D
:102D300000E0069B300003F0B2ECFF20401C05438E
:102D4000034800680079C3E70148006800797047CC
:102D50002C1C050010B50400FDF794FDAC42D48A8C
:102D600001000000A82B0000000200009C5F51DE63
:102D7000394A01215368A14019435160FDF791FD83
:102D80000120800216F080FF10BD3349032010B5EA
:102D900048600120800216F077FF10BD70B5FDF786
:102DA0007BFD2E4D2C4E00210C007268D30704D001
:102DB000A4234B435B1980331C765208491C02291B
:102DC0007260F2D3FDF76DFD70BDA4235843234913
:102DD00040187047F7B505000026204F3400A420A6
:102DE0006043C0198030017E01291ED16978027DBF
:102DF00091421AD12978827D914216D1297B427D58
:102E0000914212D1C17D002902D1697BC90608D542
:102E100000691349062241180198FDF746FA002877
:102E200003D102980126047002E0641C022CD6D360
:102E30003000FEBD30B51C00A4235843074B4D782D
:102E4000C018030080331D750D789D751A61097BCC
:102E50005975DC7530BD0000640D0004707000040D
:102E600019020000FFB581B0050000201E4C28604B
:102E7000206A0E001700002817D0FDF70DFD216A0B
:102E8000002910D00A79032A0DD1096A00290AD035
:102E90002960216A09683160216A496A3960216ABA
:102EA0000A6B04990A60FDF7FCFC05B0F0BDF0B5B3
:102EB00087B006000F00002504AA05A906A803ABE9
:102EC000FFF7D0FF069C002C0AD0049A0192330031
:102ED0000022009705981100A047002800D0012586
:102EE000280007B0F0BD0000986505004021018171
:102EF0007047F8B50024160025000028009424D15E
:102F00003000694600F0E6F804000CD06B461A88E1
:102F1000642A04D3E188032003F0CEEB02E003200F
:102F200003F0CEEB60816B461888002805D0402066
:102F300020811888001FA08007E0002C05D03100F8
:102F40002000A580FDF788FE00242000F8BD70B5A4
:102F50000C000026012B2DD01C4D042B04D00F2B70
:102F600031D11B48210013E000F0FFFC17C5469843
:102F700001000000A42D00000002000085A78FAE14
:102F8000002804D0022001F05BFA44F0EBFA20891B
:102F90000019C179827908021043E52805D011484B
:102FA0002100143803F09AEB08E00E482100283085
:102FB00003F094EB0C480168491C01602868072263
:102FC0000121FEF779FB08E006482100143003F0E8
:102FD00086EB6069022106F0B7FF300070BD00008B
:102FE000041E05006C720004741E0500002801DD3B
:102FF000002004E06521C943884200DA080040420D
:10300000000600167047662801DD662002E00028F1
:1030100000DA00200006001670470000F8B5040032
:1030200032D025002035287DE77EC006860F20009F
:10303000143003F0C4EA0002000A002E0DD0012E65
:103040000FD0022E01D0032E0FD10106CA0F410668
:10305000490E100003F046EB08E0380003F046EBA1
:1030600004E0380003F046EB00E0FF20E076287D26
:10307000C006810F0B20205619F056FBE072072086
:10308000205619F035FBE071F8BD304810B5C16924
:1030900044690A05120DD308006ADB00E318040531
:1030A000240DA24205D10122120311401040814299
:1030B0000ED1586826490068000C884208D025497E
:1030C0000868401C0860002015F0BEFB002010BD01
:1030D000012010BD204B002002000102C918401C35
:1030E000FF280A60F9DD7047F8B50D0007001B489E
:1030F00000260E80006B1549000C1431C860FFF7E4
:10310000C4FF002820D00320694603F0F8EA040039
:103110001AD040222100380003F04CEA3800266023
:10312000FFF77CFF6B461988E180266102212000B1
:103130002173390040304031060003F074EA3088D2
:10314000001D28802000F8BD0020F8BD4473000455
:10315000EFBE000094F301C000F402C0C0A30080E1
:10316000F1B56120C04384B0002703900290049918
:10317000B80040180D2189014018846AF7CBC0FDC2
:1031800001000000A02F000000020000714F311369
:10319000002C7ED06078217806020F200E4380013B
:1031A0000640F6D00520C001064208D003986230E0
:1031B00005D104983CF0CFFD000400140390FF20DB
:1031C0004130064208D00298623005D104983CF0A4
:1031D000B9FD0004001402900025300614D53021FA
:1031E000095D039A0120914200DD002080210091B9
:1031F00023002200010004985E333032019723F04F
:10320000F3F9002800D08025B00517D53C210A5DD0
:10321000039901208A4200DA00200121490200912D
:1032200023002200010004985F333C32019723F011
:10323000DBF9002802D0012040020543700616D5B4
:103240002A21095D029A01204942914200DD0020B5
:103250004021009123002200010004985C332A32AF
:10326000019723F0C1F9002801D040200543F00563
:1032700018D53621095D029A01204942914200DAAF
:103280000020FF262300761C5D3322003632010029
:1032900000E017E004980197009623F0A5F90028B4
:1032A00000D03543002D0DD0002F0BD104981B21E9
:1032B0004901401881892943818101210498C90667
:1032C00006F04CFE7F1C3F063F0E012F00D258E750
:1032D00005B0F0BDF3B500240500260081B0A000C4
:1032E0000D21401989014018806A00284BD041788F
:1032F000027809021143490745D502990969002955
:103300000CD101006031330A4E708B70C07C0A0012
:103310000121002800D00100117034E0010060316B
:103320008A784B7812021A43521C1204120C130AA8
:103330004A708B700B78002B25D0877CBA4222D341
:103340005B1E1A06120E0A701DD1320A4E708A7068
:10335000C27C002A01D00A7008E041780278090294
:103360001143042291430170090A4170002C0AD1D3
:103370001B204001281881890422114381815106B4
:10338000280006F0EBFD641C2406240E82BE34B631
:10339000010000009C310000000200000F5496A3C1
:1033A000012CA6D3FEBD4349C868401CC8607047C5
:1033B000F0B51D001FB40020C04384B00090019000
:1033C00004980D2189014018846A002C42D060784D
:1033D0002178000208434005002700283ADA03F06C
:1033E000A6E9069A0E002B00121A8B41029005D214
:1033F000069A02983100801AA94107E0069A0098BF
:103400000199801A029AA941801871410600200092
:103410000D004A3003F0E6E82B00321ABB411BD303
:10342000244EF088401C05042D0C20004E30F58001
:1034300003F0D8E8A8420DD8F78004981B21490171
:10344000401881890122920211438181049851041C
:1034500006F08EFD09B0F0BD1648C780FAE70D22D0
:103460009201801810B5846A002C1FD060782278F1
:1034700000021043400519D5487D03F05CE9403453
:10348000E179A2790B0213430A49002298420ED82F
:103490008888401C0004000C8880637A247A1B0210
:1034A0002343834202D8012008818A8010BD0A810B
:1034B000FBE70000780D0004F0B5050085B000269C
:1034C000012001900C0037002800009600F07EFFDC
:1034D000A079C00774D1002D0ED0687AC0067CD4C4
:1034E0006879032801D10120009028003AF0ECF916
:1034F00000285ED002205DE0A0780107890F2CD162
:103500000009042829D1022000F070FF06003B20AA
:1035100000010DE03B20000131180622A01DFCF740
:10352000E2FE002859D00221300023F097FF060068
:10353000002EEFD1032000F059FF0CE03B200001EA
:1035400031180622A01DFCF7CEFE002845D003212D
:10355000300023F083FF0600F0D1200030F0F4FDAE
:10356000060015D0300023F09DFF050003D1032095
:1035700000F03CFF05002879002801D0062807D17B
:10358000A0780007800F022802D1E078800715D5C7
:10359000002D13D02879022804D12800FCCC932ECA
:1035A000010000009833000000020000FBBC281E50
:1035B00019F0CBFF00280BD02879032805D16879B2
:1035C000002805D001E001200190207BC00702D037
:1035D00001273FE00BE0A0780107890F0AD100091D
:1035E0000D2807D1E078C10704D1800702D400205C
:1035F00005B0F0BD287921003EF0F4FD0199884224
:1036000028D901270721032800D006212000029194
:1036100069790C300229039005D1029A0399280098
:103620001DF090FD16E0300003F092E8002811D163
:103630000098002808D0A0780007810F012901D048
:10364000800F01D10120D3E7029A039928000023BB
:1036500003F082E83800CBE7FEB5050000F0C0FEBD
:103660000190280000F0E1FE040028792F000C34BE
:10367000A03703281CD17D20C0000090606800287E
:1036800006D03988009803F06CE821680E1A00E033
:1036900026685820005D012810D900206060217E36
:1036A0000720C0010129019905D10818406A0BE0E3
:1036B00010480090ECE70818006A05E0012804D1E2
:1036C0009F20405D4000401C20603988009803F036
:1036D00048E8B0420CD328001AF0BEFA002807D000
:1036E0001120400128180188002228001BF0C0F991
:1036F000FEBD00008813000070B5050000F095FEC7
:103700000400280000F06CFE11220100520189180B
:1037100049880C340020012903D1E16F012900D12F
:10372000012070BD10B589780A07930F022B04D1D0
:103730000B09042B08D00C2B06D0920F02D10909DB
:10374000052901D04AF0D9F910BD0000F7B584B0C1
:103750000025060000893700811901200290059894
:10376000039130F065FD0190059800F039FE039952
:10377000CC6DA1780A07930F05D10909052902D15B
:103780000020029061E0A179C90722D0332109010C
:10379000401800680028F3D0E078C009F0D1900FFD
:1037A00009D1059831001AF029F906006296405FA8
:1037B000010000009435000000020000E244F66EB3
:1037C0000FD0A0780007800F04D030001AF086FADE
:1037D000002806D1069A059831001AF01BFB002834
:1037E0003DD001253DE00198007E0128D2D1714BEA
:1037F00005980622A11DC018FCF789FD0028C9D133
:10380000A0780107890F13D100090C2806D105986B
:103810001AF0A2F9A0780007800F09D105983100AD
:103820001AF0F6F80600DCD0A0780007800F04D06C
:1038300030001AF053FA0028D3D1069A05983100C7
:103840001AF0E8FA00280AD0012500F0C0F8002894
:1038500007D0022000F01CFE43F0ACFE01E0BE42A7
:1038600024D0002F18D0A0780007800F07D003982D
:10387000059A6030007A0021FFF79DF908E0002DDD
:1038800006D0039A059821001BF05FF8002803D0AA
:1038900000213800FDF721F8002D07D0002E05D0BB
:1038A000BE4203D000213000FDF717F8029807B0A0
:1038B000F0BD10B530F0C6FC0021603001744174D9
:1038C000817410BDF8B50D0006001700FDF716F85D
:1038D0000400002E24D0300030F0B4FC6921495D92
:1038E000312916D032291BD16030017C012917D132
:1038F000417C002904D0491E0906090E41740FD1EC
:10390000012F0AD128784107490F30001AF0CAFD6B
:1039100006E03000FFF7CDFF02E000210174817462
:103920002000FCF7F0FFF8BDF3B581B00E00019860
:1039300030F088FC04003820805D45076D0F2800BA
:1039400002F0C8EE01000198002831D0019807224A
:10395000D2018018C06A00282AD0200060300700F9
:10396000007C012824D0606F1AF059FD00281FD078
:10397000207E01281CD13000403002F048EEC17892
:10398000C90615D580780107890F022910D10009D1
:1039900000070DD5012020343874A178C80703D062
:1039A0000198002207F015FD019829001AF07AFD10
:1039B000FEBD0000190200001E480068521B1B8C4F
:1039C00001000000903700000002000016AC48D350
:1039D00070471D480068002801D101207047002071
:1039E000704710B546F0BFFE002805D0FFF7F1FF85
:1039F000002801D0012010BD002010BD10B546F0F8
:103A0000ADFE002805D0FFF7E4FF002801D001201B
:103A100010BD002010BD10B50400FDF703FE002806
:103A200005D1052C05D100F0D1F8002801D00020E7
:103A300010BD09F011FA002803D10448006B0028DA
:103A4000F6D0012010BD00004821050030780004A8
:103A5000154810B50068002816D1144800220068E7
:103A6000462102F0E6ED00280ED111490A78002A1D
:103A700002D00870162005E00E490A78002A03D00B
:103A800008701B2046F00AF910BD10B50A4CA0883A
:103A9000002807D0FDF7C6FD002803D039F0E2F971
:103AA0000020A08010BD000008210500F01B0500CB
:103AB000A1200500A2200500682105000748807CA0
:103AC000002808D1054800234038C16E806E594057
:103AD0005840084300D001207047000090230004A4
:103AE0003649374A800009581258914201D20120C4
:103AF0007047334A121F1268002A06D0304A10322B
:103B00001058814201D2022070470020704770B5E2
:103B10002C4A0169914201D0002070BD2749C07B29
:103B200010310C5CFCF7F4FEA100244B244C5A58D5
:103B30006458A24204D9224D2D1F2C68641C2C60AD
:103B4000521E5A50FCF7E9FEE6E7FFB581B00024AB
:103B500006001F001B48864206D0039A02993000D7
:103B600002F016EE05B0F0BDFCF7D2FE0090380072
:103B7000FFF7B6FF05001CD0039A0299300002F04F
:103B800008EE040015D00D49E07B10310F54B80049
:103B900010390A58521C0A50607B01210843607397
:103BA0000948022DA06104D10549091F0868401E7B
:103BB00008600098FCF7B1FE2000D3E7AC7E00045B
:103BC0008C0F0004380E0004CF3800007ACC7C98AB
:103BD000010000008C39000000020000D1B54A8EBF
:103BE000014880897047000088210500F0B591B038
:103BF000002732F061FAFF4D2C69FE48403006681C
:103C0000300706D506F0E8FDFA490820C0434031E8
:103C10000860301EF84E17DA142032F0DFFBF74848
:103C2000C06B00280CD0B068401CB060402016F07B
:103C300071F8F0484030416849004908416003E0AC
:103C4000EC48EF4940300160EF49EE4809782040E8
:103C50000843716A08437062FFF7C5FE002817D059
:103C6000706A002814D1E948002200681B2102F084
:103C7000EAEC716A08437062706A002808D1E34870
:103C800000220068082102F0DEEC716A08437062CD
:103C900002F08CEDE00101D5DD48286120060CD54D
:103CA000DC490868401C086009F0E0F8002802D0F0
:103CB000042016F02FF843F06DF9A00301D5D64883
:103CC0002861002C07DAD548072200680221FDF799
:103CD0002FFDCB482861200502D5D1480127286156
:103CE000D048610110907ED500200390029007AA71
:103CF00008A90CA806AB40F045F80028049011D0A4
:103D00000220074300068443C043286108980C3012
:103D100000F000FC0028029004D104900799089854
:103D200002F048ED46F024FD002806D0BE490020F0
:103D3000C861BD49202040310860049800287ED029
:103D4000FFF766FE00280AD0B848806C002804D12E
:103D500001210298890306F033F918F0B5FC0298A6
:103D600002F02CED00286BD002980079012829D1AF
:103D7000089900294ED00298123124F07BF90028CE
:103D800048D01099002002F08AEC9C48C038806B23
:103D9000A64800210165B06A00283BD1A44800680C
:103DA000401C37D001210298890206F009F9012050
:103DB000B06202990F2080010818806804213BF04E
:103DC0004FFB27E000201DF0CBFB039046F0D5FC15
:103DD00000281DD0029846F07FF901901960C2C3F7
:103DE00001000000883B000000020000255DF43364
:103DF00002F0CEEC019AFF3200E0DDE0521C0F929F
:103E0000D161906107990F9A4B68086853626B46BD
:103E100010621A8B0C310C3A052002F0DEEC0F9A7E
:103E20008078906248F0D0FC45F036FF0006000E26
:103E300005900C98C17E0B91C17A0A91C1790991C4
:103E4000FFF732F90C99029846F0D3FF0B990C98C2
:103E500001E0AFE09EE0C1760A99C1720999C17193
:103E600046F09AFC002872D0FFF7C7FD00286ED0FC
:103E7000039800286BD00598002868D146F087FC8D
:103E8000002864D1FDF7E2FB002803D12FF0C6FB28
:103E900000285CD0F069012807D06B480088002812
:103EA00051D06A48008800284DD06B461A8B07997C
:103EB0000C3A0C31052002F090EC0100029841F020
:103EC000E1FD019062480068002806D002F0BCEBDA
:103ED000022108430199084233D151480022006869
:103EE0001B2102F0BAEB00282BD1029815F059FAE9
:103EF000002826D1574802F0A8EB0199084220D1AA
:103F00005248008800281CD053490198084218D113
:103F10006B461A8B0799029802F062EC002810D0C9
:103F2000022087431DF020FB052002F05EEC000418
:103F3000000C052102F05CEC0298012106F04AF821
:103F400001E001203062002070620DE0FFE7F069BF
:103F5000012807D03C480088002805D03B4800884D
:103F6000002801D001203062029805F071FC002881
:103F700014D00598002811D0FFF73FFD00280AD083
:103F800039F0F0FB002806D139F038FD002802D1C5
:103F90000120306202E0082015F0C6FE306A0128D8
:103FA00008D10020F06129490880022087430320BE
:103FB00045F088FE2948286120017ED528688007C1
:103FC00005D50021012023F0E1F90C900BE02868D1
:103FD000C00773D0307823F0F5F90C9019F0DDFAB2
:103FE0000028F6D00C980028F3D00C980F669AADF4
:103FF00001000000843D0000000200003CA52A43AF
:104000008030806B406820300B900C983CF02CFA8C
:104010000B98807AC00760D00C982BE000A5008038
:10402000C4210500C0A80080FFFFFF7F808800003A
:10403000600D0004F01B0500FFFFFFFEB42005002B
:10404000FFFFFDFFA4230500FFF7FFFFE88A000440
:1040500000A600809C1D04C0C0210500B46A0500B4
:104060007C2105000C1C0500642005000B8000006D
:10407000FFFFFFFB407902282FD10C9819F097FA27
:1040800001282AD10C9800F0DDF98F2189000A90CF
:10409000401809902030007A00281ED0099A0C9808
:1040A00029320E920999313102F0B0EB0A98406C36
:1040B000002812D009990E9A0C98323142F048F833
:1040C0000A98132149014018807C800701E08DE0A7
:1040D00050E002D50C9815F076F90B98807A80079D
:1040E00048D546F059FB002806D0C8490020C861D1
:1040F000C64920204031086018F034FBC448806B6A
:104100000D9018F043FA0C9802F084EB0C9802F032
:1041100086EB00282ED0BF480068401C2AD010989B
:1041200002F09CEA0D994018109902F0CCEA0C9923
:10413000A03109884843B849884205D3B16A0029AB
:1041400002D0B64A01211165B549884212D3B06A3E
:1041500000280FD01099002002F0B4EA01210C9839
:10416000490205F041FF0020B06202F05CEBAB4970
:1041700000200865FFF753FC002835D0022000F02E
:10418000AFF90A9045F0BCFF09900A9800F05AF97F
:1041900008900A9845F0A6FF0790072045F09CFD7F
:1041A0009A480169026A0798008802281CD10029F0
:1041B00001D0012A18D10998C030007E002813D1FF
:1041C00007984068C00707D008980921890140185E
:1041D000006A002808D104E0FF2015F01DFE002829
:1041E00002D0132045F078FD8E482861A00101D54A
:1041F0008D482861002F05D08C4807221E28D0D278
:1042000001000000803F000000020000C84D94FE45
:1042100000683900FDF7AAFAE0007ED546F0C6FA3C
:10422000002807D001214904002005F0E7FE80485E
:104230000021816425F00EF9002801D024F0D4FE7D
:104240002868C00772D07F48806A0006000E307070
:1042500023F0CCF8070040D0FFF7EBFB002810D08C
:10426000380045F049FF7749496B32780123934084
:10427000194201D0002100E001218170062045F0A3
:1042800035FD3800A030017C491C0906090E017477
:10429000C27B91427ED100210174817B0029F9D13A
:1042A0006849496BC27D01239340FF22521C13438E
:1042B000644A19435163797902290ED15849C07D66
:1042C0004031886056480169006A012901D00128FF
:1042D00003D10121380019F097FE3879032825D140
:1042E000380023F095FA0C907879022807D10C98C1
:1042F0002030807B800702D5380002F0A2EA0C98BB
:104300008069000512D50C9802F09EEA002803D0BF
:104310000821380002F09CEA01E009E006E00C9870
:1043200001218069C90288430C9988614648286147
:10433000E0020DD5012023F0C7FE002806D03C493D
:10434000012088648103002005F058FE3F48286161
:10435000E00702D00120C0432861A0070DD5706896
:10436000401C7060102015F0F3FC0220C04328614F
:104370000120C0038443C0432861200405D534488C
:10438000072200680121FDF7F1F9600707D5F06801
:10439000401C00E027E0F0600420C04328612007B3
:1043A00005D53069401C30610820C0432861E00613
:1043B00005D57069401C70611020C0432861A006BB
:1043C00005D5B069401CB0612020C0432861F06968
:1043D000002801D131F062FE1E4988684A0D104361
:1043E000886011B0F0BD174B596B307801228240C4
:1043F0009143D80D014359636FE770B504000D0078
:1044000040201BF035FA002807D112492A84E77FA3
:10441000010000007C410000000200002D1AC9F9D3
:1044200001208002C86029002000FFF707FC01205E
:1044300070BD000000A6008000A80080C02105001B
:10444000501400009C1D04C0581B0000FFFFFFF724
:10445000FFFFFFFD84200500C0A20080FFFFFFEFEB
:10446000FFFFEFFFA42305000028008001000020CB
:10447000002906D00F230A799B01C918022A01D10D
:1044800008697047032AFCD18869704770B5050038
:10449000FCF770FA7D494C6807E02179A94203D105
:1044A000FCF76DFA200070BD2468002CF5D1FCF7F4
:1044B00066FA002070BD002100280AD00279022A85
:1044C00002D13D21090103E0032A02D17B21C90069
:1044D00041180800704770B505000E00FCF74AFA55
:1044E0006A494C680AE0A179A94206D1E179B14252
:1044F00003D1FCF744FA200070BD2468002CF2D1EF
:10450000FCF73DFA002070BD6049022801D108691E
:104510007047C86870472030407EC006C00F7047A3
:1045200010B5040002F0A2E90F21890161180862A8
:1045300010BD70B5FCF71EFA0500544844680AE047
:10454000200023F092FD002804D02800FCF717FA81
:10455000200070BD2468002CF2D12800FCF70FFA6F
:10456000002070BDF8B507004AF0FEFD002801D01C
:104570000020F8BDFCF7FEF906004448444D4468AD
:104580000CE0062239006019FBF7FDFE002804D17B
:104590003000FCF7F4F92000F8BD2468002CF0D1BD
:1045A0003000FCF7ECF9E3E7F8B505000F00080070
:1045B0004AF0DAFD002801D00020F8BDFCF7DAF956
:1045C00006003248446810E02079A8420CD120004F
:1045D00006223900A230FBF7D6FE002804D13000B5
:1045E000FCF7CDF92000F8BD2468002CECD1300098
:1045F000FCF7C5F9E0E770B505004078002801D167
:10460000002070BDFCF7B6F906002048446814E0AD
:104610002079012810D19E206A78005DCB98DA734A
:10462000010000007843000000020000D9F2774446
:1046300082420BD12000A91C7E30FBF7AEFE002881
:1046400004D13000FCF7A5F9200070BD2468002CCF
:10465000E8D13000FCF79DF9DCE770B5FCF794F980
:1046600005000F48446800E02468002C09D02000B1
:1046700002F00AE90128F7D12800FCF78AF90120A5
:1046800070BD2800FCF785F9002070BD0978C907C6
:1046900001D000207047407A0007C00F704700002B
:1046A000AC0F000419020000002805D00F21890179
:1046B0004018C068002801D100207047007870477A
:1046C00003000A0000B5FFF7EFFF002807D00F2016
:1046D00080011818C16860205043AC30085C00BDF0
:1046E000F8B504000F00974910004E6A1D0034F021
:1046F000FFFF0421615E002908D179008919A031EA
:1047000089888D4204D2491BA18003E0002901DA87
:104710000020F8BDA188081AA0800120F8BDFFB5CF
:10472000012081B00C001F00009001980026FFF7C7
:10473000BBFF25006035002803D0019800790128CF
:1047400002D1002028722CE0FF2A27D001990F20E7
:10475000602380015A4308181100C068A931AB32A8
:10476000415C865C77484A00406AA432805A764AA7
:10477000904201D0002F02D1A088002811D03B0028
:1047800032002000FFF7ACFF00280AD1A178019881
:10479000012202F07EE8002005B0F0BD002000906C
:1047A000FAE72E720098F7E7F3B58DB00C000026FB
:1047B0000D683021E86D0C901435684601F0B8EFB3
:1047C0002000694646F0EEFA00246F4617E00D9887
:1047D000FFF76AFF0C9903000A88E96920000904C1
:1047E000090C02F05AE88619E869210002040D98C4
:1047F000120C07F065F88619385D401E3855385D93
:104800000028E4D1641C2406240E2F2CF7D330009A
:104810000FB0F0BDF8B504000F2208686023C56D25
:104820000600007892014007400F584307E4B62B7A
:10483000010000007445000000020000C00AA93415
:10484000A118C968B230085C143683009A18891818
:1048500018F0F4FB0700232000012018416BCC3036
:104860000B5CF0692A8801041800090C012302F08E
:104870001EE8010038004843F8BDF3B581B00E00D2
:104880000D68EC6D01F0B6EF0198FFF717FF0028F7
:104890003ED001980F2189014018C168306860231B
:1048A0000078228B4007400F584312094018A0306F
:1048B000477A0282A07800092AD0082801D00C2863
:1048C00026D11420784344182079000720D5A86801
:1048D000800004D501983100FFF7A6FF03E001989E
:1048E0003100FFF76BFF218AC002000C00290FD0B6
:1048F000227D002A0CD1628A10180004000C884224
:10490000608205D901202075019839004CF0A8FD7E
:10491000FEBD03000A0000B5FFF7D0FE002807D057
:104920000F2080011818C16860205043AE30085A2B
:1049300000BD03000A0000B5FFF7C0FE002809D043
:104940000F208001181860235A43C168AE32885A7C
:10495000431C8B5200BD00006C6B0004FFFF000085
:1049600010B501F0A8EF10BD30B50079039D002807
:1049700020D1FB48047C022C1CD2052D06D0E62D4C
:1049800001D1143102E0D21A5118891D0A78082A7F
:1049900011D14A78002A0ED1891C0A781209042AFA
:1049A00001D1497A02E0062A05D18979062902D186
:1049B000641C047430BD0021017430BDFFB5DFB04C
:1049C0000022050040685A90062059925890E5A0B0
:1049D000369209C80C920B92349333900889401890
:1049E000099048690A90FFF755FD08902C6868986F
:1049F0001434E62801D10020589000260E960D961A
:104A000060688079C107D9480A9904D00818C0683D
:104A100000280FD003E008180069002806D06A9922
:104A20000830086060688079C00703D10A98007A6E
:104A3000C0070CD06A980068002808D16DAC1395A7
:104A400001000000704700000002000034E21789F6
:104A50000A98007A40077CD40A982030407E0007EC
:104A6000F9D42800083058AA33A96B465E9007C3D2
:104A70000CAA5A99689807AB01F02AEF619908AB24
:104A80000860689A5898009207061A7C3F0E5A9957
:104A90000A983B00FFF772FF6A980021006800281F
:104AA00003D0827AD20700D0012162689379DA07B5
:104AB00003D10A9A127A92072FD5629A032A2CD030
:104AC0000A9A2032527E1207D60F26D10A9A127AFB
:104AD00057070ED5C2791207120F012A01D10127FB
:104AE00000E000270E970127022A00D000270D972B
:104AF00013E0D20604D5002902D001220B920CE06B
:104B00000A9A1279012A08D1002906D0C27912071F
:104B1000120F022A01D101220D920A9F0122203791
:104B20007F7E3F0707D4002904D0002802D0807A76
:104B3000800700D400226298032812D06198006890
:104B4000002807D10A98007A80070AD4D8073BD0FA
:104B500007E039E0002A04D000266A980D960E96E8
:104B600006600B98002808D061980068002804D0DF
:104B7000002001000B906A98016035AA36A90192C5
:104B800000910B9B0D9A0E99300001F0A6EE0B9848
:104B9000002806D030AB587D801C5875187D801CCD
:104BA00018750D990E9808430B99084330430ED0A1
:104BB00060684022C1781143C1706A98006800287B
:104BC00002D0807AC00702D1002063B0F0BD68989F
:104BD000E62802D06998002801D001200DE00A984B
:104BE000589AA0304089599000922E8930AB1A7D96
:104BF0006B99330059A801F074EEA872E069C00502
:104C000002D50120A8722DE0A87A012827D9606872
:104C10000422C1781143C1705A480079C0060AD4F1
:104C20000A98407902281AD108981321490140189E
:104C3000007A000713D5208D8005400E03280ED979
:104C400050494031897D490609D43FF077E6F22B7F
:104C5000010000006C49000000020000F3FB15D4C5
:104C600065F84006218D800D7F22D20091430143DB
:104C70002185A87A012812D108AB197C5A9830AB4B
:104C800040185899401A597D401A203809998008CF
:104C90008000703188425B9006D25B9104E00998F5
:104CA0007030800880005B905B985C900FA850ABE0
:104CB000E860998C08AB187C5AAA04AE07C635A9DF
:104CC0005E9A589801AE07C65BAA0092A87A48AAD5
:104CD0000FA938AB01F012EE0B9800280AD0002083
:104CE00038AA04E0810053589B1E401C5350A97AF7
:104CF0008142F7D8A97AE868491E01F004EE589A73
:104D0000002A05D0E86833A98068801A01F0DEEC3B
:104D10006768489860606898E6280FD0699801280D
:104D20000CD03898BA1D01040A98090C00F07BFEDB
:104D3000002803D0E06901F0EAEDE061E0690121BB
:104D4000890288430026E061FBE00E99002907D024
:104D5000401EB04204D1B00038A90A5808320A50A7
:104D6000B00038A95D9008580204120C3A80A87A65
:104D7000401EB04250D1F878FB210840F870E0693D
:104D800081070BD01E210AE038660500AAAA03009D
:104D900000000000400300008C8A00041821091D57
:104DA00051180904090C61846B9A002A01D0891CEE
:104DB0006184410508D50204208D120C8005410E46
:104DC0000A9806F09BFDB880E06981060FD56B9AC2
:104DD0005D99009238AA5158BB880A040104208DBD
:104DE000120C8005090C400E06F0E0FD12E00106F1
:104DF0000FD56B9A5D99009238AA5158BB880A0466
:104E00000104208D120C8005090C400E01F082ED8A
:104E100000E00020E0814AE0E069410510D56B9A8E
:104E20005D99009238AA891849680204208D0B0404
:104E30008005410E0A981B0C120C06F0AAFDB880E2
:104E4000002E34D1E069810616D50204208D120CA3
:104E50008005410E0A9806F051FD0300CFD7B6AD8C
:104E600001000000684B0000000200000713AB695E
:104E70006B9A389800920204E069120C0104208DAC
:104E8000090C8005400E06F09BFD19E0010616D5C1
:104E90000204208D120C8005410E0A9806F038FDA0
:104EA00003006B9A389800920204E069120C010426
:104EB000208D090C8005400E01F036ED00E0002049
:104EC000A081288A48A900090001304338835D98F1
:104ED00020220858390001F004EC30AB187E01287C
:104EE00009D16A9838A902685D9848AB09581858E2
:104EF00001F01EED2EE002282CD15D9848A909583A
:104F0000379138A9085830AB197D401A37990004F9
:104F1000000C0880A97A491EB14202D1379908389D
:104F2000088037988079C2076A98D20F01680A987A
:104F3000FCF728FD03006A98E97A02683798FFF7C2
:104F40002DFDA87A401EB04204D1379837990088C9
:104F500008300880761CA87AB04200D9FFE66C9829
:104F600000280AD06C9830AB597D80304176997D0D
:104F700081760D99C1610B9901625C9839E6FFB5A4
:104F80008DB00400169E40680C9006200B9061487E
:104F9000189D05C88035099000200A920890E8699C
:104FA0000790286A0690088940180490486905907F
:104FB0000120A07227681437E62E01D100200B9043
:104FC00005980D21890140180069002802D0179921
:104FD00008300860200008300BAA09A96B4607C3F7
:104FE00030000C9908AA03AB01F086EC0F9908ABCE
:104FF00008600B98009606061A78360E0C990598EC
:105000003300FFF7CFFC1798002300681900002831
:1050100003D0827AD20700D00121059E01222036DA
:10502000767E360707D4002904D0002802D0807A83
:10503000800700D40022109803280ED00F98006833
:10504000002806D10598007A800706D4002011B008
:10505000F0BD002A01D0179803600698002807D0F9
:105060000F980068002803D000200690E05D339D73
:1050700001000000644D0000000200001EEB7519E5
:105080001798036006990798084304D0786840226F
:10509000C1781143C17008AB19780C980B9A6B7EDC
:1050A0004118881AC01A203886080498B600703053
:1050B000864200D20600E06820324160687EE168E6
:1050C000801980188860E16820890860A17AE0680A
:1050D000491E01F02CEC0B9A002A06D0697E3000A4
:1050E0002030081809A901F006EB79687E60687E17
:1050F00022890B9B8018AA7ED2188018069A002A53
:1051000000D0801E08801E30FA690004000C92074F
:1051100002D0801D0004000C78842022300001F0B1
:10512000EAEA30009DE70000984A0000F0B500264A
:10513000B5B01C961B960022D243F9480092006934
:105140000822032134ABFCF74BFB34980028F2D043
:1051500080072BD568461A9023E0062001F09EEBCD
:105160000004000C062101F09EEB1A9C20000C307C
:10517000FFF734FA05002100FEF72AFA012810D0C3
:10518000002D0ED0A0780007800F012809D16A6B8E
:105190000AA9002A02D02800904702E028002EF039
:1051A00009FD0AA83EF080FE0028D6D13498C00739
:1051B000C1D0FAE21D981F9F4469FBF717FC050058
:1051C000002F06D01D9800F074FB002801D00120AC
:1051D00000E000201E902800FBF70DFC012020AB12
:1051E0003390587D2399000208431D99FD6D488135
:1051F0001E9800287ED0002C27D06920C05D65282D
:1052000018D1A8780007800F022813D1C549087863
:1052100000280AD0401E0006000E08700AD1C24ABB
:10522000D068D10D8843D06004E0BF49C868CA0D7A
:105230009043C8601F9920001FAA25F021FC012877
:1052400006D11D9800F01CFBAFE2FBF7CFFBFEE799
:105250002398002807D1A8780007800F022802D1E0
:10526000200029F0F3F82079012806D1F86D807923
:10527000C00702D12000FFF78FF9A8790F05BA8681
:1052800001000000604F000000020000EA03CBA410
:10529000C0072CD16079022829D11F986030407A4C
:1052A000CB280BD12000FFF74CF91A90FBF7A8FB95
:1052B0001A99002280310A75FBF7A7FB1F9901227A
:1052C0002000FEF781FBA8780007800F022805D197
:1052D0002398002802D12000FEF74AFA2000FEF7AA
:1052E00097FA002803D029002000FEF7A7FAFEF75E
:1052F000F0FB002819D01F986030407A142814D091
:10530000152812D0352800E00FE00ED02398002891
:105310000BD1A8780107890F02D10009052804D014
:105320000220FFF737F942F0C7F9B86800011BD532
:10533000239800280CD1002C16D00D2080012018B5
:10534000406A002810D06030818B491C81830BE0BB
:10535000002C09D00D2080012018406A002803D0BD
:105360006030C18B491CC183B86880001E985AD533
:10537000002857D024F0BEF8002801D023F092FF77
:105380001F9822006030007A1FA9FDF796FC207953
:10539000002802D06079032803D120001FA9FFF75D
:1053A0009EFAFEF78EFB00281ED0E878C006C00FDC
:1053B000401E20430AD12079012807D038F012FC82
:1053C000002803D138F0BAFB00280DD05C490868EA
:1053D000401C08602079062801D042F0C7F8B86860
:1053E000002801DA44F032FE26F0D2FC38F0A6FBA9
:1053F00000280FD038F066FB00280BD15148007808
:10540000002807D050480068032803D2002120005C
:1054100041F006FE1D980021FBF7E1FA20001FA9CC
:1054200001F09EEAC5E100287ED01FA829F082FD88
:10543000002C00D02079B868002801DA44F006FE7C
:1054400024F058F8002805D06820C05D072801D84E
:1054500023F028FFA87801078A0F022A78D12000BC
:105460001FA9FDF7D7FF1F9822006030007A1FA9FF
:10547000FDF723FC20001FA945F027FD3349887262
:10548000000AC87220001FA901F06AEADAECF4FDF4
:10549000010000005C5100000002000094186C1430
:1054A00020001FA9FEF77BF86079032801D00128AE
:1054B00003D120001FA9FFF71CFAFEF70CFB002800
:1054C00016D0E878C0060AD52079012807D038F030
:1054D00093FB002803D138F03BFB002808D01D497E
:1054E0000868401C08602079062801D042F048F87E
:1054F00026F058FC38F02CFB00280FD038F0ECFADE
:1055000000280BD114480078002807D01348006801
:10551000032803D20021200041F08CFDFEF7E3FABE
:1055200000282ED01F986030407A142829D12000FE
:1055300044F03CFE23990088002900E03FE11DD1A2
:10554000022810D113261CE094230500F81D050045
:1055500000A80080B8200500A3200500C020050099
:10556000DC8A00048EE0200044F02EFE060001F0EC
:105570007EE98036F164B0641E2602E0022800D085
:105580001F26A8780009042801D00C2823D16037F1
:10559000787A152828D00CDC102825D011281AD0AC
:1055A000122833D0132816D1239800282CD12F2667
:1055B00011E016283AD035283CD041280BD10122E1
:1055C0001192402223A96846109401F024E91FA8F3
:1055D0000FC836F01BFD1F986030407A302835D157
:1055E0001D982EF0A5FDEEE023980028E87805D15F
:1055F000C00601D50E26EEE70D26ECE7C00601D564
:105600001126E8E71026E6E73026E4E7239800288D
:10561000E1D124F0C7FC0028DDD0E878C006DAD557
:1056200001F024E9834A51651065D4E7239823F0FB
:10563000BFFFD0E723980028CDD0112040012018CB
:1056400001880122200019F0A9FAC4E7372805D102
:105650001D99200013F066FA0028C4D1A87800092B
:10566000042806D00C2804D01F986030407A5A28AD
:1056700003D11D9801F03AE8A5E01B991D98FBF7AE
:10568000B8F9A0E0890F57D11F986030C27A002A7C
:1056900006D02398742103061B0E200038C04C2F1F
:1056A00001000000585300000002000060F0D2A981
:1056B00037F008FC607902281DD11F9A29002000CC
:1056C00019F0D9F93390A87800090D2838D123981A
:1056D00001273900002800D000211D9828F068FC1F
:1056E000A87800090D282BD12079032828D139006A
:1056F0001FE0002120E0A878030901F04AE90E210B
:105700002121212121212121082121210D210020D8
:10571000339016F0A9FE13E02398012529000028F4
:1057200000D000211D9828F043FC2079032807D1E0
:10573000290023980028DCD11D9801F02EE9339030
:1057400000203490339800289DD146E0012A44D1AE
:105750000009082837D00A2802D00E2893D03CE050
:10576000FBF762F9050025F04FFB38480178002966
:1057700008D037498A68521C8A60002101702000D5
:1057800041F062FC1D9800F0BCEF2398002814D073
:105790001C980A2811D214F054FB00280DD11C9833
:1057A000401C0006000E1C9024F01EFC002806D1B0
:1057B0000121200041F048FC01E000201C9028005D
:1057C000FBF737F909E0290020001FAA34F09EFFFB
:1057D00059E71F490868401C0860002E03D03000BC
:1057E00044F0E8FA00261FA800F0CFF900281D9029
:1057F00000D0FDE423F092FE002811D024F004FC38
:10580000002807D023F084FE124A53691269121A45
:105810008B4103D326F034F9002801D023F0D8FCC3
:105820000E490D4808610E4801694069814200D166
:105830009FE4074807224168491C41600069012133
:10584000FBF7F8FF95E40000F0770004B21D0500B7
:1058500094230500585D0500FF7FFFFF00A5008031
:1058600000A0008010B5040005F01EFE002801D144
:10587000012200E00022002A16D1294B2069E17B99
:10588000984201D100200DE0264B984201D14020E2
:1058900008E0254B984201D1472003E0234B984272
:1058A00002D14C20FF2905D15020002A2B79F3F09A
:1058B00001000000545500000002000079080CD9D6
:1058C00001D0012100E0002140180006000E10BDAB
:1058D000F8B50500FFF7D0FF1A49C000441820684A
:1058E000194E002803D0B088401CB080F8BD68462F
:1058F0002560FBF7ACF8009860603078401C307091
:10590000F8BD10B50400FFF7B7FF0E49C0004018FE
:1059100002680D49A24204D0C888401CC8800020FB
:1059200010BD002213000CC00878401E0870012032
:1059300010BD0000380E0004740E0004040F0004B3
:10594000540F00045C870004A8230500F0B59446BA
:105950005A681D6814062E06240E360EB44203D271
:105960002700F837B74205D9B44205D932000832CA
:10597000944201D80020F0BDD04A09021268314398
:10598000114308602D1DE805C00D61460904084358
:1059900018600120F0BDD9E7F8B504000F0016002B
:1059A000FBF74CF81437002C009014D060790228D3
:1059B00011D0786880780107890F02D10009042886
:1059C00009D0FDF79DFA0100380000F0F4EFBC4962
:1059D0000A6880180860BB48B4000559092E18DC15
:1059E000B9480159002914D0B8490959012908D1E9
:1059F00002E030003EF030FDB34800590028F8D1F5
:105A000007E000210151B04850300059C105C90DCF
:105A10002960AE48005901280CD1788C0421091A5C
:105A20008907890F0A18121D2B0031003800FFF773
:105A30008DFF1AE023F07CFD002809D024F0EEFA57
:105A4000002805D0082E03D13100380023F0F4FEE1
:105A500000222B0031003800FFF778FF002804D126
:105A60000098FAF7F0FF0020F8BD0098FAF7EBFF76
:105A70000120F8BDC03010B5027C0100407C82429C
:105A800001D3100010BD887CC97C8842FAD200F096
:105A900096EF002801D1032010BD092010BD70B57C
:105AA000040010780D001100C00719D120790128D9
:105AB00002D06079022803D12000FEF7A5524EEBF8
:105AC0000100000050570000000200008DE0B264A9
:105AD00041FE02E02000FEF74BFE0006000E01D062
