:1000000001000000000000A0000200000AB6BD1BB5
:100010001CF09FE51CF09FE51CF09FE51CF09FE5A0
:100020001CF09FE51CF09FE51CF09FE51CF09FE590
:10003000041C0F60982100001C21000020210000FA
:10004000782100007C210000802100008421000034
:1000500091210000000000EA300700EA28008FE24A
:10006000000C90E800A08AE000B08BE001704AE24A
:100070000B005AE12907000A0F00BAE814E04FE22A
:10008000010013E303F0471013FF2FE13C1F0300AF
:10009000BC1F0300102052E27800B0287800A1288D
:1000A000FBFFFF8A822EB0E13000B0283000A1288B
:1000B00000409045004081451EFF2FE10030A0E345
:1000C0000040A0E30050A0E30060A0E3102052E253
:1000D0007800A128FCFFFF8A822EB0E13000A12821
:1000E000003081451EFF2FE104309FE503308FE093
:1000F00013FF2FE1ED1E00001E480121490341615D
:100100001D4901611D4941610521016170471C487C
:10011000802110B502F0FCE81A48582102F0F8E8F6
:10012000194800210A0006C020211648583002F064
:10013000F0E8002010BDF0B50024134F134E08372F
:1001400008E0C51968682EF0F1FB69680120884055
:10015000B060641CE00039580029F2D10C491F201E
:100160002EF0E4FBFFF7C8FF0120C007B0600020BD
:10017000F0BD000080290080070000FF1020000073
:1001800044270300E404000408000004009000A8D1
:100190009144010053480121032201704270017211
:1001A000427270474F48F8B500241838046000F0D8
:1001B000AAF903F071FA4C490D5C0EF017FB290007
:1001C00002F0AAE8494E2300320002F0AAE8401CDF
:1001D000614105042D0C03F05FFA454940000F5AB8
:1001E00016F00AFC390002F098E82300320002F011
:1001F00098E8401C61410004000C290000F092F9CD
:1002000003F04AFA3B490D5C0EF0F0FABF2875176F
:1002100001000000FC0100A000020000CE6362307B
:10022000290002F084E82300320002F084E8401C38
:10023000614105042D0C03F039FA34490F5C0EF0CE
:10024000DFFA390002F072E82300320002F072E8AF
:10025000401C61410004000C290000F084F90820D2
:1002600000F070F90EF0CCFA310002F068E8401CA2
:100270000004000C00F06FF90EF0C2FA052102F044
:1002800056E8234A230002F056E8192280186141FB
:100290000006000E00F06DF9601E14F0D9FDFF2479
:1002A000641C200015F0E4FB200015F0E9FB14F0BD
:1002B0007DFD14F09FFD402018F0BCFB00F08CF990
:1002C00000F078F90C200EF0F3FAC0200EF0F0FAEE
:1002D00015F05EFB15F080FB15F0A0FB15F070FB30
:1002E00030200EF0E5FA032000020EF0E1FAFFF7ED
:1002F0005BFF00F0A3F8F8BD180600B0440503004A
:1003000040420F002E0503005A0503004F0503006D
:10031000C0C62D0010402DE99C1300FA78409FE5DF
:10032000000094E5000050E30300000AE10000FA39
:10033000000094E5000050E3FD59001B8B0100FA1A
:100340000000A0E3115700FA120100FA0000A0E338
:10035000D20000FBD20000FA000094E5000050E358
:10036000C300001B330100FA640100FB000094E5A8
:10037000000050E30100000A300100FB7F5800FA42
:100380002D0100FB00000FE1BF0000E200F021E1C1
:10039000AD6100FA0000A0E31080BDE8FC1400B0DD
:1003A00010B500F0E3FB01F0CEEF16F06BF800F0B3
:1003B000B7FB002801D0012010BD17F009FC002078
:1003C00010BD10B5FFF7F8FE01F026FE0400042072
:1003D00014F0E8FB200001F023FE002010BD10B552
:1003E00017F062FA10BD30B59408002203E09300C4
:1003F000CD58521CC550A242F9D330BD93080022FB
:1004000010B502E09400521C01519A42FAD310BD7B
:100410004B2209481202002110B5FFF78B4001ACB6
:1004200001000000F80300A0000200003A8BDC8D00
:10043000EFFF03220B20520200210007FFF7E8FF25
:1004400000F016FA00F01EF8002010BD605E0004F7
:1004500070470000084810B50168084B0A000C31CD
:1004600008001960111D59601C2101F066EF044954
:10047000022017F08DFB10BD9C7800B0680600B01C
:10048000810801000F490E4810B508600F490E4859
:10049000086010490E48086010490F48086011496B
:1004A0000F4808601048802101F046EF0E48802177
:1004B000803001F042EF0D48802101F03EEF10BD89
:1004C000854C01008CA90004754C010090A9000422
:1004D000C14B010094A900044054890084A9000480
:1004E000A086010088A90004247D00B0247E00B00D
:1004F00010B5084C00206062DF200002E062064870
:10050000A06201210548490201F016EF0120606256
:10051000002010BDC09B00A800ADDEEFA47E00B09F
:1005200052484068C168524A1143C160704700B5E3
:10053000FFF7F6FF4D48406841680122520211431F
:1005400041604168D2001143416000BD090401438C
:10055000464840688161704744494968CA68120446
:10056000120C00040243CA607047404949684A6956
:10057000120C120402434A617047090401433B48CC
:100580004068C1637047394949684A68120A1202D3
:1005900002434A60704735484068016901221204ED
:1005A00011430161704731484068C0300168402202
:1005B00011430160704770472C484068C030416863
:1005C000372211434160704728484068FF3041306E
:1005D00041681D2291434160704724484068FF30C4
:1005E000413041681D221143416070471F484068F7
:1005F000FF304130416802229143416070471B48FF
:100600004068FF3041304168022211434160704729
:100610001648406880304168062291434160704727
:1006200012484068803041680622114336A85E1E99
:1006300001000000F40500A000020000237302FD89
:10064000416070470E4A52688032536A09011B0F9D
:100650001B0709090B435362116A4003C90CC90403
:10066000400B0143116210681F21090488430121D6
:100670000905401810601068490008431060704771
:10068000700600B08F0300000349032010B517F077
:1006900089FA002010BD00009D0103008DC08FE28B
:1006A0001CFF2FE1012109200007016000214160AA
:1006B000704776480121016000214160704774480D
:1006C000016B80221143016370477047714800B588
:1006D0000068002801D0FFF7F2FFFFF7EAFF00BD36
:1006E00010B56D4C04F024FEA04220D06B496C4B39
:1006F000084099690F22D2059143020752090A4323
:100700009A61674B403319683022914302400A4393
:100710001A60000A4107634A490F0429117001DD7C
:1007200004211170000702D510784042107010BDEE
:10073000FF2310B5C133202402F0CCFF052803D0DD
:1007400002F0C8FF012801D101235B02210018003B
:1007500014F06FFA10BD10B5534C207900280BD15E
:10076000012020712FF0A8FB062015F051FDC006D6
:10077000C00F60712FF0D2FA607910BD70B506001D
:10078000FFF7E9FF464D803D2C0D002811D02FF0DA
:1007900093FB8021262015F047FD2FF0BFFAA868B3
:1007A0002043A860414881682202114381600020F3
:1007B00003E0A868A043A860300015F01AFC70BDE3
:1007C00070B515F05BFC15F083FD13F01FFB7D2465
:1007D000E4010021200015F087FD0021200015F024
:1007E00089FD0021200015F021FE0021200015F0D8
:1007F00023FE2F4C0221200015F07CFD0221200059
:1008000015F01AFE0221200015F06EFD02212000D5
:1008100015F00CFE1F4D274C2868002804D02068D6
:100820000121C90588432060606823490840606051
:10083000E068172149020843E06015F03F27FF8C6C
:1008400001000000F00700A000020000D79BBC40A0
:1008500003FE2168C2061E4801D5014300E0814322
:100860006068606021602868002802D0B520FFF72A
:100870008FFF70BD7047704770477047704710B565
:1008800016F0E8F80D4C002802D016F0EDF801E063
:1008900016F0FCF8E06010BD0F490E480860704784
:1008A000003000A8400C0090FC1400B0FFFF0000D6
:1008B0003F0F000000290080700600B0800700B0E4
:1008C00040230080409C000000210080FF7FFF7FCC
:1008D00000000020B94C0100300A00B0F8B53048E3
:1008E00000680002000F082828D12E4C6069E5043A
:1008F0002843606160694000400860612068082604
:10090000304320602068EF12B84320604821452022
:1009100015F0B0FC0421482015F0ACFC20683043F1
:100920002060206838432060322014F0F5F96069B7
:10093000284360616069210508436061F8BD1A4879
:1009400010B5006800282AD02FF0C0FAFFF7C6FFC4
:100950002021192015F072FC0221162015F06EFCE2
:100960003721332015F086FC9421242015F082FCD9
:10097000262015F057FC800880000221084301065C
:10098000090E262015F076FC6621412015F072FC38
:100990002FF0CEF915F00CFB642014F0BDF910BD5A
:1009A0000020008000280080FC1400B0F8B5604CE6
:1009B000604D2068002813D018F052F8212804D385
:1009C0005D49C86B01221043C8630020C043286002
:1009D00068600CF009FA2068002801D015F042F98F
:1009E0005648016A490049080162554807210161DA
:1009F00005214161062181615249002088600B2058
:100A00005149000701221204036880188842FBD371
:100A10000020016880189042FBD301208006006806
:100A20004348006800287ED02FF050FA2FF080F95C
:100A30004048416B020D1143416301686F229143AD
:100A40000160C16889098901C1604048A6CF6B3641
:100A500001000000EC0900A0000200001082BE1D91
:100A6000416A702291434162816991438161816A47
:100A7000020C1143816215F0F9FC040080070DD5CA
:100A80003848C168090109D5C1680F221205914390
:100A9000C160C168072292051143C160304D032631
:100AA000314F2107803D36020F20002922DA6106EE
:100AB00010D4A00712D4386802218843386028690E
:100AC000B043286128698843286128690D210843BB
:100AD00028611FE0A10701D4610612D517F0CAFFF3
:100AE000212817D328693043286138680A218843B0
:100AF00038600FE0610601D4A10702D529693143AE
:100B000004E02969B14329612969014329613968F0
:100B100001433960A00605D40B49C8681922920325
:100B20009043C86007480068002809D008480121A0
:100B300049044162891C816200E001E00B49C16205
:100B40000020F8BDFC1400B000210080402A008085
:100B5000C0900090000800A800230080000001B0B1
:100B600000290080802F0080802700800202020080
:100B700000B50D49002087B00860020001001E206A
:100B800003AB07C302000948FF21491C6B4607C39A
:100B9000A838074A002307A101F000EC0006000E68
:100BA00000D0012007B000BD0C0800B0FC8100B0EF
:100BB0007548000049646C650000000010B500F045
:100BC000DFFA0FF0F1F917F0BBFB17F047FB17F056
:100BD00089FB10BD11483C2110B501F0CCEB0F484A
:100BE000104A42600E49104A016082608161002112
:100BF000016201630D4A4163C262816300F072FBCE
:100C00000B4C0C48EE22210001F0CCEB09480A4BBA
:100C10000422210001F0CAEB10BD0000000000B06A
:100C2000812F0000712D00003132000029D7000013
:100C3000DC050000682103005FF2F303F8B5A84D5E
:100C400028680C2188432860A64CE068A10C084362
:100C5000E060E068072149020843E06019899E2CA2
:100C600001000000E80B00A000020000E46A00A000
:100C7000E068012109060843E060E068800980011E
:100C8000E060E06809148843E060E0680901884397
:100C9000E060E0684F03B843E060E0680721C90600
:100CA0008843E060E068F9100843E06020689349F9
:100CB000084320607D200021400215F033FB7D2693
:100CC000F6010021300015F0CFFB0021300015F0B7
:100CD0002FFB0021300015F0CDFB8949086A102652
:100CE0003043086228680C218843286068686105E1
:100CF0008843686015F036FCA868E1040843A860E2
:100D00002869032109068843286128693843286136
:100D10007C49486800204860486819221206104340
:100D2000486078488030036840229343036003683A
:100D30000F273F02BB430360036803277F023B4347
:100D4000036003680F273F03BB4303600368032767
:100D50007F033B43036003681B091B0103600368B7
:100D600006273B4303602868104328602868302327
:100D70009843286028683043286008680123184396
:100D800008600868B8430860E068090D0843E0603F
:100D9000A06A1043A062180015F05AFD5648803032
:100DA0008168594A114081608168D2431143816052
:100DB000012013F0C5FFF8BD10B50EF049FF5349EF
:100DC000088053485349000C0004086053495248B6
:100DD00008605449524808605449534808605549CE
:100DE00053480860554954480860564954480860BB
:100DF000564955480860574955480860574956486C
:100E00000860584956480860584957480860594989
:100E1000574808605949584808605A495848086076
:100E20005A49594808605B49594808605B495A4823
:100E300008605C495A4808605C495B4808605D4945
:100E40005B4808605D495C4808605E495C48086032
:100E50005D485E4908605F495D4808605F495E48DB
:100E6000086060495E48086060495F488DE18C4DCC
:100E700001000000E40D00A000020000FD92DED0A1
:100E8000086061495F48086061496048086010BDBA
:100E900010B502F047FC5F494000085A5E490860FF
:100EA00000F076FAFFF7DEFE00F004FBFF225B495C
:100EB00019321C2001F092EAFFF788FF5849E1201F
:100EC000400208602DF014FF5549042207202DF040
:100ED000D1FF544800210A0006C0524A52495348E3
:100EE000534B01F080EA00F061FA00F0B1F900F034
:100EF000A1F8002010BD10B500F068FA00F03CFB2E
:100F000000F0AAF9002010BD002F00800021008011
:100F100000081C000028008080260080FEFFFFFBE8
:100F200040AD0004A41E00B034AF000447D9000057
:100F3000D8A90004D5750000C8A9000415760000E2
:100F4000CCA9000427760000D4A900042D76000067
:100F5000D0A9000441DE000018AB0004E1D9000074
:100F60001CAB0004C5D9000020AB000449D9000027
:100F700024AB00045D58000054B000047558000014
:100F800058B00004895800005CB0000461440000BF
:100F900050B0000409DD000028AB0004B1DC000003
:100FA0002CAB000443DE000038AB000457DE000029
:100FB0003CAB00045BDE000040AB000429DD000018
:100FC00008AB000409DE00001CB50004B5C0000039
:100FD00018AA0004E769010030AB0004E5690100CC
:100FE00034AB000431C0000010AA0004E1BF0000CF
:100FF00014AA000455C200000CAA000499C3000002
:1010000008AA000491FE000000AB000449FE0000A5
:1010100004AB000418050300E8A900042838000404
:10102000F0A90004180800B0B81B0000701C0004F0
:10103000440603000449034810B54860080016F050
:10104000EDFD10BD010801003C0800B01149104839
:101050000860124910480860124911480860134995
:101060001148086013491248086014491248086082
:10107000144913480860154913480860A6EB660F29
:1010800001000000E00F00A000020000097A606D7E
:10109000154914480860164914480860164915484F
:1010A00008607047B1C10000CCB3000405C1000066
:1010B000BCB300043DC10000C0B3000449C100003E
:1010C000C4B3000475C10000C8B300040DC2000021
:1010D000DCB3000429C20000E0B30004B5C1000085
:1010E000D0B30004D1C10000D4B3000441C2000059
:1010F000E4B30004F9C10000D8B3000410B5012422
:10110000A4021F48EE22210086B001F06AE928F00F
:1011100057FC012200210C2003AB07C30200184832
:1011200002920090174A0019002317A1019401F0C0
:1011300054E900281DD1194815A101F062E91848A9
:101140001A4A4168174881601749016100214161CD
:101150008261174AC161026241621649816201F0EF
:1011600054E9002805D1144911202DF02FFC002846
:1011700002D0012006B010BD00F0FEFC0020F9E70F
:10118000E840000495FC01004E66635461736B00F7
:101190004E6663466C616773000000009045000472
:1011A000B80800B0149600B0AF8F02005DA2020034
:1011B00069D2020049640200997F0100F8B516F077
:1011C0008DFA204D204E002427002049A0000F500A
:1011D0000C39095830206043801902000832B2C22D
:1011E000002C8761C76101D11949316219498762B1
:1011F000416201F00AE9154901200F390855641CC4
:101200002406240E012CE0D30F484C1E142130304C
:10121000A76001F0CEE81048C068002809D0411C42
:1012200007D00E49020C0A72020E4A728872000A36
:10123000C8720B48C079800602D50120E060F8BD75
:10124000E760F8BDDD030300609800B0FC0800B063
:10125000CD06010049030300001500C0414000C055
:101260005D4000C0064900200880704706490548D7
:101270000860074905480860074906480860704744
:10128000C49800B0D14901002CBB0004162F69504E
:1012900001000000DC1100A0000200007761C7DD42
:1012A000A149010028BB00041D49010024BB000422
:1012B00010B500F001FF1B4C6060A168002904D04C
:1012C000491CA16000F0FCFE10BD0021012013F0BC
:1012D0000FFDA068401CA0600020C04320610020DA
:1012E000E06011480168820B1143016010490F480A
:1012F0000880091F088004F011FA10BD10B5094CD0
:10130000A068012802D9401EA06010BD04F0EAF9CF
:101310000020A060012013F095FC606800F0D0FE72
:1013200010BD0000201B00C000210080FFFF000056
:10133000500600900F490E48086010490E4808609A
:1013400010490F48086011490F4889680860114921
:101350000F48086011491048086012491048086099
:10136000124911480860134911480860704700008D
:1013700039910000ECB6000451910000F0B6000471
:10138000E58D0000E0B60004600E00A9380A00B048
:10139000859200002CB700045D91000000B70004A6
:1013A0007591000008B700044592000020B70004C2
:1013B000081000A9A4B0000470B500240B4D04E08F
:1013C000401940682DF00CFB641CE00029580029EE
:1013D000F6D170BD064881680122D20511438160B3
:1013E000816810221143816070470000580A00B0E4
:1013F000009000A81149104810B508601149104824
:101400000860124910480860124911480860FFF747
:1014100031FE00F0CDFB00F02FFC10490E480860B3
:1014200010490F48086000F0FEEF10490E480860B0
:101430000F490120087010BD3B01010050B40004A9
:101440003101010048B40004390101004CB400042A
:10145000956600004CB30004C1C3000068B70004E7
:10146000BDC600006CB7000451BC0000E8BA00041F
:1014700068AE0004F7B5012082B00D000190088825
:1014800046082EF001FD710002980F0014F062FC76
:10149000012409E0029A6000295A80189C5CBB3C38
:1014A00001000000D81300A00002000083897960C9
:1014B000801E0004000C14F057FC641CB442F3DDE1
:1014C00078194188029814F04FFC2EF04DFC2EF054
:1014D0000FFD492014F044FC04990842F9D000069D
:1014E00001D5002001902EF04FFC019805B0F0BD11
:1014F0002B4970B548680E0C304348602EF0F8FC5C
:10150000092014F02DFC0C210143092014F030FCBB
:10151000152014F025FCBF210140152014F028FCF3
:101520004A2014F01DFC0621050001434A2014F056
:101530001FFC0024472014F013FC641C0A2CF9DB68
:101540002900F92001404A2014F012FC492014F02F
:1015500007FC10210143492014F00AFC002014F07C
:10156000FFFB10490870012014F0FAFB0E490870C7
:101570002EF00AFC0D4920223000FFF785FF0028DD
:1015800007D01F200A494022C002FFF77DFF002834
:1015900000D1FEE700F0F2FA012014F0EDFB70BD7F
:1015A000402300809D0000049E000004A41E00B0A3
:1015B000441500B070B50025A549A4480860A649A7
:1015C000A4480860A649A5480860A749A54808603E
:1015D000A749A6480860A849A6480860A849A7489E
:1015E0000860A949A7480860A949A8480860AA490D
:1015F000A8480860AA4CA948E064AB49E062A94841
:101600000860AB49A9480860AB49AA480860AC49E2
:10161000AA480860AC49AB480860AD49AB480860CF
:10162000AD49AC480860AE49AC480860AE49AD4829
:101630000860AE48AF498571AD480860AE490120E9
:101640008877AF49AD480860AE48AF490860B049F7
:10165000AE480860B049AF480860B149AF4808607B
:10166000B149B0480860B249B0480860B249B148D1
:101670000860B349B1480860B349B2480860B4494A
:10168000B2480860B449B3480860B549B348086037
:10169000B549B4480860B5482061B6492062B448ED
:1016A0000860B548B6494576B448086014C08E094C
:1016B00001000000D41500A0000200009A71A710DC
:1016C000B649B5480860B749B5480860B749B64853
:1016D0000860B849B6480860B74905200870B8499D
:1016E000B648086017F002FA212802D2B649B54878
:1016F0000860B749B5480860B749B6480860B849B6
:10170000B6480860B849B7480860B949B7480860A2
:10171000B949B8480860B949B94815F0FFFFB94858
:10172000BA49A062B8480860B948BB496063B94883
:101730000860BB49B9480860BB49BA480860BC4961
:10174000BA480860BC49BB480860BC48BD496065F0
:10175000BB480860BD49BC480860BE49BC48086039
:10176000BE48BD490162BE49BF4A4162BD491160E0
:10177000BF4ABE491160C04ABE491160C04ABF4954
:101780001160C14ABF491160C14AC0491160C24AD3
:10179000C0491160C24AC1491160C34AC1491160C0
:1017A000C34AC2491160C44AC2491160C44AC3490C
:1017B0001160C449C44A1160C54AC4491160C64A8F
:1017C000C4491160C64AC5491160C74AC54911607C
:1017D000C74AC6491160C7498160C749C84AC16143
:1017E000C6491160C7496161C84A6162C649116052
:1017F000C84AC7491160C94AC7491160C94AC8499E
:101800001160CA4AC8491160CA4AC9491160CA4927
:10181000CB4A0D70C9491160CB4ACA491160CC4A04
:10182000CA491160CC4ACB491160CD4ACB491160FD
:101830002049CC4A8031CA60CB49A165CC4AA1631A
:10184000CA491160CC4ACB491160CC490160CC49EE
:101850004160CD49CB480860CC48A06470BD000011
:10186000D9AE000070BB0004915F000078B20004A4
:101870009D9B0000D4B90004D98D000060B700041E
:10188000D18D00005CB70004F19800007CB9000421
:1018900091AD000000BB0004059C0000D8B9000415
:1018A0005D97000038B90004C57F000054B50004FE
:1018B000ED790000B4AF000489A30000620FE7A037
:1018C00001000000D01700A0000200006E9919ADC1
:1018D000F8B9000401AE00006CBB0004117C0000EC
:1018E00040B50004C586000090B60004FD5C000011
:1018F000F0B100048D960000FCB70004A99A000026
:10190000ACB90004E56D000010B50004059A0000B4
:1019100080B9000440AD0004856700005CB300049A
:1019200040AA00041594000094B70004BD93000081
:1019300090B70004F19400009CB70004F1920000FD
:101940008CB700049967000038B60004816100007C
:10195000D4B200048169000080B300044D6D000022
:10196000A0B4000471AA000098BA0004E19A000033
:10197000C8B90004ED5F000088B20004559B000068
:10198000CCB9000479630000E0B20004AD7200003D
:10199000A8B50004E58A0000E98B0000A8B60004A1
:1019A00038200300498A0000A0B600047D7C0000B6
:1019B00054B6000475BE000088BB0004B592000058
:1019C000A8AA0004215C0000ECB1000465AA000490
:1019D000E9B00000D0B900046D64000004B3000455
:1019E00059A400005CBA0004656D0000A8B40004AE
:1019F000C9720000ACB5000431720000A0B500044B
:101A0000117100007CB50004F7AF000068B9000454
:101A100001D148280C9BF303BD760000F58100003E
:101A200060B6000481760000A9BC00004CB9000437
:101A3000B996000060B8000441A5000064BA000433
:101A400085AA0000E4BA000435730000BCB50004A8
:101A5000917A0000AD6700006CB30004E9B40000A7
:101A6000E4B90004FDB40000F4B9000413690000F7
:101A700054AD000409690000056F00004CB6000475
:101A8000D5B00000A8B90004E9B6000084BA00048B
:101A9000715F000000B2000411970000F0B800046C
:101AA000B9A3000048BA0004B5B40000DCB90004D2
:101AB000F1950000E8B7000449AD0000FCBA00044D
:101AC000F583000088B60004C9640000790A86D551
:101AD00001000000CC1900A000020000A9801BF04A
:101AE00014B30004157F000058B60004C58100003F
:101AF0005CB60004CD730000CCB500049D730000FB
:101B0000C0B50004D9740000ECB50004A98200003F
:101B10006CB600043966000028B300044966000072
:101B2000C56700002D740000D8B50004F58C0000D6
:101B30006570000068B600049D83000084B6000450
:101B40002988000094B60004998600008CB6000431
:101B50002163000058AC000435B0000078B90004DF
:101B600090AD0004B5AF0000D0B700048183000041
:101B700078B600049582000064B60004B56D0000DC
:101B8000C8B40004B56C00006CB40004497A0000CD
:101B9000BD890000D9BD000078BB0004096C0000BD
:101BA00044B400046D6B0000396B000065670000F1
:101BB00058B3000435760000054810B500781028A9
:101BC00004D1044904484C222EF050FB10BD000003
:101BD0009E000004AA000004DA010004054806493A
:101BE00010B50078097800F08DF804480068804747
:101BF00010BD0000004000AA004000AAE801000457
:101C000016491548086017491548086017491648CD
:101C100008601849164808601849174808601949AB
:101C2000174808601949184808601A491848086098
:101C30001A49194808601B49194808601B491A4885
:101C400008601C491A4808601C491B4808601D4967
:101C50001B48086070470000016A000000B40004DF
:101C6000D9690000F8B30004ED690000FCB300047A
:101C7000B56A000004B40004E16A000014B4000472
:101C8000FD6A000018B40004116B00001CB40004CD
:101C9000CD6A000010B40004D1BE000008B40004F6
:101CA000BD6A00000CB40004C5690000F4B3000470
:101CB000B1690000F0B30004A5BE000094BB0004AD
:101CC00061DE000090BB000407490648086008492F
:101CD0000648086008490748086009493D16C37E60
:101CE00001000000C81B00A0000200005D68A54DB7
:101CF000074808607047000005370000F4B1000491
:101D00000175000000B600040F75000004B6000461
:101D1000F9740000FCB50004064808B5026800929A
:101D2000054A0649130008000C386C3300F0B0EB8C
:101D300008BD00007800000438D000B0281300B0BF
:101D4000203052E20400005A203062E23002A0E16A
:101D5000110380E13112A0E11EFF2FE13103A0E168
:101D60000010A0E31EFF2FE1194930B417220A60CA
:101D700036224A60174A184C0021030C8D001B18AC
:101D80005351164B491C584300193729F5DB30BC19
:101D900070470120E8E770B40D4C0E4D6068216873
:101DA00083008E00EA58AE59491E401E9219EA502F
:101DB00036230029216002DA2360606003E00028F6
:101DC000606000DA6360500070BC4008704700003B
:101DD000F41400B030AD00B0E119D666CD0D0100AD
:101DE00010B4042A0ED303000B439B070AD108C882
:101DF00010C9A34202D1121F042AF8D2A34201D073
:101E0000001F091F002A02D1002010BC7047D30711
:101E100001D0521C05E003780C78401C491CA342F9
:101E200007D103780C78401C491CA34201D1921EB3
:101E3000F1D1181BE9E700000000A0E1230000EB4E
:101E400003002DE9830000EB0300BDE84B0000FA1E
:101E50000F002DE9820000EB0F00BDE81CC09FE5DC
:101E60000FC08CE001001CE30DE08F120FE0A00119
:101E70001CFF2FE101C08FE21CFF2FE100F01CF8D6
:101E80009964010001402DE90000A0E16A0000FA18
:101E90000140BDE8000000EA0000E0E30000A0E12E
:101EA0000C109FE51800A0E3563412EF1EFF2FE13F
:101EB000C40100002600020010B5C046C046040060
:101EC000C046C0462000FFF7DEEF10BC08BC184734
:101ED0000E40A0E1670000EB04E0A0E101402DE925
:101EE0007C0000EB0040A0E10140BDE8C8CA36110B
:101EF00001000000C41D00A00002000044907B3DD2
:101F000013402DE90100A0E3121DA0E3081084E5B1
:101F1000000084E51340BDE80010A0E1040084E562
:101F20000EF0A0E110402DE903002DE96E0000EB5A
:101F30000040A0E10300BDE8042094E50D30A0E1DD
:101F400000E082E003005EE1002081E50B00008AF2
:101F50000E3093E0011A8EE26330A0E1071081E2B7
:101F60000730C3E30710C1E3030051E10310A08170
:101F7000041084E51040BDE8020041E01EFF2FE19F
:101F80000020A0E10000A0E30000A0E11040BDE8B7
:101F90001EFF2FE1F0B585B0C046C04605000C001D
:101FA0002EF02EEB002001950294C046C04603900F
:101FB00001A8FEF730E9040001A80D00009303C852
:101FC0001600C046C046C046C046FFF7ECFE0021E2
:101FD0000800C046C046070000F090E804900021C9
:101FE00007600800C046C046411C049841600021BB
:101FF0000800C046C0460100049881600021080026
:10200000C046C04601000498C16000210800C046D7
:10201000C046010004980161C046C046C046C046A3
:10202000C046C046C046C046C046C046C046C04680
:10203000C046C046C046C046C046C046009B05B02C
:102040002000049C29003200A646F0BC01B0704775
:1020500010B5C046C0460020C046C046C046C04677
:10206000C046C04610BC08BC184700000000E0E3B2
:102070000210E0E31EFF2FE110402DE90000A0E177
:102080001040BDE81EFF2FE11EFF2FE10E50A0E122
:102090001F0000EB05E0A0E10050A0E10700C0E355
:1020A0000D10A0E10A30A0E100D0A0E160D08DE2E7
:1020B00020402DE9C92F00FA2040BDE80060A0E3D0
:1020C0000070A0E30080A0E300B0A0E30710C1E32C
:1020D00005C0A0E1C009ACE8C009ACE8C009ACE8A3
:1020E000C009ACE801D0A0E11EFF2FE104009FE58C
:1020F0001EFF2FE11EFF2FE11CAE00B00DA66940B0
:1021000001000000C01F00A000020000B078C580E0
:1021100004009FE51EFF2FE11EFF2FE12CAE00B053
:1021200010B410BC7047000000009FE51EFF2FE1B7
:102130000CAE00B004009FE51EFF2FE11EFF2FE153
:1021400010AE00B010B500F0BCE910BD802810B58D
:1021500002D100F0B6E910BD00F0B6E910BD10B52F
:10216000040000F0B6E9206010BD0F4870B50468A7
:102170000E4EA10706D500210161F26C01209047A7
:102180000220844300250AE0E00706D0A800325868
:10219000002A02D021002800904764086D1C002C02
:1021A000F2D1002070BD0000009000A84427030079
:1021B000913082E00300A0E10210A0E11EFF2FE1B8
:1021C00000A0004734129FE5F8219FE5DB00A0E363
:1021D00000F021E1021081E00310C1E3041041E2AC
:1021E00001D0A0E100A0A0E300B0A0E3D8219FE5CA
:1021F000D200A0E300F021E1021081E00310C1E36E
:10220000041041E201D0A0E1D300A0E300F021E1FD
:10221000AC319FE5001083E5A4119FE5000091E536
:10222000040080E2A8219FE5000082E5D0219FE51F
:10223000D0019FE52C0082E50700A0E3300082E595
:102240000900A0E3000082E50B10A0E3101082E576
:102250000130A0E3243082E5283082E5A8219FE503
:102260001030A0E3083082E51EFF2FE10EF0B0E150
:10227000FF402DE900004FE101002DE98C119FE5A1
:10228000002091E51F2002E284319FE5823193E72F
:102290000FE0A0E113FF2FE174019FE50810A0E318
:1022A000920102E00410A0E3012082E0021090E716
:1022B00024209DE5012082E024208DE50100BDE879
:1022C00000F069E1FF80FDE8FEFFFFEAFEFFFFEAA4
:1022D000FEFFFFEA7F0000EAFFF747FF4E48004796
:1022E000F346FFF7FDFF00002C019FE50010E0E33F
:1022F000001080E5001090E520019FE5100F01EE31
:102300001CF19FE5900F07EE1EFF2FE185F02AFCE0
:1023100001000000BC2100A000020000B8A7345D4D
:10232000F8009FE50010E0E30C1080E5EC009FE56D
:1023300004119FE5081080E500019FE5001090E57D
:10234000081081E3001080E5001090E5081011E20C
:10235000FCFFFF0A900F07EE1EFF2FE1100F11EE9A
:102360001EFF2FE1100F01EE1EFF2FE1010050E2D2
:10237000FDFFFF1A1EFF2FE1C4109FE5A520A0E37B
:102380000000A0E3040081E4012052E2FCFFFF1AF8
:10239000B0009FE5B0109FE5001080E5AC009FE520
:1023A000AC109FE5001080E5A8009FE5A8109FE510
:1023B000001080E51EFF2FE100000FE11F0000E28A
:1023C000120050E30100A0030000A0131EFF2FE144
:1023D000100F6FE11EFF2FE1ACBD000410000000E4
:1023E00000040000E00300009CBD000401C05EE5A5
:1023F0000C0053E10330DE370C30DE2783C08EE063
:102400001CFF2FE13F96A0E319FF2FE14C909FE5C1
:1024100019FF2FE1C4270300009400A83F1F00000C
:10242000009000A8B0380080A47E00B00016F00331
:10243000002100807C1700004400000002004000E2
:10244000C42000806CBD0004F4BD000471200000B5
:10245000F8BD000449010300FCBD0004892100000F
:102460000000FFFF04F01FE54038F40304F01FE50F
:10247000D03AF40304F01FE52C33F40304F01FE515
:102480003041F40304F01FE5015EF00304F01FE5A2
:102490007D46F00304F01FE5F836F40304F01FE571
:1024A00087F2F30304F01FE5FD7DF00304F01FE560
:1024B000DB80F00304F01FE5A131F00304F01FE519
:1024C000D573F00304F01FE57D93F00304F01FE5DE
:1024D000015FF00304F01FE58C17F00304F01FE523
:1024E000A017F00304F01FE5114DF00304F01FE501
:1024F0001817F00304F01FE5EB0BF40304F01FE5DD
:10250000B50CF40304F01FE5DB0CF40304F01FE545
:10251000830CF40304F01FE5AF0BF40306FD0A7807
:1025200001000000B82300A0000200004C4F8AE028
:1025300004F01FE5A141F40304F01FE50375F00367
:1025400004F01FE57905F40304F01FE56542F40388
:1025500004F01FE53D42F40304F01FE59438F40352
:1025600004F01FE54708F40304F01FE5FB07F4033C
:1025700004F01FE52108F40304F01FE5FB08F40351
:1025800004F01FE5D907F40304F01FE50837F4034E
:1025900004F01FE59F5FF00304F01FE51998F003B6
:1025A00004F01FE583ECF30304F01FE567ECF3038D
:1025B00004F01FE5457EF00304F01FE5637EF003A1
:1025C00004F01FE555ECF30304F01FE50FDBF00307
:1025D00004F01FE559ABF00304F01FE5039CF00382
:1025E00004F01FE54D41F40304F01FE537ACF003A0
:1025F00004F01FE50BAAF00304F01FE5E43AF4032E
:1026000004F01FE54B7EF00304F01FE5939FF003F9
:1026100004F01FE5558CF30304F01FE5E99CF30378
:1026200004F01FE541C5F00304F01FE541C3F003CA
:1026300004F01FE5E58BF30304F01FE54BADF30356
:1026400004F01FE54DADF30304F01FE57B8CF303AD
:1026500004F01FE5CDA1F00304F01FE58532F0037F
:1026600004F01FE5A533F00304F01FE55C39F40323
:1026700004F01FE5D764F10304F01FE51F9EF30388
:1026800004F01FE54FA1F30304F01FE5174DF2031B
:1026900004F01FE50D80F00304F01FE52580F00332
:1026A00004F01FE5038CF30304F01FE5CD8BF30367
:1026B00004F01FE5976AF20304F01FE51970F203B6
:1026C00004F01FE51F6AF20304F01FE5550BF30346
:1026D00004F01FE5FD56F30304F01FE5970BF30329
:1026E00004F01FE58B0BF30304F01FE5650BF30308
:1026F00004F01FE56DD9F20304F01FE54149F4032E
:1027000004F01FE543A4F30304F01FE5A119F0034F
:1027100004F01FE5997AF00304F01FE533C5F303D5
:1027200004F01FE5D128F20304F01FE5D429B4A07A
:1027300001000000B42500A00002000055B754902D
:10274000E9D9F00304F01FE5BFB3F20304F01FE57D
:10275000DB24F10304F01FE515ACF00304F01FE5E2
:102760000D4AF10304F01FE5C148F40304F01FE52E
:102770000BB8F00304F01FE5C3ABF00304F01FE552
:1027800071CFF00304F01FE5F543F40304F01FE5F7
:1027900085B9F20304F01FE5ABB9F20304F01FE5BD
:1027A000CB1BF30304F01FE51DF8F10304F01FE554
:1027B000D3C0F20304F01FE57FBAF20304F01FE573
:1027C0001B69F10304F01FE595BAF20304F01FE55D
:1027D0009FC3F20304F01FE5DC37F40304F01FE5A8
:1027E0005DD1F10304F01FE58353F10304F01FE50D
:1027F00035B5F20304F01FE54927F20304F01FE5A5
:102800000118F20304F01FE5A114F20304F01FE520
:102810007543F20304F01FE51D4FF20304F01FE5BA
:102820002553F20304F01FE54150F20304F01FE5C5
:10283000EF39F10304F01FE5D9A5F20304F01FE519
:10284000F797F20304F01FE5F187F20304F01FE5A8
:102850009584F00304F01FE5EB86F00304F01FE518
:102860002186F20304F01FE5BB6CF20304F01FE5C0
:1028700013AAF20304F01FE59F76F20304F01FE5AC
:102880002D8CF20304F01FE54F89F20304F01FE5DD
:1028900011ACF20304F01FE5F38CF20304F01FE522
:1028A0009DB3F20304F01FE5C5B9F20304F01FE580
:1028B0000D8CF30304F01FE52384F00304F01FE5FF
:1028C0007371F20304F01FE505FEF20304F01FE547
:1028D0000FA4F30304F01FE57152F30304F01FE5A6
:1028E0009913F30304F01FE565D0F00304F01FE52E
:1028F000412AF30304F01FE55B34F30304F01FE502
:10290000B34DF30304F01FE5AB48F30304F01FE5F8
:102910009D5EF30304F01FE5F384F30304F01FE569
:10292000D79EF30304F01FE5539CF30304F01FE567
:10293000DFB6F20304F01FE585A2F303D0CFF8FF62
:1029400001000000B02700A000020000A15FEA2DF6
:1029500004F01FE59FA3F30304F01FE587CBF30307
:1029600004F01FE565DEF30304F01FE53DE2F30329
:1029700004F01FE5CBC6F30304F01FE5DFC0F3034B
:1029800004F01FE573C4F30304F01FE50DDDF3034A
:1029900004F01FE5A7E2F30304F01FE50B0AF303BD
:1029A00004F01FE5B9DDF30304F01FE5FFDAF303DC
:1029B00004F01FE509A4F30304F01FE50BE3F303A0
:1029C00004F01FE51FDBF00304F01FE595ABF003F7
:1029D00004F01FE56FBEF30304F01FE5C9ADF30378
:1029E00004F01FE5D35BF20304F01FE57BA4F303BF
:1029F00004F01FE545C4F30304F01FE549B9F303F0
:102A000004F01FE58FC0F30304F01FE5C9BEF30314
:102A100004F01FE521ACF30304F01FE5C7EBF3035B
:102A200004F01FE5590BF30304F01FE5DFA7F303E0
:102A300004F01FE523CFF30304F01FE52BD8F303C5
:102A400004F01FE5C7D8F30304F01FE54DCDF303F1
:102A500004F01FE5BBC3F30304F01FE549E0F203F4
:102A600004F01FE53BA5F30304F01FE5D9D1F30300
:102A700004F01FE5A5DEF20304F01FE535E0F203E4
:102A800004F01FE5B1DEF20304F01FE517DFF203E7
:102A900004F01FE521A1F30304F01FE5054FF20345
:102AA00004F01FE531A1F30304F01FE553BAF3036B
:102AB00004F01FE5E7B2F30304F01FE521B2F303CE
:102AC00004F01FE535B4F30304F01FE5D5B5F303B7
:102AD00004F01FE539A7F30304F01FE50923F10310
:102AE00004F01FE52312F20304F01FE5BF69F203AF
:102AF00004F01FE54134F10304F01FE58169F2039E
:102B000004F01FE5E111F20304F01FE5E5BCF20358
:102B100004F01FE5293CF10304F01FE59F69F2036F
:102B200004F01FE52731F10304F01FE5258BF103C5
:102B300004F01FE5558CF10304F01FE501C4F10317
:102B400004F01FE51B0FF20304F01FE557C65A837C
:102B500001000000AC2900A0000200006646E870F9
:102B600047DEF10304F01FE5170FF20304F01FE541
:102B7000210FF20304F01FE5FB0EF20304F01FE542
:102B800063BCF10304F01FE54341F10304F01FE5CA
:102B9000E913F30304F01FE50D69F10304F01FE5E9
:102BA000699DF20304F01FE5759AF20304F01FE536
:102BB000D97AF20304F01FE52582F20304F01FE541
:102BC0006770F20304F01FE5296DF20304F01FE5BE
:102BD000BD7FF20304F01FE53911F20304F01FE595
:102BE000DDA5F20304F01FE53195F20304F01FE5C3
:102BF0000B0FF20304F01FE5110FF20304F01FE5C1
:102C0000FD1BF30304F01FE50F6DF20304F01FE555
:102C1000CD5FF10304F01FE58F84F00304F01FE59E
:102C20003B97F30304F01FE54B8EF30304F01FE51D
:102C3000EF9CF00304F01FE5C933F10304F01FE536
:102C4000FD36F10304F01FE5FDF3F10304F01FE589
:102C5000711BF20304F01FE51919F10304F01FE5DD
:102C60006581F10304F01FE5251CF20304F01FE564
:102C7000C546F20304F01FE5C971F20304F01FE535
:102C80004D11F20304F01FE5259DF20304F01FE54A
:102C9000A571F20304F01FE5A3A2F20304F01FE5FF
:102CA000E583F20304F01FE5398EF20304F01FE51B
:102CB000578BF20304F01FE525C6F30304F01FE56C
:102CC000B5B7F30304F01FE5A9A1F30304F01FE572
:102CD0002380F30304F01FE511EFF10304F01FE577
:102CE0003B85F00304F01FE5E784F00304F01FE5E3
:102CF000EDA3F00304F01FE5EF9FF00304F01FE5E0
:102D00008D9AF00304F01FE59D9AF00304F01FE58F
:102D1000639AF00304F01FE5EB88F00304F01FE56D
:102D20008513F40304F01FE58D9BF00304F01FE509
:102D30003C39F40304F01FE5350FF40304F01FE5FC
:102D40007B11F40304F01FE5556BF00304F01FE55D
:102D5000CB74F00304F01FE56B74F003D692B9DF77
:102D600001000000A82B00A00002000092AE56CD8A
:102D700004F01FE55D11F40304F01FE5E10EF40318
:102D800004F01FE56D6BF00304F01FE5EB74F00336
:102D900004F01FE5736FF00304F01FE5A76EF00366
:102DA00004F01FE5690EF40304F01FE5190FF403A6
:102DB00004F01FE5FF0EF40304F01FE55B75F0035C
:102DC00004F01FE5ED75F20304F01FE54780F00302
:102DD00004F01FE5EF96F00304F01FE56575F003BE
:102DE00004F01FE5C83AF40304F01FE5B742F4030A
:102DF00004F01FE55542F40304F01FE5F582F103EA
:102E000004F01FE5DF15F20304F01FE5EDA6F00363
:102E100004F01FE5D999F00304F01FE5FBDEF3038E
:102E200004F01FE575DFF30304F01FE5BDB5F20301
:102E300004F01FE50F9AF00304F01FE5319AF00348
:102E400004F01FE5BD7EF00304F01FE5CF9AF00308
:102E500004F01FE5B79CF00304F01FE5BB9EF003F0
:102E600004F01FE5C19DF00304F01FE56B9DF00326
:102E700004F01FE5459EF00304F01FE5019BF003FD
:102E800004F01FE52B9CF00304F01FE51B99F003F1
:102E900004F01FE59398F00304F01FE50D4AF003DA
:102EA00004F01FE5AD35F00304F01FE5F5B5F203BE
:102EB00004F01FE56571F20304F01FE55F92F20371
:102EC00004F01FE58186F00304F01FE54987F00355
:102ED00004F01FE54733F20304F01FE5F947F00360
:102EE00004F01FE5DD79F00304F01FE56179F003DC
:102EF00004F01FE50D79F00304F01FE5FF78F003FF
:102F000004F01FE53394F00304F01FE5A98FF003EC
:102F100004F01FE5BF92F00304F01FE5D58FF00326
:102F200004F01FE58995F00304F01FE5A817F003EE
:102F300004F01FE5B70EF40370B504000800002587
:102F4000E20704D0FFF708EB124911480860124865
:102F50000078012819D1200702D500F01FF80500DC
:102F6000600602D5FFF7FCEA05002006715BD7304A
:102F700001000000A42D00A0000200008B5688BDB7
:102F800002D5FFF7FCEA0500A00502D500F06AF8BB
:102F900005006007800F02D0FFF7F4EA0500280063
:102FA00070BD0000394A010064B700046CB0000431
:102FB0007FB525480078002843D1FFF7E8EA0022D2
:102FC0002248D2430021FFF7E6EA214E1F2230605B
:102FD0000189520308181F49000C009008681E4D13
:102FE00090430F225203801808600A00A869252127
:102FF000FFF7D4EA686925216A46FFF7D0EA154A47
:10300000A8692621FFF7CAEA144A68692621FFF752
:10301000C6EA134CE080306800892081FFF7C2EADD
:1030200060814004000C0021A08121806180316812
:103030000A89019051180391A8692C2101AAFFF770
:10304000AEEA002004B070BD88B00004A00800B053
:1030500078B00004500000B0AC0000B05C0000B0DC
:10306000B00100B0FEB50024334E344D272168690D
:1030700001AAFFF794EA0198641CC00701D0B4428A
:10308000F4D32F4C2F4E2088002822D130680027FF
:10309000002803D02C490968884737602B48FFF780
:1030A00086EA002830600FD001890A182849521E8C
:1030B00089788A1812781207120F22806780E780B9
:1030C00000894018A0800DE022490868401C086073
:1030D00008E068692D216A46FFF760EAE0880099F8
:1030E0004018E080E1891C480429218902D16289C5
:1030F0008918FFE7026811812188002913D001682F
:1031000032680A60A088E28805238018326810813E
:1031100068690122FFF74EEA6088401C60802088C1
:10312000401E208005E00068018908186189FFF7CA
:1031300046EA0020FEBD0000FFFF0000AC0000B02A
:10314000B00100B07CB0000484B000043C0000B0CA
:10315000680000B090B0000478B0000470B50400BE
:103160001A4D0020E20708D06868002802D1194AE9
:10317000174810600800FFF726EA174925EE5CFFA4
:1031800001000000A02F00A0000200007FBE36005A
:10319000097801291AD1210704D51548007800289B
:1031A00015D00020610604D5124900200860FFF701
:1031B00018EA210601D5FFF718EAE10501D500F06C
:1031C00071F86107890F01D0FFF712EA70BDFFF7B0
:1031D00014EA68680028E4D100F00EF8E1E7000086
:1031E000AC0000B0394A010064B700046CB00004C0
:1031F00088B00004340A00B07FB50022D243002119
:103200002048FFF7D2E9204E204D30600189204A46
:103210000818000C0090E8682521FFF7CAE9286922
:1032200025216A46FFF7C4E9194AE8682621FFF715
:10323000C0E9184A28692621FFF7BAE9164CE08050
:10324000306800892081FFF7B8E960814004000CF4
:103250000121A08121800021618031680A890190CB
:1032600051180391E8682C2101AAFFF7A2E90B4845
:10327000E1880088FFF748E90949C870002004B0D8
:1032800070BD0000A00800B074B00004AC0000B035
:10329000500000B05C0000B0A00100B06EB00004AF
:1032A000680000B0F8B50024534D54482721006948
:1032B0006A46FFF77EE90098641CC00701D0AC4263
:1032C000F3D34F4D4F4E6888F1784F4F4F4C8842A3
:1032D0004BD12368242018816888E988B278484354
:1032E000310080189880B078F21C80180278F3784A
:1032F00012091B0712011B0F1A430270B07832002B
:10330000093A80188278C37812021A43521C130AB1
:103310008370C2703A68130E0371130C4371130A61
:103320008371C2712268081D9288121F8A712268F7
:103330009288121F1212CA7122689388083B0B727E
:103340009388083B1B124371108980188A78091DE5
:10335000FFF756E921682E488A8800681123FFF795
:1033600034E900206880206002E02068002819D13C
:103370002848FFF74AE9042814D800222548D243F8
:103380000021FFF712E911212060C180E2A3DDDDF9
:10339000010000009C3100A00002000001A591B0D6
:1033A00020300221C170216824200881002068801B
:1033B000B0782430A88003E01C490868401C0860ED
:1033C000206800281AD01A49096808606888EA88C5
:1033D0005043AA88801822681081E8890428288927
:1033E00002D16A898018FFE7088109480122006933
:1033F0000423FFF7F4E86888401C68800020E88117
:103400003868401C38600020F8BD0000FFFF000055
:10341000AC0000B0A00100B0680000B0340A00B0F9
:1034200080B0000464000004A00800B08CB0000468
:1034300074B00004002070470549012010B50870E1
:1034400009F0FCFA00F03AF8FFF7ECE810BD0000D4
:10345000580000047047102010B500F083F810BD2C
:1034600010B50CF049F810BD70B50500FFF7DEE8A7
:10347000002803D100F000F9002801D0012400E069
:103480000024002D02D0FFF7D6E800E00020204302
:1034900070BD0000042008B5FFF7D0E800280090B8
:1034A00006D004490160044801686846FFF7CAE88D
:1034B00008BD0000EF1300005058F403F8B5214890
:1034C0004569681C3DD01020FFF7B8E8002800903F
:1034D00037D01D49002402C0FF220A21FFF72AE845
:1034E00024E0E80720D0601E0D281DD8A000001998
:1034F000083800D5002001001A314F2903DD4F2183
:103500000E2C00D03520009A091A121D41188C4645
:1035100008E04607C108760F0127535CB740BB435C
:10352000401C53548445F4D86D08641C002DD8D138
:103530000098001D00F00CF8044801686846FFF789
:1035400082E8F8BD58000004011400005058F4034C
:10355000020003480A21012310B500F021F810BD34
:1035600089FC00000C4930B50400098800201422B1
:10357000114001D0012030BD084D0A224A435219A2
:10358000137A022B02D15288A242F3D3491C0904B8
:10359000090C0229F1D330BD4EB0000410FED593C2
:1035A00001000000983300A000020000F54D2F0D2F
:1035B000A4A40004FFB581B006000D003C292CD85E
:1035C0002F0009373806000EFFF74AE8040024D020
:1035D00020891649001901600021017114492A004F
:1035E000096841711149C7800830783901608680C7
:1035F00085710399C01DFFF718E80E480022006886
:1036000021000123FEF7F4EF0498002803D10021E4
:103610000120FFF72AE805B0F0BDB30512219B0D8C
:10362000B20A0420FFF724E8F5E700000A140000BE
:103630005058F403F00A00B0034810B500680022A7
:103640004B21FEF7CAEF10BDF00A00B070B5064C72
:10365000258800F03DF8054A20881388411BC918C9
:10366000401A1180208070BD04AA000406AA00043C
:103670000449054A497812780120914200D000207F
:1036800070470000000002A9000002A9024800885B
:103690004007C00F704700004EB000040300002038
:1036A0008B4201DA401E70479342FCDD01207047D7
:1036B00010B580242000641C2404240C00F008F8B9
:1036C000BF2CF7D901480421017010BD460B00B092
:1036D000F8B5002406008038104B11490004000C96
:1036E0001A5C0D880F4F52190A801C5411E0A0007B
:1036F0003D58A8880005000DB04207D11C3D2000B0
:10370000FEF7BAEF2800FEF7BCEF02E0641C2406C7
:10371000240E054800788442E9D3F8BD506A0004BD
:1037200004AA0004906A0004F8A9000410B5C17846
:10373000827809020A4324381C2143180181084970
:10374000C16103211971074909685971111D41842B
:103750000100054804230068FEF74AEF10BD000091
:103760000B1400004C58F403F00A00B00A4930B4BE
:103770000978002903D009490988002903D008499C
:10378000096830BC0847074A074C11788B00491C70
:10379000E050117030BC7047F7A9000404AA00047F
:1037A0000CAA0004F8A90004906A0004581A407694
:1037B00001000000943500A000020000ECB5F17D8E
:1037C00070B50B00C288052918D18188104C121DD4
:1037D000247809051204090D120C002C11D00C00DC
:1037E000803C3F2C0DD80B4C25886D1E25800A4C43
:1037F000611880390C78641C0C7002E0121F1204EE
:10380000120C010005481C390068FEF7FCEE70BD83
:10381000F7A9000404AA0004506A00046800000428
:10382000FEB56B4614000700080600161970062640
:1038300005005A7015F048F96B46010A9870D97066
:10384000010C1971000E5871044923000D703100EC
:1038500038006A46FFF7B8FEFEBD0000460B00B018
:1038600070B5060010781400E02886B004D120005E
:103870000CF0AEFD050000E011250021481EFEF70A
:103880000EEF2279E178A07803AB07C333006278AA
:1038900021780191FF21029221310E2002A2009590
:1038A000FEF700EF06B070BD52686262626262624B
:1038B0000000000007484178002909D1064909683D
:1038C000012209024270090F02002832515C817006
:1038D00080787047800700B0002000807D23DB00E7
:1038E000584310B511F0FEFA10BD03688B43134323
:1038F000036070470068704770470120704710B53B
:103900000C00FEF74CEE002103C410BD7047100000
:10391000802A10B502D1FEF742EE10BDFEF742EE4E
:1039200010BD10B511F0DEFA10BD01607047000047
:1039300003488168012292041143816070470000AE
:10394000009000A8F8B5012400253D4FB8880090EC
:1039500072E03C49E000411808784E78420660D594
:1039600003003F3BFEF7A2EE0A6B1E1E06130A0D74
:103970001C181C1F641C2404240C5DE0887838612A
:10398000F8E78878C978090201437981F2E72E487F
:103990002022FEF754EE03E088787870C878B8707B
:1039A000301947E0891C49281CD07F281AD0488844
:1039B000000B01D0088815E0087802008DE0EF6167
:1039C00001000000903700A000020000185D4FC009
:1039D000AF3A072A01D9BF280ED10A7AD30303438D
:1039E00010091B0400011B0C00021843B22803D16C
:1039F000497A0907090D0843184A002120320BE0D3
:103A000006234B43D35A834203D16D1E2D062D0E40
:103A100004E0491C0906090EA942F1D306235943C3
:103A20005052881844804671301904046D1C240CCF
:103A30002D062D0E0AE0022801D189783970012166
:103A4000002800D0310008190404240C0098844296
:103A500089D3F8BD001B00C0401D00C0402700C036
:103A600010B504001248134A0168126801209047FB
:103A700000281AD00122102C06D20F488168A240DB
:103A800011438160006907E00B484030416A103CF7
:103A9000A24011434162C06AE0400849C407096876
:103AA000E40F01208847200010BDFF2010BD00005A
:103AB00088A9000490A900040002009094A90004C1
:103AC0000749401E8A780749424388784978101888
:103AD000401829300006000E442800D343207047C8
:103AE000E4A90004EE0B00B0F8B50C0000270600B6
:103AF0001500401E00971528177034D81C20FEF7BB
:103B0000BCED002800902CD018490160217801728A
:103B1000C90747721CD0012E1AD9072E13D3617919
:103B2000102910D8A278617812021143818022797D
:103B3000E17812021143C18062794272A11D0A30FC
:103B4000FEF786ED04E0122028706846FEF7BCED13
:103B50002878002804D1064801686846FEF790EDF1
:103B6000F8BD072000E012202870F8BD0E140000F8
:103B70004C58F403F0B506000C001F00002585B07A
:103B800001F0C0FB002804D0012816D0022814D16F
:103B90000C25032E03D1A17860782A0002E01522BB
:103BA00000212800029101900392227800920021C6
:103BB000FF205B2304A2FEF780ED002038700A98F6
:103BC000057005B0F0BD000056626262F51F758396
:103BD000010000008C3900A000020000DF444D9D70
:103BE00062620000F3B50C0081B0344F7878002891
:103BF00004D02079FF2801D014F034FF2179304817
:103C0000FF29017109D17878002804D014F02AFF27
:103C1000012014F05BFE0020FEBD21780170617868
:103C20004170A1788170E178C17021790171617969
:103C30004171A1798171E179C171217A017200919B
:103C4000657A4572E17AA67A09020E434681217BA4
:103C50000173019912290CD3A27B617B12021143DB
:103C6000E27B237C12041B061A4311430161617C31
:103C700002E000210161042101751148019915300C
:103C80001C2905D321000A221231FEF7ECEC03E0D7
:103C9000FF220A21FEF776EC002E07D009496800C2
:103CA000085A864202D800980E2801D91220FEBD7B
:103CB000E806C00FB87014F0A1FEACE7FC0B00B032
:103CC000D8A000B03C5BF403FEB538234343554C09
:103CD0008E7A1C19CB7A4D7A1B021E430B7A2D0269
:103CE0002B430193A37C257C042B01D3002D79D198
:103CF0000B795700022B05D0032B36D0062B7FD132
:103D0000002058E07D2201005201012001F0B8FAA4
:103D1000002102206174009001980825112805D027
:103D2000132803D019286DD101250095207C002887
:103D300004D138212000FEF70EEC0FE000208100B6
:103D4000625A002A05D109194988002901D1E07475
:103D500004E0401C0006000E0428F0D3E07C810043
:103D60000819C6532574009849E0E07C80000319C7
:103D70000120002A00D000204000185AB0423FD154
:103D80000220012D03D101222074627404E0082D69
:103D900002D1092323746074087B002805D1487B75
:103DA000002802D1A07C401CA074E07C0199820014
:103DB0001019C15324E081000B19D95BB14212D113
:103DC0000121002A00D000214900595A019B994243
:103DD00009D18200111900220A804A80DF1DD650C5
:103DE00001000000883B00A0000200002BACF32083
:103DF000A17C491EA17405E016E0401C0006000EDF
:103E00000428E2D3002805D1082D05D0092D03D0C0
:103E100020746074002D08D0207C002805D10CF09F
:103E20008BFE00200CF094FEFEBD607C0128FBD1CF
:103E30000CF082FEFEBD0000AC1A00041CB5002090
:103E40000B49019000900400087020006A4601A907
:103E500000F064F8002801D000F04EF8641C24043F
:103E6000240C082CF1D3009901980CF07DFE1CBDA8
:103E70009C000004F1B500998A884E7B1005000D66
:103E800005000B2822D2920B00D00020164AC30056
:103E90009C182279002A19D0E5808A888968120B3B
:103EA000002300F071FC002E02D16079401C60718B
:103EB0000E480078012805D00D4801686846FEF7D5
:103EC000F4EBF8BD0098FEF718ECF8BD88680949D6
:103ED000096888476846FEF70CEC002EF5D10121F1
:103EE000280008F08DFBF8BDF8690004F4A900046F
:103EF000B85BF403C8B30004064810B50178002984
:103F000007D1012101707D2003490022C000FEF786
:103F1000F8EB10BD9C000004F3130000F8B50D0091
:103F2000002100913821160041431A4A8C180021C3
:103F300013F04AF800282AD0207DC11C8A07411CB2
:103F40008000001983698907920F890F002B0AD11D
:103F5000876A002F07D1920012199769002F02D1AA
:103F6000926A002A01D001220092002D08D0002E72
:103F700006D02A68D2182A603268806A1018306029
:103F800000228800001982618262627521750098A2
:103F9000F8BD0000AC1A000438B50400008901190E
:103FA00000910A7A052A0CD0082A01D0142A0CD1D3
:103FB000C87A097B09020843002100F0ABF8002809
:103FC00003D06846FEF794EB38BD0749086800281F
:103FD00002D10C6038BD080001680029FBD10460E3
:103FE0000020206038BD0000440800B05212FD419E
:103FF00001000000843D00A00002000032542D505A
:1040000070B504000E0000200AF0EAF90500FF2C4C
:1040100017D0112C01D1092100E00821220028002D
:104020000AF0DAFD00280CD0074800210470467021
:1040300081700121C170002128000AF083F800205E
:1040400070BD012070BD0000480800B00FB410B56D
:104050000A486B46197B01715A7B002A09D01989DD
:1040600001805989418003A94271891C801DFEF796
:104070000EEB10BC08BC04B0184700004C0800B0A0
:1040800070B5124D286800281ED02800083000792D
:10409000C00719D00E4E2968C8880C68022805D1BF
:1040A0002520425C3068921C022308E00889052321
:1040B00040188278C078000202433068121DFEF773
:1040C000CAEA002C2C60E6D170BD0000440800B0A4
:1040D0006800000470B50500074CE078002809D09E
:1040E000002D06D16078FF2803D12078012112F03D
:1040F00003FBA57070BD0000480800B038B504008F
:104100000820FEF7D8EA0028009007D00449016093
:104110000471044801686846FEF7D0EA38BD000023
:10412000101400004C58F403F7B582B005000027C6
:104130002F480468260053E0E188208902292FD106
:10414000049A0019002A01900BD0037BC27A1B024B
:104150001A43037A0498834240D195423ED1012705
:1041600029E0027A032A06D01B2A0AD1827AC07A71
:104170000002024302E0C27A007BF9E795422DD1AA
:1041800019E0122A0AD0202A28D10A3003990622DF
:10419000FDF7D0FE002821D1E1880AE00B30F5E7D9
:1041A000001902784078000202431005000DA84271
:1041B00014D1002912D00E4B20001A6894422268B4
:1041C00001D11A6000E032602468022903D101A8FD
:1041D000FEF798EA04E013F04DF901E026002468A8
:1041E000002C01D0002FA7D0380005B0F0BD000092
:1041F000440800B070B5104CA0780028E70621D71D
:1042000001000000803F00A000020000C6BC93ED4A
:104210001AD02078FF2817D0002112F077FA6078A2
:10422000FF2811D00AF0F4FB050028000AF040FC3A
:1042300061787D23DB0059438842F6D9207801213B
:1042400012F064FA0020A07070BD0000480800B0B1
:1042500038B50C00032812D10820FEF736EA0949C8
:104260000090016021780171A278617812021143F7
:10427000C180054801686846FEF72AEA38BD122069
:10428000107038BDFD0C0000B45BF40338B50C00B1
:1042900002280FD10820FEF718EA084900900160B3
:1042A0002178017161784171054801686846FEF71F
:1042B00010EA38BD1220107038BD0000F40C000068
:1042C000B45BF4033EB50C000C2810D1042221008D
:1042D00002A8FEF7E6E90822211D6846FEF7E0E99C
:1042E00002A800F057FE684600F06CFE3EBD1220AA
:1042F00010703EBD12230128137004D108780249C2
:1043000008700020107070474E20030010B50400A4
:10431000FEF70EEA0A21614308186038C07C0128C4
:1043200000D0002010BD000038B50C000D78497891
:1043300009020D43290080393F2907D82200104B7C
:1043400001001C680D480F4BA04738BD0820FEF740
:10435000BCE9FF217E31009001608580A1788171E8
:10436000A078290000F05EFF074801686846FEF764
:10437000B0E929000120FEF7C4E938BD75FC000052
:1043800024AB00043C6B0004B45BF40384461000CF
:10439000F8B5382362465A431A4BD4188A78C9783C
:1043A00009020A43217C012907D0022905D00829E6
:1043B00001D0092903D1022302E0012300E00023F8
:1043C0000121002800D000214E00A15B914206D1BE
:1043D000012B637402D101200CF0C2FBF8BD012156
:1043E0008D002D19AD5B954206D1012B6374F5D17B
:1043F00061460BF0D9FBF8BD491C0906090E0429DA
:10440000EED3F8BDAC1A0004F0B548201964AEC76D
:10441000010000007C4100A00002000023EBCEEA76
:1044200085B0FEF75CE93949029009681522C01D84
:10443000FEF740E902980025817D467D0902027E53
:104440000E43C17D120211430191417E0091C17E54
:10445000877E09020F433F21C41D81710520A0738F
:10446000E57325746574A574E07425756575A57587
:104470003C20E57520766576A076E5767D2025776B
:104480006077A577E577203425706070A5700020EF
:10449000E57000F089FC20716571A571E57100205F
:1044A000257200F081FC6072A572E5722573082008
:1044B0006573A073E5732074657401990806800F15
:1044C000039000F07FFCA074039800F07BFCE07484
:1044D000257501206575A075E07510202076607641
:1044E000300AA676E076380A277760770099A177B8
:1044F0000298074A817911700449C01D0860FEF7CF
:1045000026E902A8FEF712E905B0F0BDB0AA000442
:1045100070AA0004F0B5442085B0FEF7E0E8394900
:10452000029009681122C01DFEF7C4E80298002518
:10453000817C467C0902027D0E43C17C120211433C
:104540000191417D0091C17D877D09020F433B218F
:10455000C41D81710520A072E57225736573A57372
:10456000E07325746574A5743C20E5742075657549
:10457000A075E5757D2025766076A576E5762577AC
:104580006077A5770020E57700F00EFC20342070DE
:104590006570A570E5700020257100F005FC607164
:1045A000A571E571257208206572A072E57220730D
:1045B000657301990806800F039000F003FCA07357
:1045C000039800F0FFFBE073257401206574A0746C
:1045D000E074102020756075300AA675E075380A01
:1045E000277660760099A1760298074A8179117042
:1045F0000449C01D0860FEF7AEE802A8FEF796E881
:1046000005B0F0BDB0AA000470AA000410B5040003
:10461000FEF798E800210A224A431218D00EAE9203
:1046200001000000784300A000020000D70370578B
:104630005279002A03D00A000832A24204D1491C50
:104640000904090C0329F0D308310804000C10BD3B
:10465000F8B500240600154F25000021280012F0AF
:10466000DBFC00281AD0002E03D1641C2406240E83
:1046700014E0012E08D138206843C019007C0128BD
:10468000F3D00228F1D009E0022E07D13820684388
:10469000C019007C0828E8D00928E6D06D1C2D043C
:1046A0002D0C082DD9D32000F8BD0000AC1A000451
:1046B000002010B5FFF7CCFF10BD000070B501253C
:1046C000134C060063782A00002B00D00022A0784B
:1046D0002900002800D000218A4203D1802B01D07C
:1046E000607070BD002804D1002E02D1217800290D
:1046F00002D100F07BF970BDE0780028FBD10022E8
:104700000120044900031300E570FEF732E870BD94
:10471000580000040414000038B504000820FDF718
:10472000E8EF0028009007D00449016004710448B4
:1047300001686846FDF7E0EF38BD00000314000093
:104740004C58F40310B50400FEF716E8FE20002CC8
:1047500000D10120FFF7E0FF10BD00000100083983
:10476000022904D803494000085C012800D0002039
:10477000704700006E71000410B50400FDF7ECEF07
:104780000A21614308186038407D002800D00120CC
:1047900010BD00007CB504000820FDF7AAEF0C490D
:1047A00000900160002584800A4E8571316868465A
:1047B000FDF7A2EF0820FDF79CEF05490190491C89
:1047C000016084808571316801A8FDF796EF7CBD9A
:1047D0009E1300004C58F403FFB581B00600082872
:1047E0004FD23823734328480D781C184878CB786B
:1047F0000002054388781B029207677C1843920FDA
:10480000012A3ED0012806D000206074049A3000AE
:10481000FFF7D0FD03E0049A3000FFF787FA607CD1
:10482000320029000BF0B4F9049800282C93C866D4
:1048300001000000744500A000020000CEFBAE277E
:10484000207D05D080000019816A4919816204E049
:1048500080000019816949198161FFF77FFB607C45
:10486000B84218D0012801D1012700E00027012516
:10487000022800D0002531003800FDF78CEF310010
:10488000280000F007FD3100380002F087FD607C51
:1048900031000BF0A5F905B0F0BD0000AC1A000422
:1048A00038B54A780C78120214432200803A3F2A25
:1048B00007D80E4B0A0001001C680B480023A047D4
:1048C00038BD0820FDF71EEFFF217C31009001600C
:1048D0008480074801686846FDF718EF2100012031
:1048E000FDF72CEF38BD000074FC000024AB000481
:1048F000B45BF40370B5040008281CD20022110038
:104900002000FFF73DFBFFF7DDFE00280CD10A4D2C
:104910002878002808D009480021FDF740EF002042
:10492000010028700CF052F9382060430449401807
:104930003821FDF74CEE70BD9C000004F31300001D
:10494000AC1A000471B581B0019A274E9088946822
:104950000B2839D2254983001B1859188B78002B56
:1049600032D0FF23F73300921360009A2389D3805B
:104970000A79521C0A711E490978012905D01D487F
:1049800001686846FDF7C2EE1BE021891C230D1962
:104990005843194940181949407909688847009ACD
:1049A000A978D180AA78E91CFDF798EE0098FDF768
:1049B000FAEE2000FDF7BEEE306900221421FDF76B
:1049C00066EE002001907CBD2000FDF7B4EE30695A
:1049D00000221421FDF75AEE01980028F3D001A817
:1049E000FDF7B8EE7CBD000058000004C06A00046A
:1049F000F4A90004B85BF40310820004D8B30004E7
:104A000038B5040009F062FC0820FDF77CEE084987
:104A10000090002C016001D0002100E00121017113
:104A200004484470044801686846FDF770EE38BDDC
:104A3000CE0C000058000004C05BF403791C851103
:104A400001000000704700A0000200003A13109A15
:104A500038B50C000D78497809020D4329008039DA
:104A60003F2907D822000F4B01001C680C480E4B51
:104A7000A04738BD0820FDF750EEFF21803100909F
:104A800001608580A1788171E178C1710748016872
:104A90006846FDF746EE29000120FDF75AEE38BDC5
:104AA000E9FC000024AB00043C6B0004B45BF4039D
:104AB000026801231104090C9B07491C1A40114389
:104AC0000A009A43082A01D35940194001607047EF
:104AD000FEB5184C184E00221648D243009201220F
:104AE0000321283801ABFDF76CEE01980028F2D0C5
:104AF0000128F0D1FDF7EEFB104D070011E07068C2
:104B00000C230004000C584340190AD00278052AEF
:104B100005D291006158002901D0002A00D12168F6
:104B20008847706831688842E9D13800FDF7D6FBC4
:104B3000D1E700003CB300B0801300C0881300C070
:104B400001000348002210B5FDF73EEE10BD000045
:104B500014B300B00A4870B5002200680D21FDF7BB
:104B6000A0ED0AF019F8074D2C6804E060680028F1
:104B700000D080472468002CF8D10AF005F8F3E74C
:104B8000600000040C0800B0134810B5016808006C
:104B9000FF306130C28803231B039A43C280C2885E
:104BA00001231B031A43C2801622CA840B4ACA87F8
:104BB000018840221143018009480078012802D170
:104BC000002011F0DDF9074948680A0C904348605D
:104BD00011F08CFA10BD000000AF0004408000000E
:104BE000EE0B00B040230080F7B51300140415004D
:104BF0003E4E0700240C3668010082B0039A30A0B4
:104C0000B04703993800FDF7F8EC002955D1039817
:104C1000854234DD03992800FDF7DAED681A334E3A
:104C200004043268240C210031A0904723E003994A
:104C30002000FDF7E2EC002919D1002F3DD02B4ECA
:104C4000009736682B00039A210033A03D07773E7A
:104C5000010000006C4900A000020000FD0A12C71C
:104C6000B047BC4205D939002000FDF7D0EC00293F
:104C70002DD0BC4205D821003800FDF7C8EC002932
:104C800025D00398201A0404240C03988442D8D217
:104C90001DE01B4A00261268290034A0904710E04E
:104CA000174B019A1B6839003AA0984701993800C0
:104CB000FDF7ACEC002901D1019C08E0B61C3604DC
:104CC000360CA81B0004000C06280190E8D2200036
:104CD00005B0F0BD756954736E6966662025642C55
:104CE000207569546573636F2025642C20756954A1
:104CF000617267657454736E6966662025640A0084
:104D0000D8A900044361736520313A20496E697463
:104D100069616C2075694E6577546172676574547A
:104D2000736E696666203D2025640A0075694E65CC
:104D30007754617267657454736E69666620256482
:104D4000207569546573636F20256420756954610B
:104D50007267657454736E69666620256420756990
:104D600054736E6966662025640A000043617365AA
:104D700020323A20496E697469616C20756954610A
:104D80007267657454736E696666203D2025640AF7
:104D9000000000004361736520323A207569547346
:104DA0006E696666202564207544697669736F7242
:104DB000202564203D2025640A000000F8B5060087
:104DC0000F00FDF714ED05000C20FDF7B0EC882175
:104DD000714300904D19E91D062280C0FDF792EC49
:104DE0000099287D8872034801686846FDF7A2ECA7
:104DF000F8BD000070AC0004002807D0012803D0E3
:104E0000022805D0032800D00020704702207047F8
:104E100001207047002807D0012807D0022807D0BA
:104E2000032807D1042070470120704702207047F3
:104E30000320704700207047FEB5FDF7DCEC05004D
:104E40008007800FFFF7D8FF0D490C4E01900968CD
:104E500030008847012801D0012400E0A4B5C01B20
:104E600001000000684B00A00002000009E2AC7ADB
:104E7000002409497D270968BF0130008847074B96
:104E8000009021001C683A0001982B00A047FEBD4D
:104E9000FFFF000028B5000424B5000434B5000469
:104EA0000C2358430149401800897047C49900B049
:104EB000F8B506000020FDF7ACEC0F4F0500796B4C
:104EC0000024884203D00D48C562FDF7A6EC082EE9
:104ED0007D630CD0102E06D0FDF79EEC0406FDF786
:104EE0009CEC00040443FDF798EC00020443FDF73A
:104EF00094EC2043F8BD00003820030080AC00048F
:104F000038B504002AD016481C2340881549584358
:104F100040180079A04221D11348007800281DD004
:104F200012490120C874FDF77CEC11496000096842
:104F30004018018D022211430185FDF776ECD12541
:104F40002D0121002800FDF774EC0A4829000268B1
:104F50000092220004200023FDF76EEC38BD000013
:104F6000E0AC0004108200044CAF000438200300C1
:104F7000B0AE0004C05BF4031C235843134910B5C2
:104F800040180079124C002809D1E17E1148FDF744
:104F900058EC1048E17F0838FDF752EC10BD0D4881
:104FA000617F001FFDF74CEC0320FDF74EEC00285D
:104FB000F4D1094800680188490849000180074880
:104FC0000068018849084900018010BD1082000472
:104FD0004083000404AD0004ACAE000498AE0004AD
:104FE000F8B505000E001700FDF70AEC88216943AB
:104FF0000C182034A07C012806D13A00310028008A
:10500000FDF726EC0020A074F8BD0000017842787E
:10501000C907D206C90F920E11438278C078D20711
:10502000D20DC0061143800C014303480068FF30D5
:10503000FF30801CC183704700AF00040178CA07AD
:105040004178D20FC906890E0A438178C906490DF5
:105050000A43C178C9020A430A490B681121490170
:1050600059180A8002794379D207DB0627B46630E3
:1050700001000000644D00A000020000101A720A36
:10508000D20F9B0E1A438379C079DB065B0D1A435E
:10509000C00202434A80704700AF000402494881C1
:1050A0000249088070470000EE0B00B098AD000484
:1050B0000849C97900290BD00749FF220968521C09
:1050C00040310028888801D0104300E09043888058
:1050D0007047000040660004E0AE0004F8B50C0024
:1050E000070015001E00FDF7C2EB74217943081874
:1050F0004030818A2180418B2980C08B3080F8BD6F
:1051000010B50400FDF7B2EB74216143425C002A44
:1051100006D0081840300079032801D1012010BDC5
:10512000002010BDF3B5040083B02F4D687901282D
:105130003FD12E4B00201A68C100565A3607360F51
:105140000A2E04D1565A36093601761C5652401C96
:105150000004000C0E28EED3AE89012040028642E6
:1051600001D9060002E0402E00D240260020FDF7C3
:105170005AEB07001020FFF7A5FE3100FDF75AEAB1
:10518000781886011A48B609EE640068008FC107D6
:10519000184800D001210174017C0172AA89E989B3
:1051A000019200912B7C144D01222D6831000C20BE
:1051B000A84712480078002813D00820FDF7CAEA53
:1051C000FF215C31029001602178017161784171A9
:1051D000A17881710499C1710948016802A8FDF79D
:1051E000BEEA05B0F0BD000004A10004A4AE0004B6
:1051F00000AF000444A10004CCB5000438AD0004A5
:1052000070AC000410B504000020FDF734EBFF2162
:10521000193161430818817C002901D00D2905D17D
:1052200040300078002803D0092801D0012010BDAB
:10523000002010BD042008B5FDF78CEA0449009059
:105240000160044801686846FDF788EA08BD00006F
:10525000A40F00003058F40370B504000C4E008A0F
:1052600001252A00B1788240114203D0FDF706EBF8
:10527000607600E06576208A290072781A4A0FADC0
:1052800001000000604F00A000020000E4F2CCB773
:1052900081402B000A4203D0FDF7FEEA207670BD64
:1052A000237670BD10A4000470B50D001400012A0F
:1052B00007D9401B0019401E2100FDF7C6E94443F1
:1052C000601970BD0122054B8A40597D002802D02B
:1052D0000A435A7570479143597570473820030047
:1052E00010B5FDF75CE92021081A0004000C02D07B
:1052F000401E0004000C10BD10B50C00002814D096
:105300002000FDF7CEEA00280FD01C20604307499B
:1053100040180079002808D10548005D002804D114
:10532000012212212000FDF7C0EA10BD1082000406
:1053300098AF000400B5008AFFF7C6FD904201D97E
:10534000012000BD002000BD0100034810B5007819
:10535000FDF7AEEA10BD00005820030070B516003E
:1053600001228A408C000949074D0B78002805D09E
:105370001A430A70FDF7A0EA801902E09343002067
:105380000B70285170BD0000149900B05820030024
:1053900030B50122054D064B285C9C6882400029EF
:1053A00001D0144300E094439C6030BDA0AF0004E2
:1053B00050A000040122054B8A40D97F002802D06A
:1053C0000A43DA7770479143D97770473820030052
:1053D0000978074A012907D0022905D0032901D1FC
:1053E000012801D000207047012011707047000093
:1053F000380800B018B500240878F12807D0F22842
:1054000005D10320009001206946FFF7E1FF20004D
:1054100018BD0000F8B505000600104F0C003878E4
:105420001C3E002808D00E480079C00709D0022091
:1054300009F0ACFB002804D03000F480FEF710FE29
:10544000F8BDFEF731FFFEF775FE6A7A3869921CE7
:1054500023003100FDF758E9F8BD000058000004B2
:105460004C0800B0F8B5150006000A4C3020217831
:105470001A004843084B069FC018491C3060217031
:1054800000922B003A00611CFDF71AEA00D9913115
:10549000010000005C5100A0000200009AE96B07C7
:1054A0000006000EF8BD000074000004449600B031
:1054B0000C49002010B508700B48416900290FD134
:1054C00001214161002000F0B5F8002801D100F071
:1054D00053FA00F0A1F8002000F07CF8FEF7BEFAC5
:1054E00010BD0000402700C0001B00C0002310B505
:1054F0001A00837004E0845CE3181B061B0E521C28
:105500008A42F8D30121C91A817010BDFFB5FF216D
:1055100000240500491C204881B0FDF794E81E4A8C
:10552000286808211060042029E02B5CE340A41CBB
:105530009B0724069B0F240E082C03D1401C00243B
:105540000006000E032B12D12B5C002C04D1401C52
:105550000006000E53540FE0401CE3400006000E0E
:10556000082753542E5C3F1BBE401E4303E0FF261A
:10557000022B00D01E005654491C0906090E029B3E
:105580009842D2D30498017003980260049800787E
:10559000508005B0F0BD0000401B00C00B4910B5A5
:1055A0000888702210430880094B002005240A88CF
:1055B0001A400A800A8822430A80401C3C28F6DBF5
:1055C00008882F22D2431040088010BD2406009086
:1055D000F0FF0000F8B504000D4D0E4F13E0A001E0
:1055E000060000F027F800280AD0300000F088F903
:1055F0002A89D300DB1903C3601C521CE8802A816E
:10560000641C2404240CA8888442E8D3F8BD00005C
:10561000001B00C0401D00C00249FF2040308880B0
:1056200070470000001B00C001484089704700001F
:10563000001B00C010B50400FBF77AFF002120001A
:1056400000F00EF805480088800701D5012400E02D
:105650000024FBF793FF200010BD00001806009007
:105660000C4A1369984209D010610B4B0204920D49
:105670001A80094A8006800E2032108008010649EF
:10568000401C0C3108800449091D08880004FCD521
:1056900070470000201B00C01C060090F73720BB9D
:1056A00001000000585300A0000200006E01D5BAAE
:1056B000F8B5144D2888702108432880124F002423
:1056C00026003B20021B11493800FCF752ECC007B2
:1056D000C00F3100001871418100014328880F225A
:1056E000D243104008432880288805210843288099
:1056F000641C3C2CE5DB28882F21C9430840288006
:10570000F8BD000024060090C61A6BACB1C61A0B97
:10571000FFB5C3B0684600F093F800282DD06B4663
:105720005C884498844228D800256E4605E070596C
:10573000FDF7DEE8439948512D1DA542F7D3459862
:105740002018FDF7D6E84399486043982100FFF7F9
:10575000D7FE3848002762E009065DD53549449BED
:1057600040184088C1003448081881880A0B0E058B
:10577000360DA1199942419202D9012047B0F0BDDE
:10578000002A02D1801C42900EE02C4B9200310680
:10579000D218090E801C403AD56B40AA41ABA847ED
:1057A000409840AB42901E79006880218843FDF705
:1057B000A0E843990425085109E04299A80880000F
:1057C0000858FDF796E8439A61192D1D5050B542CF
:1057D000F3D318497D1C02E0000607D46D1C202D70
:1057E00004D206206843085C0028F5D10020C0439D
:1057F000202D07D006226A43895C002902D04598F3
:10580000A1190818FDF774E80100439800194160D8
:105810003100FFF775FEA4197F1C202F05D206204A
:105820007843044A115C002996D1469804800020F0
:10583000A4E70000602700C0401D00C0181B00C086
:105840007CB504000020184A002C2AD024E00D2941
:105850001FD106235843154980184088C0004018BE
:105860008288110B01D1811C0EE01106104B120B26
:105870009200D218090E801C403AD56B6A4601ABE3
:10588000A8476B461A7900992000FCF76EEF0120BB
:105890007CBD401C202804DA06214143515C0029CC
:1058A000D5D100207CBD0000602700C005AC9F67FB
:1058B00001000000545500A00002000077F90BCA57
:1058C000401D00C0181B00C070B506000D0000F0A0
:1058D0000DF80C00FDF716E80004000C3060200005
:1058E000FDF710E82860012070BD00000C4A002080
:1058F0000DE07F2908D1062358430A4980184088C3
:10590000C000411803C97047401C202804DA062152
:105910004143515C0029ECD10020C0430100704795
:10592000602700C0401D00C0002110B500F002F843
:1059300010BD0000F8B5002406000F002500FBF79D
:105940000BFE39003000FFF79FFE0E48C0680028AC
:1059500012D10D480488E217001D0388DD17001DD1
:105960000188001D00881E0C2D04354315431B04BF
:105970000D4300041C430543FBF714FE20002900DF
:10598000F8BD0000201B00C0080600900248034933
:105990000068086370470000201B00C000210080E1
:1059A00010B50400FBF7D8FD2000FFF757FEFFF706
:1059B00089FE02212000FFF767FEFFF703FEFBF7D9
:1059C000F1FD10BD0A4810B5006B0A4908600BF0E4
:1059D000F3F80A49084808800948091D0880091D8C
:1059E0000888072252031040064A1043088010BD61
:1059F00000210080201B00C0809800002C06009031
:105A00003F4900003F090000F8B504681748218AA3
:105A1000C07EFCF76CEF4421095D052925D10028E3
:105A200023D0208A1249085C03281ED1114D14236B
:105A30006878114E58430B278019FF01C019016A7D
:105A4000200001F0B5FDA878142358438019C0192F
:105A5000016A200001F0ACFD287914235843801915
:105A6000C019016A200001F0A3FDF8BDD0A0000418
:105A700098AF0004A0AF00045099000470B5002155
:105A80000648FCF708EF064D0448002421001230B8
:105A90006C74FCF700EF2C7670BD0000C30B0000A7
:105AA000C0AC0004FFB585B008980168002005006F
:105AB0000090394803910280039941604E2CD9A689
:105AC00001000000505700A0000200008311B577CC
:105AD0000A2068433649461870884408F07900283F
